{
	"Contract_Templates/Tanda.sol": {
		"Tanda": {
			"abi": [
				{
					"inputs": [
						{
							"internalType": "uint256",
							"name": "_numMembers",
							"type": "uint256"
						},
						{
							"internalType": "uint256",
							"name": "_contributionFrequencyInWeeks",
							"type": "uint256"
						},
						{
							"internalType": "uint256",
							"name": "_distributionIntervalInWeeks",
							"type": "uint256"
						},
						{
							"internalType": "uint256",
							"name": "_contributionAmountInWei",
							"type": "uint256"
						},
						{
							"internalType": "address[]",
							"name": "_members",
							"type": "address[]"
						}
					],
					"stateMutability": "nonpayable",
					"type": "constructor"
				},
				{
					"inputs": [],
					"name": "allPaidOut",
					"outputs": [
						{
							"internalType": "bool",
							"name": "",
							"type": "bool"
						}
					],
					"stateMutability": "view",
					"type": "function"
				},
				{
					"inputs": [],
					"name": "confirmContributionAmount",
					"outputs": [
						{
							"internalType": "uint256",
							"name": "",
							"type": "uint256"
						}
					],
					"stateMutability": "view",
					"type": "function"
				},
				{
					"inputs": [
						{
							"internalType": "address",
							"name": "member_address",
							"type": "address"
						}
					],
					"name": "confirmWhoHasContributed",
					"outputs": [
						{
							"internalType": "bool",
							"name": "",
							"type": "bool"
						}
					],
					"stateMutability": "view",
					"type": "function"
				},
				{
					"inputs": [],
					"name": "contribute",
					"outputs": [],
					"stateMutability": "payable",
					"type": "function"
				},
				{
					"inputs": [],
					"name": "finalizeCycle",
					"outputs": [],
					"stateMutability": "nonpayable",
					"type": "function"
				},
				{
					"inputs": [],
					"name": "triggerDistribution",
					"outputs": [],
					"stateMutability": "nonpayable",
					"type": "function"
				},
				{
					"stateMutability": "payable",
					"type": "receive"
				}
			],
			"devdoc": {
				"kind": "dev",
				"methods": {
					"constructor": {
						"params": {
							"_contributionAmountInWei": "Amount each member contributes per interval, in wei                                      (e.g., 0.05 ether = 50000000000000000 wei).",
							"_contributionFrequencyInWeeks": "How often they must contribute (in weeks)",
							"_distributionIntervalInWeeks": "How often the pot should be distributed (in weeks)",
							"_members": "Array of member addresses (must match _numMembers in length)",
							"_numMembers": "Number of participants in the tanda"
						}
					}
				},
				"stateVariables": {
					"contributionAmount": {
						"details": "How much each member must contribute at each interval, stored in wei.      However, you can specify this value in the constructor as decimal Ether       (e.g., 0.002 ether, 0.5 ether, 1 ether, etc.)."
					},
					"contributionFrequencyInWeeks": {
						"details": "How often each member must contribute, in weeks"
					},
					"contributionsThisCycle": {
						"details": "How many total contributions have been made this cycle"
					},
					"cycleCount": {
						"details": "Count of completed contribution cycles"
					},
					"cycleStartTime": {
						"details": "Timestamp for when the current contribution cycle started"
					},
					"distributionIntervalInWeeks": {
						"details": "Interval (in weeks) at which the pot is distributed"
					},
					"hasContributedThisCycle": {
						"details": "Tracks whether a member has contributed in the current cycle"
					},
					"hasReceivedPayout": {
						"details": "Tracks whether a member has received their one-time payout"
					},
					"members": {
						"details": "List of all members’ addresses"
					},
					"nextDistributionTime": {
						"details": "Next timestamp at or after which a distribution can occur"
					},
					"nextPayoutIndex": {
						"details": "Index for picking the next unpaid member in the `members` array"
					},
					"numMembers": {
						"details": "Number of participants in the tanda"
					}
				},
				"version": 1
			},
			"evm": {
				"assembly": "    /* \"Contract_Templates/Tanda.sol\":58:8947  contract Tanda {... */\n  mstore(0x40, 0x80)\n    /* \"Contract_Templates/Tanda.sol\":2168:3404  constructor(... */\n  callvalue\n  dup1\n  iszero\n  tag_1\n  jumpi\n  0x00\n  dup1\n  revert\ntag_1:\n  pop\n  mload(0x40)\n  sub(codesize, bytecodeSize)\n  dup1\n  bytecodeSize\n  dup4\n  codecopy\n  dup2\n  dup2\n  add\n  0x40\n  mstore\n  dup2\n  add\n  swap1\n  tag_2\n  swap2\n  swap1\n  tag_3\n  jump\t// in\ntag_2:\n    /* \"Contract_Templates/Tanda.sol\":2470:2481  _numMembers */\n  dup5\n    /* \"Contract_Templates/Tanda.sol\":2451:2459  _members */\n  dup2\n    /* \"Contract_Templates/Tanda.sol\":2451:2466  _members.length */\n  mload\n    /* \"Contract_Templates/Tanda.sol\":2451:2481  _members.length == _numMembers */\n  eq\n    /* \"Contract_Templates/Tanda.sol\":2443:2513  require(_members.length == _numMembers, \"Members array size mismatch\") */\n  tag_6\n  jumpi\n  mload(0x40)\n  0x08c379a000000000000000000000000000000000000000000000000000000000\n  dup2\n  mstore\n  0x04\n  add\n  tag_7\n  swap1\n  tag_8\n  jump\t// in\ntag_7:\n  mload(0x40)\n  dup1\n  swap2\n  sub\n  swap1\n  revert\ntag_6:\n    /* \"Contract_Templates/Tanda.sol\":2528:2537  uint256 i */\n  0x00\n    /* \"Contract_Templates/Tanda.sol\":2523:2650  for (uint256 i = 0; i < _numMembers; i++) {... */\ntag_9:\n    /* \"Contract_Templates/Tanda.sol\":2547:2558  _numMembers */\n  dup6\n    /* \"Contract_Templates/Tanda.sol\":2543:2544  i */\n  dup2\n    /* \"Contract_Templates/Tanda.sol\":2543:2558  i < _numMembers */\n  lt\n    /* \"Contract_Templates/Tanda.sol\":2523:2650  for (uint256 i = 0; i < _numMembers; i++) {... */\n  iszero\n  tag_10\n  jumpi\n    /* \"Contract_Templates/Tanda.sol\":2610:2611  0 */\n  0x00\n    /* \"Contract_Templates/Tanda.sol\":2587:2612  _members[i] != address(0) */\n  0xffffffffffffffffffffffffffffffffffffffff\n  and\n    /* \"Contract_Templates/Tanda.sol\":2587:2595  _members */\n  dup3\n    /* \"Contract_Templates/Tanda.sol\":2596:2597  i */\n  dup3\n    /* \"Contract_Templates/Tanda.sol\":2587:2598  _members[i] */\n  dup2\n  mload\n  dup2\n  lt\n  tag_12\n  jumpi\n  tag_13\n  tag_14\n  jump\t// in\ntag_13:\ntag_12:\n  0x20\n  mul\n  0x20\n  add\n  add\n  mload\n    /* \"Contract_Templates/Tanda.sol\":2587:2612  _members[i] != address(0) */\n  0xffffffffffffffffffffffffffffffffffffffff\n  and\n  sub\n    /* \"Contract_Templates/Tanda.sol\":2579:2639  require(_members[i] != address(0), \"Invalid member address\") */\n  tag_15\n  jumpi\n  mload(0x40)\n  0x08c379a000000000000000000000000000000000000000000000000000000000\n  dup2\n  mstore\n  0x04\n  add\n  tag_16\n  swap1\n  tag_17\n  jump\t// in\ntag_16:\n  mload(0x40)\n  dup1\n  swap2\n  sub\n  swap1\n  revert\ntag_15:\n    /* \"Contract_Templates/Tanda.sol\":2560:2563  i++ */\n  dup1\n  dup1\n  0x01\n  add\n  swap2\n  pop\n  pop\n    /* \"Contract_Templates/Tanda.sol\":2523:2650  for (uint256 i = 0; i < _numMembers; i++) {... */\n  jump(tag_9)\ntag_10:\n  pop\n    /* \"Contract_Templates/Tanda.sol\":2681:2692  _numMembers */\n  dup5\n    /* \"Contract_Templates/Tanda.sol\":2668:2678  numMembers */\n  0x00\n    /* \"Contract_Templates/Tanda.sol\":2668:2692  numMembers = _numMembers */\n  dup2\n  swap1\n  sstore\n  pop\n    /* \"Contract_Templates/Tanda.sol\":2733:2762  _contributionFrequencyInWeeks */\n  dup4\n    /* \"Contract_Templates/Tanda.sol\":2702:2730  contributionFrequencyInWeeks */\n  0x01\n    /* \"Contract_Templates/Tanda.sol\":2702:2762  contributionFrequencyInWeeks = _contributionFrequencyInWeeks */\n  dup2\n  swap1\n  sstore\n  pop\n    /* \"Contract_Templates/Tanda.sol\":2802:2830  _distributionIntervalInWeeks */\n  dup3\n    /* \"Contract_Templates/Tanda.sol\":2772:2799  distributionIntervalInWeeks */\n  0x03\n    /* \"Contract_Templates/Tanda.sol\":2772:2830  distributionIntervalInWeeks = _distributionIntervalInWeeks */\n  dup2\n  swap1\n  sstore\n  pop\n    /* \"Contract_Templates/Tanda.sol\":3045:3069  _contributionAmountInWei */\n  dup2\n    /* \"Contract_Templates/Tanda.sol\":3024:3042  contributionAmount */\n  0x02\n    /* \"Contract_Templates/Tanda.sol\":3024:3069  contributionAmount = _contributionAmountInWei */\n  dup2\n  swap1\n  sstore\n  pop\n    /* \"Contract_Templates/Tanda.sol\":3098:3106  _members */\n  dup1\n    /* \"Contract_Templates/Tanda.sol\":3088:3095  members */\n  0x04\n    /* \"Contract_Templates/Tanda.sol\":3088:3106  members = _members */\n  swap1\n  dup1\n  mload\n  swap1\n  0x20\n  add\n  swap1\n  tag_18\n  swap3\n  swap2\n  swap1\n  tag_19\n  jump\t// in\ntag_18:\n  pop\n    /* \"Contract_Templates/Tanda.sol\":3194:3209  block.timestamp */\n  timestamp\n    /* \"Contract_Templates/Tanda.sol\":3177:3191  cycleStartTime */\n  0x07\n    /* \"Contract_Templates/Tanda.sol\":3177:3209  cycleStartTime = block.timestamp */\n  dup2\n  swap1\n  sstore\n  pop\n    /* \"Contract_Templates/Tanda.sol\":3291:3298  1 weeks */\n  0x093a80\n    /* \"Contract_Templates/Tanda.sol\":3261:3288  distributionIntervalInWeeks */\n  sload(0x03)\n    /* \"Contract_Templates/Tanda.sol\":3261:3298  distributionIntervalInWeeks * 1 weeks */\n  tag_20\n  swap2\n  swap1\n  tag_21\n  jump\t// in\ntag_20:\n    /* \"Contract_Templates/Tanda.sol\":3242:3257  block.timestamp */\n  timestamp\n    /* \"Contract_Templates/Tanda.sol\":3242:3299  block.timestamp + (distributionIntervalInWeeks * 1 weeks) */\n  tag_22\n  swap2\n  swap1\n  tag_23\n  jump\t// in\ntag_22:\n    /* \"Contract_Templates/Tanda.sol\":3219:3239  nextDistributionTime */\n  0x09\n    /* \"Contract_Templates/Tanda.sol\":3219:3299  nextDistributionTime = block.timestamp + (distributionIntervalInWeeks * 1 weeks) */\n  dup2\n  swap1\n  sstore\n  pop\n    /* \"Contract_Templates/Tanda.sol\":3331:3332  0 */\n  0x00\n    /* \"Contract_Templates/Tanda.sol\":3318:3328  cycleCount */\n  0x08\n    /* \"Contract_Templates/Tanda.sol\":3318:3332  cycleCount = 0 */\n  dup2\n  swap1\n  sstore\n  pop\n    /* \"Contract_Templates/Tanda.sol\":3367:3368  0 */\n  0x00\n    /* \"Contract_Templates/Tanda.sol\":3342:3364  contributionsThisCycle */\n  0x06\n    /* \"Contract_Templates/Tanda.sol\":3342:3368  contributionsThisCycle = 0 */\n  dup2\n  swap1\n  sstore\n  pop\n    /* \"Contract_Templates/Tanda.sol\":3396:3397  0 */\n  0x00\n    /* \"Contract_Templates/Tanda.sol\":3378:3393  nextPayoutIndex */\n  0x0b\n    /* \"Contract_Templates/Tanda.sol\":3378:3397  nextPayoutIndex = 0 */\n  dup2\n  swap1\n  sstore\n  pop\n    /* \"Contract_Templates/Tanda.sol\":2168:3404  constructor(... */\n  pop\n  pop\n  pop\n  pop\n  pop\n    /* \"Contract_Templates/Tanda.sol\":58:8947  contract Tanda {... */\n  jump(tag_24)\ntag_19:\n  dup3\n  dup1\n  sload\n  dup3\n  dup3\n  sstore\n  swap1\n  0x00\n  mstore\n  keccak256(0x00, 0x20)\n  swap1\n  dup2\n  add\n  swap3\n  dup3\n  iszero\n  tag_25\n  jumpi\n  swap2\n  0x20\n  mul\n  dup3\n  add\ntag_26:\n  dup3\n  dup2\n  gt\n  iszero\n  tag_27\n  jumpi\n  dup3\n  mload\n  dup3\n  exp(0x0100, 0x00)\n  dup2\n  sload\n  dup2\n  0xffffffffffffffffffffffffffffffffffffffff\n  mul\n  not\n  and\n  swap1\n  dup4\n  0xffffffffffffffffffffffffffffffffffffffff\n  and\n  mul\n  or\n  swap1\n  sstore\n  pop\n  swap2\n  0x20\n  add\n  swap2\n  swap1\n  0x01\n  add\n  swap1\n  jump(tag_26)\ntag_27:\ntag_25:\n  pop\n  swap1\n  pop\n  tag_28\n  swap2\n  swap1\n  tag_29\n  jump\t// in\ntag_28:\n  pop\n  swap1\n  jump\t// out\ntag_29:\ntag_30:\n  dup1\n  dup3\n  gt\n  iszero\n  tag_31\n  jumpi\n  0x00\n  dup2\n  0x00\n  swap1\n  sstore\n  pop\n  0x01\n  add\n  jump(tag_30)\ntag_31:\n  pop\n  swap1\n  jump\t// out\n    /* \"#utility.yul\":7:82   */\ntag_32:\n    /* \"#utility.yul\":40:46   */\n  0x00\n    /* \"#utility.yul\":73:75   */\n  0x40\n    /* \"#utility.yul\":67:76   */\n  mload\n    /* \"#utility.yul\":57:76   */\n  swap1\n  pop\n    /* \"#utility.yul\":7:82   */\n  swap1\n  jump\t// out\n    /* \"#utility.yul\":88:205   */\ntag_33:\n    /* \"#utility.yul\":197:198   */\n  0x00\n    /* \"#utility.yul\":194:195   */\n  dup1\n    /* \"#utility.yul\":187:199   */\n  revert\n    /* \"#utility.yul\":211:328   */\ntag_34:\n    /* \"#utility.yul\":320:321   */\n  0x00\n    /* \"#utility.yul\":317:318   */\n  dup1\n    /* \"#utility.yul\":310:322   */\n  revert\n    /* \"#utility.yul\":334:411   */\ntag_35:\n    /* \"#utility.yul\":371:378   */\n  0x00\n    /* \"#utility.yul\":400:405   */\n  dup2\n    /* \"#utility.yul\":389:405   */\n  swap1\n  pop\n    /* \"#utility.yul\":334:411   */\n  swap2\n  swap1\n  pop\n  jump\t// out\n    /* \"#utility.yul\":417:539   */\ntag_36:\n    /* \"#utility.yul\":490:514   */\n  tag_63\n    /* \"#utility.yul\":508:513   */\n  dup2\n    /* \"#utility.yul\":490:514   */\n  tag_35\n  jump\t// in\ntag_63:\n    /* \"#utility.yul\":483:488   */\n  dup2\n    /* \"#utility.yul\":480:515   */\n  eq\n    /* \"#utility.yul\":470:533   */\n  tag_64\n  jumpi\n    /* \"#utility.yul\":529:530   */\n  0x00\n    /* \"#utility.yul\":526:527   */\n  dup1\n    /* \"#utility.yul\":519:531   */\n  revert\n    /* \"#utility.yul\":470:533   */\ntag_64:\n    /* \"#utility.yul\":417:539   */\n  pop\n  jump\t// out\n    /* \"#utility.yul\":545:688   */\ntag_37:\n    /* \"#utility.yul\":602:607   */\n  0x00\n    /* \"#utility.yul\":633:639   */\n  dup2\n    /* \"#utility.yul\":627:640   */\n  mload\n    /* \"#utility.yul\":618:640   */\n  swap1\n  pop\n    /* \"#utility.yul\":649:682   */\n  tag_66\n    /* \"#utility.yul\":676:681   */\n  dup2\n    /* \"#utility.yul\":649:682   */\n  tag_36\n  jump\t// in\ntag_66:\n    /* \"#utility.yul\":545:688   */\n  swap3\n  swap2\n  pop\n  pop\n  jump\t// out\n    /* \"#utility.yul\":694:811   */\ntag_38:\n    /* \"#utility.yul\":803:804   */\n  0x00\n    /* \"#utility.yul\":800:801   */\n  dup1\n    /* \"#utility.yul\":793:805   */\n  revert\n    /* \"#utility.yul\":817:919   */\ntag_39:\n    /* \"#utility.yul\":858:864   */\n  0x00\n    /* \"#utility.yul\":909:911   */\n  0x1f\n    /* \"#utility.yul\":905:912   */\n  not\n    /* \"#utility.yul\":900:902   */\n  0x1f\n    /* \"#utility.yul\":893:898   */\n  dup4\n    /* \"#utility.yul\":889:903   */\n  add\n    /* \"#utility.yul\":885:913   */\n  and\n    /* \"#utility.yul\":875:913   */\n  swap1\n  pop\n    /* \"#utility.yul\":817:919   */\n  swap2\n  swap1\n  pop\n  jump\t// out\n    /* \"#utility.yul\":925:1105   */\ntag_40:\n    /* \"#utility.yul\":973:1050   */\n  0x4e487b7100000000000000000000000000000000000000000000000000000000\n    /* \"#utility.yul\":970:971   */\n  0x00\n    /* \"#utility.yul\":963:1051   */\n  mstore\n    /* \"#utility.yul\":1070:1074   */\n  0x41\n    /* \"#utility.yul\":1067:1068   */\n  0x04\n    /* \"#utility.yul\":1060:1075   */\n  mstore\n    /* \"#utility.yul\":1094:1098   */\n  0x24\n    /* \"#utility.yul\":1091:1092   */\n  0x00\n    /* \"#utility.yul\":1084:1099   */\n  revert\n    /* \"#utility.yul\":1111:1392   */\ntag_41:\n    /* \"#utility.yul\":1194:1221   */\n  tag_71\n    /* \"#utility.yul\":1216:1220   */\n  dup3\n    /* \"#utility.yul\":1194:1221   */\n  tag_39\n  jump\t// in\ntag_71:\n    /* \"#utility.yul\":1186:1192   */\n  dup2\n    /* \"#utility.yul\":1182:1222   */\n  add\n    /* \"#utility.yul\":1324:1330   */\n  dup2\n    /* \"#utility.yul\":1312:1322   */\n  dup2\n    /* \"#utility.yul\":1309:1331   */\n  lt\n    /* \"#utility.yul\":1288:1306   */\n  0xffffffffffffffff\n    /* \"#utility.yul\":1276:1286   */\n  dup3\n    /* \"#utility.yul\":1273:1307   */\n  gt\n    /* \"#utility.yul\":1270:1332   */\n  or\n    /* \"#utility.yul\":1267:1355   */\n  iszero\n  tag_72\n  jumpi\n    /* \"#utility.yul\":1335:1353   */\n  tag_73\n  tag_40\n  jump\t// in\ntag_73:\n    /* \"#utility.yul\":1267:1355   */\ntag_72:\n    /* \"#utility.yul\":1375:1385   */\n  dup1\n    /* \"#utility.yul\":1371:1373   */\n  0x40\n    /* \"#utility.yul\":1364:1386   */\n  mstore\n    /* \"#utility.yul\":1154:1392   */\n  pop\n    /* \"#utility.yul\":1111:1392   */\n  pop\n  pop\n  jump\t// out\n    /* \"#utility.yul\":1398:1527   */\ntag_42:\n    /* \"#utility.yul\":1432:1438   */\n  0x00\n    /* \"#utility.yul\":1459:1479   */\n  tag_75\n  tag_32\n  jump\t// in\ntag_75:\n    /* \"#utility.yul\":1449:1479   */\n  swap1\n  pop\n    /* \"#utility.yul\":1488:1521   */\n  tag_76\n    /* \"#utility.yul\":1516:1520   */\n  dup3\n    /* \"#utility.yul\":1508:1514   */\n  dup3\n    /* \"#utility.yul\":1488:1521   */\n  tag_41\n  jump\t// in\ntag_76:\n    /* \"#utility.yul\":1398:1527   */\n  swap2\n  swap1\n  pop\n  jump\t// out\n    /* \"#utility.yul\":1533:1844   */\ntag_43:\n    /* \"#utility.yul\":1610:1614   */\n  0x00\n    /* \"#utility.yul\":1700:1718   */\n  0xffffffffffffffff\n    /* \"#utility.yul\":1692:1698   */\n  dup3\n    /* \"#utility.yul\":1689:1719   */\n  gt\n    /* \"#utility.yul\":1686:1742   */\n  iszero\n  tag_78\n  jumpi\n    /* \"#utility.yul\":1722:1740   */\n  tag_79\n  tag_40\n  jump\t// in\ntag_79:\n    /* \"#utility.yul\":1686:1742   */\ntag_78:\n    /* \"#utility.yul\":1772:1776   */\n  0x20\n    /* \"#utility.yul\":1764:1770   */\n  dup3\n    /* \"#utility.yul\":1760:1777   */\n  mul\n    /* \"#utility.yul\":1752:1777   */\n  swap1\n  pop\n    /* \"#utility.yul\":1832:1836   */\n  0x20\n    /* \"#utility.yul\":1826:1830   */\n  dup2\n    /* \"#utility.yul\":1822:1837   */\n  add\n    /* \"#utility.yul\":1814:1837   */\n  swap1\n  pop\n    /* \"#utility.yul\":1533:1844   */\n  swap2\n  swap1\n  pop\n  jump\t// out\n    /* \"#utility.yul\":1850:1967   */\ntag_44:\n    /* \"#utility.yul\":1959:1960   */\n  0x00\n    /* \"#utility.yul\":1956:1957   */\n  dup1\n    /* \"#utility.yul\":1949:1961   */\n  revert\n    /* \"#utility.yul\":1973:2099   */\ntag_45:\n    /* \"#utility.yul\":2010:2017   */\n  0x00\n    /* \"#utility.yul\":2050:2092   */\n  0xffffffffffffffffffffffffffffffffffffffff\n    /* \"#utility.yul\":2043:2048   */\n  dup3\n    /* \"#utility.yul\":2039:2093   */\n  and\n    /* \"#utility.yul\":2028:2093   */\n  swap1\n  pop\n    /* \"#utility.yul\":1973:2099   */\n  swap2\n  swap1\n  pop\n  jump\t// out\n    /* \"#utility.yul\":2105:2201   */\ntag_46:\n    /* \"#utility.yul\":2142:2149   */\n  0x00\n    /* \"#utility.yul\":2171:2195   */\n  tag_83\n    /* \"#utility.yul\":2189:2194   */\n  dup3\n    /* \"#utility.yul\":2171:2195   */\n  tag_45\n  jump\t// in\ntag_83:\n    /* \"#utility.yul\":2160:2195   */\n  swap1\n  pop\n    /* \"#utility.yul\":2105:2201   */\n  swap2\n  swap1\n  pop\n  jump\t// out\n    /* \"#utility.yul\":2207:2329   */\ntag_47:\n    /* \"#utility.yul\":2280:2304   */\n  tag_85\n    /* \"#utility.yul\":2298:2303   */\n  dup2\n    /* \"#utility.yul\":2280:2304   */\n  tag_46\n  jump\t// in\ntag_85:\n    /* \"#utility.yul\":2273:2278   */\n  dup2\n    /* \"#utility.yul\":2270:2305   */\n  eq\n    /* \"#utility.yul\":2260:2323   */\n  tag_86\n  jumpi\n    /* \"#utility.yul\":2319:2320   */\n  0x00\n    /* \"#utility.yul\":2316:2317   */\n  dup1\n    /* \"#utility.yul\":2309:2321   */\n  revert\n    /* \"#utility.yul\":2260:2323   */\ntag_86:\n    /* \"#utility.yul\":2207:2329   */\n  pop\n  jump\t// out\n    /* \"#utility.yul\":2335:2478   */\ntag_48:\n    /* \"#utility.yul\":2392:2397   */\n  0x00\n    /* \"#utility.yul\":2423:2429   */\n  dup2\n    /* \"#utility.yul\":2417:2430   */\n  mload\n    /* \"#utility.yul\":2408:2430   */\n  swap1\n  pop\n    /* \"#utility.yul\":2439:2472   */\n  tag_88\n    /* \"#utility.yul\":2466:2471   */\n  dup2\n    /* \"#utility.yul\":2439:2472   */\n  tag_47\n  jump\t// in\ntag_88:\n    /* \"#utility.yul\":2335:2478   */\n  swap3\n  swap2\n  pop\n  pop\n  jump\t// out\n    /* \"#utility.yul\":2501:3233   */\ntag_49:\n    /* \"#utility.yul\":2608:2613   */\n  0x00\n    /* \"#utility.yul\":2633:2714   */\n  tag_90\n    /* \"#utility.yul\":2649:2713   */\n  tag_91\n    /* \"#utility.yul\":2706:2712   */\n  dup5\n    /* \"#utility.yul\":2649:2713   */\n  tag_43\n  jump\t// in\ntag_91:\n    /* \"#utility.yul\":2633:2714   */\n  tag_42\n  jump\t// in\ntag_90:\n    /* \"#utility.yul\":2624:2714   */\n  swap1\n  pop\n    /* \"#utility.yul\":2734:2739   */\n  dup1\n    /* \"#utility.yul\":2763:2769   */\n  dup4\n    /* \"#utility.yul\":2756:2761   */\n  dup3\n    /* \"#utility.yul\":2749:2770   */\n  mstore\n    /* \"#utility.yul\":2797:2801   */\n  0x20\n    /* \"#utility.yul\":2790:2795   */\n  dup3\n    /* \"#utility.yul\":2786:2802   */\n  add\n    /* \"#utility.yul\":2779:2802   */\n  swap1\n  pop\n    /* \"#utility.yul\":2850:2854   */\n  0x20\n    /* \"#utility.yul\":2842:2848   */\n  dup5\n    /* \"#utility.yul\":2838:2855   */\n  mul\n    /* \"#utility.yul\":2830:2836   */\n  dup4\n    /* \"#utility.yul\":2826:2856   */\n  add\n    /* \"#utility.yul\":2879:2882   */\n  dup6\n    /* \"#utility.yul\":2871:2877   */\n  dup2\n    /* \"#utility.yul\":2868:2883   */\n  gt\n    /* \"#utility.yul\":2865:2987   */\n  iszero\n  tag_92\n  jumpi\n    /* \"#utility.yul\":2898:2977   */\n  tag_93\n  tag_44\n  jump\t// in\ntag_93:\n    /* \"#utility.yul\":2865:2987   */\ntag_92:\n    /* \"#utility.yul\":3013:3019   */\n  dup4\n    /* \"#utility.yul\":2996:3227   */\ntag_94:\n    /* \"#utility.yul\":3030:3036   */\n  dup2\n    /* \"#utility.yul\":3025:3028   */\n  dup2\n    /* \"#utility.yul\":3022:3037   */\n  lt\n    /* \"#utility.yul\":2996:3227   */\n  iszero\n  tag_96\n  jumpi\n    /* \"#utility.yul\":3105:3108   */\n  dup1\n    /* \"#utility.yul\":3134:3182   */\n  tag_97\n    /* \"#utility.yul\":3178:3181   */\n  dup9\n    /* \"#utility.yul\":3166:3176   */\n  dup3\n    /* \"#utility.yul\":3134:3182   */\n  tag_48\n  jump\t// in\ntag_97:\n    /* \"#utility.yul\":3129:3132   */\n  dup5\n    /* \"#utility.yul\":3122:3183   */\n  mstore\n    /* \"#utility.yul\":3212:3216   */\n  0x20\n    /* \"#utility.yul\":3207:3210   */\n  dup5\n    /* \"#utility.yul\":3203:3217   */\n  add\n    /* \"#utility.yul\":3196:3217   */\n  swap4\n  pop\n    /* \"#utility.yul\":3072:3227   */\n  pop\n    /* \"#utility.yul\":3056:3060   */\n  0x20\n    /* \"#utility.yul\":3051:3054   */\n  dup2\n    /* \"#utility.yul\":3047:3061   */\n  add\n    /* \"#utility.yul\":3040:3061   */\n  swap1\n  pop\n    /* \"#utility.yul\":2996:3227   */\n  jump(tag_94)\ntag_96:\n    /* \"#utility.yul\":3000:3021   */\n  pop\n    /* \"#utility.yul\":2614:3233   */\n  pop\n  pop\n    /* \"#utility.yul\":2501:3233   */\n  swap4\n  swap3\n  pop\n  pop\n  pop\n  jump\t// out\n    /* \"#utility.yul\":3256:3641   */\ntag_50:\n    /* \"#utility.yul\":3338:3343   */\n  0x00\n    /* \"#utility.yul\":3387:3390   */\n  dup3\n    /* \"#utility.yul\":3380:3384   */\n  0x1f\n    /* \"#utility.yul\":3372:3378   */\n  dup4\n    /* \"#utility.yul\":3368:3385   */\n  add\n    /* \"#utility.yul\":3364:3391   */\n  slt\n    /* \"#utility.yul\":3354:3476   */\n  tag_99\n  jumpi\n    /* \"#utility.yul\":3395:3474   */\n  tag_100\n  tag_38\n  jump\t// in\ntag_100:\n    /* \"#utility.yul\":3354:3476   */\ntag_99:\n    /* \"#utility.yul\":3505:3511   */\n  dup2\n    /* \"#utility.yul\":3499:3512   */\n  mload\n    /* \"#utility.yul\":3530:3635   */\n  tag_101\n    /* \"#utility.yul\":3631:3634   */\n  dup5\n    /* \"#utility.yul\":3623:3629   */\n  dup3\n    /* \"#utility.yul\":3616:3620   */\n  0x20\n    /* \"#utility.yul\":3608:3614   */\n  dup7\n    /* \"#utility.yul\":3604:3621   */\n  add\n    /* \"#utility.yul\":3530:3635   */\n  tag_49\n  jump\t// in\ntag_101:\n    /* \"#utility.yul\":3521:3635   */\n  swap2\n  pop\n    /* \"#utility.yul\":3344:3641   */\n  pop\n    /* \"#utility.yul\":3256:3641   */\n  swap3\n  swap2\n  pop\n  pop\n  jump\t// out\n    /* \"#utility.yul\":3647:4827   */\ntag_3:\n    /* \"#utility.yul\":3778:3784   */\n  0x00\n    /* \"#utility.yul\":3786:3792   */\n  dup1\n    /* \"#utility.yul\":3794:3800   */\n  0x00\n    /* \"#utility.yul\":3802:3808   */\n  dup1\n    /* \"#utility.yul\":3810:3816   */\n  0x00\n    /* \"#utility.yul\":3859:3862   */\n  0xa0\n    /* \"#utility.yul\":3847:3856   */\n  dup7\n    /* \"#utility.yul\":3838:3845   */\n  dup9\n    /* \"#utility.yul\":3834:3857   */\n  sub\n    /* \"#utility.yul\":3830:3863   */\n  slt\n    /* \"#utility.yul\":3827:3947   */\n  iszero\n  tag_103\n  jumpi\n    /* \"#utility.yul\":3866:3945   */\n  tag_104\n  tag_33\n  jump\t// in\ntag_104:\n    /* \"#utility.yul\":3827:3947   */\ntag_103:\n    /* \"#utility.yul\":3986:3987   */\n  0x00\n    /* \"#utility.yul\":4011:4075   */\n  tag_105\n    /* \"#utility.yul\":4067:4074   */\n  dup9\n    /* \"#utility.yul\":4058:4064   */\n  dup3\n    /* \"#utility.yul\":4047:4056   */\n  dup10\n    /* \"#utility.yul\":4043:4065   */\n  add\n    /* \"#utility.yul\":4011:4075   */\n  tag_37\n  jump\t// in\ntag_105:\n    /* \"#utility.yul\":4001:4075   */\n  swap6\n  pop\n    /* \"#utility.yul\":3957:4085   */\n  pop\n    /* \"#utility.yul\":4124:4126   */\n  0x20\n    /* \"#utility.yul\":4150:4214   */\n  tag_106\n    /* \"#utility.yul\":4206:4213   */\n  dup9\n    /* \"#utility.yul\":4197:4203   */\n  dup3\n    /* \"#utility.yul\":4186:4195   */\n  dup10\n    /* \"#utility.yul\":4182:4204   */\n  add\n    /* \"#utility.yul\":4150:4214   */\n  tag_37\n  jump\t// in\ntag_106:\n    /* \"#utility.yul\":4140:4214   */\n  swap5\n  pop\n    /* \"#utility.yul\":4095:4224   */\n  pop\n    /* \"#utility.yul\":4263:4265   */\n  0x40\n    /* \"#utility.yul\":4289:4353   */\n  tag_107\n    /* \"#utility.yul\":4345:4352   */\n  dup9\n    /* \"#utility.yul\":4336:4342   */\n  dup3\n    /* \"#utility.yul\":4325:4334   */\n  dup10\n    /* \"#utility.yul\":4321:4343   */\n  add\n    /* \"#utility.yul\":4289:4353   */\n  tag_37\n  jump\t// in\ntag_107:\n    /* \"#utility.yul\":4279:4353   */\n  swap4\n  pop\n    /* \"#utility.yul\":4234:4363   */\n  pop\n    /* \"#utility.yul\":4402:4404   */\n  0x60\n    /* \"#utility.yul\":4428:4492   */\n  tag_108\n    /* \"#utility.yul\":4484:4491   */\n  dup9\n    /* \"#utility.yul\":4475:4481   */\n  dup3\n    /* \"#utility.yul\":4464:4473   */\n  dup10\n    /* \"#utility.yul\":4460:4482   */\n  add\n    /* \"#utility.yul\":4428:4492   */\n  tag_37\n  jump\t// in\ntag_108:\n    /* \"#utility.yul\":4418:4492   */\n  swap3\n  pop\n    /* \"#utility.yul\":4373:4502   */\n  pop\n    /* \"#utility.yul\":4562:4565   */\n  0x80\n    /* \"#utility.yul\":4551:4560   */\n  dup7\n    /* \"#utility.yul\":4547:4566   */\n  add\n    /* \"#utility.yul\":4541:4567   */\n  mload\n    /* \"#utility.yul\":4594:4612   */\n  0xffffffffffffffff\n    /* \"#utility.yul\":4586:4592   */\n  dup2\n    /* \"#utility.yul\":4583:4613   */\n  gt\n    /* \"#utility.yul\":4580:4697   */\n  iszero\n  tag_109\n  jumpi\n    /* \"#utility.yul\":4616:4695   */\n  tag_110\n  tag_34\n  jump\t// in\ntag_110:\n    /* \"#utility.yul\":4580:4697   */\ntag_109:\n    /* \"#utility.yul\":4721:4810   */\n  tag_111\n    /* \"#utility.yul\":4802:4809   */\n  dup9\n    /* \"#utility.yul\":4793:4799   */\n  dup3\n    /* \"#utility.yul\":4782:4791   */\n  dup10\n    /* \"#utility.yul\":4778:4800   */\n  add\n    /* \"#utility.yul\":4721:4810   */\n  tag_50\n  jump\t// in\ntag_111:\n    /* \"#utility.yul\":4711:4810   */\n  swap2\n  pop\n    /* \"#utility.yul\":4512:4820   */\n  pop\n    /* \"#utility.yul\":3647:4827   */\n  swap3\n  swap6\n  pop\n  swap3\n  swap6\n  swap1\n  swap4\n  pop\n  jump\t// out\n    /* \"#utility.yul\":4833:5002   */\ntag_51:\n    /* \"#utility.yul\":4917:4928   */\n  0x00\n    /* \"#utility.yul\":4951:4957   */\n  dup3\n    /* \"#utility.yul\":4946:4949   */\n  dup3\n    /* \"#utility.yul\":4939:4958   */\n  mstore\n    /* \"#utility.yul\":4991:4995   */\n  0x20\n    /* \"#utility.yul\":4986:4989   */\n  dup3\n    /* \"#utility.yul\":4982:4996   */\n  add\n    /* \"#utility.yul\":4967:4996   */\n  swap1\n  pop\n    /* \"#utility.yul\":4833:5002   */\n  swap3\n  swap2\n  pop\n  pop\n  jump\t// out\n    /* \"#utility.yul\":5008:5185   */\ntag_52:\n    /* \"#utility.yul\":5148:5177   */\n  0x4d656d626572732061727261792073697a65206d69736d617463680000000000\n    /* \"#utility.yul\":5144:5145   */\n  0x00\n    /* \"#utility.yul\":5136:5142   */\n  dup3\n    /* \"#utility.yul\":5132:5146   */\n  add\n    /* \"#utility.yul\":5125:5178   */\n  mstore\n    /* \"#utility.yul\":5008:5185   */\n  pop\n  jump\t// out\n    /* \"#utility.yul\":5191:5557   */\ntag_53:\n    /* \"#utility.yul\":5333:5336   */\n  0x00\n    /* \"#utility.yul\":5354:5421   */\n  tag_115\n    /* \"#utility.yul\":5418:5420   */\n  0x1b\n    /* \"#utility.yul\":5413:5416   */\n  dup4\n    /* \"#utility.yul\":5354:5421   */\n  tag_51\n  jump\t// in\ntag_115:\n    /* \"#utility.yul\":5347:5421   */\n  swap2\n  pop\n    /* \"#utility.yul\":5430:5523   */\n  tag_116\n    /* \"#utility.yul\":5519:5522   */\n  dup3\n    /* \"#utility.yul\":5430:5523   */\n  tag_52\n  jump\t// in\ntag_116:\n    /* \"#utility.yul\":5548:5550   */\n  0x20\n    /* \"#utility.yul\":5543:5546   */\n  dup3\n    /* \"#utility.yul\":5539:5551   */\n  add\n    /* \"#utility.yul\":5532:5551   */\n  swap1\n  pop\n    /* \"#utility.yul\":5191:5557   */\n  swap2\n  swap1\n  pop\n  jump\t// out\n    /* \"#utility.yul\":5563:5982   */\ntag_8:\n    /* \"#utility.yul\":5729:5733   */\n  0x00\n    /* \"#utility.yul\":5767:5769   */\n  0x20\n    /* \"#utility.yul\":5756:5765   */\n  dup3\n    /* \"#utility.yul\":5752:5770   */\n  add\n    /* \"#utility.yul\":5744:5770   */\n  swap1\n  pop\n    /* \"#utility.yul\":5816:5825   */\n  dup2\n    /* \"#utility.yul\":5810:5814   */\n  dup2\n    /* \"#utility.yul\":5806:5826   */\n  sub\n    /* \"#utility.yul\":5802:5803   */\n  0x00\n    /* \"#utility.yul\":5791:5800   */\n  dup4\n    /* \"#utility.yul\":5787:5804   */\n  add\n    /* \"#utility.yul\":5780:5827   */\n  mstore\n    /* \"#utility.yul\":5844:5975   */\n  tag_118\n    /* \"#utility.yul\":5970:5974   */\n  dup2\n    /* \"#utility.yul\":5844:5975   */\n  tag_53\n  jump\t// in\ntag_118:\n    /* \"#utility.yul\":5836:5975   */\n  swap1\n  pop\n    /* \"#utility.yul\":5563:5982   */\n  swap2\n  swap1\n  pop\n  jump\t// out\n    /* \"#utility.yul\":5988:6168   */\ntag_14:\n    /* \"#utility.yul\":6036:6113   */\n  0x4e487b7100000000000000000000000000000000000000000000000000000000\n    /* \"#utility.yul\":6033:6034   */\n  0x00\n    /* \"#utility.yul\":6026:6114   */\n  mstore\n    /* \"#utility.yul\":6133:6137   */\n  0x32\n    /* \"#utility.yul\":6130:6131   */\n  0x04\n    /* \"#utility.yul\":6123:6138   */\n  mstore\n    /* \"#utility.yul\":6157:6161   */\n  0x24\n    /* \"#utility.yul\":6154:6155   */\n  0x00\n    /* \"#utility.yul\":6147:6162   */\n  revert\n    /* \"#utility.yul\":6174:6346   */\ntag_54:\n    /* \"#utility.yul\":6314:6338   */\n  0x496e76616c6964206d656d626572206164647265737300000000000000000000\n    /* \"#utility.yul\":6310:6311   */\n  0x00\n    /* \"#utility.yul\":6302:6308   */\n  dup3\n    /* \"#utility.yul\":6298:6312   */\n  add\n    /* \"#utility.yul\":6291:6339   */\n  mstore\n    /* \"#utility.yul\":6174:6346   */\n  pop\n  jump\t// out\n    /* \"#utility.yul\":6352:6718   */\ntag_55:\n    /* \"#utility.yul\":6494:6497   */\n  0x00\n    /* \"#utility.yul\":6515:6582   */\n  tag_122\n    /* \"#utility.yul\":6579:6581   */\n  0x16\n    /* \"#utility.yul\":6574:6577   */\n  dup4\n    /* \"#utility.yul\":6515:6582   */\n  tag_51\n  jump\t// in\ntag_122:\n    /* \"#utility.yul\":6508:6582   */\n  swap2\n  pop\n    /* \"#utility.yul\":6591:6684   */\n  tag_123\n    /* \"#utility.yul\":6680:6683   */\n  dup3\n    /* \"#utility.yul\":6591:6684   */\n  tag_54\n  jump\t// in\ntag_123:\n    /* \"#utility.yul\":6709:6711   */\n  0x20\n    /* \"#utility.yul\":6704:6707   */\n  dup3\n    /* \"#utility.yul\":6700:6712   */\n  add\n    /* \"#utility.yul\":6693:6712   */\n  swap1\n  pop\n    /* \"#utility.yul\":6352:6718   */\n  swap2\n  swap1\n  pop\n  jump\t// out\n    /* \"#utility.yul\":6724:7143   */\ntag_17:\n    /* \"#utility.yul\":6890:6894   */\n  0x00\n    /* \"#utility.yul\":6928:6930   */\n  0x20\n    /* \"#utility.yul\":6917:6926   */\n  dup3\n    /* \"#utility.yul\":6913:6931   */\n  add\n    /* \"#utility.yul\":6905:6931   */\n  swap1\n  pop\n    /* \"#utility.yul\":6977:6986   */\n  dup2\n    /* \"#utility.yul\":6971:6975   */\n  dup2\n    /* \"#utility.yul\":6967:6987   */\n  sub\n    /* \"#utility.yul\":6963:6964   */\n  0x00\n    /* \"#utility.yul\":6952:6961   */\n  dup4\n    /* \"#utility.yul\":6948:6965   */\n  add\n    /* \"#utility.yul\":6941:6988   */\n  mstore\n    /* \"#utility.yul\":7005:7136   */\n  tag_125\n    /* \"#utility.yul\":7131:7135   */\n  dup2\n    /* \"#utility.yul\":7005:7136   */\n  tag_55\n  jump\t// in\ntag_125:\n    /* \"#utility.yul\":6997:7136   */\n  swap1\n  pop\n    /* \"#utility.yul\":6724:7143   */\n  swap2\n  swap1\n  pop\n  jump\t// out\n    /* \"#utility.yul\":7149:7329   */\ntag_56:\n    /* \"#utility.yul\":7197:7274   */\n  0x4e487b7100000000000000000000000000000000000000000000000000000000\n    /* \"#utility.yul\":7194:7195   */\n  0x00\n    /* \"#utility.yul\":7187:7275   */\n  mstore\n    /* \"#utility.yul\":7294:7298   */\n  0x11\n    /* \"#utility.yul\":7291:7292   */\n  0x04\n    /* \"#utility.yul\":7284:7299   */\n  mstore\n    /* \"#utility.yul\":7318:7322   */\n  0x24\n    /* \"#utility.yul\":7315:7316   */\n  0x00\n    /* \"#utility.yul\":7308:7323   */\n  revert\n    /* \"#utility.yul\":7335:7745   */\ntag_21:\n    /* \"#utility.yul\":7375:7382   */\n  0x00\n    /* \"#utility.yul\":7398:7418   */\n  tag_128\n    /* \"#utility.yul\":7416:7417   */\n  dup3\n    /* \"#utility.yul\":7398:7418   */\n  tag_35\n  jump\t// in\ntag_128:\n    /* \"#utility.yul\":7393:7418   */\n  swap2\n  pop\n    /* \"#utility.yul\":7432:7452   */\n  tag_129\n    /* \"#utility.yul\":7450:7451   */\n  dup4\n    /* \"#utility.yul\":7432:7452   */\n  tag_35\n  jump\t// in\ntag_129:\n    /* \"#utility.yul\":7427:7452   */\n  swap3\n  pop\n    /* \"#utility.yul\":7487:7488   */\n  dup3\n    /* \"#utility.yul\":7484:7485   */\n  dup3\n    /* \"#utility.yul\":7480:7489   */\n  mul\n    /* \"#utility.yul\":7509:7539   */\n  tag_130\n    /* \"#utility.yul\":7527:7538   */\n  dup2\n    /* \"#utility.yul\":7509:7539   */\n  tag_35\n  jump\t// in\ntag_130:\n    /* \"#utility.yul\":7498:7539   */\n  swap2\n  pop\n    /* \"#utility.yul\":7688:7689   */\n  dup3\n    /* \"#utility.yul\":7679:7686   */\n  dup3\n    /* \"#utility.yul\":7675:7690   */\n  div\n    /* \"#utility.yul\":7672:7673   */\n  dup5\n    /* \"#utility.yul\":7669:7691   */\n  eq\n    /* \"#utility.yul\":7649:7650   */\n  dup4\n    /* \"#utility.yul\":7642:7651   */\n  iszero\n    /* \"#utility.yul\":7622:7705   */\n  or\n    /* \"#utility.yul\":7599:7738   */\n  tag_131\n  jumpi\n    /* \"#utility.yul\":7718:7736   */\n  tag_132\n  tag_56\n  jump\t// in\ntag_132:\n    /* \"#utility.yul\":7599:7738   */\ntag_131:\n    /* \"#utility.yul\":7383:7745   */\n  pop\n    /* \"#utility.yul\":7335:7745   */\n  swap3\n  swap2\n  pop\n  pop\n  jump\t// out\n    /* \"#utility.yul\":7751:7942   */\ntag_23:\n    /* \"#utility.yul\":7791:7794   */\n  0x00\n    /* \"#utility.yul\":7810:7830   */\n  tag_134\n    /* \"#utility.yul\":7828:7829   */\n  dup3\n    /* \"#utility.yul\":7810:7830   */\n  tag_35\n  jump\t// in\ntag_134:\n    /* \"#utility.yul\":7805:7830   */\n  swap2\n  pop\n    /* \"#utility.yul\":7844:7864   */\n  tag_135\n    /* \"#utility.yul\":7862:7863   */\n  dup4\n    /* \"#utility.yul\":7844:7864   */\n  tag_35\n  jump\t// in\ntag_135:\n    /* \"#utility.yul\":7839:7864   */\n  swap3\n  pop\n    /* \"#utility.yul\":7887:7888   */\n  dup3\n    /* \"#utility.yul\":7884:7885   */\n  dup3\n    /* \"#utility.yul\":7880:7889   */\n  add\n    /* \"#utility.yul\":7873:7889   */\n  swap1\n  pop\n    /* \"#utility.yul\":7908:7911   */\n  dup1\n    /* \"#utility.yul\":7905:7906   */\n  dup3\n    /* \"#utility.yul\":7902:7912   */\n  gt\n    /* \"#utility.yul\":7899:7935   */\n  iszero\n  tag_136\n  jumpi\n    /* \"#utility.yul\":7915:7933   */\n  tag_137\n  tag_56\n  jump\t// in\ntag_137:\n    /* \"#utility.yul\":7899:7935   */\ntag_136:\n    /* \"#utility.yul\":7751:7942   */\n  swap3\n  swap2\n  pop\n  pop\n  jump\t// out\n    /* \"Contract_Templates/Tanda.sol\":58:8947  contract Tanda {... */\ntag_24:\n  dataSize(sub_0)\n  dup1\n  dataOffset(sub_0)\n  0x00\n  codecopy\n  0x00\n  return\nstop\n\nsub_0: assembly {\n        /* \"Contract_Templates/Tanda.sol\":58:8947  contract Tanda {... */\n      mstore(0x40, 0x80)\n      jumpi(tag_1, lt(calldatasize, 0x04))\n      shr(0xe0, calldataload(0x00))\n      dup1\n      0x0b6dd8a8\n      eq\n      tag_3\n      jumpi\n      dup1\n      0x35cd4b46\n      eq\n      tag_4\n      jumpi\n      dup1\n      0xc74e7261\n      eq\n      tag_5\n      jumpi\n      dup1\n      0xd7bb99ba\n      eq\n      tag_6\n      jumpi\n      dup1\n      0xec33d2a0\n      eq\n      tag_7\n      jumpi\n      dup1\n      0xedf91178\n      eq\n      tag_8\n      jumpi\n      jump(tag_2)\n    tag_1:\n      jumpi(tag_2, calldatasize)\n        /* \"Contract_Templates/Tanda.sol\":8901:8938  revert(\"Use contribute() to deposit\") */\n      mload(0x40)\n      0x08c379a000000000000000000000000000000000000000000000000000000000\n      dup2\n      mstore\n      0x04\n      add\n      tag_11\n      swap1\n      tag_12\n      jump\t// in\n    tag_11:\n      mload(0x40)\n      dup1\n      swap2\n      sub\n      swap1\n      revert\n        /* \"Contract_Templates/Tanda.sol\":58:8947  contract Tanda {... */\n    tag_2:\n      0x00\n      dup1\n      revert\n        /* \"Contract_Templates/Tanda.sol\":8380:8556  function confirmContributionAmount() public view returns (uint256) {... */\n    tag_3:\n      callvalue\n      dup1\n      iszero\n      tag_13\n      jumpi\n      0x00\n      dup1\n      revert\n    tag_13:\n      pop\n      tag_14\n      tag_15\n      jump\t// in\n    tag_14:\n      mload(0x40)\n      tag_16\n      swap2\n      swap1\n      tag_17\n      jump\t// in\n    tag_16:\n      mload(0x40)\n      dup1\n      swap2\n      sub\n      swap1\n      return\n        /* \"Contract_Templates/Tanda.sol\":6321:7661  function triggerDistribution() external {... */\n    tag_4:\n      callvalue\n      dup1\n      iszero\n      tag_18\n      jumpi\n      0x00\n      dup1\n      revert\n    tag_18:\n      pop\n      tag_19\n      tag_20\n      jump\t// in\n    tag_19:\n      stop\n        /* \"Contract_Templates/Tanda.sol\":8076:8374  function allPaidOut() public view returns (bool) {... */\n    tag_5:\n      callvalue\n      dup1\n      iszero\n      tag_21\n      jumpi\n      0x00\n      dup1\n      revert\n    tag_21:\n      pop\n      tag_22\n      tag_23\n      jump\t// in\n    tag_22:\n      mload(0x40)\n      tag_24\n      swap2\n      swap1\n      tag_25\n      jump\t// in\n    tag_24:\n      mload(0x40)\n      dup1\n      swap2\n      sub\n      swap1\n      return\n        /* \"Contract_Templates/Tanda.sol\":3610:5075  function contribute() external payable {... */\n    tag_6:\n      tag_26\n      tag_27\n      jump\t// in\n    tag_26:\n      stop\n        /* \"Contract_Templates/Tanda.sol\":5269:6135  function finalizeCycle() public {... */\n    tag_7:\n      callvalue\n      dup1\n      iszero\n      tag_28\n      jumpi\n      0x00\n      dup1\n      revert\n    tag_28:\n      pop\n      tag_29\n      tag_30\n      jump\t// in\n    tag_29:\n      stop\n        /* \"Contract_Templates/Tanda.sol\":8562:8777  function confirmWhoHasContributed(address member_address) public view returns (bool) {... */\n    tag_8:\n      callvalue\n      dup1\n      iszero\n      tag_31\n      jumpi\n      0x00\n      dup1\n      revert\n    tag_31:\n      pop\n      tag_32\n      0x04\n      dup1\n      calldatasize\n      sub\n      dup2\n      add\n      swap1\n      tag_33\n      swap2\n      swap1\n      tag_34\n      jump\t// in\n    tag_33:\n      tag_35\n      jump\t// in\n    tag_32:\n      mload(0x40)\n      tag_36\n      swap2\n      swap1\n      tag_25\n      jump\t// in\n    tag_36:\n      mload(0x40)\n      dup1\n      swap2\n      sub\n      swap1\n      return\n        /* \"Contract_Templates/Tanda.sol\":8380:8556  function confirmContributionAmount() public view returns (uint256) {... */\n    tag_15:\n        /* \"Contract_Templates/Tanda.sol\":8438:8445  uint256 */\n      0x00\n        /* \"Contract_Templates/Tanda.sol\":8465:8485  isMember(msg.sender) */\n      tag_38\n        /* \"Contract_Templates/Tanda.sol\":8474:8484  msg.sender */\n      caller\n        /* \"Contract_Templates/Tanda.sol\":8465:8473  isMember */\n      tag_39\n        /* \"Contract_Templates/Tanda.sol\":8465:8485  isMember(msg.sender) */\n      jump\t// in\n    tag_38:\n        /* \"Contract_Templates/Tanda.sol\":8457:8513  require(isMember(msg.sender), \"Not a registered member\") */\n      tag_40\n      jumpi\n      mload(0x40)\n      0x08c379a000000000000000000000000000000000000000000000000000000000\n      dup2\n      mstore\n      0x04\n      add\n      tag_41\n      swap1\n      tag_42\n      jump\t// in\n    tag_41:\n      mload(0x40)\n      dup1\n      swap2\n      sub\n      swap1\n      revert\n    tag_40:\n        /* \"Contract_Templates/Tanda.sol\":8531:8549  contributionAmount */\n      sload(0x02)\n        /* \"Contract_Templates/Tanda.sol\":8524:8549  return contributionAmount */\n      swap1\n      pop\n        /* \"Contract_Templates/Tanda.sol\":8380:8556  function confirmContributionAmount() public view returns (uint256) {... */\n      swap1\n      jump\t// out\n        /* \"Contract_Templates/Tanda.sol\":6321:7661  function triggerDistribution() external {... */\n    tag_20:\n        /* \"Contract_Templates/Tanda.sol\":6572:6592  isMember(msg.sender) */\n      tag_44\n        /* \"Contract_Templates/Tanda.sol\":6581:6591  msg.sender */\n      caller\n        /* \"Contract_Templates/Tanda.sol\":6572:6580  isMember */\n      tag_39\n        /* \"Contract_Templates/Tanda.sol\":6572:6592  isMember(msg.sender) */\n      jump\t// in\n    tag_44:\n        /* \"Contract_Templates/Tanda.sol\":6564:6620  require(isMember(msg.sender), \"Not a registered member\") */\n      tag_45\n      jumpi\n      mload(0x40)\n      0x08c379a000000000000000000000000000000000000000000000000000000000\n      dup2\n      mstore\n      0x04\n      add\n      tag_46\n      swap1\n      tag_42\n      jump\t// in\n    tag_46:\n      mload(0x40)\n      dup1\n      swap2\n      sub\n      swap1\n      revert\n    tag_45:\n        /* \"Contract_Templates/Tanda.sol\":6630:6655  address payable recipient */\n      0x00\n        /* \"Contract_Templates/Tanda.sol\":6665:6675  bool found */\n      dup1\n        /* \"Contract_Templates/Tanda.sol\":6678:6683  false */\n      0x00\n        /* \"Contract_Templates/Tanda.sol\":6665:6683  bool found = false */\n      swap1\n      pop\n        /* \"Contract_Templates/Tanda.sol\":6699:6708  uint256 i */\n      0x00\n        /* \"Contract_Templates/Tanda.sol\":6694:7148  for (uint256 i = 0; i < numMembers; i++) {... */\n    tag_47:\n        /* \"Contract_Templates/Tanda.sol\":6718:6728  numMembers */\n      sload(0x00)\n        /* \"Contract_Templates/Tanda.sol\":6714:6715  i */\n      dup2\n        /* \"Contract_Templates/Tanda.sol\":6714:6728  i < numMembers */\n      lt\n        /* \"Contract_Templates/Tanda.sol\":6694:7148  for (uint256 i = 0; i < numMembers; i++) {... */\n      iszero\n      tag_48\n      jumpi\n        /* \"Contract_Templates/Tanda.sol\":6804:6815  uint256 idx */\n      0x00\n        /* \"Contract_Templates/Tanda.sol\":6842:6852  numMembers */\n      dup1\n      sload\n        /* \"Contract_Templates/Tanda.sol\":6837:6838  i */\n      dup3\n        /* \"Contract_Templates/Tanda.sol\":6819:6834  nextPayoutIndex */\n      sload(0x0b)\n        /* \"Contract_Templates/Tanda.sol\":6819:6838  nextPayoutIndex + i */\n      tag_50\n      swap2\n      swap1\n      tag_51\n      jump\t// in\n    tag_50:\n        /* \"Contract_Templates/Tanda.sol\":6818:6852  (nextPayoutIndex + i) % numMembers */\n      tag_52\n      swap2\n      swap1\n      tag_53\n      jump\t// in\n    tag_52:\n        /* \"Contract_Templates/Tanda.sol\":6804:6852  uint256 idx = (nextPayoutIndex + i) % numMembers */\n      swap1\n      pop\n        /* \"Contract_Templates/Tanda.sol\":6866:6880  address member */\n      0x00\n        /* \"Contract_Templates/Tanda.sol\":6883:6890  members */\n      0x04\n        /* \"Contract_Templates/Tanda.sol\":6891:6894  idx */\n      dup3\n        /* \"Contract_Templates/Tanda.sol\":6883:6895  members[idx] */\n      dup2\n      sload\n      dup2\n      lt\n      tag_54\n      jumpi\n      tag_55\n      tag_56\n      jump\t// in\n    tag_55:\n    tag_54:\n      swap1\n      0x00\n      mstore\n      keccak256(0x00, 0x20)\n      add\n      0x00\n      swap1\n      sload\n      swap1\n      0x0100\n      exp\n      swap1\n      div\n      0xffffffffffffffffffffffffffffffffffffffff\n      and\n        /* \"Contract_Templates/Tanda.sol\":6866:6895  address member = members[idx] */\n      swap1\n      pop\n        /* \"Contract_Templates/Tanda.sol\":6914:6931  hasReceivedPayout */\n      0x0a\n        /* \"Contract_Templates/Tanda.sol\":6914:6939  hasReceivedPayout[member] */\n      0x00\n        /* \"Contract_Templates/Tanda.sol\":6932:6938  member */\n      dup3\n        /* \"Contract_Templates/Tanda.sol\":6914:6939  hasReceivedPayout[member] */\n      0xffffffffffffffffffffffffffffffffffffffff\n      and\n      0xffffffffffffffffffffffffffffffffffffffff\n      and\n      dup2\n      mstore\n      0x20\n      add\n      swap1\n      dup2\n      mstore\n      0x20\n      add\n      0x00\n      keccak256\n      0x00\n      swap1\n      sload\n      swap1\n      0x0100\n      exp\n      swap1\n      div\n      0xff\n      and\n        /* \"Contract_Templates/Tanda.sol\":6909:7138  if (!hasReceivedPayout[member]) {... */\n      tag_58\n      jumpi\n        /* \"Contract_Templates/Tanda.sol\":6979:6985  member */\n      dup1\n        /* \"Contract_Templates/Tanda.sol\":6959:6986  recipient = payable(member) */\n      swap5\n      pop\n        /* \"Contract_Templates/Tanda.sol\":7028:7029  1 */\n      0x01\n        /* \"Contract_Templates/Tanda.sol\":7022:7025  idx */\n      dup3\n        /* \"Contract_Templates/Tanda.sol\":7022:7029  idx + 1 */\n      tag_59\n      swap2\n      swap1\n      tag_51\n      jump\t// in\n    tag_59:\n        /* \"Contract_Templates/Tanda.sol\":7004:7019  nextPayoutIndex */\n      0x0b\n        /* \"Contract_Templates/Tanda.sol\":7004:7029  nextPayoutIndex = idx + 1 */\n      dup2\n      swap1\n      sstore\n      pop\n        /* \"Contract_Templates/Tanda.sol\":7096:7100  true */\n      0x01\n        /* \"Contract_Templates/Tanda.sol\":7088:7100  found = true */\n      swap4\n      pop\n        /* \"Contract_Templates/Tanda.sol\":7118:7123  break */\n      pop\n      pop\n      jump(tag_48)\n        /* \"Contract_Templates/Tanda.sol\":6909:7138  if (!hasReceivedPayout[member]) {... */\n    tag_58:\n        /* \"Contract_Templates/Tanda.sol\":6735:7148  {... */\n      pop\n      pop\n        /* \"Contract_Templates/Tanda.sol\":6730:6733  i++ */\n      dup1\n      dup1\n      0x01\n      add\n      swap2\n      pop\n      pop\n        /* \"Contract_Templates/Tanda.sol\":6694:7148  for (uint256 i = 0; i < numMembers; i++) {... */\n      jump(tag_47)\n    tag_48:\n      pop\n        /* \"Contract_Templates/Tanda.sol\":7165:7170  found */\n      dup1\n        /* \"Contract_Templates/Tanda.sol\":7157:7209  require(found, \"All members have already been paid\") */\n      tag_60\n      jumpi\n      mload(0x40)\n      0x08c379a000000000000000000000000000000000000000000000000000000000\n      dup2\n      mstore\n      0x04\n      add\n      tag_61\n      swap1\n      tag_62\n      jump\t// in\n    tag_61:\n      mload(0x40)\n      dup1\n      swap2\n      sub\n      swap1\n      revert\n    tag_60:\n        /* \"Contract_Templates/Tanda.sol\":7315:7319  true */\n      0x01\n        /* \"Contract_Templates/Tanda.sol\":7284:7301  hasReceivedPayout */\n      0x0a\n        /* \"Contract_Templates/Tanda.sol\":7284:7312  hasReceivedPayout[recipient] */\n      0x00\n        /* \"Contract_Templates/Tanda.sol\":7302:7311  recipient */\n      dup5\n        /* \"Contract_Templates/Tanda.sol\":7284:7312  hasReceivedPayout[recipient] */\n      0xffffffffffffffffffffffffffffffffffffffff\n      and\n      0xffffffffffffffffffffffffffffffffffffffff\n      and\n      dup2\n      mstore\n      0x20\n      add\n      swap1\n      dup2\n      mstore\n      0x20\n      add\n      0x00\n      keccak256\n      0x00\n        /* \"Contract_Templates/Tanda.sol\":7284:7319  hasReceivedPayout[recipient] = true */\n      0x0100\n      exp\n      dup2\n      sload\n      dup2\n      0xff\n      mul\n      not\n      and\n      swap1\n      dup4\n      iszero\n      iszero\n      mul\n      or\n      swap1\n      sstore\n      pop\n        /* \"Contract_Templates/Tanda.sol\":7329:7344  uint256 balance */\n      0x00\n        /* \"Contract_Templates/Tanda.sol\":7347:7368  address(this).balance */\n      selfbalance\n        /* \"Contract_Templates/Tanda.sol\":7329:7368  uint256 balance = address(this).balance */\n      swap1\n      pop\n        /* \"Contract_Templates/Tanda.sol\":7396:7397  0 */\n      0x00\n        /* \"Contract_Templates/Tanda.sol\":7386:7393  balance */\n      dup2\n        /* \"Contract_Templates/Tanda.sol\":7386:7397  balance > 0 */\n      gt\n        /* \"Contract_Templates/Tanda.sol\":7378:7424  require(balance > 0, \"No funds to distribute\") */\n      tag_63\n      jumpi\n      mload(0x40)\n      0x08c379a000000000000000000000000000000000000000000000000000000000\n      dup2\n      mstore\n      0x04\n      add\n      tag_64\n      swap1\n      tag_65\n      jump\t// in\n    tag_64:\n      mload(0x40)\n      dup1\n      swap2\n      sub\n      swap1\n      revert\n    tag_63:\n        /* \"Contract_Templates/Tanda.sol\":7436:7448  bool success */\n      0x00\n        /* \"Contract_Templates/Tanda.sol\":7454:7463  recipient */\n      dup4\n        /* \"Contract_Templates/Tanda.sol\":7454:7468  recipient.call */\n      0xffffffffffffffffffffffffffffffffffffffff\n      and\n        /* \"Contract_Templates/Tanda.sol\":7476:7483  balance */\n      dup3\n        /* \"Contract_Templates/Tanda.sol\":7454:7488  recipient.call{value: balance}(\"\") */\n      mload(0x40)\n      tag_66\n      swap1\n      tag_67\n      jump\t// in\n    tag_66:\n      0x00\n      mload(0x40)\n      dup1\n      dup4\n      sub\n      dup2\n      dup6\n      dup8\n      gas\n      call\n      swap3\n      pop\n      pop\n      pop\n      returndatasize\n      dup1\n      0x00\n      dup2\n      eq\n      tag_70\n      jumpi\n      mload(0x40)\n      swap2\n      pop\n      and(add(returndatasize, 0x3f), not(0x1f))\n      dup3\n      add\n      0x40\n      mstore\n      returndatasize\n      dup3\n      mstore\n      returndatasize\n      0x00\n      0x20\n      dup5\n      add\n      returndatacopy\n      jump(tag_69)\n    tag_70:\n      0x60\n      swap2\n      pop\n    tag_69:\n      pop\n        /* \"Contract_Templates/Tanda.sol\":7435:7488  (bool success, ) = recipient.call{value: balance}(\"\") */\n      pop\n      swap1\n      pop\n        /* \"Contract_Templates/Tanda.sol\":7506:7513  success */\n      dup1\n        /* \"Contract_Templates/Tanda.sol\":7498:7533  require(success, \"Transfer failed\") */\n      tag_71\n      jumpi\n      mload(0x40)\n      0x08c379a000000000000000000000000000000000000000000000000000000000\n      dup2\n      mstore\n      0x04\n      add\n      tag_72\n      swap1\n      tag_73\n      jump\t// in\n    tag_72:\n      mload(0x40)\n      dup1\n      swap2\n      sub\n      swap1\n      revert\n    tag_71:\n        /* \"Contract_Templates/Tanda.sol\":7646:7653  1 weeks */\n      0x093a80\n        /* \"Contract_Templates/Tanda.sol\":7616:7643  distributionIntervalInWeeks */\n      sload(0x03)\n        /* \"Contract_Templates/Tanda.sol\":7616:7653  distributionIntervalInWeeks * 1 weeks */\n      tag_74\n      swap2\n      swap1\n      tag_75\n      jump\t// in\n    tag_74:\n        /* \"Contract_Templates/Tanda.sol\":7591:7611  nextDistributionTime */\n      0x09\n      0x00\n        /* \"Contract_Templates/Tanda.sol\":7591:7654  nextDistributionTime += (distributionIntervalInWeeks * 1 weeks) */\n      dup3\n      dup3\n      sload\n      tag_76\n      swap2\n      swap1\n      tag_51\n      jump\t// in\n    tag_76:\n      swap3\n      pop\n      pop\n      dup2\n      swap1\n      sstore\n      pop\n        /* \"Contract_Templates/Tanda.sol\":6361:7661  {... */\n      pop\n      pop\n      pop\n      pop\n        /* \"Contract_Templates/Tanda.sol\":6321:7661  function triggerDistribution() external {... */\n      jump\t// out\n        /* \"Contract_Templates/Tanda.sol\":8076:8374  function allPaidOut() public view returns (bool) {... */\n    tag_23:\n        /* \"Contract_Templates/Tanda.sol\":8119:8123  bool */\n      0x00\n        /* \"Contract_Templates/Tanda.sol\":8143:8163  isMember(msg.sender) */\n      tag_78\n        /* \"Contract_Templates/Tanda.sol\":8152:8162  msg.sender */\n      caller\n        /* \"Contract_Templates/Tanda.sol\":8143:8151  isMember */\n      tag_39\n        /* \"Contract_Templates/Tanda.sol\":8143:8163  isMember(msg.sender) */\n      jump\t// in\n    tag_78:\n        /* \"Contract_Templates/Tanda.sol\":8135:8191  require(isMember(msg.sender), \"Not a registered member\") */\n      tag_79\n      jumpi\n      mload(0x40)\n      0x08c379a000000000000000000000000000000000000000000000000000000000\n      dup2\n      mstore\n      0x04\n      add\n      tag_80\n      swap1\n      tag_42\n      jump\t// in\n    tag_80:\n      mload(0x40)\n      dup1\n      swap2\n      sub\n      swap1\n      revert\n    tag_79:\n        /* \"Contract_Templates/Tanda.sol\":8206:8215  uint256 i */\n      0x00\n        /* \"Contract_Templates/Tanda.sol\":8201:8347  for (uint256 i = 0; i < numMembers; i++) {... */\n    tag_81:\n        /* \"Contract_Templates/Tanda.sol\":8225:8235  numMembers */\n      sload(0x00)\n        /* \"Contract_Templates/Tanda.sol\":8221:8222  i */\n      dup2\n        /* \"Contract_Templates/Tanda.sol\":8221:8235  i < numMembers */\n      lt\n        /* \"Contract_Templates/Tanda.sol\":8201:8347  for (uint256 i = 0; i < numMembers; i++) {... */\n      iszero\n      tag_82\n      jumpi\n        /* \"Contract_Templates/Tanda.sol\":8261:8278  hasReceivedPayout */\n      0x0a\n        /* \"Contract_Templates/Tanda.sol\":8261:8290  hasReceivedPayout[members[i]] */\n      0x00\n        /* \"Contract_Templates/Tanda.sol\":8279:8286  members */\n      0x04\n        /* \"Contract_Templates/Tanda.sol\":8287:8288  i */\n      dup4\n        /* \"Contract_Templates/Tanda.sol\":8279:8289  members[i] */\n      dup2\n      sload\n      dup2\n      lt\n      tag_84\n      jumpi\n      tag_85\n      tag_56\n      jump\t// in\n    tag_85:\n    tag_84:\n      swap1\n      0x00\n      mstore\n      keccak256(0x00, 0x20)\n      add\n      0x00\n      swap1\n      sload\n      swap1\n      0x0100\n      exp\n      swap1\n      div\n      0xffffffffffffffffffffffffffffffffffffffff\n      and\n        /* \"Contract_Templates/Tanda.sol\":8261:8290  hasReceivedPayout[members[i]] */\n      0xffffffffffffffffffffffffffffffffffffffff\n      and\n      0xffffffffffffffffffffffffffffffffffffffff\n      and\n      dup2\n      mstore\n      0x20\n      add\n      swap1\n      dup2\n      mstore\n      0x20\n      add\n      0x00\n      keccak256\n      0x00\n      swap1\n      sload\n      swap1\n      0x0100\n      exp\n      swap1\n      div\n      0xff\n      and\n        /* \"Contract_Templates/Tanda.sol\":8256:8337  if (!hasReceivedPayout[members[i]]) {... */\n      tag_87\n      jumpi\n        /* \"Contract_Templates/Tanda.sol\":8317:8322  false */\n      0x00\n        /* \"Contract_Templates/Tanda.sol\":8310:8322  return false */\n      swap2\n      pop\n      pop\n      jump(tag_77)\n        /* \"Contract_Templates/Tanda.sol\":8256:8337  if (!hasReceivedPayout[members[i]]) {... */\n    tag_87:\n        /* \"Contract_Templates/Tanda.sol\":8237:8240  i++ */\n      dup1\n      dup1\n      0x01\n      add\n      swap2\n      pop\n      pop\n        /* \"Contract_Templates/Tanda.sol\":8201:8347  for (uint256 i = 0; i < numMembers; i++) {... */\n      jump(tag_81)\n    tag_82:\n      pop\n        /* \"Contract_Templates/Tanda.sol\":8363:8367  true */\n      0x01\n        /* \"Contract_Templates/Tanda.sol\":8356:8367  return true */\n      swap1\n      pop\n        /* \"Contract_Templates/Tanda.sol\":8076:8374  function allPaidOut() public view returns (bool) {... */\n    tag_77:\n      swap1\n      jump\t// out\n        /* \"Contract_Templates/Tanda.sol\":3610:5075  function contribute() external payable {... */\n    tag_27:\n        /* \"Contract_Templates/Tanda.sol\":3717:3722  false */\n      0x00\n        /* \"Contract_Templates/Tanda.sol\":3701:3722  allPaidOut() == false */\n      iszero\n      iszero\n        /* \"Contract_Templates/Tanda.sol\":3701:3713  allPaidOut() */\n      tag_89\n        /* \"Contract_Templates/Tanda.sol\":3701:3711  allPaidOut */\n      tag_23\n        /* \"Contract_Templates/Tanda.sol\":3701:3713  allPaidOut() */\n      jump\t// in\n    tag_89:\n        /* \"Contract_Templates/Tanda.sol\":3701:3722  allPaidOut() == false */\n      iszero\n      iszero\n      eq\n        /* \"Contract_Templates/Tanda.sol\":3693:3886  require(allPaidOut() == false, \"Everyone has been paid out once, effectively ending the Tanda. Thank you for participating! Restart a new agreement if you'd like to continue with this Tanda.\" ) */\n      tag_90\n      jumpi\n      mload(0x40)\n      0x08c379a000000000000000000000000000000000000000000000000000000000\n      dup2\n      mstore\n      0x04\n      add\n      tag_91\n      swap1\n      tag_92\n      jump\t// in\n    tag_91:\n      mload(0x40)\n      dup1\n      swap2\n      sub\n      swap1\n      revert\n    tag_90:\n        /* \"Contract_Templates/Tanda.sol\":3913:3933  isMember(msg.sender) */\n      tag_93\n        /* \"Contract_Templates/Tanda.sol\":3922:3932  msg.sender */\n      caller\n        /* \"Contract_Templates/Tanda.sol\":3913:3921  isMember */\n      tag_39\n        /* \"Contract_Templates/Tanda.sol\":3913:3933  isMember(msg.sender) */\n      jump\t// in\n    tag_93:\n        /* \"Contract_Templates/Tanda.sol\":3905:3961  require(isMember(msg.sender), \"Not a registered member\") */\n      tag_94\n      jumpi\n      mload(0x40)\n      0x08c379a000000000000000000000000000000000000000000000000000000000\n      dup2\n      mstore\n      0x04\n      add\n      tag_95\n      swap1\n      tag_42\n      jump\t// in\n    tag_95:\n      mload(0x40)\n      dup1\n      swap2\n      sub\n      swap1\n      revert\n    tag_94:\n        /* \"Contract_Templates/Tanda.sol\":4036:4059  hasContributedThisCycle */\n      0x05\n        /* \"Contract_Templates/Tanda.sol\":4036:4071  hasContributedThisCycle[msg.sender] */\n      0x00\n        /* \"Contract_Templates/Tanda.sol\":4060:4070  msg.sender */\n      caller\n        /* \"Contract_Templates/Tanda.sol\":4036:4071  hasContributedThisCycle[msg.sender] */\n      0xffffffffffffffffffffffffffffffffffffffff\n      and\n      0xffffffffffffffffffffffffffffffffffffffff\n      and\n      dup2\n      mstore\n      0x20\n      add\n      swap1\n      dup2\n      mstore\n      0x20\n      add\n      0x00\n      keccak256\n      0x00\n      swap1\n      sload\n      swap1\n      0x0100\n      exp\n      swap1\n      div\n      0xff\n      and\n        /* \"Contract_Templates/Tanda.sol\":4035:4071  !hasContributedThisCycle[msg.sender] */\n      iszero\n        /* \"Contract_Templates/Tanda.sol\":4027:4106  require(!hasContributedThisCycle[msg.sender], \"Already contributed this cycle\") */\n      tag_96\n      jumpi\n      mload(0x40)\n      0x08c379a000000000000000000000000000000000000000000000000000000000\n      dup2\n      mstore\n      0x04\n      add\n      tag_97\n      swap1\n      tag_98\n      jump\t// in\n    tag_97:\n      mload(0x40)\n      dup1\n      swap2\n      sub\n      swap1\n      revert\n    tag_96:\n        /* \"Contract_Templates/Tanda.sol\":4190:4208  contributionAmount */\n      sload(0x02)\n        /* \"Contract_Templates/Tanda.sol\":4177:4186  msg.value */\n      callvalue\n        /* \"Contract_Templates/Tanda.sol\":4177:4208  msg.value == contributionAmount */\n      eq\n        /* \"Contract_Templates/Tanda.sol\":4169:4242  require(msg.value == contributionAmount, \"Incorrect contribution amount\") */\n      tag_99\n      jumpi\n      mload(0x40)\n      0x08c379a000000000000000000000000000000000000000000000000000000000\n      dup2\n      mstore\n      0x04\n      add\n      tag_100\n      swap1\n      tag_101\n      jump\t// in\n    tag_100:\n      mload(0x40)\n      dup1\n      swap2\n      sub\n      swap1\n      revert\n    tag_99:\n        /* \"Contract_Templates/Tanda.sol\":4277:4282  false */\n      0x00\n        /* \"Contract_Templates/Tanda.sol\":4261:4282  allPaidOut() == false */\n      iszero\n      iszero\n        /* \"Contract_Templates/Tanda.sol\":4261:4273  allPaidOut() */\n      tag_102\n        /* \"Contract_Templates/Tanda.sol\":4261:4271  allPaidOut */\n      tag_23\n        /* \"Contract_Templates/Tanda.sol\":4261:4273  allPaidOut() */\n      jump\t// in\n    tag_102:\n        /* \"Contract_Templates/Tanda.sol\":4261:4282  allPaidOut() == false */\n      iszero\n      iszero\n      eq\n        /* \"Contract_Templates/Tanda.sol\":4253:4416  require(allPaidOut() == false, \"Everyone has been paid out once. Thank you for participating! Restart a new agreement if you'd like to continue with this Tanda.\" ) */\n      tag_103\n      jumpi\n      mload(0x40)\n      0x08c379a000000000000000000000000000000000000000000000000000000000\n      dup2\n      mstore\n      0x04\n      add\n      tag_104\n      swap1\n      tag_105\n      jump\t// in\n    tag_104:\n      mload(0x40)\n      dup1\n      swap2\n      sub\n      swap1\n      revert\n    tag_103:\n        /* \"Contract_Templates/Tanda.sol\":4505:4526  uint256 cycleDuration */\n      0x00\n        /* \"Contract_Templates/Tanda.sol\":4560:4567  1 weeks */\n      0x093a80\n        /* \"Contract_Templates/Tanda.sol\":4529:4557  contributionFrequencyInWeeks */\n      sload(0x01)\n        /* \"Contract_Templates/Tanda.sol\":4529:4567  contributionFrequencyInWeeks * 1 weeks */\n      tag_106\n      swap2\n      swap1\n      tag_75\n      jump\t// in\n    tag_106:\n        /* \"Contract_Templates/Tanda.sol\":4505:4567  uint256 cycleDuration = contributionFrequencyInWeeks * 1 weeks */\n      swap1\n      pop\n        /* \"Contract_Templates/Tanda.sol\":4634:4647  cycleDuration */\n      dup1\n        /* \"Contract_Templates/Tanda.sol\":4617:4631  cycleStartTime */\n      sload(0x07)\n        /* \"Contract_Templates/Tanda.sol\":4617:4647  cycleStartTime + cycleDuration */\n      tag_107\n      swap2\n      swap1\n      tag_51\n      jump\t// in\n    tag_107:\n        /* \"Contract_Templates/Tanda.sol\":4598:4613  block.timestamp */\n      timestamp\n        /* \"Contract_Templates/Tanda.sol\":4598:4648  block.timestamp < (cycleStartTime + cycleDuration) */\n      lt\n        /* \"Contract_Templates/Tanda.sol\":4577:4718  require(... */\n      tag_108\n      jumpi\n      mload(0x40)\n      0x08c379a000000000000000000000000000000000000000000000000000000000\n      dup2\n      mstore\n      0x04\n      add\n      tag_109\n      swap1\n      tag_110\n      jump\t// in\n    tag_109:\n      mload(0x40)\n      dup1\n      swap2\n      sub\n      swap1\n      revert\n    tag_108:\n        /* \"Contract_Templates/Tanda.sol\":4806:4810  true */\n      0x01\n        /* \"Contract_Templates/Tanda.sol\":4768:4791  hasContributedThisCycle */\n      0x05\n        /* \"Contract_Templates/Tanda.sol\":4768:4803  hasContributedThisCycle[msg.sender] */\n      0x00\n        /* \"Contract_Templates/Tanda.sol\":4792:4802  msg.sender */\n      caller\n        /* \"Contract_Templates/Tanda.sol\":4768:4803  hasContributedThisCycle[msg.sender] */\n      0xffffffffffffffffffffffffffffffffffffffff\n      and\n      0xffffffffffffffffffffffffffffffffffffffff\n      and\n      dup2\n      mstore\n      0x20\n      add\n      swap1\n      dup2\n      mstore\n      0x20\n      add\n      0x00\n      keccak256\n      0x00\n        /* \"Contract_Templates/Tanda.sol\":4768:4810  hasContributedThisCycle[msg.sender] = true */\n      0x0100\n      exp\n      dup2\n      sload\n      dup2\n      0xff\n      mul\n      not\n      and\n      swap1\n      dup4\n      iszero\n      iszero\n      mul\n      or\n      swap1\n      sstore\n      pop\n        /* \"Contract_Templates/Tanda.sol\":4846:4847  1 */\n      0x01\n        /* \"Contract_Templates/Tanda.sol\":4820:4842  contributionsThisCycle */\n      0x06\n      0x00\n        /* \"Contract_Templates/Tanda.sol\":4820:4847  contributionsThisCycle += 1 */\n      dup3\n      dup3\n      sload\n      tag_111\n      swap2\n      swap1\n      tag_51\n      jump\t// in\n    tag_111:\n      swap3\n      pop\n      pop\n      dup2\n      swap1\n      sstore\n      pop\n        /* \"Contract_Templates/Tanda.sol\":4962:4972  numMembers */\n      sload(0x00)\n        /* \"Contract_Templates/Tanda.sol\":4936:4958  contributionsThisCycle */\n      sload(0x06)\n        /* \"Contract_Templates/Tanda.sol\":4936:4972  contributionsThisCycle == numMembers */\n      eq\n        /* \"Contract_Templates/Tanda.sol\":4936:5027  contributionsThisCycle == numMembers && block.timestamp >= (cycleStartTime + cycleDuration) */\n      dup1\n      iszero\n      tag_112\n      jumpi\n      pop\n        /* \"Contract_Templates/Tanda.sol\":5013:5026  cycleDuration */\n      dup1\n        /* \"Contract_Templates/Tanda.sol\":4996:5010  cycleStartTime */\n      sload(0x07)\n        /* \"Contract_Templates/Tanda.sol\":4996:5026  cycleStartTime + cycleDuration */\n      tag_113\n      swap2\n      swap1\n      tag_51\n      jump\t// in\n    tag_113:\n        /* \"Contract_Templates/Tanda.sol\":4976:4991  block.timestamp */\n      timestamp\n        /* \"Contract_Templates/Tanda.sol\":4976:5027  block.timestamp >= (cycleStartTime + cycleDuration) */\n      lt\n      iszero\n        /* \"Contract_Templates/Tanda.sol\":4936:5027  contributionsThisCycle == numMembers && block.timestamp >= (cycleStartTime + cycleDuration) */\n    tag_112:\n        /* \"Contract_Templates/Tanda.sol\":4932:5069  if (contributionsThisCycle == numMembers && block.timestamp >= (cycleStartTime + cycleDuration)) {... */\n      iszero\n      tag_114\n      jumpi\n        /* \"Contract_Templates/Tanda.sol\":5043:5058  finalizeCycle() */\n      tag_115\n        /* \"Contract_Templates/Tanda.sol\":5043:5056  finalizeCycle */\n      tag_30\n        /* \"Contract_Templates/Tanda.sol\":5043:5058  finalizeCycle() */\n      jump\t// in\n    tag_115:\n        /* \"Contract_Templates/Tanda.sol\":4932:5069  if (contributionsThisCycle == numMembers && block.timestamp >= (cycleStartTime + cycleDuration)) {... */\n    tag_114:\n        /* \"Contract_Templates/Tanda.sol\":3649:5075  {... */\n      pop\n        /* \"Contract_Templates/Tanda.sol\":3610:5075  function contribute() external payable {... */\n      jump\t// out\n        /* \"Contract_Templates/Tanda.sol\":5269:6135  function finalizeCycle() public {... */\n    tag_30:\n        /* \"Contract_Templates/Tanda.sol\":5320:5340  isMember(msg.sender) */\n      tag_117\n        /* \"Contract_Templates/Tanda.sol\":5329:5339  msg.sender */\n      caller\n        /* \"Contract_Templates/Tanda.sol\":5320:5328  isMember */\n      tag_39\n        /* \"Contract_Templates/Tanda.sol\":5320:5340  isMember(msg.sender) */\n      jump\t// in\n    tag_117:\n        /* \"Contract_Templates/Tanda.sol\":5312:5368  require(isMember(msg.sender), \"Not a registered member\") */\n      tag_118\n      jumpi\n      mload(0x40)\n      0x08c379a000000000000000000000000000000000000000000000000000000000\n      dup2\n      mstore\n      0x04\n      add\n      tag_119\n      swap1\n      tag_42\n      jump\t// in\n    tag_119:\n      mload(0x40)\n      dup1\n      swap2\n      sub\n      swap1\n      revert\n    tag_118:\n        /* \"Contract_Templates/Tanda.sol\":5378:5399  uint256 cycleDuration */\n      0x00\n        /* \"Contract_Templates/Tanda.sol\":5433:5440  1 weeks */\n      0x093a80\n        /* \"Contract_Templates/Tanda.sol\":5402:5430  contributionFrequencyInWeeks */\n      sload(0x01)\n        /* \"Contract_Templates/Tanda.sol\":5402:5440  contributionFrequencyInWeeks * 1 weeks */\n      tag_120\n      swap2\n      swap1\n      tag_75\n      jump\t// in\n    tag_120:\n        /* \"Contract_Templates/Tanda.sol\":5378:5440  uint256 cycleDuration = contributionFrequencyInWeeks * 1 weeks */\n      swap1\n      pop\n        /* \"Contract_Templates/Tanda.sol\":5593:5606  cycleDuration */\n      dup1\n        /* \"Contract_Templates/Tanda.sol\":5576:5590  cycleStartTime */\n      sload(0x07)\n        /* \"Contract_Templates/Tanda.sol\":5576:5606  cycleStartTime + cycleDuration */\n      tag_121\n      swap2\n      swap1\n      tag_51\n      jump\t// in\n    tag_121:\n        /* \"Contract_Templates/Tanda.sol\":5556:5571  block.timestamp */\n      timestamp\n        /* \"Contract_Templates/Tanda.sol\":5556:5607  block.timestamp >= (cycleStartTime + cycleDuration) */\n      lt\n      iszero\n        /* \"Contract_Templates/Tanda.sol\":5556:5659  block.timestamp >= (cycleStartTime + cycleDuration) &&... */\n      dup1\n      iszero\n      tag_122\n      jumpi\n      pop\n        /* \"Contract_Templates/Tanda.sol\":5649:5659  numMembers */\n      sload(0x00)\n        /* \"Contract_Templates/Tanda.sol\":5623:5645  contributionsThisCycle */\n      sload(0x06)\n        /* \"Contract_Templates/Tanda.sol\":5623:5659  contributionsThisCycle == numMembers */\n      eq\n        /* \"Contract_Templates/Tanda.sol\":5556:5659  block.timestamp >= (cycleStartTime + cycleDuration) &&... */\n    tag_122:\n        /* \"Contract_Templates/Tanda.sol\":5535:5757  require(... */\n      tag_123\n      jumpi\n      mload(0x40)\n      0x08c379a000000000000000000000000000000000000000000000000000000000\n      dup2\n      mstore\n      0x04\n      add\n      tag_124\n      swap1\n      tag_125\n      jump\t// in\n    tag_124:\n      mload(0x40)\n      dup1\n      swap2\n      sub\n      swap1\n      revert\n    tag_123:\n        /* \"Contract_Templates/Tanda.sol\":5819:5820  1 */\n      0x01\n        /* \"Contract_Templates/Tanda.sol\":5805:5815  cycleCount */\n      0x08\n      0x00\n        /* \"Contract_Templates/Tanda.sol\":5805:5820  cycleCount += 1 */\n      dup3\n      dup3\n      sload\n      tag_126\n      swap2\n      swap1\n      tag_51\n      jump\t// in\n    tag_126:\n      swap3\n      pop\n      pop\n      dup2\n      swap1\n      sstore\n      pop\n        /* \"Contract_Templates/Tanda.sol\":5893:5902  uint256 i */\n      0x00\n        /* \"Contract_Templates/Tanda.sol\":5888:5997  for (uint256 i = 0; i < numMembers; i++) {... */\n    tag_127:\n        /* \"Contract_Templates/Tanda.sol\":5912:5922  numMembers */\n      sload(0x00)\n        /* \"Contract_Templates/Tanda.sol\":5908:5909  i */\n      dup2\n        /* \"Contract_Templates/Tanda.sol\":5908:5922  i < numMembers */\n      lt\n        /* \"Contract_Templates/Tanda.sol\":5888:5997  for (uint256 i = 0; i < numMembers; i++) {... */\n      iszero\n      tag_128\n      jumpi\n        /* \"Contract_Templates/Tanda.sol\":5981:5986  false */\n      0x00\n        /* \"Contract_Templates/Tanda.sol\":5943:5966  hasContributedThisCycle */\n      0x05\n        /* \"Contract_Templates/Tanda.sol\":5943:5978  hasContributedThisCycle[members[i]] */\n      0x00\n        /* \"Contract_Templates/Tanda.sol\":5967:5974  members */\n      0x04\n        /* \"Contract_Templates/Tanda.sol\":5975:5976  i */\n      dup5\n        /* \"Contract_Templates/Tanda.sol\":5967:5977  members[i] */\n      dup2\n      sload\n      dup2\n      lt\n      tag_130\n      jumpi\n      tag_131\n      tag_56\n      jump\t// in\n    tag_131:\n    tag_130:\n      swap1\n      0x00\n      mstore\n      keccak256(0x00, 0x20)\n      add\n      0x00\n      swap1\n      sload\n      swap1\n      0x0100\n      exp\n      swap1\n      div\n      0xffffffffffffffffffffffffffffffffffffffff\n      and\n        /* \"Contract_Templates/Tanda.sol\":5943:5978  hasContributedThisCycle[members[i]] */\n      0xffffffffffffffffffffffffffffffffffffffff\n      and\n      0xffffffffffffffffffffffffffffffffffffffff\n      and\n      dup2\n      mstore\n      0x20\n      add\n      swap1\n      dup2\n      mstore\n      0x20\n      add\n      0x00\n      keccak256\n      0x00\n        /* \"Contract_Templates/Tanda.sol\":5943:5986  hasContributedThisCycle[members[i]] = false */\n      0x0100\n      exp\n      dup2\n      sload\n      dup2\n      0xff\n      mul\n      not\n      and\n      swap1\n      dup4\n      iszero\n      iszero\n      mul\n      or\n      swap1\n      sstore\n      pop\n        /* \"Contract_Templates/Tanda.sol\":5924:5927  i++ */\n      dup1\n      dup1\n      0x01\n      add\n      swap2\n      pop\n      pop\n        /* \"Contract_Templates/Tanda.sol\":5888:5997  for (uint256 i = 0; i < numMembers; i++) {... */\n      jump(tag_127)\n    tag_128:\n      pop\n        /* \"Contract_Templates/Tanda.sol\":6031:6032  0 */\n      0x00\n        /* \"Contract_Templates/Tanda.sol\":6006:6028  contributionsThisCycle */\n      0x06\n        /* \"Contract_Templates/Tanda.sol\":6006:6032  contributionsThisCycle = 0 */\n      dup2\n      swap1\n      sstore\n      pop\n        /* \"Contract_Templates/Tanda.sol\":6113:6128  block.timestamp */\n      timestamp\n        /* \"Contract_Templates/Tanda.sol\":6096:6110  cycleStartTime */\n      0x07\n        /* \"Contract_Templates/Tanda.sol\":6096:6128  cycleStartTime = block.timestamp */\n      dup2\n      swap1\n      sstore\n      pop\n        /* \"Contract_Templates/Tanda.sol\":5301:6135  {... */\n      pop\n        /* \"Contract_Templates/Tanda.sol\":5269:6135  function finalizeCycle() public {... */\n      jump\t// out\n        /* \"Contract_Templates/Tanda.sol\":8562:8777  function confirmWhoHasContributed(address member_address) public view returns (bool) {... */\n    tag_35:\n        /* \"Contract_Templates/Tanda.sol\":8641:8645  bool */\n      0x00\n        /* \"Contract_Templates/Tanda.sol\":8665:8685  isMember(msg.sender) */\n      tag_134\n        /* \"Contract_Templates/Tanda.sol\":8674:8684  msg.sender */\n      caller\n        /* \"Contract_Templates/Tanda.sol\":8665:8673  isMember */\n      tag_39\n        /* \"Contract_Templates/Tanda.sol\":8665:8685  isMember(msg.sender) */\n      jump\t// in\n    tag_134:\n        /* \"Contract_Templates/Tanda.sol\":8657:8713  require(isMember(msg.sender), \"Not a registered member\") */\n      tag_135\n      jumpi\n      mload(0x40)\n      0x08c379a000000000000000000000000000000000000000000000000000000000\n      dup2\n      mstore\n      0x04\n      add\n      tag_136\n      swap1\n      tag_42\n      jump\t// in\n    tag_136:\n      mload(0x40)\n      dup1\n      swap2\n      sub\n      swap1\n      revert\n    tag_135:\n        /* \"Contract_Templates/Tanda.sol\":8731:8754  hasContributedThisCycle */\n      0x05\n        /* \"Contract_Templates/Tanda.sol\":8731:8770  hasContributedThisCycle[member_address] */\n      0x00\n        /* \"Contract_Templates/Tanda.sol\":8755:8769  member_address */\n      dup4\n        /* \"Contract_Templates/Tanda.sol\":8731:8770  hasContributedThisCycle[member_address] */\n      0xffffffffffffffffffffffffffffffffffffffff\n      and\n      0xffffffffffffffffffffffffffffffffffffffff\n      and\n      dup2\n      mstore\n      0x20\n      add\n      swap1\n      dup2\n      mstore\n      0x20\n      add\n      0x00\n      keccak256\n      0x00\n      swap1\n      sload\n      swap1\n      0x0100\n      exp\n      swap1\n      div\n      0xff\n      and\n        /* \"Contract_Templates/Tanda.sol\":8724:8770  return hasContributedThisCycle[member_address] */\n      swap1\n      pop\n        /* \"Contract_Templates/Tanda.sol\":8562:8777  function confirmWhoHasContributed(address member_address) public view returns (bool) {... */\n      swap2\n      swap1\n      pop\n      jump\t// out\n        /* \"Contract_Templates/Tanda.sol\":7747:7981  function isMember(address _addr) internal view returns (bool) {... */\n    tag_39:\n        /* \"Contract_Templates/Tanda.sol\":7803:7807  bool */\n      0x00\n        /* \"Contract_Templates/Tanda.sol\":7824:7833  uint256 i */\n      dup1\n        /* \"Contract_Templates/Tanda.sol\":7836:7837  0 */\n      0x00\n        /* \"Contract_Templates/Tanda.sol\":7824:7837  uint256 i = 0 */\n      swap1\n      pop\n        /* \"Contract_Templates/Tanda.sol\":7819:7953  for (uint256 i = 0; i < numMembers; i++) {... */\n    tag_138:\n        /* \"Contract_Templates/Tanda.sol\":7843:7853  numMembers */\n      sload(0x00)\n        /* \"Contract_Templates/Tanda.sol\":7839:7840  i */\n      dup2\n        /* \"Contract_Templates/Tanda.sol\":7839:7853  i < numMembers */\n      lt\n        /* \"Contract_Templates/Tanda.sol\":7819:7953  for (uint256 i = 0; i < numMembers; i++) {... */\n      iszero\n      tag_139\n      jumpi\n        /* \"Contract_Templates/Tanda.sol\":7892:7897  _addr */\n      dup3\n        /* \"Contract_Templates/Tanda.sol\":7878:7897  members[i] == _addr */\n      0xffffffffffffffffffffffffffffffffffffffff\n      and\n        /* \"Contract_Templates/Tanda.sol\":7878:7885  members */\n      0x04\n        /* \"Contract_Templates/Tanda.sol\":7886:7887  i */\n      dup3\n        /* \"Contract_Templates/Tanda.sol\":7878:7888  members[i] */\n      dup2\n      sload\n      dup2\n      lt\n      tag_141\n      jumpi\n      tag_142\n      tag_56\n      jump\t// in\n    tag_142:\n    tag_141:\n      swap1\n      0x00\n      mstore\n      keccak256(0x00, 0x20)\n      add\n      0x00\n      swap1\n      sload\n      swap1\n      0x0100\n      exp\n      swap1\n      div\n      0xffffffffffffffffffffffffffffffffffffffff\n      and\n        /* \"Contract_Templates/Tanda.sol\":7878:7897  members[i] == _addr */\n      0xffffffffffffffffffffffffffffffffffffffff\n      and\n      sub\n        /* \"Contract_Templates/Tanda.sol\":7874:7943  if (members[i] == _addr) {... */\n      tag_144\n      jumpi\n        /* \"Contract_Templates/Tanda.sol\":7924:7928  true */\n      0x01\n        /* \"Contract_Templates/Tanda.sol\":7917:7928  return true */\n      swap2\n      pop\n      pop\n      jump(tag_137)\n        /* \"Contract_Templates/Tanda.sol\":7874:7943  if (members[i] == _addr) {... */\n    tag_144:\n        /* \"Contract_Templates/Tanda.sol\":7855:7858  i++ */\n      dup1\n      dup1\n      0x01\n      add\n      swap2\n      pop\n      pop\n        /* \"Contract_Templates/Tanda.sol\":7819:7953  for (uint256 i = 0; i < numMembers; i++) {... */\n      jump(tag_138)\n    tag_139:\n      pop\n        /* \"Contract_Templates/Tanda.sol\":7969:7974  false */\n      0x00\n        /* \"Contract_Templates/Tanda.sol\":7962:7974  return false */\n      swap1\n      pop\n        /* \"Contract_Templates/Tanda.sol\":7747:7981  function isMember(address _addr) internal view returns (bool) {... */\n    tag_137:\n      swap2\n      swap1\n      pop\n      jump\t// out\n        /* \"#utility.yul\":7:176   */\n    tag_145:\n        /* \"#utility.yul\":91:102   */\n      0x00\n        /* \"#utility.yul\":125:131   */\n      dup3\n        /* \"#utility.yul\":120:123   */\n      dup3\n        /* \"#utility.yul\":113:132   */\n      mstore\n        /* \"#utility.yul\":165:169   */\n      0x20\n        /* \"#utility.yul\":160:163   */\n      dup3\n        /* \"#utility.yul\":156:170   */\n      add\n        /* \"#utility.yul\":141:170   */\n      swap1\n      pop\n        /* \"#utility.yul\":7:176   */\n      swap3\n      swap2\n      pop\n      pop\n      jump\t// out\n        /* \"#utility.yul\":182:359   */\n    tag_146:\n        /* \"#utility.yul\":322:351   */\n      0x55736520636f6e74726962757465282920746f206465706f7369740000000000\n        /* \"#utility.yul\":318:319   */\n      0x00\n        /* \"#utility.yul\":310:316   */\n      dup3\n        /* \"#utility.yul\":306:320   */\n      add\n        /* \"#utility.yul\":299:352   */\n      mstore\n        /* \"#utility.yul\":182:359   */\n      pop\n      jump\t// out\n        /* \"#utility.yul\":365:731   */\n    tag_147:\n        /* \"#utility.yul\":507:510   */\n      0x00\n        /* \"#utility.yul\":528:595   */\n      tag_188\n        /* \"#utility.yul\":592:594   */\n      0x1b\n        /* \"#utility.yul\":587:590   */\n      dup4\n        /* \"#utility.yul\":528:595   */\n      tag_145\n      jump\t// in\n    tag_188:\n        /* \"#utility.yul\":521:595   */\n      swap2\n      pop\n        /* \"#utility.yul\":604:697   */\n      tag_189\n        /* \"#utility.yul\":693:696   */\n      dup3\n        /* \"#utility.yul\":604:697   */\n      tag_146\n      jump\t// in\n    tag_189:\n        /* \"#utility.yul\":722:724   */\n      0x20\n        /* \"#utility.yul\":717:720   */\n      dup3\n        /* \"#utility.yul\":713:725   */\n      add\n        /* \"#utility.yul\":706:725   */\n      swap1\n      pop\n        /* \"#utility.yul\":365:731   */\n      swap2\n      swap1\n      pop\n      jump\t// out\n        /* \"#utility.yul\":737:1156   */\n    tag_12:\n        /* \"#utility.yul\":903:907   */\n      0x00\n        /* \"#utility.yul\":941:943   */\n      0x20\n        /* \"#utility.yul\":930:939   */\n      dup3\n        /* \"#utility.yul\":926:944   */\n      add\n        /* \"#utility.yul\":918:944   */\n      swap1\n      pop\n        /* \"#utility.yul\":990:999   */\n      dup2\n        /* \"#utility.yul\":984:988   */\n      dup2\n        /* \"#utility.yul\":980:1000   */\n      sub\n        /* \"#utility.yul\":976:977   */\n      0x00\n        /* \"#utility.yul\":965:974   */\n      dup4\n        /* \"#utility.yul\":961:978   */\n      add\n        /* \"#utility.yul\":954:1001   */\n      mstore\n        /* \"#utility.yul\":1018:1149   */\n      tag_191\n        /* \"#utility.yul\":1144:1148   */\n      dup2\n        /* \"#utility.yul\":1018:1149   */\n      tag_147\n      jump\t// in\n    tag_191:\n        /* \"#utility.yul\":1010:1149   */\n      swap1\n      pop\n        /* \"#utility.yul\":737:1156   */\n      swap2\n      swap1\n      pop\n      jump\t// out\n        /* \"#utility.yul\":1162:1239   */\n    tag_148:\n        /* \"#utility.yul\":1199:1206   */\n      0x00\n        /* \"#utility.yul\":1228:1233   */\n      dup2\n        /* \"#utility.yul\":1217:1233   */\n      swap1\n      pop\n        /* \"#utility.yul\":1162:1239   */\n      swap2\n      swap1\n      pop\n      jump\t// out\n        /* \"#utility.yul\":1245:1363   */\n    tag_149:\n        /* \"#utility.yul\":1332:1356   */\n      tag_194\n        /* \"#utility.yul\":1350:1355   */\n      dup2\n        /* \"#utility.yul\":1332:1356   */\n      tag_148\n      jump\t// in\n    tag_194:\n        /* \"#utility.yul\":1327:1330   */\n      dup3\n        /* \"#utility.yul\":1320:1357   */\n      mstore\n        /* \"#utility.yul\":1245:1363   */\n      pop\n      pop\n      jump\t// out\n        /* \"#utility.yul\":1369:1591   */\n    tag_17:\n        /* \"#utility.yul\":1462:1466   */\n      0x00\n        /* \"#utility.yul\":1500:1502   */\n      0x20\n        /* \"#utility.yul\":1489:1498   */\n      dup3\n        /* \"#utility.yul\":1485:1503   */\n      add\n        /* \"#utility.yul\":1477:1503   */\n      swap1\n      pop\n        /* \"#utility.yul\":1513:1584   */\n      tag_196\n        /* \"#utility.yul\":1581:1582   */\n      0x00\n        /* \"#utility.yul\":1570:1579   */\n      dup4\n        /* \"#utility.yul\":1566:1583   */\n      add\n        /* \"#utility.yul\":1557:1563   */\n      dup5\n        /* \"#utility.yul\":1513:1584   */\n      tag_149\n      jump\t// in\n    tag_196:\n        /* \"#utility.yul\":1369:1591   */\n      swap3\n      swap2\n      pop\n      pop\n      jump\t// out\n        /* \"#utility.yul\":1597:1687   */\n    tag_150:\n        /* \"#utility.yul\":1631:1638   */\n      0x00\n        /* \"#utility.yul\":1674:1679   */\n      dup2\n        /* \"#utility.yul\":1667:1680   */\n      iszero\n        /* \"#utility.yul\":1660:1681   */\n      iszero\n        /* \"#utility.yul\":1649:1681   */\n      swap1\n      pop\n        /* \"#utility.yul\":1597:1687   */\n      swap2\n      swap1\n      pop\n      jump\t// out\n        /* \"#utility.yul\":1693:1802   */\n    tag_151:\n        /* \"#utility.yul\":1774:1795   */\n      tag_199\n        /* \"#utility.yul\":1789:1794   */\n      dup2\n        /* \"#utility.yul\":1774:1795   */\n      tag_150\n      jump\t// in\n    tag_199:\n        /* \"#utility.yul\":1769:1772   */\n      dup3\n        /* \"#utility.yul\":1762:1796   */\n      mstore\n        /* \"#utility.yul\":1693:1802   */\n      pop\n      pop\n      jump\t// out\n        /* \"#utility.yul\":1808:2018   */\n    tag_25:\n        /* \"#utility.yul\":1895:1899   */\n      0x00\n        /* \"#utility.yul\":1933:1935   */\n      0x20\n        /* \"#utility.yul\":1922:1931   */\n      dup3\n        /* \"#utility.yul\":1918:1936   */\n      add\n        /* \"#utility.yul\":1910:1936   */\n      swap1\n      pop\n        /* \"#utility.yul\":1946:2011   */\n      tag_201\n        /* \"#utility.yul\":2008:2009   */\n      0x00\n        /* \"#utility.yul\":1997:2006   */\n      dup4\n        /* \"#utility.yul\":1993:2010   */\n      add\n        /* \"#utility.yul\":1984:1990   */\n      dup5\n        /* \"#utility.yul\":1946:2011   */\n      tag_151\n      jump\t// in\n    tag_201:\n        /* \"#utility.yul\":1808:2018   */\n      swap3\n      swap2\n      pop\n      pop\n      jump\t// out\n        /* \"#utility.yul\":2105:2222   */\n    tag_153:\n        /* \"#utility.yul\":2214:2215   */\n      0x00\n        /* \"#utility.yul\":2211:2212   */\n      dup1\n        /* \"#utility.yul\":2204:2216   */\n      revert\n        /* \"#utility.yul\":2351:2477   */\n    tag_155:\n        /* \"#utility.yul\":2388:2395   */\n      0x00\n        /* \"#utility.yul\":2428:2470   */\n      0xffffffffffffffffffffffffffffffffffffffff\n        /* \"#utility.yul\":2421:2426   */\n      dup3\n        /* \"#utility.yul\":2417:2471   */\n      and\n        /* \"#utility.yul\":2406:2471   */\n      swap1\n      pop\n        /* \"#utility.yul\":2351:2477   */\n      swap2\n      swap1\n      pop\n      jump\t// out\n        /* \"#utility.yul\":2483:2579   */\n    tag_156:\n        /* \"#utility.yul\":2520:2527   */\n      0x00\n        /* \"#utility.yul\":2549:2573   */\n      tag_207\n        /* \"#utility.yul\":2567:2572   */\n      dup3\n        /* \"#utility.yul\":2549:2573   */\n      tag_155\n      jump\t// in\n    tag_207:\n        /* \"#utility.yul\":2538:2573   */\n      swap1\n      pop\n        /* \"#utility.yul\":2483:2579   */\n      swap2\n      swap1\n      pop\n      jump\t// out\n        /* \"#utility.yul\":2585:2707   */\n    tag_157:\n        /* \"#utility.yul\":2658:2682   */\n      tag_209\n        /* \"#utility.yul\":2676:2681   */\n      dup2\n        /* \"#utility.yul\":2658:2682   */\n      tag_156\n      jump\t// in\n    tag_209:\n        /* \"#utility.yul\":2651:2656   */\n      dup2\n        /* \"#utility.yul\":2648:2683   */\n      eq\n        /* \"#utility.yul\":2638:2701   */\n      tag_210\n      jumpi\n        /* \"#utility.yul\":2697:2698   */\n      0x00\n        /* \"#utility.yul\":2694:2695   */\n      dup1\n        /* \"#utility.yul\":2687:2699   */\n      revert\n        /* \"#utility.yul\":2638:2701   */\n    tag_210:\n        /* \"#utility.yul\":2585:2707   */\n      pop\n      jump\t// out\n        /* \"#utility.yul\":2713:2852   */\n    tag_158:\n        /* \"#utility.yul\":2759:2764   */\n      0x00\n        /* \"#utility.yul\":2797:2803   */\n      dup2\n        /* \"#utility.yul\":2784:2804   */\n      calldataload\n        /* \"#utility.yul\":2775:2804   */\n      swap1\n      pop\n        /* \"#utility.yul\":2813:2846   */\n      tag_212\n        /* \"#utility.yul\":2840:2845   */\n      dup2\n        /* \"#utility.yul\":2813:2846   */\n      tag_157\n      jump\t// in\n    tag_212:\n        /* \"#utility.yul\":2713:2852   */\n      swap3\n      swap2\n      pop\n      pop\n      jump\t// out\n        /* \"#utility.yul\":2858:3187   */\n    tag_34:\n        /* \"#utility.yul\":2917:2923   */\n      0x00\n        /* \"#utility.yul\":2966:2968   */\n      0x20\n        /* \"#utility.yul\":2954:2963   */\n      dup3\n        /* \"#utility.yul\":2945:2952   */\n      dup5\n        /* \"#utility.yul\":2941:2964   */\n      sub\n        /* \"#utility.yul\":2937:2969   */\n      slt\n        /* \"#utility.yul\":2934:3053   */\n      iszero\n      tag_214\n      jumpi\n        /* \"#utility.yul\":2972:3051   */\n      tag_215\n      tag_153\n      jump\t// in\n    tag_215:\n        /* \"#utility.yul\":2934:3053   */\n    tag_214:\n        /* \"#utility.yul\":3092:3093   */\n      0x00\n        /* \"#utility.yul\":3117:3170   */\n      tag_216\n        /* \"#utility.yul\":3162:3169   */\n      dup5\n        /* \"#utility.yul\":3153:3159   */\n      dup3\n        /* \"#utility.yul\":3142:3151   */\n      dup6\n        /* \"#utility.yul\":3138:3160   */\n      add\n        /* \"#utility.yul\":3117:3170   */\n      tag_158\n      jump\t// in\n    tag_216:\n        /* \"#utility.yul\":3107:3170   */\n      swap2\n      pop\n        /* \"#utility.yul\":3063:3180   */\n      pop\n        /* \"#utility.yul\":2858:3187   */\n      swap3\n      swap2\n      pop\n      pop\n      jump\t// out\n        /* \"#utility.yul\":3193:3366   */\n    tag_159:\n        /* \"#utility.yul\":3333:3358   */\n      0x4e6f7420612072656769737465726564206d656d626572000000000000000000\n        /* \"#utility.yul\":3329:3330   */\n      0x00\n        /* \"#utility.yul\":3321:3327   */\n      dup3\n        /* \"#utility.yul\":3317:3331   */\n      add\n        /* \"#utility.yul\":3310:3359   */\n      mstore\n        /* \"#utility.yul\":3193:3366   */\n      pop\n      jump\t// out\n        /* \"#utility.yul\":3372:3738   */\n    tag_160:\n        /* \"#utility.yul\":3514:3517   */\n      0x00\n        /* \"#utility.yul\":3535:3602   */\n      tag_219\n        /* \"#utility.yul\":3599:3601   */\n      0x17\n        /* \"#utility.yul\":3594:3597   */\n      dup4\n        /* \"#utility.yul\":3535:3602   */\n      tag_145\n      jump\t// in\n    tag_219:\n        /* \"#utility.yul\":3528:3602   */\n      swap2\n      pop\n        /* \"#utility.yul\":3611:3704   */\n      tag_220\n        /* \"#utility.yul\":3700:3703   */\n      dup3\n        /* \"#utility.yul\":3611:3704   */\n      tag_159\n      jump\t// in\n    tag_220:\n        /* \"#utility.yul\":3729:3731   */\n      0x20\n        /* \"#utility.yul\":3724:3727   */\n      dup3\n        /* \"#utility.yul\":3720:3732   */\n      add\n        /* \"#utility.yul\":3713:3732   */\n      swap1\n      pop\n        /* \"#utility.yul\":3372:3738   */\n      swap2\n      swap1\n      pop\n      jump\t// out\n        /* \"#utility.yul\":3744:4163   */\n    tag_42:\n        /* \"#utility.yul\":3910:3914   */\n      0x00\n        /* \"#utility.yul\":3948:3950   */\n      0x20\n        /* \"#utility.yul\":3937:3946   */\n      dup3\n        /* \"#utility.yul\":3933:3951   */\n      add\n        /* \"#utility.yul\":3925:3951   */\n      swap1\n      pop\n        /* \"#utility.yul\":3997:4006   */\n      dup2\n        /* \"#utility.yul\":3991:3995   */\n      dup2\n        /* \"#utility.yul\":3987:4007   */\n      sub\n        /* \"#utility.yul\":3983:3984   */\n      0x00\n        /* \"#utility.yul\":3972:3981   */\n      dup4\n        /* \"#utility.yul\":3968:3985   */\n      add\n        /* \"#utility.yul\":3961:4008   */\n      mstore\n        /* \"#utility.yul\":4025:4156   */\n      tag_222\n        /* \"#utility.yul\":4151:4155   */\n      dup2\n        /* \"#utility.yul\":4025:4156   */\n      tag_160\n      jump\t// in\n    tag_222:\n        /* \"#utility.yul\":4017:4156   */\n      swap1\n      pop\n        /* \"#utility.yul\":3744:4163   */\n      swap2\n      swap1\n      pop\n      jump\t// out\n        /* \"#utility.yul\":4169:4349   */\n    tag_161:\n        /* \"#utility.yul\":4217:4294   */\n      0x4e487b7100000000000000000000000000000000000000000000000000000000\n        /* \"#utility.yul\":4214:4215   */\n      0x00\n        /* \"#utility.yul\":4207:4295   */\n      mstore\n        /* \"#utility.yul\":4314:4318   */\n      0x11\n        /* \"#utility.yul\":4311:4312   */\n      0x04\n        /* \"#utility.yul\":4304:4319   */\n      mstore\n        /* \"#utility.yul\":4338:4342   */\n      0x24\n        /* \"#utility.yul\":4335:4336   */\n      0x00\n        /* \"#utility.yul\":4328:4343   */\n      revert\n        /* \"#utility.yul\":4355:4546   */\n    tag_51:\n        /* \"#utility.yul\":4395:4398   */\n      0x00\n        /* \"#utility.yul\":4414:4434   */\n      tag_225\n        /* \"#utility.yul\":4432:4433   */\n      dup3\n        /* \"#utility.yul\":4414:4434   */\n      tag_148\n      jump\t// in\n    tag_225:\n        /* \"#utility.yul\":4409:4434   */\n      swap2\n      pop\n        /* \"#utility.yul\":4448:4468   */\n      tag_226\n        /* \"#utility.yul\":4466:4467   */\n      dup4\n        /* \"#utility.yul\":4448:4468   */\n      tag_148\n      jump\t// in\n    tag_226:\n        /* \"#utility.yul\":4443:4468   */\n      swap3\n      pop\n        /* \"#utility.yul\":4491:4492   */\n      dup3\n        /* \"#utility.yul\":4488:4489   */\n      dup3\n        /* \"#utility.yul\":4484:4493   */\n      add\n        /* \"#utility.yul\":4477:4493   */\n      swap1\n      pop\n        /* \"#utility.yul\":4512:4515   */\n      dup1\n        /* \"#utility.yul\":4509:4510   */\n      dup3\n        /* \"#utility.yul\":4506:4516   */\n      gt\n        /* \"#utility.yul\":4503:4539   */\n      iszero\n      tag_227\n      jumpi\n        /* \"#utility.yul\":4519:4537   */\n      tag_228\n      tag_161\n      jump\t// in\n    tag_228:\n        /* \"#utility.yul\":4503:4539   */\n    tag_227:\n        /* \"#utility.yul\":4355:4546   */\n      swap3\n      swap2\n      pop\n      pop\n      jump\t// out\n        /* \"#utility.yul\":4552:4732   */\n    tag_162:\n        /* \"#utility.yul\":4600:4677   */\n      0x4e487b7100000000000000000000000000000000000000000000000000000000\n        /* \"#utility.yul\":4597:4598   */\n      0x00\n        /* \"#utility.yul\":4590:4678   */\n      mstore\n        /* \"#utility.yul\":4697:4701   */\n      0x12\n        /* \"#utility.yul\":4694:4695   */\n      0x04\n        /* \"#utility.yul\":4687:4702   */\n      mstore\n        /* \"#utility.yul\":4721:4725   */\n      0x24\n        /* \"#utility.yul\":4718:4719   */\n      0x00\n        /* \"#utility.yul\":4711:4726   */\n      revert\n        /* \"#utility.yul\":4738:4914   */\n    tag_53:\n        /* \"#utility.yul\":4770:4771   */\n      0x00\n        /* \"#utility.yul\":4787:4807   */\n      tag_231\n        /* \"#utility.yul\":4805:4806   */\n      dup3\n        /* \"#utility.yul\":4787:4807   */\n      tag_148\n      jump\t// in\n    tag_231:\n        /* \"#utility.yul\":4782:4807   */\n      swap2\n      pop\n        /* \"#utility.yul\":4821:4841   */\n      tag_232\n        /* \"#utility.yul\":4839:4840   */\n      dup4\n        /* \"#utility.yul\":4821:4841   */\n      tag_148\n      jump\t// in\n    tag_232:\n        /* \"#utility.yul\":4816:4841   */\n      swap3\n      pop\n        /* \"#utility.yul\":4860:4861   */\n      dup3\n        /* \"#utility.yul\":4850:4885   */\n      tag_233\n      jumpi\n        /* \"#utility.yul\":4865:4883   */\n      tag_234\n      tag_162\n      jump\t// in\n    tag_234:\n        /* \"#utility.yul\":4850:4885   */\n    tag_233:\n        /* \"#utility.yul\":4906:4907   */\n      dup3\n        /* \"#utility.yul\":4903:4904   */\n      dup3\n        /* \"#utility.yul\":4899:4908   */\n      mod\n        /* \"#utility.yul\":4894:4908   */\n      swap1\n      pop\n        /* \"#utility.yul\":4738:4914   */\n      swap3\n      swap2\n      pop\n      pop\n      jump\t// out\n        /* \"#utility.yul\":4920:5100   */\n    tag_56:\n        /* \"#utility.yul\":4968:5045   */\n      0x4e487b7100000000000000000000000000000000000000000000000000000000\n        /* \"#utility.yul\":4965:4966   */\n      0x00\n        /* \"#utility.yul\":4958:5046   */\n      mstore\n        /* \"#utility.yul\":5065:5069   */\n      0x32\n        /* \"#utility.yul\":5062:5063   */\n      0x04\n        /* \"#utility.yul\":5055:5070   */\n      mstore\n        /* \"#utility.yul\":5089:5093   */\n      0x24\n        /* \"#utility.yul\":5086:5087   */\n      0x00\n        /* \"#utility.yul\":5079:5094   */\n      revert\n        /* \"#utility.yul\":5106:5327   */\n    tag_163:\n        /* \"#utility.yul\":5246:5280   */\n      0x416c6c206d656d62657273206861766520616c7265616479206265656e207061\n        /* \"#utility.yul\":5242:5243   */\n      0x00\n        /* \"#utility.yul\":5234:5240   */\n      dup3\n        /* \"#utility.yul\":5230:5244   */\n      add\n        /* \"#utility.yul\":5223:5281   */\n      mstore\n        /* \"#utility.yul\":5315:5319   */\n      0x6964000000000000000000000000000000000000000000000000000000000000\n        /* \"#utility.yul\":5310:5312   */\n      0x20\n        /* \"#utility.yul\":5302:5308   */\n      dup3\n        /* \"#utility.yul\":5298:5313   */\n      add\n        /* \"#utility.yul\":5291:5320   */\n      mstore\n        /* \"#utility.yul\":5106:5327   */\n      pop\n      jump\t// out\n        /* \"#utility.yul\":5333:5699   */\n    tag_164:\n        /* \"#utility.yul\":5475:5478   */\n      0x00\n        /* \"#utility.yul\":5496:5563   */\n      tag_238\n        /* \"#utility.yul\":5560:5562   */\n      0x22\n        /* \"#utility.yul\":5555:5558   */\n      dup4\n        /* \"#utility.yul\":5496:5563   */\n      tag_145\n      jump\t// in\n    tag_238:\n        /* \"#utility.yul\":5489:5563   */\n      swap2\n      pop\n        /* \"#utility.yul\":5572:5665   */\n      tag_239\n        /* \"#utility.yul\":5661:5664   */\n      dup3\n        /* \"#utility.yul\":5572:5665   */\n      tag_163\n      jump\t// in\n    tag_239:\n        /* \"#utility.yul\":5690:5692   */\n      0x40\n        /* \"#utility.yul\":5685:5688   */\n      dup3\n        /* \"#utility.yul\":5681:5693   */\n      add\n        /* \"#utility.yul\":5674:5693   */\n      swap1\n      pop\n        /* \"#utility.yul\":5333:5699   */\n      swap2\n      swap1\n      pop\n      jump\t// out\n        /* \"#utility.yul\":5705:6124   */\n    tag_62:\n        /* \"#utility.yul\":5871:5875   */\n      0x00\n        /* \"#utility.yul\":5909:5911   */\n      0x20\n        /* \"#utility.yul\":5898:5907   */\n      dup3\n        /* \"#utility.yul\":5894:5912   */\n      add\n        /* \"#utility.yul\":5886:5912   */\n      swap1\n      pop\n        /* \"#utility.yul\":5958:5967   */\n      dup2\n        /* \"#utility.yul\":5952:5956   */\n      dup2\n        /* \"#utility.yul\":5948:5968   */\n      sub\n        /* \"#utility.yul\":5944:5945   */\n      0x00\n        /* \"#utility.yul\":5933:5942   */\n      dup4\n        /* \"#utility.yul\":5929:5946   */\n      add\n        /* \"#utility.yul\":5922:5969   */\n      mstore\n        /* \"#utility.yul\":5986:6117   */\n      tag_241\n        /* \"#utility.yul\":6112:6116   */\n      dup2\n        /* \"#utility.yul\":5986:6117   */\n      tag_164\n      jump\t// in\n    tag_241:\n        /* \"#utility.yul\":5978:6117   */\n      swap1\n      pop\n        /* \"#utility.yul\":5705:6124   */\n      swap2\n      swap1\n      pop\n      jump\t// out\n        /* \"#utility.yul\":6130:6302   */\n    tag_165:\n        /* \"#utility.yul\":6270:6294   */\n      0x4e6f2066756e647320746f206469737472696275746500000000000000000000\n        /* \"#utility.yul\":6266:6267   */\n      0x00\n        /* \"#utility.yul\":6258:6264   */\n      dup3\n        /* \"#utility.yul\":6254:6268   */\n      add\n        /* \"#utility.yul\":6247:6295   */\n      mstore\n        /* \"#utility.yul\":6130:6302   */\n      pop\n      jump\t// out\n        /* \"#utility.yul\":6308:6674   */\n    tag_166:\n        /* \"#utility.yul\":6450:6453   */\n      0x00\n        /* \"#utility.yul\":6471:6538   */\n      tag_244\n        /* \"#utility.yul\":6535:6537   */\n      0x16\n        /* \"#utility.yul\":6530:6533   */\n      dup4\n        /* \"#utility.yul\":6471:6538   */\n      tag_145\n      jump\t// in\n    tag_244:\n        /* \"#utility.yul\":6464:6538   */\n      swap2\n      pop\n        /* \"#utility.yul\":6547:6640   */\n      tag_245\n        /* \"#utility.yul\":6636:6639   */\n      dup3\n        /* \"#utility.yul\":6547:6640   */\n      tag_165\n      jump\t// in\n    tag_245:\n        /* \"#utility.yul\":6665:6667   */\n      0x20\n        /* \"#utility.yul\":6660:6663   */\n      dup3\n        /* \"#utility.yul\":6656:6668   */\n      add\n        /* \"#utility.yul\":6649:6668   */\n      swap1\n      pop\n        /* \"#utility.yul\":6308:6674   */\n      swap2\n      swap1\n      pop\n      jump\t// out\n        /* \"#utility.yul\":6680:7099   */\n    tag_65:\n        /* \"#utility.yul\":6846:6850   */\n      0x00\n        /* \"#utility.yul\":6884:6886   */\n      0x20\n        /* \"#utility.yul\":6873:6882   */\n      dup3\n        /* \"#utility.yul\":6869:6887   */\n      add\n        /* \"#utility.yul\":6861:6887   */\n      swap1\n      pop\n        /* \"#utility.yul\":6933:6942   */\n      dup2\n        /* \"#utility.yul\":6927:6931   */\n      dup2\n        /* \"#utility.yul\":6923:6943   */\n      sub\n        /* \"#utility.yul\":6919:6920   */\n      0x00\n        /* \"#utility.yul\":6908:6917   */\n      dup4\n        /* \"#utility.yul\":6904:6921   */\n      add\n        /* \"#utility.yul\":6897:6944   */\n      mstore\n        /* \"#utility.yul\":6961:7092   */\n      tag_247\n        /* \"#utility.yul\":7087:7091   */\n      dup2\n        /* \"#utility.yul\":6961:7092   */\n      tag_166\n      jump\t// in\n    tag_247:\n        /* \"#utility.yul\":6953:7092   */\n      swap1\n      pop\n        /* \"#utility.yul\":6680:7099   */\n      swap2\n      swap1\n      pop\n      jump\t// out\n        /* \"#utility.yul\":7105:7252   */\n    tag_167:\n        /* \"#utility.yul\":7206:7217   */\n      0x00\n        /* \"#utility.yul\":7243:7246   */\n      dup2\n        /* \"#utility.yul\":7228:7246   */\n      swap1\n      pop\n        /* \"#utility.yul\":7105:7252   */\n      swap3\n      swap2\n      pop\n      pop\n      jump\t// out\n        /* \"#utility.yul\":7258:7372   */\n    tag_168:\n      pop\n      jump\t// out\n        /* \"#utility.yul\":7378:7776   */\n    tag_169:\n        /* \"#utility.yul\":7537:7540   */\n      0x00\n        /* \"#utility.yul\":7558:7641   */\n      tag_251\n        /* \"#utility.yul\":7639:7640   */\n      0x00\n        /* \"#utility.yul\":7634:7637   */\n      dup4\n        /* \"#utility.yul\":7558:7641   */\n      tag_167\n      jump\t// in\n    tag_251:\n        /* \"#utility.yul\":7551:7641   */\n      swap2\n      pop\n        /* \"#utility.yul\":7650:7743   */\n      tag_252\n        /* \"#utility.yul\":7739:7742   */\n      dup3\n        /* \"#utility.yul\":7650:7743   */\n      tag_168\n      jump\t// in\n    tag_252:\n        /* \"#utility.yul\":7768:7769   */\n      0x00\n        /* \"#utility.yul\":7763:7766   */\n      dup3\n        /* \"#utility.yul\":7759:7770   */\n      add\n        /* \"#utility.yul\":7752:7770   */\n      swap1\n      pop\n        /* \"#utility.yul\":7378:7776   */\n      swap2\n      swap1\n      pop\n      jump\t// out\n        /* \"#utility.yul\":7782:8161   */\n    tag_67:\n        /* \"#utility.yul\":7966:7969   */\n      0x00\n        /* \"#utility.yul\":7988:8135   */\n      tag_254\n        /* \"#utility.yul\":8131:8134   */\n      dup3\n        /* \"#utility.yul\":7988:8135   */\n      tag_169\n      jump\t// in\n    tag_254:\n        /* \"#utility.yul\":7981:8135   */\n      swap2\n      pop\n        /* \"#utility.yul\":8152:8155   */\n      dup2\n        /* \"#utility.yul\":8145:8155   */\n      swap1\n      pop\n        /* \"#utility.yul\":7782:8161   */\n      swap2\n      swap1\n      pop\n      jump\t// out\n        /* \"#utility.yul\":8167:8332   */\n    tag_170:\n        /* \"#utility.yul\":8307:8324   */\n      0x5472616e73666572206661696c65640000000000000000000000000000000000\n        /* \"#utility.yul\":8303:8304   */\n      0x00\n        /* \"#utility.yul\":8295:8301   */\n      dup3\n        /* \"#utility.yul\":8291:8305   */\n      add\n        /* \"#utility.yul\":8284:8325   */\n      mstore\n        /* \"#utility.yul\":8167:8332   */\n      pop\n      jump\t// out\n        /* \"#utility.yul\":8338:8704   */\n    tag_171:\n        /* \"#utility.yul\":8480:8483   */\n      0x00\n        /* \"#utility.yul\":8501:8568   */\n      tag_257\n        /* \"#utility.yul\":8565:8567   */\n      0x0f\n        /* \"#utility.yul\":8560:8563   */\n      dup4\n        /* \"#utility.yul\":8501:8568   */\n      tag_145\n      jump\t// in\n    tag_257:\n        /* \"#utility.yul\":8494:8568   */\n      swap2\n      pop\n        /* \"#utility.yul\":8577:8670   */\n      tag_258\n        /* \"#utility.yul\":8666:8669   */\n      dup3\n        /* \"#utility.yul\":8577:8670   */\n      tag_170\n      jump\t// in\n    tag_258:\n        /* \"#utility.yul\":8695:8697   */\n      0x20\n        /* \"#utility.yul\":8690:8693   */\n      dup3\n        /* \"#utility.yul\":8686:8698   */\n      add\n        /* \"#utility.yul\":8679:8698   */\n      swap1\n      pop\n        /* \"#utility.yul\":8338:8704   */\n      swap2\n      swap1\n      pop\n      jump\t// out\n        /* \"#utility.yul\":8710:9129   */\n    tag_73:\n        /* \"#utility.yul\":8876:8880   */\n      0x00\n        /* \"#utility.yul\":8914:8916   */\n      0x20\n        /* \"#utility.yul\":8903:8912   */\n      dup3\n        /* \"#utility.yul\":8899:8917   */\n      add\n        /* \"#utility.yul\":8891:8917   */\n      swap1\n      pop\n        /* \"#utility.yul\":8963:8972   */\n      dup2\n        /* \"#utility.yul\":8957:8961   */\n      dup2\n        /* \"#utility.yul\":8953:8973   */\n      sub\n        /* \"#utility.yul\":8949:8950   */\n      0x00\n        /* \"#utility.yul\":8938:8947   */\n      dup4\n        /* \"#utility.yul\":8934:8951   */\n      add\n        /* \"#utility.yul\":8927:8974   */\n      mstore\n        /* \"#utility.yul\":8991:9122   */\n      tag_260\n        /* \"#utility.yul\":9117:9121   */\n      dup2\n        /* \"#utility.yul\":8991:9122   */\n      tag_171\n      jump\t// in\n    tag_260:\n        /* \"#utility.yul\":8983:9122   */\n      swap1\n      pop\n        /* \"#utility.yul\":8710:9129   */\n      swap2\n      swap1\n      pop\n      jump\t// out\n        /* \"#utility.yul\":9135:9545   */\n    tag_75:\n        /* \"#utility.yul\":9175:9182   */\n      0x00\n        /* \"#utility.yul\":9198:9218   */\n      tag_262\n        /* \"#utility.yul\":9216:9217   */\n      dup3\n        /* \"#utility.yul\":9198:9218   */\n      tag_148\n      jump\t// in\n    tag_262:\n        /* \"#utility.yul\":9193:9218   */\n      swap2\n      pop\n        /* \"#utility.yul\":9232:9252   */\n      tag_263\n        /* \"#utility.yul\":9250:9251   */\n      dup4\n        /* \"#utility.yul\":9232:9252   */\n      tag_148\n      jump\t// in\n    tag_263:\n        /* \"#utility.yul\":9227:9252   */\n      swap3\n      pop\n        /* \"#utility.yul\":9287:9288   */\n      dup3\n        /* \"#utility.yul\":9284:9285   */\n      dup3\n        /* \"#utility.yul\":9280:9289   */\n      mul\n        /* \"#utility.yul\":9309:9339   */\n      tag_264\n        /* \"#utility.yul\":9327:9338   */\n      dup2\n        /* \"#utility.yul\":9309:9339   */\n      tag_148\n      jump\t// in\n    tag_264:\n        /* \"#utility.yul\":9298:9339   */\n      swap2\n      pop\n        /* \"#utility.yul\":9488:9489   */\n      dup3\n        /* \"#utility.yul\":9479:9486   */\n      dup3\n        /* \"#utility.yul\":9475:9490   */\n      div\n        /* \"#utility.yul\":9472:9473   */\n      dup5\n        /* \"#utility.yul\":9469:9491   */\n      eq\n        /* \"#utility.yul\":9449:9450   */\n      dup4\n        /* \"#utility.yul\":9442:9451   */\n      iszero\n        /* \"#utility.yul\":9422:9505   */\n      or\n        /* \"#utility.yul\":9399:9538   */\n      tag_265\n      jumpi\n        /* \"#utility.yul\":9518:9536   */\n      tag_266\n      tag_161\n      jump\t// in\n    tag_266:\n        /* \"#utility.yul\":9399:9538   */\n    tag_265:\n        /* \"#utility.yul\":9183:9545   */\n      pop\n        /* \"#utility.yul\":9135:9545   */\n      swap3\n      swap2\n      pop\n      pop\n      jump\t// out\n        /* \"#utility.yul\":9551:10008   */\n    tag_172:\n        /* \"#utility.yul\":9691:9725   */\n      0x45766572796f6e6520686173206265656e2070616964206f7574206f6e63652c\n        /* \"#utility.yul\":9687:9688   */\n      0x00\n        /* \"#utility.yul\":9679:9685   */\n      dup3\n        /* \"#utility.yul\":9675:9689   */\n      add\n        /* \"#utility.yul\":9668:9726   */\n      mstore\n        /* \"#utility.yul\":9760:9794   */\n      0x206566666563746976656c7920656e64696e67207468652054616e64612e2054\n        /* \"#utility.yul\":9755:9757   */\n      0x20\n        /* \"#utility.yul\":9747:9753   */\n      dup3\n        /* \"#utility.yul\":9743:9758   */\n      add\n        /* \"#utility.yul\":9736:9795   */\n      mstore\n        /* \"#utility.yul\":9829:9863   */\n      0x68616e6b20796f7520666f722070617274696369706174696e67212052657374\n        /* \"#utility.yul\":9824:9826   */\n      0x40\n        /* \"#utility.yul\":9816:9822   */\n      dup3\n        /* \"#utility.yul\":9812:9827   */\n      add\n        /* \"#utility.yul\":9805:9864   */\n      mstore\n        /* \"#utility.yul\":9898:9932   */\n      0x6172742061206e65772061677265656d656e7420696620796f752764206c696b\n        /* \"#utility.yul\":9893:9895   */\n      0x60\n        /* \"#utility.yul\":9885:9891   */\n      dup3\n        /* \"#utility.yul\":9881:9896   */\n      add\n        /* \"#utility.yul\":9874:9933   */\n      mstore\n        /* \"#utility.yul\":9968:10000   */\n      0x6520746f20636f6e74696e7565207769746820746869732054616e64612e0000\n        /* \"#utility.yul\":9962:9965   */\n      0x80\n        /* \"#utility.yul\":9954:9960   */\n      dup3\n        /* \"#utility.yul\":9950:9966   */\n      add\n        /* \"#utility.yul\":9943:10001   */\n      mstore\n        /* \"#utility.yul\":9551:10008   */\n      pop\n      jump\t// out\n        /* \"#utility.yul\":10014:10382   */\n    tag_173:\n        /* \"#utility.yul\":10156:10159   */\n      0x00\n        /* \"#utility.yul\":10177:10245   */\n      tag_269\n        /* \"#utility.yul\":10241:10244   */\n      0x9e\n        /* \"#utility.yul\":10236:10239   */\n      dup4\n        /* \"#utility.yul\":10177:10245   */\n      tag_145\n      jump\t// in\n    tag_269:\n        /* \"#utility.yul\":10170:10245   */\n      swap2\n      pop\n        /* \"#utility.yul\":10254:10347   */\n      tag_270\n        /* \"#utility.yul\":10343:10346   */\n      dup3\n        /* \"#utility.yul\":10254:10347   */\n      tag_172\n      jump\t// in\n    tag_270:\n        /* \"#utility.yul\":10372:10375   */\n      0xa0\n        /* \"#utility.yul\":10367:10370   */\n      dup3\n        /* \"#utility.yul\":10363:10376   */\n      add\n        /* \"#utility.yul\":10356:10376   */\n      swap1\n      pop\n        /* \"#utility.yul\":10014:10382   */\n      swap2\n      swap1\n      pop\n      jump\t// out\n        /* \"#utility.yul\":10388:10807   */\n    tag_92:\n        /* \"#utility.yul\":10554:10558   */\n      0x00\n        /* \"#utility.yul\":10592:10594   */\n      0x20\n        /* \"#utility.yul\":10581:10590   */\n      dup3\n        /* \"#utility.yul\":10577:10595   */\n      add\n        /* \"#utility.yul\":10569:10595   */\n      swap1\n      pop\n        /* \"#utility.yul\":10641:10650   */\n      dup2\n        /* \"#utility.yul\":10635:10639   */\n      dup2\n        /* \"#utility.yul\":10631:10651   */\n      sub\n        /* \"#utility.yul\":10627:10628   */\n      0x00\n        /* \"#utility.yul\":10616:10625   */\n      dup4\n        /* \"#utility.yul\":10612:10629   */\n      add\n        /* \"#utility.yul\":10605:10652   */\n      mstore\n        /* \"#utility.yul\":10669:10800   */\n      tag_272\n        /* \"#utility.yul\":10795:10799   */\n      dup2\n        /* \"#utility.yul\":10669:10800   */\n      tag_173\n      jump\t// in\n    tag_272:\n        /* \"#utility.yul\":10661:10800   */\n      swap1\n      pop\n        /* \"#utility.yul\":10388:10807   */\n      swap2\n      swap1\n      pop\n      jump\t// out\n        /* \"#utility.yul\":10813:10993   */\n    tag_174:\n        /* \"#utility.yul\":10953:10985   */\n      0x416c726561647920636f6e74726962757465642074686973206379636c650000\n        /* \"#utility.yul\":10949:10950   */\n      0x00\n        /* \"#utility.yul\":10941:10947   */\n      dup3\n        /* \"#utility.yul\":10937:10951   */\n      add\n        /* \"#utility.yul\":10930:10986   */\n      mstore\n        /* \"#utility.yul\":10813:10993   */\n      pop\n      jump\t// out\n        /* \"#utility.yul\":10999:11365   */\n    tag_175:\n        /* \"#utility.yul\":11141:11144   */\n      0x00\n        /* \"#utility.yul\":11162:11229   */\n      tag_275\n        /* \"#utility.yul\":11226:11228   */\n      0x1e\n        /* \"#utility.yul\":11221:11224   */\n      dup4\n        /* \"#utility.yul\":11162:11229   */\n      tag_145\n      jump\t// in\n    tag_275:\n        /* \"#utility.yul\":11155:11229   */\n      swap2\n      pop\n        /* \"#utility.yul\":11238:11331   */\n      tag_276\n        /* \"#utility.yul\":11327:11330   */\n      dup3\n        /* \"#utility.yul\":11238:11331   */\n      tag_174\n      jump\t// in\n    tag_276:\n        /* \"#utility.yul\":11356:11358   */\n      0x20\n        /* \"#utility.yul\":11351:11354   */\n      dup3\n        /* \"#utility.yul\":11347:11359   */\n      add\n        /* \"#utility.yul\":11340:11359   */\n      swap1\n      pop\n        /* \"#utility.yul\":10999:11365   */\n      swap2\n      swap1\n      pop\n      jump\t// out\n        /* \"#utility.yul\":11371:11790   */\n    tag_98:\n        /* \"#utility.yul\":11537:11541   */\n      0x00\n        /* \"#utility.yul\":11575:11577   */\n      0x20\n        /* \"#utility.yul\":11564:11573   */\n      dup3\n        /* \"#utility.yul\":11560:11578   */\n      add\n        /* \"#utility.yul\":11552:11578   */\n      swap1\n      pop\n        /* \"#utility.yul\":11624:11633   */\n      dup2\n        /* \"#utility.yul\":11618:11622   */\n      dup2\n        /* \"#utility.yul\":11614:11634   */\n      sub\n        /* \"#utility.yul\":11610:11611   */\n      0x00\n        /* \"#utility.yul\":11599:11608   */\n      dup4\n        /* \"#utility.yul\":11595:11612   */\n      add\n        /* \"#utility.yul\":11588:11635   */\n      mstore\n        /* \"#utility.yul\":11652:11783   */\n      tag_278\n        /* \"#utility.yul\":11778:11782   */\n      dup2\n        /* \"#utility.yul\":11652:11783   */\n      tag_175\n      jump\t// in\n    tag_278:\n        /* \"#utility.yul\":11644:11783   */\n      swap1\n      pop\n        /* \"#utility.yul\":11371:11790   */\n      swap2\n      swap1\n      pop\n      jump\t// out\n        /* \"#utility.yul\":11796:11975   */\n    tag_176:\n        /* \"#utility.yul\":11936:11967   */\n      0x496e636f727265637420636f6e747269627574696f6e20616d6f756e74000000\n        /* \"#utility.yul\":11932:11933   */\n      0x00\n        /* \"#utility.yul\":11924:11930   */\n      dup3\n        /* \"#utility.yul\":11920:11934   */\n      add\n        /* \"#utility.yul\":11913:11968   */\n      mstore\n        /* \"#utility.yul\":11796:11975   */\n      pop\n      jump\t// out\n        /* \"#utility.yul\":11981:12347   */\n    tag_177:\n        /* \"#utility.yul\":12123:12126   */\n      0x00\n        /* \"#utility.yul\":12144:12211   */\n      tag_281\n        /* \"#utility.yul\":12208:12210   */\n      0x1d\n        /* \"#utility.yul\":12203:12206   */\n      dup4\n        /* \"#utility.yul\":12144:12211   */\n      tag_145\n      jump\t// in\n    tag_281:\n        /* \"#utility.yul\":12137:12211   */\n      swap2\n      pop\n        /* \"#utility.yul\":12220:12313   */\n      tag_282\n        /* \"#utility.yul\":12309:12312   */\n      dup3\n        /* \"#utility.yul\":12220:12313   */\n      tag_176\n      jump\t// in\n    tag_282:\n        /* \"#utility.yul\":12338:12340   */\n      0x20\n        /* \"#utility.yul\":12333:12336   */\n      dup3\n        /* \"#utility.yul\":12329:12341   */\n      add\n        /* \"#utility.yul\":12322:12341   */\n      swap1\n      pop\n        /* \"#utility.yul\":11981:12347   */\n      swap2\n      swap1\n      pop\n      jump\t// out\n        /* \"#utility.yul\":12353:12772   */\n    tag_101:\n        /* \"#utility.yul\":12519:12523   */\n      0x00\n        /* \"#utility.yul\":12557:12559   */\n      0x20\n        /* \"#utility.yul\":12546:12555   */\n      dup3\n        /* \"#utility.yul\":12542:12560   */\n      add\n        /* \"#utility.yul\":12534:12560   */\n      swap1\n      pop\n        /* \"#utility.yul\":12606:12615   */\n      dup2\n        /* \"#utility.yul\":12600:12604   */\n      dup2\n        /* \"#utility.yul\":12596:12616   */\n      sub\n        /* \"#utility.yul\":12592:12593   */\n      0x00\n        /* \"#utility.yul\":12581:12590   */\n      dup4\n        /* \"#utility.yul\":12577:12594   */\n      add\n        /* \"#utility.yul\":12570:12617   */\n      mstore\n        /* \"#utility.yul\":12634:12765   */\n      tag_284\n        /* \"#utility.yul\":12760:12764   */\n      dup2\n        /* \"#utility.yul\":12634:12765   */\n      tag_177\n      jump\t// in\n    tag_284:\n        /* \"#utility.yul\":12626:12765   */\n      swap1\n      pop\n        /* \"#utility.yul\":12353:12772   */\n      swap2\n      swap1\n      pop\n      jump\t// out\n        /* \"#utility.yul\":12778:13167   */\n    tag_178:\n        /* \"#utility.yul\":12918:12952   */\n      0x45766572796f6e6520686173206265656e2070616964206f7574206f6e63652e\n        /* \"#utility.yul\":12914:12915   */\n      0x00\n        /* \"#utility.yul\":12906:12912   */\n      dup3\n        /* \"#utility.yul\":12902:12916   */\n      add\n        /* \"#utility.yul\":12895:12953   */\n      mstore\n        /* \"#utility.yul\":12987:13021   */\n      0x205468616e6b20796f7520666f722070617274696369706174696e6721205265\n        /* \"#utility.yul\":12982:12984   */\n      0x20\n        /* \"#utility.yul\":12974:12980   */\n      dup3\n        /* \"#utility.yul\":12970:12985   */\n      add\n        /* \"#utility.yul\":12963:13022   */\n      mstore\n        /* \"#utility.yul\":13056:13090   */\n      0x73746172742061206e65772061677265656d656e7420696620796f752764206c\n        /* \"#utility.yul\":13051:13053   */\n      0x40\n        /* \"#utility.yul\":13043:13049   */\n      dup3\n        /* \"#utility.yul\":13039:13054   */\n      add\n        /* \"#utility.yul\":13032:13091   */\n      mstore\n        /* \"#utility.yul\":13125:13159   */\n      0x696b6520746f20636f6e74696e7565207769746820746869732054616e64612e\n        /* \"#utility.yul\":13120:13122   */\n      0x60\n        /* \"#utility.yul\":13112:13118   */\n      dup3\n        /* \"#utility.yul\":13108:13123   */\n      add\n        /* \"#utility.yul\":13101:13160   */\n      mstore\n        /* \"#utility.yul\":12778:13167   */\n      pop\n      jump\t// out\n        /* \"#utility.yul\":13173:13541   */\n    tag_179:\n        /* \"#utility.yul\":13315:13318   */\n      0x00\n        /* \"#utility.yul\":13336:13404   */\n      tag_287\n        /* \"#utility.yul\":13400:13403   */\n      0x80\n        /* \"#utility.yul\":13395:13398   */\n      dup4\n        /* \"#utility.yul\":13336:13404   */\n      tag_145\n      jump\t// in\n    tag_287:\n        /* \"#utility.yul\":13329:13404   */\n      swap2\n      pop\n        /* \"#utility.yul\":13413:13506   */\n      tag_288\n        /* \"#utility.yul\":13502:13505   */\n      dup3\n        /* \"#utility.yul\":13413:13506   */\n      tag_178\n      jump\t// in\n    tag_288:\n        /* \"#utility.yul\":13531:13534   */\n      0x80\n        /* \"#utility.yul\":13526:13529   */\n      dup3\n        /* \"#utility.yul\":13522:13535   */\n      add\n        /* \"#utility.yul\":13515:13535   */\n      swap1\n      pop\n        /* \"#utility.yul\":13173:13541   */\n      swap2\n      swap1\n      pop\n      jump\t// out\n        /* \"#utility.yul\":13547:13966   */\n    tag_105:\n        /* \"#utility.yul\":13713:13717   */\n      0x00\n        /* \"#utility.yul\":13751:13753   */\n      0x20\n        /* \"#utility.yul\":13740:13749   */\n      dup3\n        /* \"#utility.yul\":13736:13754   */\n      add\n        /* \"#utility.yul\":13728:13754   */\n      swap1\n      pop\n        /* \"#utility.yul\":13800:13809   */\n      dup2\n        /* \"#utility.yul\":13794:13798   */\n      dup2\n        /* \"#utility.yul\":13790:13810   */\n      sub\n        /* \"#utility.yul\":13786:13787   */\n      0x00\n        /* \"#utility.yul\":13775:13784   */\n      dup4\n        /* \"#utility.yul\":13771:13788   */\n      add\n        /* \"#utility.yul\":13764:13811   */\n      mstore\n        /* \"#utility.yul\":13828:13959   */\n      tag_290\n        /* \"#utility.yul\":13954:13958   */\n      dup2\n        /* \"#utility.yul\":13828:13959   */\n      tag_179\n      jump\t// in\n    tag_290:\n        /* \"#utility.yul\":13820:13959   */\n      swap1\n      pop\n        /* \"#utility.yul\":13547:13966   */\n      swap2\n      swap1\n      pop\n      jump\t// out\n        /* \"#utility.yul\":13972:14203   */\n    tag_180:\n        /* \"#utility.yul\":14112:14146   */\n      0x436f6e747269627574696f6e2077696e646f7720666f72207468697320637963\n        /* \"#utility.yul\":14108:14109   */\n      0x00\n        /* \"#utility.yul\":14100:14106   */\n      dup3\n        /* \"#utility.yul\":14096:14110   */\n      add\n        /* \"#utility.yul\":14089:14147   */\n      mstore\n        /* \"#utility.yul\":14181:14195   */\n      0x6c6520697320636c6f7365640000000000000000000000000000000000000000\n        /* \"#utility.yul\":14176:14178   */\n      0x20\n        /* \"#utility.yul\":14168:14174   */\n      dup3\n        /* \"#utility.yul\":14164:14179   */\n      add\n        /* \"#utility.yul\":14157:14196   */\n      mstore\n        /* \"#utility.yul\":13972:14203   */\n      pop\n      jump\t// out\n        /* \"#utility.yul\":14209:14575   */\n    tag_181:\n        /* \"#utility.yul\":14351:14354   */\n      0x00\n        /* \"#utility.yul\":14372:14439   */\n      tag_293\n        /* \"#utility.yul\":14436:14438   */\n      0x2c\n        /* \"#utility.yul\":14431:14434   */\n      dup4\n        /* \"#utility.yul\":14372:14439   */\n      tag_145\n      jump\t// in\n    tag_293:\n        /* \"#utility.yul\":14365:14439   */\n      swap2\n      pop\n        /* \"#utility.yul\":14448:14541   */\n      tag_294\n        /* \"#utility.yul\":14537:14540   */\n      dup3\n        /* \"#utility.yul\":14448:14541   */\n      tag_180\n      jump\t// in\n    tag_294:\n        /* \"#utility.yul\":14566:14568   */\n      0x40\n        /* \"#utility.yul\":14561:14564   */\n      dup3\n        /* \"#utility.yul\":14557:14569   */\n      add\n        /* \"#utility.yul\":14550:14569   */\n      swap1\n      pop\n        /* \"#utility.yul\":14209:14575   */\n      swap2\n      swap1\n      pop\n      jump\t// out\n        /* \"#utility.yul\":14581:15000   */\n    tag_110:\n        /* \"#utility.yul\":14747:14751   */\n      0x00\n        /* \"#utility.yul\":14785:14787   */\n      0x20\n        /* \"#utility.yul\":14774:14783   */\n      dup3\n        /* \"#utility.yul\":14770:14788   */\n      add\n        /* \"#utility.yul\":14762:14788   */\n      swap1\n      pop\n        /* \"#utility.yul\":14834:14843   */\n      dup2\n        /* \"#utility.yul\":14828:14832   */\n      dup2\n        /* \"#utility.yul\":14824:14844   */\n      sub\n        /* \"#utility.yul\":14820:14821   */\n      0x00\n        /* \"#utility.yul\":14809:14818   */\n      dup4\n        /* \"#utility.yul\":14805:14822   */\n      add\n        /* \"#utility.yul\":14798:14845   */\n      mstore\n        /* \"#utility.yul\":14862:14993   */\n      tag_296\n        /* \"#utility.yul\":14988:14992   */\n      dup2\n        /* \"#utility.yul\":14862:14993   */\n      tag_181\n      jump\t// in\n    tag_296:\n        /* \"#utility.yul\":14854:14993   */\n      swap1\n      pop\n        /* \"#utility.yul\":14581:15000   */\n      swap2\n      swap1\n      pop\n      jump\t// out\n        /* \"#utility.yul\":15006:15302   */\n    tag_182:\n        /* \"#utility.yul\":15146:15180   */\n      0x43616e6e6f742066696e616c697a65206379636c6520756e74696c2061677265\n        /* \"#utility.yul\":15142:15143   */\n      0x00\n        /* \"#utility.yul\":15134:15140   */\n      dup3\n        /* \"#utility.yul\":15130:15144   */\n      add\n        /* \"#utility.yul\":15123:15181   */\n      mstore\n        /* \"#utility.yul\":15215:15249   */\n      0x656420646973747269627574696f6e20696e74657276616c2074696d65206861\n        /* \"#utility.yul\":15210:15212   */\n      0x20\n        /* \"#utility.yul\":15202:15208   */\n      dup3\n        /* \"#utility.yul\":15198:15213   */\n      add\n        /* \"#utility.yul\":15191:15250   */\n      mstore\n        /* \"#utility.yul\":15284:15294   */\n      0x7320706173736564000000000000000000000000000000000000000000000000\n        /* \"#utility.yul\":15279:15281   */\n      0x40\n        /* \"#utility.yul\":15271:15277   */\n      dup3\n        /* \"#utility.yul\":15267:15282   */\n      add\n        /* \"#utility.yul\":15260:15295   */\n      mstore\n        /* \"#utility.yul\":15006:15302   */\n      pop\n      jump\t// out\n        /* \"#utility.yul\":15308:15674   */\n    tag_183:\n        /* \"#utility.yul\":15450:15453   */\n      0x00\n        /* \"#utility.yul\":15471:15538   */\n      tag_299\n        /* \"#utility.yul\":15535:15537   */\n      0x48\n        /* \"#utility.yul\":15530:15533   */\n      dup4\n        /* \"#utility.yul\":15471:15538   */\n      tag_145\n      jump\t// in\n    tag_299:\n        /* \"#utility.yul\":15464:15538   */\n      swap2\n      pop\n        /* \"#utility.yul\":15547:15640   */\n      tag_300\n        /* \"#utility.yul\":15636:15639   */\n      dup3\n        /* \"#utility.yul\":15547:15640   */\n      tag_182\n      jump\t// in\n    tag_300:\n        /* \"#utility.yul\":15665:15667   */\n      0x60\n        /* \"#utility.yul\":15660:15663   */\n      dup3\n        /* \"#utility.yul\":15656:15668   */\n      add\n        /* \"#utility.yul\":15649:15668   */\n      swap1\n      pop\n        /* \"#utility.yul\":15308:15674   */\n      swap2\n      swap1\n      pop\n      jump\t// out\n        /* \"#utility.yul\":15680:16099   */\n    tag_125:\n        /* \"#utility.yul\":15846:15850   */\n      0x00\n        /* \"#utility.yul\":15884:15886   */\n      0x20\n        /* \"#utility.yul\":15873:15882   */\n      dup3\n        /* \"#utility.yul\":15869:15887   */\n      add\n        /* \"#utility.yul\":15861:15887   */\n      swap1\n      pop\n        /* \"#utility.yul\":15933:15942   */\n      dup2\n        /* \"#utility.yul\":15927:15931   */\n      dup2\n        /* \"#utility.yul\":15923:15943   */\n      sub\n        /* \"#utility.yul\":15919:15920   */\n      0x00\n        /* \"#utility.yul\":15908:15917   */\n      dup4\n        /* \"#utility.yul\":15904:15921   */\n      add\n        /* \"#utility.yul\":15897:15944   */\n      mstore\n        /* \"#utility.yul\":15961:16092   */\n      tag_302\n        /* \"#utility.yul\":16087:16091   */\n      dup2\n        /* \"#utility.yul\":15961:16092   */\n      tag_183\n      jump\t// in\n    tag_302:\n        /* \"#utility.yul\":15953:16092   */\n      swap1\n      pop\n        /* \"#utility.yul\":15680:16099   */\n      swap2\n      swap1\n      pop\n      jump\t// out\n\n    auxdata: 0xa2646970667358221220ad005c65841a63b0782077a0d6672473b795554ad4de0bd134a34aa15d97099a64736f6c634300081a0033\n}\n",
				"bytecode": {
					"linkReferences": {},
					"object": "608060405234801561000f575f80fd5b50604051611a2d380380611a2d8339818101604052810190610031919061041e565b84815114610074576040517f08c379a000000000000000000000000000000000000000000000000000000000815260040161006b9061050b565b60405180910390fd5b5f5b85811015610113575f73ffffffffffffffffffffffffffffffffffffffff168282815181106100a8576100a7610529565b5b602002602001015173ffffffffffffffffffffffffffffffffffffffff1603610106576040517f08c379a00000000000000000000000000000000000000000000000000000000081526004016100fd906105a0565b60405180910390fd5b8080600101915050610076565b50845f81905550836001819055508260038190555081600281905550806004908051906020019061014592919061018e565b504260078190555062093a8060035461015e91906105eb565b42610169919061062c565b6009819055505f6008819055505f6006819055505f600b81905550505050505061065f565b828054828255905f5260205f20908101928215610204579160200282015b82811115610203578251825f6101000a81548173ffffffffffffffffffffffffffffffffffffffff021916908373ffffffffffffffffffffffffffffffffffffffff160217905550916020019190600101906101ac565b5b5090506102119190610215565b5090565b5b8082111561022c575f815f905550600101610216565b5090565b5f604051905090565b5f80fd5b5f80fd5b5f819050919050565b61025381610241565b811461025d575f80fd5b50565b5f8151905061026e8161024a565b92915050565b5f80fd5b5f601f19601f8301169050919050565b7f4e487b71000000000000000000000000000000000000000000000000000000005f52604160045260245ffd5b6102be82610278565b810181811067ffffffffffffffff821117156102dd576102dc610288565b5b80604052505050565b5f6102ef610230565b90506102fb82826102b5565b919050565b5f67ffffffffffffffff82111561031a57610319610288565b5b602082029050602081019050919050565b5f80fd5b5f73ffffffffffffffffffffffffffffffffffffffff82169050919050565b5f6103588261032f565b9050919050565b6103688161034e565b8114610372575f80fd5b50565b5f815190506103838161035f565b92915050565b5f61039b61039684610300565b6102e6565b905080838252602082019050602084028301858111156103be576103bd61032b565b5b835b818110156103e757806103d38882610375565b8452602084019350506020810190506103c0565b5050509392505050565b5f82601f83011261040557610404610274565b5b8151610415848260208601610389565b91505092915050565b5f805f805f60a0868803121561043757610436610239565b5b5f61044488828901610260565b955050602061045588828901610260565b945050604061046688828901610260565b935050606061047788828901610260565b925050608086015167ffffffffffffffff8111156104985761049761023d565b5b6104a4888289016103f1565b9150509295509295909350565b5f82825260208201905092915050565b7f4d656d626572732061727261792073697a65206d69736d6174636800000000005f82015250565b5f6104f5601b836104b1565b9150610500826104c1565b602082019050919050565b5f6020820190508181035f830152610522816104e9565b9050919050565b7f4e487b71000000000000000000000000000000000000000000000000000000005f52603260045260245ffd5b7f496e76616c6964206d656d6265722061646472657373000000000000000000005f82015250565b5f61058a6016836104b1565b915061059582610556565b602082019050919050565b5f6020820190508181035f8301526105b78161057e565b9050919050565b7f4e487b71000000000000000000000000000000000000000000000000000000005f52601160045260245ffd5b5f6105f582610241565b915061060083610241565b925082820261060e81610241565b91508282048414831517610625576106246105be565b5b5092915050565b5f61063682610241565b915061064183610241565b9250828201905080821115610659576106586105be565b5b92915050565b6113c18061066c5f395ff3fe608060405260043610610058575f3560e01c80630b6dd8a81461009c57806335cd4b46146100c6578063c74e7261146100dc578063d7bb99ba14610106578063ec33d2a014610110578063edf911781461012657610098565b36610098576040517f08c379a000000000000000000000000000000000000000000000000000000000815260040161008f90610b62565b60405180910390fd5b5f80fd5b3480156100a7575f80fd5b506100b0610162565b6040516100bd9190610b98565b60405180910390f35b3480156100d1575f80fd5b506100da6101b3565b005b3480156100e7575f80fd5b506100f0610497565b6040516100fd9190610bcb565b60405180910390f35b61010e610593565b005b34801561011b575f80fd5b50610124610844565b005b348015610131575f80fd5b5061014c60048036038101906101479190610c42565b6109d0565b6040516101599190610bcb565b60405180910390f35b5f61016c33610a6a565b6101ab576040517f08c379a00000000000000000000000000000000000000000000000000000000081526004016101a290610cb7565b60405180910390fd5b600254905090565b6101bc33610a6a565b6101fb576040517f08c379a00000000000000000000000000000000000000000000000000000000081526004016101f290610cb7565b60405180910390fd5b5f805f90505f5b5f548110156102e5575f805482600b5461021c9190610d02565b6102269190610d62565b90505f6004828154811061023d5761023c610d92565b5b905f5260205f20015f9054906101000a900473ffffffffffffffffffffffffffffffffffffffff169050600a5f8273ffffffffffffffffffffffffffffffffffffffff1673ffffffffffffffffffffffffffffffffffffffff1681526020019081526020015f205f9054906101000a900460ff166102d6578094506001826102c59190610d02565b600b819055506001935050506102e5565b50508080600101915050610202565b5080610326576040517f08c379a000000000000000000000000000000000000000000000000000000000815260040161031d90610e2f565b60405180910390fd5b6001600a5f8473ffffffffffffffffffffffffffffffffffffffff1673ffffffffffffffffffffffffffffffffffffffff1681526020019081526020015f205f6101000a81548160ff0219169083151502179055505f4790505f81116103c1576040517f08c379a00000000000000000000000000000000000000000000000000000000081526004016103b890610e97565b60405180910390fd5b5f8373ffffffffffffffffffffffffffffffffffffffff16826040516103e690610ee2565b5f6040518083038185875af1925050503d805f8114610420576040519150601f19603f3d011682016040523d82523d5f602084013e610425565b606091505b5050905080610469576040517f08c379a000000000000000000000000000000000000000000000000000000000815260040161046090610f40565b60405180910390fd5b62093a8060035461047a9190610f5e565b60095f82825461048a9190610d02565b9250508190555050505050565b5f6104a133610a6a565b6104e0576040517f08c379a00000000000000000000000000000000000000000000000000000000081526004016104d790610cb7565b60405180910390fd5b5f5b5f5481101561058a57600a5f6004838154811061050257610501610d92565b5b905f5260205f20015f9054906101000a900473ffffffffffffffffffffffffffffffffffffffff1673ffffffffffffffffffffffffffffffffffffffff1673ffffffffffffffffffffffffffffffffffffffff1681526020019081526020015f205f9054906101000a900460ff1661057d575f915050610590565b80806001019150506104e2565b50600190505b90565b5f151561059e610497565b1515146105e0576040517f08c379a00000000000000000000000000000000000000000000000000000000081526004016105d790611081565b60405180910390fd5b6105e933610a6a565b610628576040517f08c379a000000000000000000000000000000000000000000000000000000000815260040161061f90610cb7565b60405180910390fd5b60055f3373ffffffffffffffffffffffffffffffffffffffff1673ffffffffffffffffffffffffffffffffffffffff1681526020019081526020015f205f9054906101000a900460ff16156106b2576040517f08c379a00000000000000000000000000000000000000000000000000000000081526004016106a9906110e9565b60405180910390fd5b60025434146106f6576040517f08c379a00000000000000000000000000000000000000000000000000000000081526004016106ed90611151565b60405180910390fd5b5f1515610701610497565b151514610743576040517f08c379a000000000000000000000000000000000000000000000000000000000815260040161073a9061122b565b60405180910390fd5b5f62093a806001546107559190610f5e565b9050806007546107659190610d02565b42106107a6576040517f08c379a000000000000000000000000000000000000000000000000000000000815260040161079d906112b9565b60405180910390fd5b600160055f3373ffffffffffffffffffffffffffffffffffffffff1673ffffffffffffffffffffffffffffffffffffffff1681526020019081526020015f205f6101000a81548160ff021916908315150217905550600160065f82825461080d9190610d02565b925050819055505f5460065414801561083357508060075461082f9190610d02565b4210155b1561084157610840610844565b5b50565b61084d33610a6a565b61088c576040517f08c379a000000000000000000000000000000000000000000000000000000000815260040161088390610cb7565b60405180910390fd5b5f62093a8060015461089e9190610f5e565b9050806007546108ae9190610d02565b42101580156108bf57505f54600654145b6108fe576040517f08c379a00000000000000000000000000000000000000000000000000000000081526004016108f59061136d565b60405180910390fd5b600160085f8282546109109190610d02565b925050819055505f5b5f548110156109be575f60055f6004848154811061093a57610939610d92565b5b905f5260205f20015f9054906101000a900473ffffffffffffffffffffffffffffffffffffffff1673ffffffffffffffffffffffffffffffffffffffff1673ffffffffffffffffffffffffffffffffffffffff1681526020019081526020015f205f6101000a81548160ff0219169083151502179055508080600101915050610919565b505f6006819055504260078190555050565b5f6109da33610a6a565b610a19576040517f08c379a0000000000000000000000000000000000000000000000000000000008152600401610a1090610cb7565b60405180910390fd5b60055f8373ffffffffffffffffffffffffffffffffffffffff1673ffffffffffffffffffffffffffffffffffffffff1681526020019081526020015f205f9054906101000a900460ff169050919050565b5f805f90505b5f54811015610afe578273ffffffffffffffffffffffffffffffffffffffff1660048281548110610aa457610aa3610d92565b5b905f5260205f20015f9054906101000a900473ffffffffffffffffffffffffffffffffffffffff1673ffffffffffffffffffffffffffffffffffffffff1603610af1576001915050610b03565b8080600101915050610a70565b505f90505b919050565b5f82825260208201905092915050565b7f55736520636f6e74726962757465282920746f206465706f73697400000000005f82015250565b5f610b4c601b83610b08565b9150610b5782610b18565b602082019050919050565b5f6020820190508181035f830152610b7981610b40565b9050919050565b5f819050919050565b610b9281610b80565b82525050565b5f602082019050610bab5f830184610b89565b92915050565b5f8115159050919050565b610bc581610bb1565b82525050565b5f602082019050610bde5f830184610bbc565b92915050565b5f80fd5b5f73ffffffffffffffffffffffffffffffffffffffff82169050919050565b5f610c1182610be8565b9050919050565b610c2181610c07565b8114610c2b575f80fd5b50565b5f81359050610c3c81610c18565b92915050565b5f60208284031215610c5757610c56610be4565b5b5f610c6484828501610c2e565b91505092915050565b7f4e6f7420612072656769737465726564206d656d6265720000000000000000005f82015250565b5f610ca1601783610b08565b9150610cac82610c6d565b602082019050919050565b5f6020820190508181035f830152610cce81610c95565b9050919050565b7f4e487b71000000000000000000000000000000000000000000000000000000005f52601160045260245ffd5b5f610d0c82610b80565b9150610d1783610b80565b9250828201905080821115610d2f57610d2e610cd5565b5b92915050565b7f4e487b71000000000000000000000000000000000000000000000000000000005f52601260045260245ffd5b5f610d6c82610b80565b9150610d7783610b80565b925082610d8757610d86610d35565b5b828206905092915050565b7f4e487b71000000000000000000000000000000000000000000000000000000005f52603260045260245ffd5b7f416c6c206d656d62657273206861766520616c7265616479206265656e2070615f8201527f6964000000000000000000000000000000000000000000000000000000000000602082015250565b5f610e19602283610b08565b9150610e2482610dbf565b604082019050919050565b5f6020820190508181035f830152610e4681610e0d565b9050919050565b7f4e6f2066756e647320746f2064697374726962757465000000000000000000005f82015250565b5f610e81601683610b08565b9150610e8c82610e4d565b602082019050919050565b5f6020820190508181035f830152610eae81610e75565b9050919050565b5f81905092915050565b50565b5f610ecd5f83610eb5565b9150610ed882610ebf565b5f82019050919050565b5f610eec82610ec2565b9150819050919050565b7f5472616e73666572206661696c656400000000000000000000000000000000005f82015250565b5f610f2a600f83610b08565b9150610f3582610ef6565b602082019050919050565b5f6020820190508181035f830152610f5781610f1e565b9050919050565b5f610f6882610b80565b9150610f7383610b80565b9250828202610f8181610b80565b91508282048414831517610f9857610f97610cd5565b5b5092915050565b7f45766572796f6e6520686173206265656e2070616964206f7574206f6e63652c5f8201527f206566666563746976656c7920656e64696e67207468652054616e64612e205460208201527f68616e6b20796f7520666f722070617274696369706174696e6721205265737460408201527f6172742061206e65772061677265656d656e7420696620796f752764206c696b60608201527f6520746f20636f6e74696e7565207769746820746869732054616e64612e0000608082015250565b5f61106b609e83610b08565b915061107682610f9f565b60a082019050919050565b5f6020820190508181035f8301526110988161105f565b9050919050565b7f416c726561647920636f6e74726962757465642074686973206379636c6500005f82015250565b5f6110d3601e83610b08565b91506110de8261109f565b602082019050919050565b5f6020820190508181035f830152611100816110c7565b9050919050565b7f496e636f727265637420636f6e747269627574696f6e20616d6f756e740000005f82015250565b5f61113b601d83610b08565b915061114682611107565b602082019050919050565b5f6020820190508181035f8301526111688161112f565b9050919050565b7f45766572796f6e6520686173206265656e2070616964206f7574206f6e63652e5f8201527f205468616e6b20796f7520666f722070617274696369706174696e672120526560208201527f73746172742061206e65772061677265656d656e7420696620796f752764206c60408201527f696b6520746f20636f6e74696e7565207769746820746869732054616e64612e606082015250565b5f611215608083610b08565b91506112208261116f565b608082019050919050565b5f6020820190508181035f83015261124281611209565b9050919050565b7f436f6e747269627574696f6e2077696e646f7720666f722074686973206379635f8201527f6c6520697320636c6f7365640000000000000000000000000000000000000000602082015250565b5f6112a3602c83610b08565b91506112ae82611249565b604082019050919050565b5f6020820190508181035f8301526112d081611297565b9050919050565b7f43616e6e6f742066696e616c697a65206379636c6520756e74696c20616772655f8201527f656420646973747269627574696f6e20696e74657276616c2074696d6520686160208201527f7320706173736564000000000000000000000000000000000000000000000000604082015250565b5f611357604883610b08565b9150611362826112d7565b606082019050919050565b5f6020820190508181035f8301526113848161134b565b905091905056fea2646970667358221220ad005c65841a63b0782077a0d6672473b795554ad4de0bd134a34aa15d97099a64736f6c634300081a0033",
					"opcodes": "PUSH1 0x80 PUSH1 0x40 MSTORE CALLVALUE DUP1 ISZERO PUSH2 0xF JUMPI PUSH0 DUP1 REVERT JUMPDEST POP PUSH1 0x40 MLOAD PUSH2 0x1A2D CODESIZE SUB DUP1 PUSH2 0x1A2D DUP4 CODECOPY DUP2 DUP2 ADD PUSH1 0x40 MSTORE DUP2 ADD SWAP1 PUSH2 0x31 SWAP2 SWAP1 PUSH2 0x41E JUMP JUMPDEST DUP5 DUP2 MLOAD EQ PUSH2 0x74 JUMPI PUSH1 0x40 MLOAD PUSH32 0x8C379A000000000000000000000000000000000000000000000000000000000 DUP2 MSTORE PUSH1 0x4 ADD PUSH2 0x6B SWAP1 PUSH2 0x50B JUMP JUMPDEST PUSH1 0x40 MLOAD DUP1 SWAP2 SUB SWAP1 REVERT JUMPDEST PUSH0 JUMPDEST DUP6 DUP2 LT ISZERO PUSH2 0x113 JUMPI PUSH0 PUSH20 0xFFFFFFFFFFFFFFFFFFFFFFFFFFFFFFFFFFFFFFFF AND DUP3 DUP3 DUP2 MLOAD DUP2 LT PUSH2 0xA8 JUMPI PUSH2 0xA7 PUSH2 0x529 JUMP JUMPDEST JUMPDEST PUSH1 0x20 MUL PUSH1 0x20 ADD ADD MLOAD PUSH20 0xFFFFFFFFFFFFFFFFFFFFFFFFFFFFFFFFFFFFFFFF AND SUB PUSH2 0x106 JUMPI PUSH1 0x40 MLOAD PUSH32 0x8C379A000000000000000000000000000000000000000000000000000000000 DUP2 MSTORE PUSH1 0x4 ADD PUSH2 0xFD SWAP1 PUSH2 0x5A0 JUMP JUMPDEST PUSH1 0x40 MLOAD DUP1 SWAP2 SUB SWAP1 REVERT JUMPDEST DUP1 DUP1 PUSH1 0x1 ADD SWAP2 POP POP PUSH2 0x76 JUMP JUMPDEST POP DUP5 PUSH0 DUP2 SWAP1 SSTORE POP DUP4 PUSH1 0x1 DUP2 SWAP1 SSTORE POP DUP3 PUSH1 0x3 DUP2 SWAP1 SSTORE POP DUP2 PUSH1 0x2 DUP2 SWAP1 SSTORE POP DUP1 PUSH1 0x4 SWAP1 DUP1 MLOAD SWAP1 PUSH1 0x20 ADD SWAP1 PUSH2 0x145 SWAP3 SWAP2 SWAP1 PUSH2 0x18E JUMP JUMPDEST POP TIMESTAMP PUSH1 0x7 DUP2 SWAP1 SSTORE POP PUSH3 0x93A80 PUSH1 0x3 SLOAD PUSH2 0x15E SWAP2 SWAP1 PUSH2 0x5EB JUMP JUMPDEST TIMESTAMP PUSH2 0x169 SWAP2 SWAP1 PUSH2 0x62C JUMP JUMPDEST PUSH1 0x9 DUP2 SWAP1 SSTORE POP PUSH0 PUSH1 0x8 DUP2 SWAP1 SSTORE POP PUSH0 PUSH1 0x6 DUP2 SWAP1 SSTORE POP PUSH0 PUSH1 0xB DUP2 SWAP1 SSTORE POP POP POP POP POP POP PUSH2 0x65F JUMP JUMPDEST DUP3 DUP1 SLOAD DUP3 DUP3 SSTORE SWAP1 PUSH0 MSTORE PUSH1 0x20 PUSH0 KECCAK256 SWAP1 DUP2 ADD SWAP3 DUP3 ISZERO PUSH2 0x204 JUMPI SWAP2 PUSH1 0x20 MUL DUP3 ADD JUMPDEST DUP3 DUP2 GT ISZERO PUSH2 0x203 JUMPI DUP3 MLOAD DUP3 PUSH0 PUSH2 0x100 EXP DUP2 SLOAD DUP2 PUSH20 0xFFFFFFFFFFFFFFFFFFFFFFFFFFFFFFFFFFFFFFFF MUL NOT AND SWAP1 DUP4 PUSH20 0xFFFFFFFFFFFFFFFFFFFFFFFFFFFFFFFFFFFFFFFF AND MUL OR SWAP1 SSTORE POP SWAP2 PUSH1 0x20 ADD SWAP2 SWAP1 PUSH1 0x1 ADD SWAP1 PUSH2 0x1AC JUMP JUMPDEST JUMPDEST POP SWAP1 POP PUSH2 0x211 SWAP2 SWAP1 PUSH2 0x215 JUMP JUMPDEST POP SWAP1 JUMP JUMPDEST JUMPDEST DUP1 DUP3 GT ISZERO PUSH2 0x22C JUMPI PUSH0 DUP2 PUSH0 SWAP1 SSTORE POP PUSH1 0x1 ADD PUSH2 0x216 JUMP JUMPDEST POP SWAP1 JUMP JUMPDEST PUSH0 PUSH1 0x40 MLOAD SWAP1 POP SWAP1 JUMP JUMPDEST PUSH0 DUP1 REVERT JUMPDEST PUSH0 DUP1 REVERT JUMPDEST PUSH0 DUP2 SWAP1 POP SWAP2 SWAP1 POP JUMP JUMPDEST PUSH2 0x253 DUP2 PUSH2 0x241 JUMP JUMPDEST DUP2 EQ PUSH2 0x25D JUMPI PUSH0 DUP1 REVERT JUMPDEST POP JUMP JUMPDEST PUSH0 DUP2 MLOAD SWAP1 POP PUSH2 0x26E DUP2 PUSH2 0x24A JUMP JUMPDEST SWAP3 SWAP2 POP POP JUMP JUMPDEST PUSH0 DUP1 REVERT JUMPDEST PUSH0 PUSH1 0x1F NOT PUSH1 0x1F DUP4 ADD AND SWAP1 POP SWAP2 SWAP1 POP JUMP JUMPDEST PUSH32 0x4E487B7100000000000000000000000000000000000000000000000000000000 PUSH0 MSTORE PUSH1 0x41 PUSH1 0x4 MSTORE PUSH1 0x24 PUSH0 REVERT JUMPDEST PUSH2 0x2BE DUP3 PUSH2 0x278 JUMP JUMPDEST DUP2 ADD DUP2 DUP2 LT PUSH8 0xFFFFFFFFFFFFFFFF DUP3 GT OR ISZERO PUSH2 0x2DD JUMPI PUSH2 0x2DC PUSH2 0x288 JUMP JUMPDEST JUMPDEST DUP1 PUSH1 0x40 MSTORE POP POP POP JUMP JUMPDEST PUSH0 PUSH2 0x2EF PUSH2 0x230 JUMP JUMPDEST SWAP1 POP PUSH2 0x2FB DUP3 DUP3 PUSH2 0x2B5 JUMP JUMPDEST SWAP2 SWAP1 POP JUMP JUMPDEST PUSH0 PUSH8 0xFFFFFFFFFFFFFFFF DUP3 GT ISZERO PUSH2 0x31A JUMPI PUSH2 0x319 PUSH2 0x288 JUMP JUMPDEST JUMPDEST PUSH1 0x20 DUP3 MUL SWAP1 POP PUSH1 0x20 DUP2 ADD SWAP1 POP SWAP2 SWAP1 POP JUMP JUMPDEST PUSH0 DUP1 REVERT JUMPDEST PUSH0 PUSH20 0xFFFFFFFFFFFFFFFFFFFFFFFFFFFFFFFFFFFFFFFF DUP3 AND SWAP1 POP SWAP2 SWAP1 POP JUMP JUMPDEST PUSH0 PUSH2 0x358 DUP3 PUSH2 0x32F JUMP JUMPDEST SWAP1 POP SWAP2 SWAP1 POP JUMP JUMPDEST PUSH2 0x368 DUP2 PUSH2 0x34E JUMP JUMPDEST DUP2 EQ PUSH2 0x372 JUMPI PUSH0 DUP1 REVERT JUMPDEST POP JUMP JUMPDEST PUSH0 DUP2 MLOAD SWAP1 POP PUSH2 0x383 DUP2 PUSH2 0x35F JUMP JUMPDEST SWAP3 SWAP2 POP POP JUMP JUMPDEST PUSH0 PUSH2 0x39B PUSH2 0x396 DUP5 PUSH2 0x300 JUMP JUMPDEST PUSH2 0x2E6 JUMP JUMPDEST SWAP1 POP DUP1 DUP4 DUP3 MSTORE PUSH1 0x20 DUP3 ADD SWAP1 POP PUSH1 0x20 DUP5 MUL DUP4 ADD DUP6 DUP2 GT ISZERO PUSH2 0x3BE JUMPI PUSH2 0x3BD PUSH2 0x32B JUMP JUMPDEST JUMPDEST DUP4 JUMPDEST DUP2 DUP2 LT ISZERO PUSH2 0x3E7 JUMPI DUP1 PUSH2 0x3D3 DUP9 DUP3 PUSH2 0x375 JUMP JUMPDEST DUP5 MSTORE PUSH1 0x20 DUP5 ADD SWAP4 POP POP PUSH1 0x20 DUP2 ADD SWAP1 POP PUSH2 0x3C0 JUMP JUMPDEST POP POP POP SWAP4 SWAP3 POP POP POP JUMP JUMPDEST PUSH0 DUP3 PUSH1 0x1F DUP4 ADD SLT PUSH2 0x405 JUMPI PUSH2 0x404 PUSH2 0x274 JUMP JUMPDEST JUMPDEST DUP2 MLOAD PUSH2 0x415 DUP5 DUP3 PUSH1 0x20 DUP7 ADD PUSH2 0x389 JUMP JUMPDEST SWAP2 POP POP SWAP3 SWAP2 POP POP JUMP JUMPDEST PUSH0 DUP1 PUSH0 DUP1 PUSH0 PUSH1 0xA0 DUP7 DUP9 SUB SLT ISZERO PUSH2 0x437 JUMPI PUSH2 0x436 PUSH2 0x239 JUMP JUMPDEST JUMPDEST PUSH0 PUSH2 0x444 DUP9 DUP3 DUP10 ADD PUSH2 0x260 JUMP JUMPDEST SWAP6 POP POP PUSH1 0x20 PUSH2 0x455 DUP9 DUP3 DUP10 ADD PUSH2 0x260 JUMP JUMPDEST SWAP5 POP POP PUSH1 0x40 PUSH2 0x466 DUP9 DUP3 DUP10 ADD PUSH2 0x260 JUMP JUMPDEST SWAP4 POP POP PUSH1 0x60 PUSH2 0x477 DUP9 DUP3 DUP10 ADD PUSH2 0x260 JUMP JUMPDEST SWAP3 POP POP PUSH1 0x80 DUP7 ADD MLOAD PUSH8 0xFFFFFFFFFFFFFFFF DUP2 GT ISZERO PUSH2 0x498 JUMPI PUSH2 0x497 PUSH2 0x23D JUMP JUMPDEST JUMPDEST PUSH2 0x4A4 DUP9 DUP3 DUP10 ADD PUSH2 0x3F1 JUMP JUMPDEST SWAP2 POP POP SWAP3 SWAP6 POP SWAP3 SWAP6 SWAP1 SWAP4 POP JUMP JUMPDEST PUSH0 DUP3 DUP3 MSTORE PUSH1 0x20 DUP3 ADD SWAP1 POP SWAP3 SWAP2 POP POP JUMP JUMPDEST PUSH32 0x4D656D626572732061727261792073697A65206D69736D617463680000000000 PUSH0 DUP3 ADD MSTORE POP JUMP JUMPDEST PUSH0 PUSH2 0x4F5 PUSH1 0x1B DUP4 PUSH2 0x4B1 JUMP JUMPDEST SWAP2 POP PUSH2 0x500 DUP3 PUSH2 0x4C1 JUMP JUMPDEST PUSH1 0x20 DUP3 ADD SWAP1 POP SWAP2 SWAP1 POP JUMP JUMPDEST PUSH0 PUSH1 0x20 DUP3 ADD SWAP1 POP DUP2 DUP2 SUB PUSH0 DUP4 ADD MSTORE PUSH2 0x522 DUP2 PUSH2 0x4E9 JUMP JUMPDEST SWAP1 POP SWAP2 SWAP1 POP JUMP JUMPDEST PUSH32 0x4E487B7100000000000000000000000000000000000000000000000000000000 PUSH0 MSTORE PUSH1 0x32 PUSH1 0x4 MSTORE PUSH1 0x24 PUSH0 REVERT JUMPDEST PUSH32 0x496E76616C6964206D656D626572206164647265737300000000000000000000 PUSH0 DUP3 ADD MSTORE POP JUMP JUMPDEST PUSH0 PUSH2 0x58A PUSH1 0x16 DUP4 PUSH2 0x4B1 JUMP JUMPDEST SWAP2 POP PUSH2 0x595 DUP3 PUSH2 0x556 JUMP JUMPDEST PUSH1 0x20 DUP3 ADD SWAP1 POP SWAP2 SWAP1 POP JUMP JUMPDEST PUSH0 PUSH1 0x20 DUP3 ADD SWAP1 POP DUP2 DUP2 SUB PUSH0 DUP4 ADD MSTORE PUSH2 0x5B7 DUP2 PUSH2 0x57E JUMP JUMPDEST SWAP1 POP SWAP2 SWAP1 POP JUMP JUMPDEST PUSH32 0x4E487B7100000000000000000000000000000000000000000000000000000000 PUSH0 MSTORE PUSH1 0x11 PUSH1 0x4 MSTORE PUSH1 0x24 PUSH0 REVERT JUMPDEST PUSH0 PUSH2 0x5F5 DUP3 PUSH2 0x241 JUMP JUMPDEST SWAP2 POP PUSH2 0x600 DUP4 PUSH2 0x241 JUMP JUMPDEST SWAP3 POP DUP3 DUP3 MUL PUSH2 0x60E DUP2 PUSH2 0x241 JUMP JUMPDEST SWAP2 POP DUP3 DUP3 DIV DUP5 EQ DUP4 ISZERO OR PUSH2 0x625 JUMPI PUSH2 0x624 PUSH2 0x5BE JUMP JUMPDEST JUMPDEST POP SWAP3 SWAP2 POP POP JUMP JUMPDEST PUSH0 PUSH2 0x636 DUP3 PUSH2 0x241 JUMP JUMPDEST SWAP2 POP PUSH2 0x641 DUP4 PUSH2 0x241 JUMP JUMPDEST SWAP3 POP DUP3 DUP3 ADD SWAP1 POP DUP1 DUP3 GT ISZERO PUSH2 0x659 JUMPI PUSH2 0x658 PUSH2 0x5BE JUMP JUMPDEST JUMPDEST SWAP3 SWAP2 POP POP JUMP JUMPDEST PUSH2 0x13C1 DUP1 PUSH2 0x66C PUSH0 CODECOPY PUSH0 RETURN INVALID PUSH1 0x80 PUSH1 0x40 MSTORE PUSH1 0x4 CALLDATASIZE LT PUSH2 0x58 JUMPI PUSH0 CALLDATALOAD PUSH1 0xE0 SHR DUP1 PUSH4 0xB6DD8A8 EQ PUSH2 0x9C JUMPI DUP1 PUSH4 0x35CD4B46 EQ PUSH2 0xC6 JUMPI DUP1 PUSH4 0xC74E7261 EQ PUSH2 0xDC JUMPI DUP1 PUSH4 0xD7BB99BA EQ PUSH2 0x106 JUMPI DUP1 PUSH4 0xEC33D2A0 EQ PUSH2 0x110 JUMPI DUP1 PUSH4 0xEDF91178 EQ PUSH2 0x126 JUMPI PUSH2 0x98 JUMP JUMPDEST CALLDATASIZE PUSH2 0x98 JUMPI PUSH1 0x40 MLOAD PUSH32 0x8C379A000000000000000000000000000000000000000000000000000000000 DUP2 MSTORE PUSH1 0x4 ADD PUSH2 0x8F SWAP1 PUSH2 0xB62 JUMP JUMPDEST PUSH1 0x40 MLOAD DUP1 SWAP2 SUB SWAP1 REVERT JUMPDEST PUSH0 DUP1 REVERT JUMPDEST CALLVALUE DUP1 ISZERO PUSH2 0xA7 JUMPI PUSH0 DUP1 REVERT JUMPDEST POP PUSH2 0xB0 PUSH2 0x162 JUMP JUMPDEST PUSH1 0x40 MLOAD PUSH2 0xBD SWAP2 SWAP1 PUSH2 0xB98 JUMP JUMPDEST PUSH1 0x40 MLOAD DUP1 SWAP2 SUB SWAP1 RETURN JUMPDEST CALLVALUE DUP1 ISZERO PUSH2 0xD1 JUMPI PUSH0 DUP1 REVERT JUMPDEST POP PUSH2 0xDA PUSH2 0x1B3 JUMP JUMPDEST STOP JUMPDEST CALLVALUE DUP1 ISZERO PUSH2 0xE7 JUMPI PUSH0 DUP1 REVERT JUMPDEST POP PUSH2 0xF0 PUSH2 0x497 JUMP JUMPDEST PUSH1 0x40 MLOAD PUSH2 0xFD SWAP2 SWAP1 PUSH2 0xBCB JUMP JUMPDEST PUSH1 0x40 MLOAD DUP1 SWAP2 SUB SWAP1 RETURN JUMPDEST PUSH2 0x10E PUSH2 0x593 JUMP JUMPDEST STOP JUMPDEST CALLVALUE DUP1 ISZERO PUSH2 0x11B JUMPI PUSH0 DUP1 REVERT JUMPDEST POP PUSH2 0x124 PUSH2 0x844 JUMP JUMPDEST STOP JUMPDEST CALLVALUE DUP1 ISZERO PUSH2 0x131 JUMPI PUSH0 DUP1 REVERT JUMPDEST POP PUSH2 0x14C PUSH1 0x4 DUP1 CALLDATASIZE SUB DUP2 ADD SWAP1 PUSH2 0x147 SWAP2 SWAP1 PUSH2 0xC42 JUMP JUMPDEST PUSH2 0x9D0 JUMP JUMPDEST PUSH1 0x40 MLOAD PUSH2 0x159 SWAP2 SWAP1 PUSH2 0xBCB JUMP JUMPDEST PUSH1 0x40 MLOAD DUP1 SWAP2 SUB SWAP1 RETURN JUMPDEST PUSH0 PUSH2 0x16C CALLER PUSH2 0xA6A JUMP JUMPDEST PUSH2 0x1AB JUMPI PUSH1 0x40 MLOAD PUSH32 0x8C379A000000000000000000000000000000000000000000000000000000000 DUP2 MSTORE PUSH1 0x4 ADD PUSH2 0x1A2 SWAP1 PUSH2 0xCB7 JUMP JUMPDEST PUSH1 0x40 MLOAD DUP1 SWAP2 SUB SWAP1 REVERT JUMPDEST PUSH1 0x2 SLOAD SWAP1 POP SWAP1 JUMP JUMPDEST PUSH2 0x1BC CALLER PUSH2 0xA6A JUMP JUMPDEST PUSH2 0x1FB JUMPI PUSH1 0x40 MLOAD PUSH32 0x8C379A000000000000000000000000000000000000000000000000000000000 DUP2 MSTORE PUSH1 0x4 ADD PUSH2 0x1F2 SWAP1 PUSH2 0xCB7 JUMP JUMPDEST PUSH1 0x40 MLOAD DUP1 SWAP2 SUB SWAP1 REVERT JUMPDEST PUSH0 DUP1 PUSH0 SWAP1 POP PUSH0 JUMPDEST PUSH0 SLOAD DUP2 LT ISZERO PUSH2 0x2E5 JUMPI PUSH0 DUP1 SLOAD DUP3 PUSH1 0xB SLOAD PUSH2 0x21C SWAP2 SWAP1 PUSH2 0xD02 JUMP JUMPDEST PUSH2 0x226 SWAP2 SWAP1 PUSH2 0xD62 JUMP JUMPDEST SWAP1 POP PUSH0 PUSH1 0x4 DUP3 DUP2 SLOAD DUP2 LT PUSH2 0x23D JUMPI PUSH2 0x23C PUSH2 0xD92 JUMP JUMPDEST JUMPDEST SWAP1 PUSH0 MSTORE PUSH1 0x20 PUSH0 KECCAK256 ADD PUSH0 SWAP1 SLOAD SWAP1 PUSH2 0x100 EXP SWAP1 DIV PUSH20 0xFFFFFFFFFFFFFFFFFFFFFFFFFFFFFFFFFFFFFFFF AND SWAP1 POP PUSH1 0xA PUSH0 DUP3 PUSH20 0xFFFFFFFFFFFFFFFFFFFFFFFFFFFFFFFFFFFFFFFF AND PUSH20 0xFFFFFFFFFFFFFFFFFFFFFFFFFFFFFFFFFFFFFFFF AND DUP2 MSTORE PUSH1 0x20 ADD SWAP1 DUP2 MSTORE PUSH1 0x20 ADD PUSH0 KECCAK256 PUSH0 SWAP1 SLOAD SWAP1 PUSH2 0x100 EXP SWAP1 DIV PUSH1 0xFF AND PUSH2 0x2D6 JUMPI DUP1 SWAP5 POP PUSH1 0x1 DUP3 PUSH2 0x2C5 SWAP2 SWAP1 PUSH2 0xD02 JUMP JUMPDEST PUSH1 0xB DUP2 SWAP1 SSTORE POP PUSH1 0x1 SWAP4 POP POP POP PUSH2 0x2E5 JUMP JUMPDEST POP POP DUP1 DUP1 PUSH1 0x1 ADD SWAP2 POP POP PUSH2 0x202 JUMP JUMPDEST POP DUP1 PUSH2 0x326 JUMPI PUSH1 0x40 MLOAD PUSH32 0x8C379A000000000000000000000000000000000000000000000000000000000 DUP2 MSTORE PUSH1 0x4 ADD PUSH2 0x31D SWAP1 PUSH2 0xE2F JUMP JUMPDEST PUSH1 0x40 MLOAD DUP1 SWAP2 SUB SWAP1 REVERT JUMPDEST PUSH1 0x1 PUSH1 0xA PUSH0 DUP5 PUSH20 0xFFFFFFFFFFFFFFFFFFFFFFFFFFFFFFFFFFFFFFFF AND PUSH20 0xFFFFFFFFFFFFFFFFFFFFFFFFFFFFFFFFFFFFFFFF AND DUP2 MSTORE PUSH1 0x20 ADD SWAP1 DUP2 MSTORE PUSH1 0x20 ADD PUSH0 KECCAK256 PUSH0 PUSH2 0x100 EXP DUP2 SLOAD DUP2 PUSH1 0xFF MUL NOT AND SWAP1 DUP4 ISZERO ISZERO MUL OR SWAP1 SSTORE POP PUSH0 SELFBALANCE SWAP1 POP PUSH0 DUP2 GT PUSH2 0x3C1 JUMPI PUSH1 0x40 MLOAD PUSH32 0x8C379A000000000000000000000000000000000000000000000000000000000 DUP2 MSTORE PUSH1 0x4 ADD PUSH2 0x3B8 SWAP1 PUSH2 0xE97 JUMP JUMPDEST PUSH1 0x40 MLOAD DUP1 SWAP2 SUB SWAP1 REVERT JUMPDEST PUSH0 DUP4 PUSH20 0xFFFFFFFFFFFFFFFFFFFFFFFFFFFFFFFFFFFFFFFF AND DUP3 PUSH1 0x40 MLOAD PUSH2 0x3E6 SWAP1 PUSH2 0xEE2 JUMP JUMPDEST PUSH0 PUSH1 0x40 MLOAD DUP1 DUP4 SUB DUP2 DUP6 DUP8 GAS CALL SWAP3 POP POP POP RETURNDATASIZE DUP1 PUSH0 DUP2 EQ PUSH2 0x420 JUMPI PUSH1 0x40 MLOAD SWAP2 POP PUSH1 0x1F NOT PUSH1 0x3F RETURNDATASIZE ADD AND DUP3 ADD PUSH1 0x40 MSTORE RETURNDATASIZE DUP3 MSTORE RETURNDATASIZE PUSH0 PUSH1 0x20 DUP5 ADD RETURNDATACOPY PUSH2 0x425 JUMP JUMPDEST PUSH1 0x60 SWAP2 POP JUMPDEST POP POP SWAP1 POP DUP1 PUSH2 0x469 JUMPI PUSH1 0x40 MLOAD PUSH32 0x8C379A000000000000000000000000000000000000000000000000000000000 DUP2 MSTORE PUSH1 0x4 ADD PUSH2 0x460 SWAP1 PUSH2 0xF40 JUMP JUMPDEST PUSH1 0x40 MLOAD DUP1 SWAP2 SUB SWAP1 REVERT JUMPDEST PUSH3 0x93A80 PUSH1 0x3 SLOAD PUSH2 0x47A SWAP2 SWAP1 PUSH2 0xF5E JUMP JUMPDEST PUSH1 0x9 PUSH0 DUP3 DUP3 SLOAD PUSH2 0x48A SWAP2 SWAP1 PUSH2 0xD02 JUMP JUMPDEST SWAP3 POP POP DUP2 SWAP1 SSTORE POP POP POP POP POP JUMP JUMPDEST PUSH0 PUSH2 0x4A1 CALLER PUSH2 0xA6A JUMP JUMPDEST PUSH2 0x4E0 JUMPI PUSH1 0x40 MLOAD PUSH32 0x8C379A000000000000000000000000000000000000000000000000000000000 DUP2 MSTORE PUSH1 0x4 ADD PUSH2 0x4D7 SWAP1 PUSH2 0xCB7 JUMP JUMPDEST PUSH1 0x40 MLOAD DUP1 SWAP2 SUB SWAP1 REVERT JUMPDEST PUSH0 JUMPDEST PUSH0 SLOAD DUP2 LT ISZERO PUSH2 0x58A JUMPI PUSH1 0xA PUSH0 PUSH1 0x4 DUP4 DUP2 SLOAD DUP2 LT PUSH2 0x502 JUMPI PUSH2 0x501 PUSH2 0xD92 JUMP JUMPDEST JUMPDEST SWAP1 PUSH0 MSTORE PUSH1 0x20 PUSH0 KECCAK256 ADD PUSH0 SWAP1 SLOAD SWAP1 PUSH2 0x100 EXP SWAP1 DIV PUSH20 0xFFFFFFFFFFFFFFFFFFFFFFFFFFFFFFFFFFFFFFFF AND PUSH20 0xFFFFFFFFFFFFFFFFFFFFFFFFFFFFFFFFFFFFFFFF AND PUSH20 0xFFFFFFFFFFFFFFFFFFFFFFFFFFFFFFFFFFFFFFFF AND DUP2 MSTORE PUSH1 0x20 ADD SWAP1 DUP2 MSTORE PUSH1 0x20 ADD PUSH0 KECCAK256 PUSH0 SWAP1 SLOAD SWAP1 PUSH2 0x100 EXP SWAP1 DIV PUSH1 0xFF AND PUSH2 0x57D JUMPI PUSH0 SWAP2 POP POP PUSH2 0x590 JUMP JUMPDEST DUP1 DUP1 PUSH1 0x1 ADD SWAP2 POP POP PUSH2 0x4E2 JUMP JUMPDEST POP PUSH1 0x1 SWAP1 POP JUMPDEST SWAP1 JUMP JUMPDEST PUSH0 ISZERO ISZERO PUSH2 0x59E PUSH2 0x497 JUMP JUMPDEST ISZERO ISZERO EQ PUSH2 0x5E0 JUMPI PUSH1 0x40 MLOAD PUSH32 0x8C379A000000000000000000000000000000000000000000000000000000000 DUP2 MSTORE PUSH1 0x4 ADD PUSH2 0x5D7 SWAP1 PUSH2 0x1081 JUMP JUMPDEST PUSH1 0x40 MLOAD DUP1 SWAP2 SUB SWAP1 REVERT JUMPDEST PUSH2 0x5E9 CALLER PUSH2 0xA6A JUMP JUMPDEST PUSH2 0x628 JUMPI PUSH1 0x40 MLOAD PUSH32 0x8C379A000000000000000000000000000000000000000000000000000000000 DUP2 MSTORE PUSH1 0x4 ADD PUSH2 0x61F SWAP1 PUSH2 0xCB7 JUMP JUMPDEST PUSH1 0x40 MLOAD DUP1 SWAP2 SUB SWAP1 REVERT JUMPDEST PUSH1 0x5 PUSH0 CALLER PUSH20 0xFFFFFFFFFFFFFFFFFFFFFFFFFFFFFFFFFFFFFFFF AND PUSH20 0xFFFFFFFFFFFFFFFFFFFFFFFFFFFFFFFFFFFFFFFF AND DUP2 MSTORE PUSH1 0x20 ADD SWAP1 DUP2 MSTORE PUSH1 0x20 ADD PUSH0 KECCAK256 PUSH0 SWAP1 SLOAD SWAP1 PUSH2 0x100 EXP SWAP1 DIV PUSH1 0xFF AND ISZERO PUSH2 0x6B2 JUMPI PUSH1 0x40 MLOAD PUSH32 0x8C379A000000000000000000000000000000000000000000000000000000000 DUP2 MSTORE PUSH1 0x4 ADD PUSH2 0x6A9 SWAP1 PUSH2 0x10E9 JUMP JUMPDEST PUSH1 0x40 MLOAD DUP1 SWAP2 SUB SWAP1 REVERT JUMPDEST PUSH1 0x2 SLOAD CALLVALUE EQ PUSH2 0x6F6 JUMPI PUSH1 0x40 MLOAD PUSH32 0x8C379A000000000000000000000000000000000000000000000000000000000 DUP2 MSTORE PUSH1 0x4 ADD PUSH2 0x6ED SWAP1 PUSH2 0x1151 JUMP JUMPDEST PUSH1 0x40 MLOAD DUP1 SWAP2 SUB SWAP1 REVERT JUMPDEST PUSH0 ISZERO ISZERO PUSH2 0x701 PUSH2 0x497 JUMP JUMPDEST ISZERO ISZERO EQ PUSH2 0x743 JUMPI PUSH1 0x40 MLOAD PUSH32 0x8C379A000000000000000000000000000000000000000000000000000000000 DUP2 MSTORE PUSH1 0x4 ADD PUSH2 0x73A SWAP1 PUSH2 0x122B JUMP JUMPDEST PUSH1 0x40 MLOAD DUP1 SWAP2 SUB SWAP1 REVERT JUMPDEST PUSH0 PUSH3 0x93A80 PUSH1 0x1 SLOAD PUSH2 0x755 SWAP2 SWAP1 PUSH2 0xF5E JUMP JUMPDEST SWAP1 POP DUP1 PUSH1 0x7 SLOAD PUSH2 0x765 SWAP2 SWAP1 PUSH2 0xD02 JUMP JUMPDEST TIMESTAMP LT PUSH2 0x7A6 JUMPI PUSH1 0x40 MLOAD PUSH32 0x8C379A000000000000000000000000000000000000000000000000000000000 DUP2 MSTORE PUSH1 0x4 ADD PUSH2 0x79D SWAP1 PUSH2 0x12B9 JUMP JUMPDEST PUSH1 0x40 MLOAD DUP1 SWAP2 SUB SWAP1 REVERT JUMPDEST PUSH1 0x1 PUSH1 0x5 PUSH0 CALLER PUSH20 0xFFFFFFFFFFFFFFFFFFFFFFFFFFFFFFFFFFFFFFFF AND PUSH20 0xFFFFFFFFFFFFFFFFFFFFFFFFFFFFFFFFFFFFFFFF AND DUP2 MSTORE PUSH1 0x20 ADD SWAP1 DUP2 MSTORE PUSH1 0x20 ADD PUSH0 KECCAK256 PUSH0 PUSH2 0x100 EXP DUP2 SLOAD DUP2 PUSH1 0xFF MUL NOT AND SWAP1 DUP4 ISZERO ISZERO MUL OR SWAP1 SSTORE POP PUSH1 0x1 PUSH1 0x6 PUSH0 DUP3 DUP3 SLOAD PUSH2 0x80D SWAP2 SWAP1 PUSH2 0xD02 JUMP JUMPDEST SWAP3 POP POP DUP2 SWAP1 SSTORE POP PUSH0 SLOAD PUSH1 0x6 SLOAD EQ DUP1 ISZERO PUSH2 0x833 JUMPI POP DUP1 PUSH1 0x7 SLOAD PUSH2 0x82F SWAP2 SWAP1 PUSH2 0xD02 JUMP JUMPDEST TIMESTAMP LT ISZERO JUMPDEST ISZERO PUSH2 0x841 JUMPI PUSH2 0x840 PUSH2 0x844 JUMP JUMPDEST JUMPDEST POP JUMP JUMPDEST PUSH2 0x84D CALLER PUSH2 0xA6A JUMP JUMPDEST PUSH2 0x88C JUMPI PUSH1 0x40 MLOAD PUSH32 0x8C379A000000000000000000000000000000000000000000000000000000000 DUP2 MSTORE PUSH1 0x4 ADD PUSH2 0x883 SWAP1 PUSH2 0xCB7 JUMP JUMPDEST PUSH1 0x40 MLOAD DUP1 SWAP2 SUB SWAP1 REVERT JUMPDEST PUSH0 PUSH3 0x93A80 PUSH1 0x1 SLOAD PUSH2 0x89E SWAP2 SWAP1 PUSH2 0xF5E JUMP JUMPDEST SWAP1 POP DUP1 PUSH1 0x7 SLOAD PUSH2 0x8AE SWAP2 SWAP1 PUSH2 0xD02 JUMP JUMPDEST TIMESTAMP LT ISZERO DUP1 ISZERO PUSH2 0x8BF JUMPI POP PUSH0 SLOAD PUSH1 0x6 SLOAD EQ JUMPDEST PUSH2 0x8FE JUMPI PUSH1 0x40 MLOAD PUSH32 0x8C379A000000000000000000000000000000000000000000000000000000000 DUP2 MSTORE PUSH1 0x4 ADD PUSH2 0x8F5 SWAP1 PUSH2 0x136D JUMP JUMPDEST PUSH1 0x40 MLOAD DUP1 SWAP2 SUB SWAP1 REVERT JUMPDEST PUSH1 0x1 PUSH1 0x8 PUSH0 DUP3 DUP3 SLOAD PUSH2 0x910 SWAP2 SWAP1 PUSH2 0xD02 JUMP JUMPDEST SWAP3 POP POP DUP2 SWAP1 SSTORE POP PUSH0 JUMPDEST PUSH0 SLOAD DUP2 LT ISZERO PUSH2 0x9BE JUMPI PUSH0 PUSH1 0x5 PUSH0 PUSH1 0x4 DUP5 DUP2 SLOAD DUP2 LT PUSH2 0x93A JUMPI PUSH2 0x939 PUSH2 0xD92 JUMP JUMPDEST JUMPDEST SWAP1 PUSH0 MSTORE PUSH1 0x20 PUSH0 KECCAK256 ADD PUSH0 SWAP1 SLOAD SWAP1 PUSH2 0x100 EXP SWAP1 DIV PUSH20 0xFFFFFFFFFFFFFFFFFFFFFFFFFFFFFFFFFFFFFFFF AND PUSH20 0xFFFFFFFFFFFFFFFFFFFFFFFFFFFFFFFFFFFFFFFF AND PUSH20 0xFFFFFFFFFFFFFFFFFFFFFFFFFFFFFFFFFFFFFFFF AND DUP2 MSTORE PUSH1 0x20 ADD SWAP1 DUP2 MSTORE PUSH1 0x20 ADD PUSH0 KECCAK256 PUSH0 PUSH2 0x100 EXP DUP2 SLOAD DUP2 PUSH1 0xFF MUL NOT AND SWAP1 DUP4 ISZERO ISZERO MUL OR SWAP1 SSTORE POP DUP1 DUP1 PUSH1 0x1 ADD SWAP2 POP POP PUSH2 0x919 JUMP JUMPDEST POP PUSH0 PUSH1 0x6 DUP2 SWAP1 SSTORE POP TIMESTAMP PUSH1 0x7 DUP2 SWAP1 SSTORE POP POP JUMP JUMPDEST PUSH0 PUSH2 0x9DA CALLER PUSH2 0xA6A JUMP JUMPDEST PUSH2 0xA19 JUMPI PUSH1 0x40 MLOAD PUSH32 0x8C379A000000000000000000000000000000000000000000000000000000000 DUP2 MSTORE PUSH1 0x4 ADD PUSH2 0xA10 SWAP1 PUSH2 0xCB7 JUMP JUMPDEST PUSH1 0x40 MLOAD DUP1 SWAP2 SUB SWAP1 REVERT JUMPDEST PUSH1 0x5 PUSH0 DUP4 PUSH20 0xFFFFFFFFFFFFFFFFFFFFFFFFFFFFFFFFFFFFFFFF AND PUSH20 0xFFFFFFFFFFFFFFFFFFFFFFFFFFFFFFFFFFFFFFFF AND DUP2 MSTORE PUSH1 0x20 ADD SWAP1 DUP2 MSTORE PUSH1 0x20 ADD PUSH0 KECCAK256 PUSH0 SWAP1 SLOAD SWAP1 PUSH2 0x100 EXP SWAP1 DIV PUSH1 0xFF AND SWAP1 POP SWAP2 SWAP1 POP JUMP JUMPDEST PUSH0 DUP1 PUSH0 SWAP1 POP JUMPDEST PUSH0 SLOAD DUP2 LT ISZERO PUSH2 0xAFE JUMPI DUP3 PUSH20 0xFFFFFFFFFFFFFFFFFFFFFFFFFFFFFFFFFFFFFFFF AND PUSH1 0x4 DUP3 DUP2 SLOAD DUP2 LT PUSH2 0xAA4 JUMPI PUSH2 0xAA3 PUSH2 0xD92 JUMP JUMPDEST JUMPDEST SWAP1 PUSH0 MSTORE PUSH1 0x20 PUSH0 KECCAK256 ADD PUSH0 SWAP1 SLOAD SWAP1 PUSH2 0x100 EXP SWAP1 DIV PUSH20 0xFFFFFFFFFFFFFFFFFFFFFFFFFFFFFFFFFFFFFFFF AND PUSH20 0xFFFFFFFFFFFFFFFFFFFFFFFFFFFFFFFFFFFFFFFF AND SUB PUSH2 0xAF1 JUMPI PUSH1 0x1 SWAP2 POP POP PUSH2 0xB03 JUMP JUMPDEST DUP1 DUP1 PUSH1 0x1 ADD SWAP2 POP POP PUSH2 0xA70 JUMP JUMPDEST POP PUSH0 SWAP1 POP JUMPDEST SWAP2 SWAP1 POP JUMP JUMPDEST PUSH0 DUP3 DUP3 MSTORE PUSH1 0x20 DUP3 ADD SWAP1 POP SWAP3 SWAP2 POP POP JUMP JUMPDEST PUSH32 0x55736520636F6E74726962757465282920746F206465706F7369740000000000 PUSH0 DUP3 ADD MSTORE POP JUMP JUMPDEST PUSH0 PUSH2 0xB4C PUSH1 0x1B DUP4 PUSH2 0xB08 JUMP JUMPDEST SWAP2 POP PUSH2 0xB57 DUP3 PUSH2 0xB18 JUMP JUMPDEST PUSH1 0x20 DUP3 ADD SWAP1 POP SWAP2 SWAP1 POP JUMP JUMPDEST PUSH0 PUSH1 0x20 DUP3 ADD SWAP1 POP DUP2 DUP2 SUB PUSH0 DUP4 ADD MSTORE PUSH2 0xB79 DUP2 PUSH2 0xB40 JUMP JUMPDEST SWAP1 POP SWAP2 SWAP1 POP JUMP JUMPDEST PUSH0 DUP2 SWAP1 POP SWAP2 SWAP1 POP JUMP JUMPDEST PUSH2 0xB92 DUP2 PUSH2 0xB80 JUMP JUMPDEST DUP3 MSTORE POP POP JUMP JUMPDEST PUSH0 PUSH1 0x20 DUP3 ADD SWAP1 POP PUSH2 0xBAB PUSH0 DUP4 ADD DUP5 PUSH2 0xB89 JUMP JUMPDEST SWAP3 SWAP2 POP POP JUMP JUMPDEST PUSH0 DUP2 ISZERO ISZERO SWAP1 POP SWAP2 SWAP1 POP JUMP JUMPDEST PUSH2 0xBC5 DUP2 PUSH2 0xBB1 JUMP JUMPDEST DUP3 MSTORE POP POP JUMP JUMPDEST PUSH0 PUSH1 0x20 DUP3 ADD SWAP1 POP PUSH2 0xBDE PUSH0 DUP4 ADD DUP5 PUSH2 0xBBC JUMP JUMPDEST SWAP3 SWAP2 POP POP JUMP JUMPDEST PUSH0 DUP1 REVERT JUMPDEST PUSH0 PUSH20 0xFFFFFFFFFFFFFFFFFFFFFFFFFFFFFFFFFFFFFFFF DUP3 AND SWAP1 POP SWAP2 SWAP1 POP JUMP JUMPDEST PUSH0 PUSH2 0xC11 DUP3 PUSH2 0xBE8 JUMP JUMPDEST SWAP1 POP SWAP2 SWAP1 POP JUMP JUMPDEST PUSH2 0xC21 DUP2 PUSH2 0xC07 JUMP JUMPDEST DUP2 EQ PUSH2 0xC2B JUMPI PUSH0 DUP1 REVERT JUMPDEST POP JUMP JUMPDEST PUSH0 DUP2 CALLDATALOAD SWAP1 POP PUSH2 0xC3C DUP2 PUSH2 0xC18 JUMP JUMPDEST SWAP3 SWAP2 POP POP JUMP JUMPDEST PUSH0 PUSH1 0x20 DUP3 DUP5 SUB SLT ISZERO PUSH2 0xC57 JUMPI PUSH2 0xC56 PUSH2 0xBE4 JUMP JUMPDEST JUMPDEST PUSH0 PUSH2 0xC64 DUP5 DUP3 DUP6 ADD PUSH2 0xC2E JUMP JUMPDEST SWAP2 POP POP SWAP3 SWAP2 POP POP JUMP JUMPDEST PUSH32 0x4E6F7420612072656769737465726564206D656D626572000000000000000000 PUSH0 DUP3 ADD MSTORE POP JUMP JUMPDEST PUSH0 PUSH2 0xCA1 PUSH1 0x17 DUP4 PUSH2 0xB08 JUMP JUMPDEST SWAP2 POP PUSH2 0xCAC DUP3 PUSH2 0xC6D JUMP JUMPDEST PUSH1 0x20 DUP3 ADD SWAP1 POP SWAP2 SWAP1 POP JUMP JUMPDEST PUSH0 PUSH1 0x20 DUP3 ADD SWAP1 POP DUP2 DUP2 SUB PUSH0 DUP4 ADD MSTORE PUSH2 0xCCE DUP2 PUSH2 0xC95 JUMP JUMPDEST SWAP1 POP SWAP2 SWAP1 POP JUMP JUMPDEST PUSH32 0x4E487B7100000000000000000000000000000000000000000000000000000000 PUSH0 MSTORE PUSH1 0x11 PUSH1 0x4 MSTORE PUSH1 0x24 PUSH0 REVERT JUMPDEST PUSH0 PUSH2 0xD0C DUP3 PUSH2 0xB80 JUMP JUMPDEST SWAP2 POP PUSH2 0xD17 DUP4 PUSH2 0xB80 JUMP JUMPDEST SWAP3 POP DUP3 DUP3 ADD SWAP1 POP DUP1 DUP3 GT ISZERO PUSH2 0xD2F JUMPI PUSH2 0xD2E PUSH2 0xCD5 JUMP JUMPDEST JUMPDEST SWAP3 SWAP2 POP POP JUMP JUMPDEST PUSH32 0x4E487B7100000000000000000000000000000000000000000000000000000000 PUSH0 MSTORE PUSH1 0x12 PUSH1 0x4 MSTORE PUSH1 0x24 PUSH0 REVERT JUMPDEST PUSH0 PUSH2 0xD6C DUP3 PUSH2 0xB80 JUMP JUMPDEST SWAP2 POP PUSH2 0xD77 DUP4 PUSH2 0xB80 JUMP JUMPDEST SWAP3 POP DUP3 PUSH2 0xD87 JUMPI PUSH2 0xD86 PUSH2 0xD35 JUMP JUMPDEST JUMPDEST DUP3 DUP3 MOD SWAP1 POP SWAP3 SWAP2 POP POP JUMP JUMPDEST PUSH32 0x4E487B7100000000000000000000000000000000000000000000000000000000 PUSH0 MSTORE PUSH1 0x32 PUSH1 0x4 MSTORE PUSH1 0x24 PUSH0 REVERT JUMPDEST PUSH32 0x416C6C206D656D62657273206861766520616C7265616479206265656E207061 PUSH0 DUP3 ADD MSTORE PUSH32 0x6964000000000000000000000000000000000000000000000000000000000000 PUSH1 0x20 DUP3 ADD MSTORE POP JUMP JUMPDEST PUSH0 PUSH2 0xE19 PUSH1 0x22 DUP4 PUSH2 0xB08 JUMP JUMPDEST SWAP2 POP PUSH2 0xE24 DUP3 PUSH2 0xDBF JUMP JUMPDEST PUSH1 0x40 DUP3 ADD SWAP1 POP SWAP2 SWAP1 POP JUMP JUMPDEST PUSH0 PUSH1 0x20 DUP3 ADD SWAP1 POP DUP2 DUP2 SUB PUSH0 DUP4 ADD MSTORE PUSH2 0xE46 DUP2 PUSH2 0xE0D JUMP JUMPDEST SWAP1 POP SWAP2 SWAP1 POP JUMP JUMPDEST PUSH32 0x4E6F2066756E647320746F206469737472696275746500000000000000000000 PUSH0 DUP3 ADD MSTORE POP JUMP JUMPDEST PUSH0 PUSH2 0xE81 PUSH1 0x16 DUP4 PUSH2 0xB08 JUMP JUMPDEST SWAP2 POP PUSH2 0xE8C DUP3 PUSH2 0xE4D JUMP JUMPDEST PUSH1 0x20 DUP3 ADD SWAP1 POP SWAP2 SWAP1 POP JUMP JUMPDEST PUSH0 PUSH1 0x20 DUP3 ADD SWAP1 POP DUP2 DUP2 SUB PUSH0 DUP4 ADD MSTORE PUSH2 0xEAE DUP2 PUSH2 0xE75 JUMP JUMPDEST SWAP1 POP SWAP2 SWAP1 POP JUMP JUMPDEST PUSH0 DUP2 SWAP1 POP SWAP3 SWAP2 POP POP JUMP JUMPDEST POP JUMP JUMPDEST PUSH0 PUSH2 0xECD PUSH0 DUP4 PUSH2 0xEB5 JUMP JUMPDEST SWAP2 POP PUSH2 0xED8 DUP3 PUSH2 0xEBF JUMP JUMPDEST PUSH0 DUP3 ADD SWAP1 POP SWAP2 SWAP1 POP JUMP JUMPDEST PUSH0 PUSH2 0xEEC DUP3 PUSH2 0xEC2 JUMP JUMPDEST SWAP2 POP DUP2 SWAP1 POP SWAP2 SWAP1 POP JUMP JUMPDEST PUSH32 0x5472616E73666572206661696C65640000000000000000000000000000000000 PUSH0 DUP3 ADD MSTORE POP JUMP JUMPDEST PUSH0 PUSH2 0xF2A PUSH1 0xF DUP4 PUSH2 0xB08 JUMP JUMPDEST SWAP2 POP PUSH2 0xF35 DUP3 PUSH2 0xEF6 JUMP JUMPDEST PUSH1 0x20 DUP3 ADD SWAP1 POP SWAP2 SWAP1 POP JUMP JUMPDEST PUSH0 PUSH1 0x20 DUP3 ADD SWAP1 POP DUP2 DUP2 SUB PUSH0 DUP4 ADD MSTORE PUSH2 0xF57 DUP2 PUSH2 0xF1E JUMP JUMPDEST SWAP1 POP SWAP2 SWAP1 POP JUMP JUMPDEST PUSH0 PUSH2 0xF68 DUP3 PUSH2 0xB80 JUMP JUMPDEST SWAP2 POP PUSH2 0xF73 DUP4 PUSH2 0xB80 JUMP JUMPDEST SWAP3 POP DUP3 DUP3 MUL PUSH2 0xF81 DUP2 PUSH2 0xB80 JUMP JUMPDEST SWAP2 POP DUP3 DUP3 DIV DUP5 EQ DUP4 ISZERO OR PUSH2 0xF98 JUMPI PUSH2 0xF97 PUSH2 0xCD5 JUMP JUMPDEST JUMPDEST POP SWAP3 SWAP2 POP POP JUMP JUMPDEST PUSH32 0x45766572796F6E6520686173206265656E2070616964206F7574206F6E63652C PUSH0 DUP3 ADD MSTORE PUSH32 0x206566666563746976656C7920656E64696E67207468652054616E64612E2054 PUSH1 0x20 DUP3 ADD MSTORE PUSH32 0x68616E6B20796F7520666F722070617274696369706174696E67212052657374 PUSH1 0x40 DUP3 ADD MSTORE PUSH32 0x6172742061206E65772061677265656D656E7420696620796F752764206C696B PUSH1 0x60 DUP3 ADD MSTORE PUSH32 0x6520746F20636F6E74696E7565207769746820746869732054616E64612E0000 PUSH1 0x80 DUP3 ADD MSTORE POP JUMP JUMPDEST PUSH0 PUSH2 0x106B PUSH1 0x9E DUP4 PUSH2 0xB08 JUMP JUMPDEST SWAP2 POP PUSH2 0x1076 DUP3 PUSH2 0xF9F JUMP JUMPDEST PUSH1 0xA0 DUP3 ADD SWAP1 POP SWAP2 SWAP1 POP JUMP JUMPDEST PUSH0 PUSH1 0x20 DUP3 ADD SWAP1 POP DUP2 DUP2 SUB PUSH0 DUP4 ADD MSTORE PUSH2 0x1098 DUP2 PUSH2 0x105F JUMP JUMPDEST SWAP1 POP SWAP2 SWAP1 POP JUMP JUMPDEST PUSH32 0x416C726561647920636F6E74726962757465642074686973206379636C650000 PUSH0 DUP3 ADD MSTORE POP JUMP JUMPDEST PUSH0 PUSH2 0x10D3 PUSH1 0x1E DUP4 PUSH2 0xB08 JUMP JUMPDEST SWAP2 POP PUSH2 0x10DE DUP3 PUSH2 0x109F JUMP JUMPDEST PUSH1 0x20 DUP3 ADD SWAP1 POP SWAP2 SWAP1 POP JUMP JUMPDEST PUSH0 PUSH1 0x20 DUP3 ADD SWAP1 POP DUP2 DUP2 SUB PUSH0 DUP4 ADD MSTORE PUSH2 0x1100 DUP2 PUSH2 0x10C7 JUMP JUMPDEST SWAP1 POP SWAP2 SWAP1 POP JUMP JUMPDEST PUSH32 0x496E636F727265637420636F6E747269627574696F6E20616D6F756E74000000 PUSH0 DUP3 ADD MSTORE POP JUMP JUMPDEST PUSH0 PUSH2 0x113B PUSH1 0x1D DUP4 PUSH2 0xB08 JUMP JUMPDEST SWAP2 POP PUSH2 0x1146 DUP3 PUSH2 0x1107 JUMP JUMPDEST PUSH1 0x20 DUP3 ADD SWAP1 POP SWAP2 SWAP1 POP JUMP JUMPDEST PUSH0 PUSH1 0x20 DUP3 ADD SWAP1 POP DUP2 DUP2 SUB PUSH0 DUP4 ADD MSTORE PUSH2 0x1168 DUP2 PUSH2 0x112F JUMP JUMPDEST SWAP1 POP SWAP2 SWAP1 POP JUMP JUMPDEST PUSH32 0x45766572796F6E6520686173206265656E2070616964206F7574206F6E63652E PUSH0 DUP3 ADD MSTORE PUSH32 0x205468616E6B20796F7520666F722070617274696369706174696E6721205265 PUSH1 0x20 DUP3 ADD MSTORE PUSH32 0x73746172742061206E65772061677265656D656E7420696620796F752764206C PUSH1 0x40 DUP3 ADD MSTORE PUSH32 0x696B6520746F20636F6E74696E7565207769746820746869732054616E64612E PUSH1 0x60 DUP3 ADD MSTORE POP JUMP JUMPDEST PUSH0 PUSH2 0x1215 PUSH1 0x80 DUP4 PUSH2 0xB08 JUMP JUMPDEST SWAP2 POP PUSH2 0x1220 DUP3 PUSH2 0x116F JUMP JUMPDEST PUSH1 0x80 DUP3 ADD SWAP1 POP SWAP2 SWAP1 POP JUMP JUMPDEST PUSH0 PUSH1 0x20 DUP3 ADD SWAP1 POP DUP2 DUP2 SUB PUSH0 DUP4 ADD MSTORE PUSH2 0x1242 DUP2 PUSH2 0x1209 JUMP JUMPDEST SWAP1 POP SWAP2 SWAP1 POP JUMP JUMPDEST PUSH32 0x436F6E747269627574696F6E2077696E646F7720666F72207468697320637963 PUSH0 DUP3 ADD MSTORE PUSH32 0x6C6520697320636C6F7365640000000000000000000000000000000000000000 PUSH1 0x20 DUP3 ADD MSTORE POP JUMP JUMPDEST PUSH0 PUSH2 0x12A3 PUSH1 0x2C DUP4 PUSH2 0xB08 JUMP JUMPDEST SWAP2 POP PUSH2 0x12AE DUP3 PUSH2 0x1249 JUMP JUMPDEST PUSH1 0x40 DUP3 ADD SWAP1 POP SWAP2 SWAP1 POP JUMP JUMPDEST PUSH0 PUSH1 0x20 DUP3 ADD SWAP1 POP DUP2 DUP2 SUB PUSH0 DUP4 ADD MSTORE PUSH2 0x12D0 DUP2 PUSH2 0x1297 JUMP JUMPDEST SWAP1 POP SWAP2 SWAP1 POP JUMP JUMPDEST PUSH32 0x43616E6E6F742066696E616C697A65206379636C6520756E74696C2061677265 PUSH0 DUP3 ADD MSTORE PUSH32 0x656420646973747269627574696F6E20696E74657276616C2074696D65206861 PUSH1 0x20 DUP3 ADD MSTORE PUSH32 0x7320706173736564000000000000000000000000000000000000000000000000 PUSH1 0x40 DUP3 ADD MSTORE POP JUMP JUMPDEST PUSH0 PUSH2 0x1357 PUSH1 0x48 DUP4 PUSH2 0xB08 JUMP JUMPDEST SWAP2 POP PUSH2 0x1362 DUP3 PUSH2 0x12D7 JUMP JUMPDEST PUSH1 0x60 DUP3 ADD SWAP1 POP SWAP2 SWAP1 POP JUMP JUMPDEST PUSH0 PUSH1 0x20 DUP3 ADD SWAP1 POP DUP2 DUP2 SUB PUSH0 DUP4 ADD MSTORE PUSH2 0x1384 DUP2 PUSH2 0x134B JUMP JUMPDEST SWAP1 POP SWAP2 SWAP1 POP JUMP INVALID LOG2 PUSH5 0x6970667358 0x22 SLT KECCAK256 0xAD STOP TLOAD PUSH6 0x841A63B07820 PUSH24 0xA0D6672473B795554AD4DE0BD134A34AA15D97099A64736F PUSH13 0x634300081A0033000000000000 "
				},
				"gasEstimates": {
					"creation": {
						"codeDepositCost": "1011400",
						"executionCost": "infinite",
						"totalCost": "infinite"
					},
					"external": {
						"allPaidOut()": "infinite",
						"confirmContributionAmount()": "infinite",
						"confirmWhoHasContributed(address)": "infinite",
						"contribute()": "infinite",
						"finalizeCycle()": "infinite",
						"triggerDistribution()": "infinite"
					},
					"internal": {
						"isMember(address)": "infinite"
					}
				},
				"methodIdentifiers": {
					"allPaidOut()": "c74e7261",
					"confirmContributionAmount()": "0b6dd8a8",
					"confirmWhoHasContributed(address)": "edf91178",
					"contribute()": "d7bb99ba",
					"finalizeCycle()": "ec33d2a0",
					"triggerDistribution()": "35cd4b46"
				}
			},
			"storageLayout": {
				"storage": [
					{
						"astId": 4,
						"contract": "Contract_Templates/Tanda.sol:Tanda",
						"label": "numMembers",
						"offset": 0,
						"slot": "0",
						"type": "t_uint256"
					},
					{
						"astId": 7,
						"contract": "Contract_Templates/Tanda.sol:Tanda",
						"label": "contributionFrequencyInWeeks",
						"offset": 0,
						"slot": "1",
						"type": "t_uint256"
					},
					{
						"astId": 10,
						"contract": "Contract_Templates/Tanda.sol:Tanda",
						"label": "contributionAmount",
						"offset": 0,
						"slot": "2",
						"type": "t_uint256"
					},
					{
						"astId": 13,
						"contract": "Contract_Templates/Tanda.sol:Tanda",
						"label": "distributionIntervalInWeeks",
						"offset": 0,
						"slot": "3",
						"type": "t_uint256"
					},
					{
						"astId": 17,
						"contract": "Contract_Templates/Tanda.sol:Tanda",
						"label": "members",
						"offset": 0,
						"slot": "4",
						"type": "t_array(t_address)dyn_storage"
					},
					{
						"astId": 22,
						"contract": "Contract_Templates/Tanda.sol:Tanda",
						"label": "hasContributedThisCycle",
						"offset": 0,
						"slot": "5",
						"type": "t_mapping(t_address,t_bool)"
					},
					{
						"astId": 25,
						"contract": "Contract_Templates/Tanda.sol:Tanda",
						"label": "contributionsThisCycle",
						"offset": 0,
						"slot": "6",
						"type": "t_uint256"
					},
					{
						"astId": 28,
						"contract": "Contract_Templates/Tanda.sol:Tanda",
						"label": "cycleStartTime",
						"offset": 0,
						"slot": "7",
						"type": "t_uint256"
					},
					{
						"astId": 31,
						"contract": "Contract_Templates/Tanda.sol:Tanda",
						"label": "cycleCount",
						"offset": 0,
						"slot": "8",
						"type": "t_uint256"
					},
					{
						"astId": 34,
						"contract": "Contract_Templates/Tanda.sol:Tanda",
						"label": "nextDistributionTime",
						"offset": 0,
						"slot": "9",
						"type": "t_uint256"
					},
					{
						"astId": 39,
						"contract": "Contract_Templates/Tanda.sol:Tanda",
						"label": "hasReceivedPayout",
						"offset": 0,
						"slot": "10",
						"type": "t_mapping(t_address,t_bool)"
					},
					{
						"astId": 42,
						"contract": "Contract_Templates/Tanda.sol:Tanda",
						"label": "nextPayoutIndex",
						"offset": 0,
						"slot": "11",
						"type": "t_uint256"
					}
				],
				"types": {
					"t_address": {
						"encoding": "inplace",
						"label": "address",
						"numberOfBytes": "20"
					},
					"t_array(t_address)dyn_storage": {
						"base": "t_address",
						"encoding": "dynamic_array",
						"label": "address[]",
						"numberOfBytes": "32"
					},
					"t_bool": {
						"encoding": "inplace",
						"label": "bool",
						"numberOfBytes": "1"
					},
					"t_mapping(t_address,t_bool)": {
						"encoding": "mapping",
						"key": "t_address",
						"label": "mapping(address => bool)",
						"numberOfBytes": "32",
						"value": "t_bool"
					},
					"t_uint256": {
						"encoding": "inplace",
						"label": "uint256",
						"numberOfBytes": "32"
					}
				}
			},
			"userdoc": {
				"kind": "user",
				"methods": {
					"allPaidOut()": {
						"notice": "Helper to check if everyone has received the pot already."
					},
					"contribute()": {
						"notice": "Each member should call `contribute()` once per contribution cycle,         sending exactly `contributionAmount` wei (equivalent to the specified decimal Ether)."
					},
					"finalizeCycle()": {
						"notice": "Finalizes the current contribution cycle if either:         1) The contribution window has passed, or         2) All members have contributed."
					},
					"triggerDistribution()": {
						"notice": "Trigger the distribution of the entire contract balance to the next unpaid member         if the current time is past `nextDistributionTime`."
					}
				},
				"version": 1
			}
		}
	}
}