{
	"Contract_Templates/Reference.sol": {
		"Tanda": {
			"abi": [
				{
					"inputs": [
						{
							"internalType": "uint256",
							"name": "_numMembers",
							"type": "uint256"
						},
						{
							"internalType": "uint256",
							"name": "_contributionFrequencyInWeeks",
							"type": "uint256"
						},
						{
							"internalType": "uint256",
							"name": "_distributionIntervalInWeeks",
							"type": "uint256"
						},
						{
							"internalType": "uint256",
							"name": "_contributionAmountInEther",
							"type": "uint256"
						},
						{
							"internalType": "address[]",
							"name": "_members",
							"type": "address[]"
						}
					],
					"stateMutability": "nonpayable",
					"type": "constructor"
				},
				{
					"inputs": [],
					"name": "allPaidOut",
					"outputs": [
						{
							"internalType": "bool",
							"name": "",
							"type": "bool"
						}
					],
					"stateMutability": "view",
					"type": "function"
				},
				{
					"inputs": [],
					"name": "contribute",
					"outputs": [],
					"stateMutability": "payable",
					"type": "function"
				},
				{
					"inputs": [],
					"name": "contributionAmount",
					"outputs": [
						{
							"internalType": "uint256",
							"name": "",
							"type": "uint256"
						}
					],
					"stateMutability": "view",
					"type": "function"
				},
				{
					"inputs": [],
					"name": "contributionFrequencyInWeeks",
					"outputs": [
						{
							"internalType": "uint256",
							"name": "",
							"type": "uint256"
						}
					],
					"stateMutability": "view",
					"type": "function"
				},
				{
					"inputs": [],
					"name": "contributionsThisCycle",
					"outputs": [
						{
							"internalType": "uint256",
							"name": "",
							"type": "uint256"
						}
					],
					"stateMutability": "view",
					"type": "function"
				},
				{
					"inputs": [],
					"name": "cycleCount",
					"outputs": [
						{
							"internalType": "uint256",
							"name": "",
							"type": "uint256"
						}
					],
					"stateMutability": "view",
					"type": "function"
				},
				{
					"inputs": [],
					"name": "cycleStartTime",
					"outputs": [
						{
							"internalType": "uint256",
							"name": "",
							"type": "uint256"
						}
					],
					"stateMutability": "view",
					"type": "function"
				},
				{
					"inputs": [],
					"name": "distributionIntervalInWeeks",
					"outputs": [
						{
							"internalType": "uint256",
							"name": "",
							"type": "uint256"
						}
					],
					"stateMutability": "view",
					"type": "function"
				},
				{
					"inputs": [],
					"name": "finalizeCycle",
					"outputs": [],
					"stateMutability": "nonpayable",
					"type": "function"
				},
				{
					"inputs": [
						{
							"internalType": "address",
							"name": "",
							"type": "address"
						}
					],
					"name": "hasContributedThisCycle",
					"outputs": [
						{
							"internalType": "bool",
							"name": "",
							"type": "bool"
						}
					],
					"stateMutability": "view",
					"type": "function"
				},
				{
					"inputs": [
						{
							"internalType": "address",
							"name": "",
							"type": "address"
						}
					],
					"name": "hasReceivedPayout",
					"outputs": [
						{
							"internalType": "bool",
							"name": "",
							"type": "bool"
						}
					],
					"stateMutability": "view",
					"type": "function"
				},
				{
					"inputs": [
						{
							"internalType": "address",
							"name": "_addr",
							"type": "address"
						}
					],
					"name": "isMember",
					"outputs": [
						{
							"internalType": "bool",
							"name": "",
							"type": "bool"
						}
					],
					"stateMutability": "view",
					"type": "function"
				},
				{
					"inputs": [
						{
							"internalType": "uint256",
							"name": "",
							"type": "uint256"
						}
					],
					"name": "members",
					"outputs": [
						{
							"internalType": "address",
							"name": "",
							"type": "address"
						}
					],
					"stateMutability": "view",
					"type": "function"
				},
				{
					"inputs": [],
					"name": "nextDistributionTime",
					"outputs": [
						{
							"internalType": "uint256",
							"name": "",
							"type": "uint256"
						}
					],
					"stateMutability": "view",
					"type": "function"
				},
				{
					"inputs": [],
					"name": "nextPayoutIndex",
					"outputs": [
						{
							"internalType": "uint256",
							"name": "",
							"type": "uint256"
						}
					],
					"stateMutability": "view",
					"type": "function"
				},
				{
					"inputs": [],
					"name": "numMembers",
					"outputs": [
						{
							"internalType": "uint256",
							"name": "",
							"type": "uint256"
						}
					],
					"stateMutability": "view",
					"type": "function"
				},
				{
					"inputs": [],
					"name": "triggerDistribution",
					"outputs": [],
					"stateMutability": "nonpayable",
					"type": "function"
				},
				{
					"stateMutability": "payable",
					"type": "receive"
				}
			],
			"devdoc": {
				"kind": "dev",
				"methods": {
					"constructor": {
						"params": {
							"_contributionAmountInEther": "Amount each member contributes per interval, in decimal Ether                                      (e.g., 0.002 ether, 0.5 ether, 1 ether).",
							"_contributionFrequencyInWeeks": "How often they must contribute (in weeks)",
							"_distributionIntervalInWeeks": "How often the pot should be distributed (in weeks)",
							"_members": "Array of member addresses (must match _numMembers in length)",
							"_numMembers": "Number of participants in the tanda"
						}
					},
					"isMember(address)": {
						"details": "Check if a given address is in the `members` array."
					}
				},
				"stateVariables": {
					"contributionAmount": {
						"details": "How much each member must contribute at each interval, stored in wei.      However, you can specify this value in the constructor as decimal Ether       (e.g., 0.002 ether, 0.5 ether, 1 ether, etc.)."
					},
					"contributionFrequencyInWeeks": {
						"details": "How often each member must contribute, in weeks"
					},
					"contributionsThisCycle": {
						"details": "How many total contributions have been made this cycle"
					},
					"cycleCount": {
						"details": "Count of completed contribution cycles"
					},
					"cycleStartTime": {
						"details": "Timestamp for when the current contribution cycle started"
					},
					"distributionIntervalInWeeks": {
						"details": "Interval (in weeks) at which the pot is distributed"
					},
					"hasContributedThisCycle": {
						"details": "Tracks whether a member has contributed in the current cycle"
					},
					"hasReceivedPayout": {
						"details": "Tracks whether a member has received their one-time payout"
					},
					"members": {
						"details": "List of all members’ addresses"
					},
					"nextDistributionTime": {
						"details": "Next timestamp at or after which a distribution can occur"
					},
					"nextPayoutIndex": {
						"details": "Index for picking the next unpaid member in the `members` array"
					},
					"numMembers": {
						"details": "Number of participants in the tanda"
					}
				},
				"title": "Parameterized Tanda (Rotating Savings) Contract",
				"version": 1
			},
			"evm": {
				"assembly": "    /* \"Contract_Templates/Reference.sol\":512:8471  contract Tanda {... */\n  mstore(0x40, 0x80)\n    /* \"Contract_Templates/Reference.sol\":2607:3847  constructor(... */\n  callvalue\n  dup1\n  iszero\n  tag_1\n  jumpi\n  0x00\n  dup1\n  revert\ntag_1:\n  pop\n  mload(0x40)\n  sub(codesize, bytecodeSize)\n  dup1\n  bytecodeSize\n  dup4\n  codecopy\n  dup2\n  dup2\n  add\n  0x40\n  mstore\n  dup2\n  add\n  swap1\n  tag_2\n  swap2\n  swap1\n  tag_3\n  jump\t// in\ntag_2:\n    /* \"Contract_Templates/Reference.sol\":2911:2922  _numMembers */\n  dup5\n    /* \"Contract_Templates/Reference.sol\":2892:2900  _members */\n  dup2\n    /* \"Contract_Templates/Reference.sol\":2892:2907  _members.length */\n  mload\n    /* \"Contract_Templates/Reference.sol\":2892:2922  _members.length == _numMembers */\n  eq\n    /* \"Contract_Templates/Reference.sol\":2884:2954  require(_members.length == _numMembers, \"Members array size mismatch\") */\n  tag_6\n  jumpi\n  mload(0x40)\n  0x08c379a000000000000000000000000000000000000000000000000000000000\n  dup2\n  mstore\n  0x04\n  add\n  tag_7\n  swap1\n  tag_8\n  jump\t// in\ntag_7:\n  mload(0x40)\n  dup1\n  swap2\n  sub\n  swap1\n  revert\ntag_6:\n    /* \"Contract_Templates/Reference.sol\":2969:2978  uint256 i */\n  0x00\n    /* \"Contract_Templates/Reference.sol\":2964:3091  for (uint256 i = 0; i < _numMembers; i++) {... */\ntag_9:\n    /* \"Contract_Templates/Reference.sol\":2988:2999  _numMembers */\n  dup6\n    /* \"Contract_Templates/Reference.sol\":2984:2985  i */\n  dup2\n    /* \"Contract_Templates/Reference.sol\":2984:2999  i < _numMembers */\n  lt\n    /* \"Contract_Templates/Reference.sol\":2964:3091  for (uint256 i = 0; i < _numMembers; i++) {... */\n  iszero\n  tag_10\n  jumpi\n    /* \"Contract_Templates/Reference.sol\":3051:3052  0 */\n  0x00\n    /* \"Contract_Templates/Reference.sol\":3028:3053  _members[i] != address(0) */\n  0xffffffffffffffffffffffffffffffffffffffff\n  and\n    /* \"Contract_Templates/Reference.sol\":3028:3036  _members */\n  dup3\n    /* \"Contract_Templates/Reference.sol\":3037:3038  i */\n  dup3\n    /* \"Contract_Templates/Reference.sol\":3028:3039  _members[i] */\n  dup2\n  mload\n  dup2\n  lt\n  tag_12\n  jumpi\n  tag_13\n  tag_14\n  jump\t// in\ntag_13:\ntag_12:\n  0x20\n  mul\n  0x20\n  add\n  add\n  mload\n    /* \"Contract_Templates/Reference.sol\":3028:3053  _members[i] != address(0) */\n  0xffffffffffffffffffffffffffffffffffffffff\n  and\n  sub\n    /* \"Contract_Templates/Reference.sol\":3020:3080  require(_members[i] != address(0), \"Invalid member address\") */\n  tag_15\n  jumpi\n  mload(0x40)\n  0x08c379a000000000000000000000000000000000000000000000000000000000\n  dup2\n  mstore\n  0x04\n  add\n  tag_16\n  swap1\n  tag_17\n  jump\t// in\ntag_16:\n  mload(0x40)\n  dup1\n  swap2\n  sub\n  swap1\n  revert\ntag_15:\n    /* \"Contract_Templates/Reference.sol\":3001:3004  i++ */\n  dup1\n  dup1\n  0x01\n  add\n  swap2\n  pop\n  pop\n    /* \"Contract_Templates/Reference.sol\":2964:3091  for (uint256 i = 0; i < _numMembers; i++) {... */\n  jump(tag_9)\ntag_10:\n  pop\n    /* \"Contract_Templates/Reference.sol\":3122:3133  _numMembers */\n  dup5\n    /* \"Contract_Templates/Reference.sol\":3109:3119  numMembers */\n  0x00\n    /* \"Contract_Templates/Reference.sol\":3109:3133  numMembers = _numMembers */\n  dup2\n  swap1\n  sstore\n  pop\n    /* \"Contract_Templates/Reference.sol\":3174:3203  _contributionFrequencyInWeeks */\n  dup4\n    /* \"Contract_Templates/Reference.sol\":3143:3171  contributionFrequencyInWeeks */\n  0x01\n    /* \"Contract_Templates/Reference.sol\":3143:3203  contributionFrequencyInWeeks = _contributionFrequencyInWeeks */\n  dup2\n  swap1\n  sstore\n  pop\n    /* \"Contract_Templates/Reference.sol\":3243:3271  _distributionIntervalInWeeks */\n  dup3\n    /* \"Contract_Templates/Reference.sol\":3213:3240  distributionIntervalInWeeks */\n  0x03\n    /* \"Contract_Templates/Reference.sol\":3213:3271  distributionIntervalInWeeks = _distributionIntervalInWeeks */\n  dup2\n  swap1\n  sstore\n  pop\n    /* \"Contract_Templates/Reference.sol\":3486:3512  _contributionAmountInEther */\n  dup2\n    /* \"Contract_Templates/Reference.sol\":3465:3483  contributionAmount */\n  0x02\n    /* \"Contract_Templates/Reference.sol\":3465:3512  contributionAmount = _contributionAmountInEther */\n  dup2\n  swap1\n  sstore\n  pop\n    /* \"Contract_Templates/Reference.sol\":3541:3549  _members */\n  dup1\n    /* \"Contract_Templates/Reference.sol\":3531:3538  members */\n  0x04\n    /* \"Contract_Templates/Reference.sol\":3531:3549  members = _members */\n  swap1\n  dup1\n  mload\n  swap1\n  0x20\n  add\n  swap1\n  tag_18\n  swap3\n  swap2\n  swap1\n  tag_19\n  jump\t// in\ntag_18:\n  pop\n    /* \"Contract_Templates/Reference.sol\":3637:3652  block.timestamp */\n  timestamp\n    /* \"Contract_Templates/Reference.sol\":3620:3634  cycleStartTime */\n  0x07\n    /* \"Contract_Templates/Reference.sol\":3620:3652  cycleStartTime = block.timestamp */\n  dup2\n  swap1\n  sstore\n  pop\n    /* \"Contract_Templates/Reference.sol\":3734:3741  1 weeks */\n  0x093a80\n    /* \"Contract_Templates/Reference.sol\":3704:3731  distributionIntervalInWeeks */\n  sload(0x03)\n    /* \"Contract_Templates/Reference.sol\":3704:3741  distributionIntervalInWeeks * 1 weeks */\n  tag_20\n  swap2\n  swap1\n  tag_21\n  jump\t// in\ntag_20:\n    /* \"Contract_Templates/Reference.sol\":3685:3700  block.timestamp */\n  timestamp\n    /* \"Contract_Templates/Reference.sol\":3685:3742  block.timestamp + (distributionIntervalInWeeks * 1 weeks) */\n  tag_22\n  swap2\n  swap1\n  tag_23\n  jump\t// in\ntag_22:\n    /* \"Contract_Templates/Reference.sol\":3662:3682  nextDistributionTime */\n  0x09\n    /* \"Contract_Templates/Reference.sol\":3662:3742  nextDistributionTime = block.timestamp + (distributionIntervalInWeeks * 1 weeks) */\n  dup2\n  swap1\n  sstore\n  pop\n    /* \"Contract_Templates/Reference.sol\":3774:3775  0 */\n  0x00\n    /* \"Contract_Templates/Reference.sol\":3761:3771  cycleCount */\n  0x08\n    /* \"Contract_Templates/Reference.sol\":3761:3775  cycleCount = 0 */\n  dup2\n  swap1\n  sstore\n  pop\n    /* \"Contract_Templates/Reference.sol\":3810:3811  0 */\n  0x00\n    /* \"Contract_Templates/Reference.sol\":3785:3807  contributionsThisCycle */\n  0x06\n    /* \"Contract_Templates/Reference.sol\":3785:3811  contributionsThisCycle = 0 */\n  dup2\n  swap1\n  sstore\n  pop\n    /* \"Contract_Templates/Reference.sol\":3839:3840  0 */\n  0x00\n    /* \"Contract_Templates/Reference.sol\":3821:3836  nextPayoutIndex */\n  0x0b\n    /* \"Contract_Templates/Reference.sol\":3821:3840  nextPayoutIndex = 0 */\n  dup2\n  swap1\n  sstore\n  pop\n    /* \"Contract_Templates/Reference.sol\":2607:3847  constructor(... */\n  pop\n  pop\n  pop\n  pop\n  pop\n    /* \"Contract_Templates/Reference.sol\":512:8471  contract Tanda {... */\n  jump(tag_24)\ntag_19:\n  dup3\n  dup1\n  sload\n  dup3\n  dup3\n  sstore\n  swap1\n  0x00\n  mstore\n  keccak256(0x00, 0x20)\n  swap1\n  dup2\n  add\n  swap3\n  dup3\n  iszero\n  tag_25\n  jumpi\n  swap2\n  0x20\n  mul\n  dup3\n  add\ntag_26:\n  dup3\n  dup2\n  gt\n  iszero\n  tag_27\n  jumpi\n  dup3\n  mload\n  dup3\n  exp(0x0100, 0x00)\n  dup2\n  sload\n  dup2\n  0xffffffffffffffffffffffffffffffffffffffff\n  mul\n  not\n  and\n  swap1\n  dup4\n  0xffffffffffffffffffffffffffffffffffffffff\n  and\n  mul\n  or\n  swap1\n  sstore\n  pop\n  swap2\n  0x20\n  add\n  swap2\n  swap1\n  0x01\n  add\n  swap1\n  jump(tag_26)\ntag_27:\ntag_25:\n  pop\n  swap1\n  pop\n  tag_28\n  swap2\n  swap1\n  tag_29\n  jump\t// in\ntag_28:\n  pop\n  swap1\n  jump\t// out\ntag_29:\ntag_30:\n  dup1\n  dup3\n  gt\n  iszero\n  tag_31\n  jumpi\n  0x00\n  dup2\n  0x00\n  swap1\n  sstore\n  pop\n  0x01\n  add\n  jump(tag_30)\ntag_31:\n  pop\n  swap1\n  jump\t// out\n    /* \"#utility.yul\":7:82   */\ntag_32:\n    /* \"#utility.yul\":40:46   */\n  0x00\n    /* \"#utility.yul\":73:75   */\n  0x40\n    /* \"#utility.yul\":67:76   */\n  mload\n    /* \"#utility.yul\":57:76   */\n  swap1\n  pop\n    /* \"#utility.yul\":7:82   */\n  swap1\n  jump\t// out\n    /* \"#utility.yul\":88:205   */\ntag_33:\n    /* \"#utility.yul\":197:198   */\n  0x00\n    /* \"#utility.yul\":194:195   */\n  dup1\n    /* \"#utility.yul\":187:199   */\n  revert\n    /* \"#utility.yul\":211:328   */\ntag_34:\n    /* \"#utility.yul\":320:321   */\n  0x00\n    /* \"#utility.yul\":317:318   */\n  dup1\n    /* \"#utility.yul\":310:322   */\n  revert\n    /* \"#utility.yul\":334:411   */\ntag_35:\n    /* \"#utility.yul\":371:378   */\n  0x00\n    /* \"#utility.yul\":400:405   */\n  dup2\n    /* \"#utility.yul\":389:405   */\n  swap1\n  pop\n    /* \"#utility.yul\":334:411   */\n  swap2\n  swap1\n  pop\n  jump\t// out\n    /* \"#utility.yul\":417:539   */\ntag_36:\n    /* \"#utility.yul\":490:514   */\n  tag_63\n    /* \"#utility.yul\":508:513   */\n  dup2\n    /* \"#utility.yul\":490:514   */\n  tag_35\n  jump\t// in\ntag_63:\n    /* \"#utility.yul\":483:488   */\n  dup2\n    /* \"#utility.yul\":480:515   */\n  eq\n    /* \"#utility.yul\":470:533   */\n  tag_64\n  jumpi\n    /* \"#utility.yul\":529:530   */\n  0x00\n    /* \"#utility.yul\":526:527   */\n  dup1\n    /* \"#utility.yul\":519:531   */\n  revert\n    /* \"#utility.yul\":470:533   */\ntag_64:\n    /* \"#utility.yul\":417:539   */\n  pop\n  jump\t// out\n    /* \"#utility.yul\":545:688   */\ntag_37:\n    /* \"#utility.yul\":602:607   */\n  0x00\n    /* \"#utility.yul\":633:639   */\n  dup2\n    /* \"#utility.yul\":627:640   */\n  mload\n    /* \"#utility.yul\":618:640   */\n  swap1\n  pop\n    /* \"#utility.yul\":649:682   */\n  tag_66\n    /* \"#utility.yul\":676:681   */\n  dup2\n    /* \"#utility.yul\":649:682   */\n  tag_36\n  jump\t// in\ntag_66:\n    /* \"#utility.yul\":545:688   */\n  swap3\n  swap2\n  pop\n  pop\n  jump\t// out\n    /* \"#utility.yul\":694:811   */\ntag_38:\n    /* \"#utility.yul\":803:804   */\n  0x00\n    /* \"#utility.yul\":800:801   */\n  dup1\n    /* \"#utility.yul\":793:805   */\n  revert\n    /* \"#utility.yul\":817:919   */\ntag_39:\n    /* \"#utility.yul\":858:864   */\n  0x00\n    /* \"#utility.yul\":909:911   */\n  0x1f\n    /* \"#utility.yul\":905:912   */\n  not\n    /* \"#utility.yul\":900:902   */\n  0x1f\n    /* \"#utility.yul\":893:898   */\n  dup4\n    /* \"#utility.yul\":889:903   */\n  add\n    /* \"#utility.yul\":885:913   */\n  and\n    /* \"#utility.yul\":875:913   */\n  swap1\n  pop\n    /* \"#utility.yul\":817:919   */\n  swap2\n  swap1\n  pop\n  jump\t// out\n    /* \"#utility.yul\":925:1105   */\ntag_40:\n    /* \"#utility.yul\":973:1050   */\n  0x4e487b7100000000000000000000000000000000000000000000000000000000\n    /* \"#utility.yul\":970:971   */\n  0x00\n    /* \"#utility.yul\":963:1051   */\n  mstore\n    /* \"#utility.yul\":1070:1074   */\n  0x41\n    /* \"#utility.yul\":1067:1068   */\n  0x04\n    /* \"#utility.yul\":1060:1075   */\n  mstore\n    /* \"#utility.yul\":1094:1098   */\n  0x24\n    /* \"#utility.yul\":1091:1092   */\n  0x00\n    /* \"#utility.yul\":1084:1099   */\n  revert\n    /* \"#utility.yul\":1111:1392   */\ntag_41:\n    /* \"#utility.yul\":1194:1221   */\n  tag_71\n    /* \"#utility.yul\":1216:1220   */\n  dup3\n    /* \"#utility.yul\":1194:1221   */\n  tag_39\n  jump\t// in\ntag_71:\n    /* \"#utility.yul\":1186:1192   */\n  dup2\n    /* \"#utility.yul\":1182:1222   */\n  add\n    /* \"#utility.yul\":1324:1330   */\n  dup2\n    /* \"#utility.yul\":1312:1322   */\n  dup2\n    /* \"#utility.yul\":1309:1331   */\n  lt\n    /* \"#utility.yul\":1288:1306   */\n  0xffffffffffffffff\n    /* \"#utility.yul\":1276:1286   */\n  dup3\n    /* \"#utility.yul\":1273:1307   */\n  gt\n    /* \"#utility.yul\":1270:1332   */\n  or\n    /* \"#utility.yul\":1267:1355   */\n  iszero\n  tag_72\n  jumpi\n    /* \"#utility.yul\":1335:1353   */\n  tag_73\n  tag_40\n  jump\t// in\ntag_73:\n    /* \"#utility.yul\":1267:1355   */\ntag_72:\n    /* \"#utility.yul\":1375:1385   */\n  dup1\n    /* \"#utility.yul\":1371:1373   */\n  0x40\n    /* \"#utility.yul\":1364:1386   */\n  mstore\n    /* \"#utility.yul\":1154:1392   */\n  pop\n    /* \"#utility.yul\":1111:1392   */\n  pop\n  pop\n  jump\t// out\n    /* \"#utility.yul\":1398:1527   */\ntag_42:\n    /* \"#utility.yul\":1432:1438   */\n  0x00\n    /* \"#utility.yul\":1459:1479   */\n  tag_75\n  tag_32\n  jump\t// in\ntag_75:\n    /* \"#utility.yul\":1449:1479   */\n  swap1\n  pop\n    /* \"#utility.yul\":1488:1521   */\n  tag_76\n    /* \"#utility.yul\":1516:1520   */\n  dup3\n    /* \"#utility.yul\":1508:1514   */\n  dup3\n    /* \"#utility.yul\":1488:1521   */\n  tag_41\n  jump\t// in\ntag_76:\n    /* \"#utility.yul\":1398:1527   */\n  swap2\n  swap1\n  pop\n  jump\t// out\n    /* \"#utility.yul\":1533:1844   */\ntag_43:\n    /* \"#utility.yul\":1610:1614   */\n  0x00\n    /* \"#utility.yul\":1700:1718   */\n  0xffffffffffffffff\n    /* \"#utility.yul\":1692:1698   */\n  dup3\n    /* \"#utility.yul\":1689:1719   */\n  gt\n    /* \"#utility.yul\":1686:1742   */\n  iszero\n  tag_78\n  jumpi\n    /* \"#utility.yul\":1722:1740   */\n  tag_79\n  tag_40\n  jump\t// in\ntag_79:\n    /* \"#utility.yul\":1686:1742   */\ntag_78:\n    /* \"#utility.yul\":1772:1776   */\n  0x20\n    /* \"#utility.yul\":1764:1770   */\n  dup3\n    /* \"#utility.yul\":1760:1777   */\n  mul\n    /* \"#utility.yul\":1752:1777   */\n  swap1\n  pop\n    /* \"#utility.yul\":1832:1836   */\n  0x20\n    /* \"#utility.yul\":1826:1830   */\n  dup2\n    /* \"#utility.yul\":1822:1837   */\n  add\n    /* \"#utility.yul\":1814:1837   */\n  swap1\n  pop\n    /* \"#utility.yul\":1533:1844   */\n  swap2\n  swap1\n  pop\n  jump\t// out\n    /* \"#utility.yul\":1850:1967   */\ntag_44:\n    /* \"#utility.yul\":1959:1960   */\n  0x00\n    /* \"#utility.yul\":1956:1957   */\n  dup1\n    /* \"#utility.yul\":1949:1961   */\n  revert\n    /* \"#utility.yul\":1973:2099   */\ntag_45:\n    /* \"#utility.yul\":2010:2017   */\n  0x00\n    /* \"#utility.yul\":2050:2092   */\n  0xffffffffffffffffffffffffffffffffffffffff\n    /* \"#utility.yul\":2043:2048   */\n  dup3\n    /* \"#utility.yul\":2039:2093   */\n  and\n    /* \"#utility.yul\":2028:2093   */\n  swap1\n  pop\n    /* \"#utility.yul\":1973:2099   */\n  swap2\n  swap1\n  pop\n  jump\t// out\n    /* \"#utility.yul\":2105:2201   */\ntag_46:\n    /* \"#utility.yul\":2142:2149   */\n  0x00\n    /* \"#utility.yul\":2171:2195   */\n  tag_83\n    /* \"#utility.yul\":2189:2194   */\n  dup3\n    /* \"#utility.yul\":2171:2195   */\n  tag_45\n  jump\t// in\ntag_83:\n    /* \"#utility.yul\":2160:2195   */\n  swap1\n  pop\n    /* \"#utility.yul\":2105:2201   */\n  swap2\n  swap1\n  pop\n  jump\t// out\n    /* \"#utility.yul\":2207:2329   */\ntag_47:\n    /* \"#utility.yul\":2280:2304   */\n  tag_85\n    /* \"#utility.yul\":2298:2303   */\n  dup2\n    /* \"#utility.yul\":2280:2304   */\n  tag_46\n  jump\t// in\ntag_85:\n    /* \"#utility.yul\":2273:2278   */\n  dup2\n    /* \"#utility.yul\":2270:2305   */\n  eq\n    /* \"#utility.yul\":2260:2323   */\n  tag_86\n  jumpi\n    /* \"#utility.yul\":2319:2320   */\n  0x00\n    /* \"#utility.yul\":2316:2317   */\n  dup1\n    /* \"#utility.yul\":2309:2321   */\n  revert\n    /* \"#utility.yul\":2260:2323   */\ntag_86:\n    /* \"#utility.yul\":2207:2329   */\n  pop\n  jump\t// out\n    /* \"#utility.yul\":2335:2478   */\ntag_48:\n    /* \"#utility.yul\":2392:2397   */\n  0x00\n    /* \"#utility.yul\":2423:2429   */\n  dup2\n    /* \"#utility.yul\":2417:2430   */\n  mload\n    /* \"#utility.yul\":2408:2430   */\n  swap1\n  pop\n    /* \"#utility.yul\":2439:2472   */\n  tag_88\n    /* \"#utility.yul\":2466:2471   */\n  dup2\n    /* \"#utility.yul\":2439:2472   */\n  tag_47\n  jump\t// in\ntag_88:\n    /* \"#utility.yul\":2335:2478   */\n  swap3\n  swap2\n  pop\n  pop\n  jump\t// out\n    /* \"#utility.yul\":2501:3233   */\ntag_49:\n    /* \"#utility.yul\":2608:2613   */\n  0x00\n    /* \"#utility.yul\":2633:2714   */\n  tag_90\n    /* \"#utility.yul\":2649:2713   */\n  tag_91\n    /* \"#utility.yul\":2706:2712   */\n  dup5\n    /* \"#utility.yul\":2649:2713   */\n  tag_43\n  jump\t// in\ntag_91:\n    /* \"#utility.yul\":2633:2714   */\n  tag_42\n  jump\t// in\ntag_90:\n    /* \"#utility.yul\":2624:2714   */\n  swap1\n  pop\n    /* \"#utility.yul\":2734:2739   */\n  dup1\n    /* \"#utility.yul\":2763:2769   */\n  dup4\n    /* \"#utility.yul\":2756:2761   */\n  dup3\n    /* \"#utility.yul\":2749:2770   */\n  mstore\n    /* \"#utility.yul\":2797:2801   */\n  0x20\n    /* \"#utility.yul\":2790:2795   */\n  dup3\n    /* \"#utility.yul\":2786:2802   */\n  add\n    /* \"#utility.yul\":2779:2802   */\n  swap1\n  pop\n    /* \"#utility.yul\":2850:2854   */\n  0x20\n    /* \"#utility.yul\":2842:2848   */\n  dup5\n    /* \"#utility.yul\":2838:2855   */\n  mul\n    /* \"#utility.yul\":2830:2836   */\n  dup4\n    /* \"#utility.yul\":2826:2856   */\n  add\n    /* \"#utility.yul\":2879:2882   */\n  dup6\n    /* \"#utility.yul\":2871:2877   */\n  dup2\n    /* \"#utility.yul\":2868:2883   */\n  gt\n    /* \"#utility.yul\":2865:2987   */\n  iszero\n  tag_92\n  jumpi\n    /* \"#utility.yul\":2898:2977   */\n  tag_93\n  tag_44\n  jump\t// in\ntag_93:\n    /* \"#utility.yul\":2865:2987   */\ntag_92:\n    /* \"#utility.yul\":3013:3019   */\n  dup4\n    /* \"#utility.yul\":2996:3227   */\ntag_94:\n    /* \"#utility.yul\":3030:3036   */\n  dup2\n    /* \"#utility.yul\":3025:3028   */\n  dup2\n    /* \"#utility.yul\":3022:3037   */\n  lt\n    /* \"#utility.yul\":2996:3227   */\n  iszero\n  tag_96\n  jumpi\n    /* \"#utility.yul\":3105:3108   */\n  dup1\n    /* \"#utility.yul\":3134:3182   */\n  tag_97\n    /* \"#utility.yul\":3178:3181   */\n  dup9\n    /* \"#utility.yul\":3166:3176   */\n  dup3\n    /* \"#utility.yul\":3134:3182   */\n  tag_48\n  jump\t// in\ntag_97:\n    /* \"#utility.yul\":3129:3132   */\n  dup5\n    /* \"#utility.yul\":3122:3183   */\n  mstore\n    /* \"#utility.yul\":3212:3216   */\n  0x20\n    /* \"#utility.yul\":3207:3210   */\n  dup5\n    /* \"#utility.yul\":3203:3217   */\n  add\n    /* \"#utility.yul\":3196:3217   */\n  swap4\n  pop\n    /* \"#utility.yul\":3072:3227   */\n  pop\n    /* \"#utility.yul\":3056:3060   */\n  0x20\n    /* \"#utility.yul\":3051:3054   */\n  dup2\n    /* \"#utility.yul\":3047:3061   */\n  add\n    /* \"#utility.yul\":3040:3061   */\n  swap1\n  pop\n    /* \"#utility.yul\":2996:3227   */\n  jump(tag_94)\ntag_96:\n    /* \"#utility.yul\":3000:3021   */\n  pop\n    /* \"#utility.yul\":2614:3233   */\n  pop\n  pop\n    /* \"#utility.yul\":2501:3233   */\n  swap4\n  swap3\n  pop\n  pop\n  pop\n  jump\t// out\n    /* \"#utility.yul\":3256:3641   */\ntag_50:\n    /* \"#utility.yul\":3338:3343   */\n  0x00\n    /* \"#utility.yul\":3387:3390   */\n  dup3\n    /* \"#utility.yul\":3380:3384   */\n  0x1f\n    /* \"#utility.yul\":3372:3378   */\n  dup4\n    /* \"#utility.yul\":3368:3385   */\n  add\n    /* \"#utility.yul\":3364:3391   */\n  slt\n    /* \"#utility.yul\":3354:3476   */\n  tag_99\n  jumpi\n    /* \"#utility.yul\":3395:3474   */\n  tag_100\n  tag_38\n  jump\t// in\ntag_100:\n    /* \"#utility.yul\":3354:3476   */\ntag_99:\n    /* \"#utility.yul\":3505:3511   */\n  dup2\n    /* \"#utility.yul\":3499:3512   */\n  mload\n    /* \"#utility.yul\":3530:3635   */\n  tag_101\n    /* \"#utility.yul\":3631:3634   */\n  dup5\n    /* \"#utility.yul\":3623:3629   */\n  dup3\n    /* \"#utility.yul\":3616:3620   */\n  0x20\n    /* \"#utility.yul\":3608:3614   */\n  dup7\n    /* \"#utility.yul\":3604:3621   */\n  add\n    /* \"#utility.yul\":3530:3635   */\n  tag_49\n  jump\t// in\ntag_101:\n    /* \"#utility.yul\":3521:3635   */\n  swap2\n  pop\n    /* \"#utility.yul\":3344:3641   */\n  pop\n    /* \"#utility.yul\":3256:3641   */\n  swap3\n  swap2\n  pop\n  pop\n  jump\t// out\n    /* \"#utility.yul\":3647:4827   */\ntag_3:\n    /* \"#utility.yul\":3778:3784   */\n  0x00\n    /* \"#utility.yul\":3786:3792   */\n  dup1\n    /* \"#utility.yul\":3794:3800   */\n  0x00\n    /* \"#utility.yul\":3802:3808   */\n  dup1\n    /* \"#utility.yul\":3810:3816   */\n  0x00\n    /* \"#utility.yul\":3859:3862   */\n  0xa0\n    /* \"#utility.yul\":3847:3856   */\n  dup7\n    /* \"#utility.yul\":3838:3845   */\n  dup9\n    /* \"#utility.yul\":3834:3857   */\n  sub\n    /* \"#utility.yul\":3830:3863   */\n  slt\n    /* \"#utility.yul\":3827:3947   */\n  iszero\n  tag_103\n  jumpi\n    /* \"#utility.yul\":3866:3945   */\n  tag_104\n  tag_33\n  jump\t// in\ntag_104:\n    /* \"#utility.yul\":3827:3947   */\ntag_103:\n    /* \"#utility.yul\":3986:3987   */\n  0x00\n    /* \"#utility.yul\":4011:4075   */\n  tag_105\n    /* \"#utility.yul\":4067:4074   */\n  dup9\n    /* \"#utility.yul\":4058:4064   */\n  dup3\n    /* \"#utility.yul\":4047:4056   */\n  dup10\n    /* \"#utility.yul\":4043:4065   */\n  add\n    /* \"#utility.yul\":4011:4075   */\n  tag_37\n  jump\t// in\ntag_105:\n    /* \"#utility.yul\":4001:4075   */\n  swap6\n  pop\n    /* \"#utility.yul\":3957:4085   */\n  pop\n    /* \"#utility.yul\":4124:4126   */\n  0x20\n    /* \"#utility.yul\":4150:4214   */\n  tag_106\n    /* \"#utility.yul\":4206:4213   */\n  dup9\n    /* \"#utility.yul\":4197:4203   */\n  dup3\n    /* \"#utility.yul\":4186:4195   */\n  dup10\n    /* \"#utility.yul\":4182:4204   */\n  add\n    /* \"#utility.yul\":4150:4214   */\n  tag_37\n  jump\t// in\ntag_106:\n    /* \"#utility.yul\":4140:4214   */\n  swap5\n  pop\n    /* \"#utility.yul\":4095:4224   */\n  pop\n    /* \"#utility.yul\":4263:4265   */\n  0x40\n    /* \"#utility.yul\":4289:4353   */\n  tag_107\n    /* \"#utility.yul\":4345:4352   */\n  dup9\n    /* \"#utility.yul\":4336:4342   */\n  dup3\n    /* \"#utility.yul\":4325:4334   */\n  dup10\n    /* \"#utility.yul\":4321:4343   */\n  add\n    /* \"#utility.yul\":4289:4353   */\n  tag_37\n  jump\t// in\ntag_107:\n    /* \"#utility.yul\":4279:4353   */\n  swap4\n  pop\n    /* \"#utility.yul\":4234:4363   */\n  pop\n    /* \"#utility.yul\":4402:4404   */\n  0x60\n    /* \"#utility.yul\":4428:4492   */\n  tag_108\n    /* \"#utility.yul\":4484:4491   */\n  dup9\n    /* \"#utility.yul\":4475:4481   */\n  dup3\n    /* \"#utility.yul\":4464:4473   */\n  dup10\n    /* \"#utility.yul\":4460:4482   */\n  add\n    /* \"#utility.yul\":4428:4492   */\n  tag_37\n  jump\t// in\ntag_108:\n    /* \"#utility.yul\":4418:4492   */\n  swap3\n  pop\n    /* \"#utility.yul\":4373:4502   */\n  pop\n    /* \"#utility.yul\":4562:4565   */\n  0x80\n    /* \"#utility.yul\":4551:4560   */\n  dup7\n    /* \"#utility.yul\":4547:4566   */\n  add\n    /* \"#utility.yul\":4541:4567   */\n  mload\n    /* \"#utility.yul\":4594:4612   */\n  0xffffffffffffffff\n    /* \"#utility.yul\":4586:4592   */\n  dup2\n    /* \"#utility.yul\":4583:4613   */\n  gt\n    /* \"#utility.yul\":4580:4697   */\n  iszero\n  tag_109\n  jumpi\n    /* \"#utility.yul\":4616:4695   */\n  tag_110\n  tag_34\n  jump\t// in\ntag_110:\n    /* \"#utility.yul\":4580:4697   */\ntag_109:\n    /* \"#utility.yul\":4721:4810   */\n  tag_111\n    /* \"#utility.yul\":4802:4809   */\n  dup9\n    /* \"#utility.yul\":4793:4799   */\n  dup3\n    /* \"#utility.yul\":4782:4791   */\n  dup10\n    /* \"#utility.yul\":4778:4800   */\n  add\n    /* \"#utility.yul\":4721:4810   */\n  tag_50\n  jump\t// in\ntag_111:\n    /* \"#utility.yul\":4711:4810   */\n  swap2\n  pop\n    /* \"#utility.yul\":4512:4820   */\n  pop\n    /* \"#utility.yul\":3647:4827   */\n  swap3\n  swap6\n  pop\n  swap3\n  swap6\n  swap1\n  swap4\n  pop\n  jump\t// out\n    /* \"#utility.yul\":4833:5002   */\ntag_51:\n    /* \"#utility.yul\":4917:4928   */\n  0x00\n    /* \"#utility.yul\":4951:4957   */\n  dup3\n    /* \"#utility.yul\":4946:4949   */\n  dup3\n    /* \"#utility.yul\":4939:4958   */\n  mstore\n    /* \"#utility.yul\":4991:4995   */\n  0x20\n    /* \"#utility.yul\":4986:4989   */\n  dup3\n    /* \"#utility.yul\":4982:4996   */\n  add\n    /* \"#utility.yul\":4967:4996   */\n  swap1\n  pop\n    /* \"#utility.yul\":4833:5002   */\n  swap3\n  swap2\n  pop\n  pop\n  jump\t// out\n    /* \"#utility.yul\":5008:5185   */\ntag_52:\n    /* \"#utility.yul\":5148:5177   */\n  0x4d656d626572732061727261792073697a65206d69736d617463680000000000\n    /* \"#utility.yul\":5144:5145   */\n  0x00\n    /* \"#utility.yul\":5136:5142   */\n  dup3\n    /* \"#utility.yul\":5132:5146   */\n  add\n    /* \"#utility.yul\":5125:5178   */\n  mstore\n    /* \"#utility.yul\":5008:5185   */\n  pop\n  jump\t// out\n    /* \"#utility.yul\":5191:5557   */\ntag_53:\n    /* \"#utility.yul\":5333:5336   */\n  0x00\n    /* \"#utility.yul\":5354:5421   */\n  tag_115\n    /* \"#utility.yul\":5418:5420   */\n  0x1b\n    /* \"#utility.yul\":5413:5416   */\n  dup4\n    /* \"#utility.yul\":5354:5421   */\n  tag_51\n  jump\t// in\ntag_115:\n    /* \"#utility.yul\":5347:5421   */\n  swap2\n  pop\n    /* \"#utility.yul\":5430:5523   */\n  tag_116\n    /* \"#utility.yul\":5519:5522   */\n  dup3\n    /* \"#utility.yul\":5430:5523   */\n  tag_52\n  jump\t// in\ntag_116:\n    /* \"#utility.yul\":5548:5550   */\n  0x20\n    /* \"#utility.yul\":5543:5546   */\n  dup3\n    /* \"#utility.yul\":5539:5551   */\n  add\n    /* \"#utility.yul\":5532:5551   */\n  swap1\n  pop\n    /* \"#utility.yul\":5191:5557   */\n  swap2\n  swap1\n  pop\n  jump\t// out\n    /* \"#utility.yul\":5563:5982   */\ntag_8:\n    /* \"#utility.yul\":5729:5733   */\n  0x00\n    /* \"#utility.yul\":5767:5769   */\n  0x20\n    /* \"#utility.yul\":5756:5765   */\n  dup3\n    /* \"#utility.yul\":5752:5770   */\n  add\n    /* \"#utility.yul\":5744:5770   */\n  swap1\n  pop\n    /* \"#utility.yul\":5816:5825   */\n  dup2\n    /* \"#utility.yul\":5810:5814   */\n  dup2\n    /* \"#utility.yul\":5806:5826   */\n  sub\n    /* \"#utility.yul\":5802:5803   */\n  0x00\n    /* \"#utility.yul\":5791:5800   */\n  dup4\n    /* \"#utility.yul\":5787:5804   */\n  add\n    /* \"#utility.yul\":5780:5827   */\n  mstore\n    /* \"#utility.yul\":5844:5975   */\n  tag_118\n    /* \"#utility.yul\":5970:5974   */\n  dup2\n    /* \"#utility.yul\":5844:5975   */\n  tag_53\n  jump\t// in\ntag_118:\n    /* \"#utility.yul\":5836:5975   */\n  swap1\n  pop\n    /* \"#utility.yul\":5563:5982   */\n  swap2\n  swap1\n  pop\n  jump\t// out\n    /* \"#utility.yul\":5988:6168   */\ntag_14:\n    /* \"#utility.yul\":6036:6113   */\n  0x4e487b7100000000000000000000000000000000000000000000000000000000\n    /* \"#utility.yul\":6033:6034   */\n  0x00\n    /* \"#utility.yul\":6026:6114   */\n  mstore\n    /* \"#utility.yul\":6133:6137   */\n  0x32\n    /* \"#utility.yul\":6130:6131   */\n  0x04\n    /* \"#utility.yul\":6123:6138   */\n  mstore\n    /* \"#utility.yul\":6157:6161   */\n  0x24\n    /* \"#utility.yul\":6154:6155   */\n  0x00\n    /* \"#utility.yul\":6147:6162   */\n  revert\n    /* \"#utility.yul\":6174:6346   */\ntag_54:\n    /* \"#utility.yul\":6314:6338   */\n  0x496e76616c6964206d656d626572206164647265737300000000000000000000\n    /* \"#utility.yul\":6310:6311   */\n  0x00\n    /* \"#utility.yul\":6302:6308   */\n  dup3\n    /* \"#utility.yul\":6298:6312   */\n  add\n    /* \"#utility.yul\":6291:6339   */\n  mstore\n    /* \"#utility.yul\":6174:6346   */\n  pop\n  jump\t// out\n    /* \"#utility.yul\":6352:6718   */\ntag_55:\n    /* \"#utility.yul\":6494:6497   */\n  0x00\n    /* \"#utility.yul\":6515:6582   */\n  tag_122\n    /* \"#utility.yul\":6579:6581   */\n  0x16\n    /* \"#utility.yul\":6574:6577   */\n  dup4\n    /* \"#utility.yul\":6515:6582   */\n  tag_51\n  jump\t// in\ntag_122:\n    /* \"#utility.yul\":6508:6582   */\n  swap2\n  pop\n    /* \"#utility.yul\":6591:6684   */\n  tag_123\n    /* \"#utility.yul\":6680:6683   */\n  dup3\n    /* \"#utility.yul\":6591:6684   */\n  tag_54\n  jump\t// in\ntag_123:\n    /* \"#utility.yul\":6709:6711   */\n  0x20\n    /* \"#utility.yul\":6704:6707   */\n  dup3\n    /* \"#utility.yul\":6700:6712   */\n  add\n    /* \"#utility.yul\":6693:6712   */\n  swap1\n  pop\n    /* \"#utility.yul\":6352:6718   */\n  swap2\n  swap1\n  pop\n  jump\t// out\n    /* \"#utility.yul\":6724:7143   */\ntag_17:\n    /* \"#utility.yul\":6890:6894   */\n  0x00\n    /* \"#utility.yul\":6928:6930   */\n  0x20\n    /* \"#utility.yul\":6917:6926   */\n  dup3\n    /* \"#utility.yul\":6913:6931   */\n  add\n    /* \"#utility.yul\":6905:6931   */\n  swap1\n  pop\n    /* \"#utility.yul\":6977:6986   */\n  dup2\n    /* \"#utility.yul\":6971:6975   */\n  dup2\n    /* \"#utility.yul\":6967:6987   */\n  sub\n    /* \"#utility.yul\":6963:6964   */\n  0x00\n    /* \"#utility.yul\":6952:6961   */\n  dup4\n    /* \"#utility.yul\":6948:6965   */\n  add\n    /* \"#utility.yul\":6941:6988   */\n  mstore\n    /* \"#utility.yul\":7005:7136   */\n  tag_125\n    /* \"#utility.yul\":7131:7135   */\n  dup2\n    /* \"#utility.yul\":7005:7136   */\n  tag_55\n  jump\t// in\ntag_125:\n    /* \"#utility.yul\":6997:7136   */\n  swap1\n  pop\n    /* \"#utility.yul\":6724:7143   */\n  swap2\n  swap1\n  pop\n  jump\t// out\n    /* \"#utility.yul\":7149:7329   */\ntag_56:\n    /* \"#utility.yul\":7197:7274   */\n  0x4e487b7100000000000000000000000000000000000000000000000000000000\n    /* \"#utility.yul\":7194:7195   */\n  0x00\n    /* \"#utility.yul\":7187:7275   */\n  mstore\n    /* \"#utility.yul\":7294:7298   */\n  0x11\n    /* \"#utility.yul\":7291:7292   */\n  0x04\n    /* \"#utility.yul\":7284:7299   */\n  mstore\n    /* \"#utility.yul\":7318:7322   */\n  0x24\n    /* \"#utility.yul\":7315:7316   */\n  0x00\n    /* \"#utility.yul\":7308:7323   */\n  revert\n    /* \"#utility.yul\":7335:7745   */\ntag_21:\n    /* \"#utility.yul\":7375:7382   */\n  0x00\n    /* \"#utility.yul\":7398:7418   */\n  tag_128\n    /* \"#utility.yul\":7416:7417   */\n  dup3\n    /* \"#utility.yul\":7398:7418   */\n  tag_35\n  jump\t// in\ntag_128:\n    /* \"#utility.yul\":7393:7418   */\n  swap2\n  pop\n    /* \"#utility.yul\":7432:7452   */\n  tag_129\n    /* \"#utility.yul\":7450:7451   */\n  dup4\n    /* \"#utility.yul\":7432:7452   */\n  tag_35\n  jump\t// in\ntag_129:\n    /* \"#utility.yul\":7427:7452   */\n  swap3\n  pop\n    /* \"#utility.yul\":7487:7488   */\n  dup3\n    /* \"#utility.yul\":7484:7485   */\n  dup3\n    /* \"#utility.yul\":7480:7489   */\n  mul\n    /* \"#utility.yul\":7509:7539   */\n  tag_130\n    /* \"#utility.yul\":7527:7538   */\n  dup2\n    /* \"#utility.yul\":7509:7539   */\n  tag_35\n  jump\t// in\ntag_130:\n    /* \"#utility.yul\":7498:7539   */\n  swap2\n  pop\n    /* \"#utility.yul\":7688:7689   */\n  dup3\n    /* \"#utility.yul\":7679:7686   */\n  dup3\n    /* \"#utility.yul\":7675:7690   */\n  div\n    /* \"#utility.yul\":7672:7673   */\n  dup5\n    /* \"#utility.yul\":7669:7691   */\n  eq\n    /* \"#utility.yul\":7649:7650   */\n  dup4\n    /* \"#utility.yul\":7642:7651   */\n  iszero\n    /* \"#utility.yul\":7622:7705   */\n  or\n    /* \"#utility.yul\":7599:7738   */\n  tag_131\n  jumpi\n    /* \"#utility.yul\":7718:7736   */\n  tag_132\n  tag_56\n  jump\t// in\ntag_132:\n    /* \"#utility.yul\":7599:7738   */\ntag_131:\n    /* \"#utility.yul\":7383:7745   */\n  pop\n    /* \"#utility.yul\":7335:7745   */\n  swap3\n  swap2\n  pop\n  pop\n  jump\t// out\n    /* \"#utility.yul\":7751:7942   */\ntag_23:\n    /* \"#utility.yul\":7791:7794   */\n  0x00\n    /* \"#utility.yul\":7810:7830   */\n  tag_134\n    /* \"#utility.yul\":7828:7829   */\n  dup3\n    /* \"#utility.yul\":7810:7830   */\n  tag_35\n  jump\t// in\ntag_134:\n    /* \"#utility.yul\":7805:7830   */\n  swap2\n  pop\n    /* \"#utility.yul\":7844:7864   */\n  tag_135\n    /* \"#utility.yul\":7862:7863   */\n  dup4\n    /* \"#utility.yul\":7844:7864   */\n  tag_35\n  jump\t// in\ntag_135:\n    /* \"#utility.yul\":7839:7864   */\n  swap3\n  pop\n    /* \"#utility.yul\":7887:7888   */\n  dup3\n    /* \"#utility.yul\":7884:7885   */\n  dup3\n    /* \"#utility.yul\":7880:7889   */\n  add\n    /* \"#utility.yul\":7873:7889   */\n  swap1\n  pop\n    /* \"#utility.yul\":7908:7911   */\n  dup1\n    /* \"#utility.yul\":7905:7906   */\n  dup3\n    /* \"#utility.yul\":7902:7912   */\n  gt\n    /* \"#utility.yul\":7899:7935   */\n  iszero\n  tag_136\n  jumpi\n    /* \"#utility.yul\":7915:7933   */\n  tag_137\n  tag_56\n  jump\t// in\ntag_137:\n    /* \"#utility.yul\":7899:7935   */\ntag_136:\n    /* \"#utility.yul\":7751:7942   */\n  swap3\n  swap2\n  pop\n  pop\n  jump\t// out\n    /* \"Contract_Templates/Reference.sol\":512:8471  contract Tanda {... */\ntag_24:\n  dataSize(sub_0)\n  dup1\n  dataOffset(sub_0)\n  0x00\n  codecopy\n  0x00\n  return\nstop\n\nsub_0: assembly {\n        /* \"Contract_Templates/Reference.sol\":512:8471  contract Tanda {... */\n      mstore(0x40, 0x80)\n      jumpi(tag_1, lt(calldatasize, 0x04))\n      shr(0xe0, calldataload(0x00))\n      dup1\n      0x50a644d1\n      gt\n      tag_20\n      jumpi\n      dup1\n      0x9172e5c2\n      gt\n      tag_21\n      jumpi\n      dup1\n      0x9172e5c2\n      eq\n      tag_15\n      jumpi\n      dup1\n      0xa230c524\n      eq\n      tag_16\n      jumpi\n      dup1\n      0xc74e7261\n      eq\n      tag_17\n      jumpi\n      dup1\n      0xd7bb99ba\n      eq\n      tag_18\n      jumpi\n      dup1\n      0xec33d2a0\n      eq\n      tag_19\n      jumpi\n      jump(tag_2)\n    tag_21:\n      dup1\n      0x50a644d1\n      eq\n      tag_11\n      jumpi\n      dup1\n      0x5daf08ca\n      eq\n      tag_12\n      jumpi\n      dup1\n      0x5fa0b65f\n      eq\n      tag_13\n      jumpi\n      dup1\n      0x8d0aa1b2\n      eq\n      tag_14\n      jumpi\n      jump(tag_2)\n    tag_20:\n      dup1\n      0x35cd4b46\n      gt\n      tag_22\n      jumpi\n      dup1\n      0x35cd4b46\n      eq\n      tag_7\n      jumpi\n      dup1\n      0x368d6eb7\n      eq\n      tag_8\n      jumpi\n      dup1\n      0x3fe071be\n      eq\n      tag_9\n      jumpi\n      dup1\n      0x4698d110\n      eq\n      tag_10\n      jumpi\n      jump(tag_2)\n    tag_22:\n      dup1\n      0x091fb010\n      eq\n      tag_3\n      jumpi\n      dup1\n      0x316fda0f\n      eq\n      tag_4\n      jumpi\n      dup1\n      0x335e536c\n      eq\n      tag_5\n      jumpi\n      dup1\n      0x346477c7\n      eq\n      tag_6\n      jumpi\n      jump(tag_2)\n    tag_1:\n      jumpi(tag_2, calldatasize)\n        /* \"Contract_Templates/Reference.sol\":8425:8462  revert(\"Use contribute() to deposit\") */\n      mload(0x40)\n      0x08c379a000000000000000000000000000000000000000000000000000000000\n      dup2\n      mstore\n      0x04\n      add\n      tag_25\n      swap1\n      tag_26\n      jump\t// in\n    tag_25:\n      mload(0x40)\n      dup1\n      swap2\n      sub\n      swap1\n      revert\n        /* \"Contract_Templates/Reference.sol\":512:8471  contract Tanda {... */\n    tag_2:\n      0x00\n      dup1\n      revert\n        /* \"Contract_Templates/Reference.sol\":1744:1779  uint256 public nextDistributionTime */\n    tag_3:\n      callvalue\n      dup1\n      iszero\n      tag_27\n      jumpi\n      0x00\n      dup1\n      revert\n    tag_27:\n      pop\n      tag_28\n      tag_29\n      jump\t// in\n    tag_28:\n      mload(0x40)\n      tag_30\n      swap2\n      swap1\n      tag_31\n      jump\t// in\n    tag_30:\n      mload(0x40)\n      dup1\n      swap2\n      sub\n      swap1\n      return\n        /* \"Contract_Templates/Reference.sol\":1637:1662  uint256 public cycleCount */\n    tag_4:\n      callvalue\n      dup1\n      iszero\n      tag_32\n      jumpi\n      0x00\n      dup1\n      revert\n    tag_32:\n      pop\n      tag_33\n      tag_34\n      jump\t// in\n    tag_33:\n      mload(0x40)\n      tag_35\n      swap2\n      swap1\n      tag_31\n      jump\t// in\n    tag_35:\n      mload(0x40)\n      dup1\n      swap2\n      sub\n      swap1\n      return\n        /* \"Contract_Templates/Reference.sol\":1545:1574  uint256 public cycleStartTime */\n    tag_5:\n      callvalue\n      dup1\n      iszero\n      tag_36\n      jumpi\n      0x00\n      dup1\n      revert\n    tag_36:\n      pop\n      tag_37\n      tag_38\n      jump\t// in\n    tag_37:\n      mload(0x40)\n      tag_39\n      swap2\n      swap1\n      tag_31\n      jump\t// in\n    tag_39:\n      mload(0x40)\n      dup1\n      swap2\n      sub\n      swap1\n      return\n        /* \"Contract_Templates/Reference.sol\":1862:1911  mapping(address => bool) public hasReceivedPayout */\n    tag_6:\n      callvalue\n      dup1\n      iszero\n      tag_40\n      jumpi\n      0x00\n      dup1\n      revert\n    tag_40:\n      pop\n      tag_41\n      0x04\n      dup1\n      calldatasize\n      sub\n      dup2\n      add\n      swap1\n      tag_42\n      swap2\n      swap1\n      tag_43\n      jump\t// in\n    tag_42:\n      tag_44\n      jump\t// in\n    tag_41:\n      mload(0x40)\n      tag_45\n      swap2\n      swap1\n      tag_46\n      jump\t// in\n    tag_45:\n      mload(0x40)\n      dup1\n      swap2\n      sub\n      swap1\n      return\n        /* \"Contract_Templates/Reference.sol\":6382:7656  function triggerDistribution() external {... */\n    tag_7:\n      callvalue\n      dup1\n      iszero\n      tag_47\n      jumpi\n      0x00\n      dup1\n      revert\n    tag_47:\n      pop\n      tag_48\n      tag_49\n      jump\t// in\n    tag_48:\n      stop\n        /* \"Contract_Templates/Reference.sol\":1292:1347  mapping(address => bool) public hasContributedThisCycle */\n    tag_8:\n      callvalue\n      dup1\n      iszero\n      tag_50\n      jumpi\n      0x00\n      dup1\n      revert\n    tag_50:\n      pop\n      tag_51\n      0x04\n      dup1\n      calldatasize\n      sub\n      dup2\n      add\n      swap1\n      tag_52\n      swap2\n      swap1\n      tag_43\n      jump\t// in\n    tag_52:\n      tag_53\n      jump\t// in\n    tag_51:\n      mload(0x40)\n      tag_54\n      swap2\n      swap1\n      tag_46\n      jump\t// in\n    tag_54:\n      mload(0x40)\n      dup1\n      swap2\n      sub\n      swap1\n      return\n        /* \"Contract_Templates/Reference.sol\":1999:2029  uint256 public nextPayoutIndex */\n    tag_9:\n      callvalue\n      dup1\n      iszero\n      tag_55\n      jumpi\n      0x00\n      dup1\n      revert\n    tag_55:\n      pop\n      tag_56\n      tag_57\n      jump\t// in\n    tag_56:\n      mload(0x40)\n      tag_58\n      swap2\n      swap1\n      tag_31\n      jump\t// in\n    tag_58:\n      mload(0x40)\n      dup1\n      swap2\n      sub\n      swap1\n      return\n        /* \"Contract_Templates/Reference.sol\":582:607  uint256 public numMembers */\n    tag_10:\n      callvalue\n      dup1\n      iszero\n      tag_59\n      jumpi\n      0x00\n      dup1\n      revert\n    tag_59:\n      pop\n      tag_60\n      tag_61\n      jump\t// in\n    tag_60:\n      mload(0x40)\n      tag_62\n      swap2\n      swap1\n      tag_31\n      jump\t// in\n    tag_62:\n      mload(0x40)\n      dup1\n      swap2\n      sub\n      swap1\n      return\n        /* \"Contract_Templates/Reference.sol\":1426:1463  uint256 public contributionsThisCycle */\n    tag_11:\n      callvalue\n      dup1\n      iszero\n      tag_63\n      jumpi\n      0x00\n      dup1\n      revert\n    tag_63:\n      pop\n      tag_64\n      tag_65\n      jump\t// in\n    tag_64:\n      mload(0x40)\n      tag_66\n      swap2\n      swap1\n      tag_31\n      jump\t// in\n    tag_66:\n      mload(0x40)\n      dup1\n      swap2\n      sub\n      swap1\n      return\n        /* \"Contract_Templates/Reference.sol\":1183:1207  address[] public members */\n    tag_12:\n      callvalue\n      dup1\n      iszero\n      tag_67\n      jumpi\n      0x00\n      dup1\n      revert\n    tag_67:\n      pop\n      tag_68\n      0x04\n      dup1\n      calldatasize\n      sub\n      dup2\n      add\n      swap1\n      tag_69\n      swap2\n      swap1\n      tag_70\n      jump\t// in\n    tag_69:\n      tag_71\n      jump\t// in\n    tag_68:\n      mload(0x40)\n      tag_72\n      swap2\n      swap1\n      tag_73\n      jump\t// in\n    tag_72:\n      mload(0x40)\n      dup1\n      swap2\n      sub\n      swap1\n      return\n        /* \"Contract_Templates/Reference.sol\":975:1008  uint256 public contributionAmount */\n    tag_13:\n      callvalue\n      dup1\n      iszero\n      tag_74\n      jumpi\n      0x00\n      dup1\n      revert\n    tag_74:\n      pop\n      tag_75\n      tag_76\n      jump\t// in\n    tag_75:\n      mload(0x40)\n      tag_77\n      swap2\n      swap1\n      tag_31\n      jump\t// in\n    tag_77:\n      mload(0x40)\n      dup1\n      swap2\n      sub\n      swap1\n      return\n        /* \"Contract_Templates/Reference.sol\":679:722  uint256 public contributionFrequencyInWeeks */\n    tag_14:\n      callvalue\n      dup1\n      iszero\n      tag_78\n      jumpi\n      0x00\n      dup1\n      revert\n    tag_78:\n      pop\n      tag_79\n      tag_80\n      jump\t// in\n    tag_79:\n      mload(0x40)\n      tag_81\n      swap2\n      swap1\n      tag_31\n      jump\t// in\n    tag_81:\n      mload(0x40)\n      dup1\n      swap2\n      sub\n      swap1\n      return\n        /* \"Contract_Templates/Reference.sol\":1084:1126  uint256 public distributionIntervalInWeeks */\n    tag_15:\n      callvalue\n      dup1\n      iszero\n      tag_82\n      jumpi\n      0x00\n      dup1\n      revert\n    tag_82:\n      pop\n      tag_83\n      tag_84\n      jump\t// in\n    tag_83:\n      mload(0x40)\n      tag_85\n      swap2\n      swap1\n      tag_31\n      jump\t// in\n    tag_85:\n      mload(0x40)\n      dup1\n      swap2\n      sub\n      swap1\n      return\n        /* \"Contract_Templates/Reference.sol\":7742:7974  function isMember(address _addr) public view returns (bool) {... */\n    tag_16:\n      callvalue\n      dup1\n      iszero\n      tag_86\n      jumpi\n      0x00\n      dup1\n      revert\n    tag_86:\n      pop\n      tag_87\n      0x04\n      dup1\n      calldatasize\n      sub\n      dup2\n      add\n      swap1\n      tag_88\n      swap2\n      swap1\n      tag_43\n      jump\t// in\n    tag_88:\n      tag_89\n      jump\t// in\n    tag_87:\n      mload(0x40)\n      tag_90\n      swap2\n      swap1\n      tag_46\n      jump\t// in\n    tag_90:\n      mload(0x40)\n      dup1\n      swap2\n      sub\n      swap1\n      return\n        /* \"Contract_Templates/Reference.sol\":8069:8301  function allPaidOut() public view returns (bool) {... */\n    tag_17:\n      callvalue\n      dup1\n      iszero\n      tag_91\n      jumpi\n      0x00\n      dup1\n      revert\n    tag_91:\n      pop\n      tag_92\n      tag_93\n      jump\t// in\n    tag_92:\n      mload(0x40)\n      tag_94\n      swap2\n      swap1\n      tag_46\n      jump\t// in\n    tag_94:\n      mload(0x40)\n      dup1\n      swap2\n      sub\n      swap1\n      return\n        /* \"Contract_Templates/Reference.sol\":4053:5251  function contribute() external payable {... */\n    tag_18:\n      tag_95\n      tag_96\n      jump\t// in\n    tag_95:\n      stop\n        /* \"Contract_Templates/Reference.sol\":5445:6196  function finalizeCycle() public {... */\n    tag_19:\n      callvalue\n      dup1\n      iszero\n      tag_97\n      jumpi\n      0x00\n      dup1\n      revert\n    tag_97:\n      pop\n      tag_98\n      tag_99\n      jump\t// in\n    tag_98:\n      stop\n        /* \"Contract_Templates/Reference.sol\":1744:1779  uint256 public nextDistributionTime */\n    tag_29:\n      sload(0x09)\n      dup2\n      jump\t// out\n        /* \"Contract_Templates/Reference.sol\":1637:1662  uint256 public cycleCount */\n    tag_34:\n      sload(0x08)\n      dup2\n      jump\t// out\n        /* \"Contract_Templates/Reference.sol\":1545:1574  uint256 public cycleStartTime */\n    tag_38:\n      sload(0x07)\n      dup2\n      jump\t// out\n        /* \"Contract_Templates/Reference.sol\":1862:1911  mapping(address => bool) public hasReceivedPayout */\n    tag_44:\n      mstore(0x20, 0x0a)\n      dup1\n      0x00\n      mstore\n      keccak256(0x00, 0x40)\n      0x00\n      swap2\n      pop\n      sload\n      swap1\n      0x0100\n      exp\n      swap1\n      div\n      0xff\n      and\n      dup2\n      jump\t// out\n        /* \"Contract_Templates/Reference.sol\":6382:7656  function triggerDistribution() external {... */\n    tag_49:\n        /* \"Contract_Templates/Reference.sol\":6625:6650  address payable recipient */\n      0x00\n        /* \"Contract_Templates/Reference.sol\":6660:6670  bool found */\n      dup1\n        /* \"Contract_Templates/Reference.sol\":6673:6678  false */\n      0x00\n        /* \"Contract_Templates/Reference.sol\":6660:6678  bool found = false */\n      swap1\n      pop\n        /* \"Contract_Templates/Reference.sol\":6694:6703  uint256 i */\n      0x00\n        /* \"Contract_Templates/Reference.sol\":6689:7143  for (uint256 i = 0; i < numMembers; i++) {... */\n    tag_101:\n        /* \"Contract_Templates/Reference.sol\":6713:6723  numMembers */\n      sload(0x00)\n        /* \"Contract_Templates/Reference.sol\":6709:6710  i */\n      dup2\n        /* \"Contract_Templates/Reference.sol\":6709:6723  i < numMembers */\n      lt\n        /* \"Contract_Templates/Reference.sol\":6689:7143  for (uint256 i = 0; i < numMembers; i++) {... */\n      iszero\n      tag_102\n      jumpi\n        /* \"Contract_Templates/Reference.sol\":6799:6810  uint256 idx */\n      0x00\n        /* \"Contract_Templates/Reference.sol\":6837:6847  numMembers */\n      dup1\n      sload\n        /* \"Contract_Templates/Reference.sol\":6832:6833  i */\n      dup3\n        /* \"Contract_Templates/Reference.sol\":6814:6829  nextPayoutIndex */\n      sload(0x0b)\n        /* \"Contract_Templates/Reference.sol\":6814:6833  nextPayoutIndex + i */\n      tag_104\n      swap2\n      swap1\n      tag_105\n      jump\t// in\n    tag_104:\n        /* \"Contract_Templates/Reference.sol\":6813:6847  (nextPayoutIndex + i) % numMembers */\n      tag_106\n      swap2\n      swap1\n      tag_107\n      jump\t// in\n    tag_106:\n        /* \"Contract_Templates/Reference.sol\":6799:6847  uint256 idx = (nextPayoutIndex + i) % numMembers */\n      swap1\n      pop\n        /* \"Contract_Templates/Reference.sol\":6861:6875  address member */\n      0x00\n        /* \"Contract_Templates/Reference.sol\":6878:6885  members */\n      0x04\n        /* \"Contract_Templates/Reference.sol\":6886:6889  idx */\n      dup3\n        /* \"Contract_Templates/Reference.sol\":6878:6890  members[idx] */\n      dup2\n      sload\n      dup2\n      lt\n      tag_108\n      jumpi\n      tag_109\n      tag_110\n      jump\t// in\n    tag_109:\n    tag_108:\n      swap1\n      0x00\n      mstore\n      keccak256(0x00, 0x20)\n      add\n      0x00\n      swap1\n      sload\n      swap1\n      0x0100\n      exp\n      swap1\n      div\n      0xffffffffffffffffffffffffffffffffffffffff\n      and\n        /* \"Contract_Templates/Reference.sol\":6861:6890  address member = members[idx] */\n      swap1\n      pop\n        /* \"Contract_Templates/Reference.sol\":6909:6926  hasReceivedPayout */\n      0x0a\n        /* \"Contract_Templates/Reference.sol\":6909:6934  hasReceivedPayout[member] */\n      0x00\n        /* \"Contract_Templates/Reference.sol\":6927:6933  member */\n      dup3\n        /* \"Contract_Templates/Reference.sol\":6909:6934  hasReceivedPayout[member] */\n      0xffffffffffffffffffffffffffffffffffffffff\n      and\n      0xffffffffffffffffffffffffffffffffffffffff\n      and\n      dup2\n      mstore\n      0x20\n      add\n      swap1\n      dup2\n      mstore\n      0x20\n      add\n      0x00\n      keccak256\n      0x00\n      swap1\n      sload\n      swap1\n      0x0100\n      exp\n      swap1\n      div\n      0xff\n      and\n        /* \"Contract_Templates/Reference.sol\":6904:7133  if (!hasReceivedPayout[member]) {... */\n      tag_112\n      jumpi\n        /* \"Contract_Templates/Reference.sol\":6974:6980  member */\n      dup1\n        /* \"Contract_Templates/Reference.sol\":6954:6981  recipient = payable(member) */\n      swap5\n      pop\n        /* \"Contract_Templates/Reference.sol\":7023:7024  1 */\n      0x01\n        /* \"Contract_Templates/Reference.sol\":7017:7020  idx */\n      dup3\n        /* \"Contract_Templates/Reference.sol\":7017:7024  idx + 1 */\n      tag_113\n      swap2\n      swap1\n      tag_105\n      jump\t// in\n    tag_113:\n        /* \"Contract_Templates/Reference.sol\":6999:7014  nextPayoutIndex */\n      0x0b\n        /* \"Contract_Templates/Reference.sol\":6999:7024  nextPayoutIndex = idx + 1 */\n      dup2\n      swap1\n      sstore\n      pop\n        /* \"Contract_Templates/Reference.sol\":7091:7095  true */\n      0x01\n        /* \"Contract_Templates/Reference.sol\":7083:7095  found = true */\n      swap4\n      pop\n        /* \"Contract_Templates/Reference.sol\":7113:7118  break */\n      pop\n      pop\n      jump(tag_102)\n        /* \"Contract_Templates/Reference.sol\":6904:7133  if (!hasReceivedPayout[member]) {... */\n    tag_112:\n        /* \"Contract_Templates/Reference.sol\":6730:7143  {... */\n      pop\n      pop\n        /* \"Contract_Templates/Reference.sol\":6725:6728  i++ */\n      dup1\n      dup1\n      0x01\n      add\n      swap2\n      pop\n      pop\n        /* \"Contract_Templates/Reference.sol\":6689:7143  for (uint256 i = 0; i < numMembers; i++) {... */\n      jump(tag_101)\n    tag_102:\n      pop\n        /* \"Contract_Templates/Reference.sol\":7160:7165  found */\n      dup1\n        /* \"Contract_Templates/Reference.sol\":7152:7204  require(found, \"All members have already been paid\") */\n      tag_114\n      jumpi\n      mload(0x40)\n      0x08c379a000000000000000000000000000000000000000000000000000000000\n      dup2\n      mstore\n      0x04\n      add\n      tag_115\n      swap1\n      tag_116\n      jump\t// in\n    tag_115:\n      mload(0x40)\n      dup1\n      swap2\n      sub\n      swap1\n      revert\n    tag_114:\n        /* \"Contract_Templates/Reference.sol\":7310:7314  true */\n      0x01\n        /* \"Contract_Templates/Reference.sol\":7279:7296  hasReceivedPayout */\n      0x0a\n        /* \"Contract_Templates/Reference.sol\":7279:7307  hasReceivedPayout[recipient] */\n      0x00\n        /* \"Contract_Templates/Reference.sol\":7297:7306  recipient */\n      dup5\n        /* \"Contract_Templates/Reference.sol\":7279:7307  hasReceivedPayout[recipient] */\n      0xffffffffffffffffffffffffffffffffffffffff\n      and\n      0xffffffffffffffffffffffffffffffffffffffff\n      and\n      dup2\n      mstore\n      0x20\n      add\n      swap1\n      dup2\n      mstore\n      0x20\n      add\n      0x00\n      keccak256\n      0x00\n        /* \"Contract_Templates/Reference.sol\":7279:7314  hasReceivedPayout[recipient] = true */\n      0x0100\n      exp\n      dup2\n      sload\n      dup2\n      0xff\n      mul\n      not\n      and\n      swap1\n      dup4\n      iszero\n      iszero\n      mul\n      or\n      swap1\n      sstore\n      pop\n        /* \"Contract_Templates/Reference.sol\":7324:7339  uint256 balance */\n      0x00\n        /* \"Contract_Templates/Reference.sol\":7342:7363  address(this).balance */\n      selfbalance\n        /* \"Contract_Templates/Reference.sol\":7324:7363  uint256 balance = address(this).balance */\n      swap1\n      pop\n        /* \"Contract_Templates/Reference.sol\":7391:7392  0 */\n      0x00\n        /* \"Contract_Templates/Reference.sol\":7381:7388  balance */\n      dup2\n        /* \"Contract_Templates/Reference.sol\":7381:7392  balance > 0 */\n      gt\n        /* \"Contract_Templates/Reference.sol\":7373:7419  require(balance > 0, \"No funds to distribute\") */\n      tag_117\n      jumpi\n      mload(0x40)\n      0x08c379a000000000000000000000000000000000000000000000000000000000\n      dup2\n      mstore\n      0x04\n      add\n      tag_118\n      swap1\n      tag_119\n      jump\t// in\n    tag_118:\n      mload(0x40)\n      dup1\n      swap2\n      sub\n      swap1\n      revert\n    tag_117:\n        /* \"Contract_Templates/Reference.sol\":7431:7443  bool success */\n      0x00\n        /* \"Contract_Templates/Reference.sol\":7449:7458  recipient */\n      dup4\n        /* \"Contract_Templates/Reference.sol\":7449:7463  recipient.call */\n      0xffffffffffffffffffffffffffffffffffffffff\n      and\n        /* \"Contract_Templates/Reference.sol\":7471:7478  balance */\n      dup3\n        /* \"Contract_Templates/Reference.sol\":7449:7483  recipient.call{value: balance}(\"\") */\n      mload(0x40)\n      tag_120\n      swap1\n      tag_121\n      jump\t// in\n    tag_120:\n      0x00\n      mload(0x40)\n      dup1\n      dup4\n      sub\n      dup2\n      dup6\n      dup8\n      gas\n      call\n      swap3\n      pop\n      pop\n      pop\n      returndatasize\n      dup1\n      0x00\n      dup2\n      eq\n      tag_124\n      jumpi\n      mload(0x40)\n      swap2\n      pop\n      and(add(returndatasize, 0x3f), not(0x1f))\n      dup3\n      add\n      0x40\n      mstore\n      returndatasize\n      dup3\n      mstore\n      returndatasize\n      0x00\n      0x20\n      dup5\n      add\n      returndatacopy\n      jump(tag_123)\n    tag_124:\n      0x60\n      swap2\n      pop\n    tag_123:\n      pop\n        /* \"Contract_Templates/Reference.sol\":7430:7483  (bool success, ) = recipient.call{value: balance}(\"\") */\n      pop\n      swap1\n      pop\n        /* \"Contract_Templates/Reference.sol\":7501:7508  success */\n      dup1\n        /* \"Contract_Templates/Reference.sol\":7493:7528  require(success, \"Transfer failed\") */\n      tag_125\n      jumpi\n      mload(0x40)\n      0x08c379a000000000000000000000000000000000000000000000000000000000\n      dup2\n      mstore\n      0x04\n      add\n      tag_126\n      swap1\n      tag_127\n      jump\t// in\n    tag_126:\n      mload(0x40)\n      dup1\n      swap2\n      sub\n      swap1\n      revert\n    tag_125:\n        /* \"Contract_Templates/Reference.sol\":7641:7648  1 weeks */\n      0x093a80\n        /* \"Contract_Templates/Reference.sol\":7611:7638  distributionIntervalInWeeks */\n      sload(0x03)\n        /* \"Contract_Templates/Reference.sol\":7611:7648  distributionIntervalInWeeks * 1 weeks */\n      tag_128\n      swap2\n      swap1\n      tag_129\n      jump\t// in\n    tag_128:\n        /* \"Contract_Templates/Reference.sol\":7586:7606  nextDistributionTime */\n      0x09\n      0x00\n        /* \"Contract_Templates/Reference.sol\":7586:7649  nextDistributionTime += (distributionIntervalInWeeks * 1 weeks) */\n      dup3\n      dup3\n      sload\n      tag_130\n      swap2\n      swap1\n      tag_105\n      jump\t// in\n    tag_130:\n      swap3\n      pop\n      pop\n      dup2\n      swap1\n      sstore\n      pop\n        /* \"Contract_Templates/Reference.sol\":6422:7656  {... */\n      pop\n      pop\n      pop\n      pop\n        /* \"Contract_Templates/Reference.sol\":6382:7656  function triggerDistribution() external {... */\n      jump\t// out\n        /* \"Contract_Templates/Reference.sol\":1292:1347  mapping(address => bool) public hasContributedThisCycle */\n    tag_53:\n      mstore(0x20, 0x05)\n      dup1\n      0x00\n      mstore\n      keccak256(0x00, 0x40)\n      0x00\n      swap2\n      pop\n      sload\n      swap1\n      0x0100\n      exp\n      swap1\n      div\n      0xff\n      and\n      dup2\n      jump\t// out\n        /* \"Contract_Templates/Reference.sol\":1999:2029  uint256 public nextPayoutIndex */\n    tag_57:\n      sload(0x0b)\n      dup2\n      jump\t// out\n        /* \"Contract_Templates/Reference.sol\":582:607  uint256 public numMembers */\n    tag_61:\n      sload(0x00)\n      dup2\n      jump\t// out\n        /* \"Contract_Templates/Reference.sol\":1426:1463  uint256 public contributionsThisCycle */\n    tag_65:\n      sload(0x06)\n      dup2\n      jump\t// out\n        /* \"Contract_Templates/Reference.sol\":1183:1207  address[] public members */\n    tag_71:\n      0x04\n      dup2\n      dup2\n      sload\n      dup2\n      lt\n      tag_131\n      jumpi\n      0x00\n      dup1\n      revert\n    tag_131:\n      swap1\n      0x00\n      mstore\n      keccak256(0x00, 0x20)\n      add\n      0x00\n      swap2\n      pop\n      sload\n      swap1\n      0x0100\n      exp\n      swap1\n      div\n      0xffffffffffffffffffffffffffffffffffffffff\n      and\n      dup2\n      jump\t// out\n        /* \"Contract_Templates/Reference.sol\":975:1008  uint256 public contributionAmount */\n    tag_76:\n      sload(0x02)\n      dup2\n      jump\t// out\n        /* \"Contract_Templates/Reference.sol\":679:722  uint256 public contributionFrequencyInWeeks */\n    tag_80:\n      sload(0x01)\n      dup2\n      jump\t// out\n        /* \"Contract_Templates/Reference.sol\":1084:1126  uint256 public distributionIntervalInWeeks */\n    tag_84:\n      sload(0x03)\n      dup2\n      jump\t// out\n        /* \"Contract_Templates/Reference.sol\":7742:7974  function isMember(address _addr) public view returns (bool) {... */\n    tag_89:\n        /* \"Contract_Templates/Reference.sol\":7796:7800  bool */\n      0x00\n        /* \"Contract_Templates/Reference.sol\":7817:7826  uint256 i */\n      dup1\n        /* \"Contract_Templates/Reference.sol\":7829:7830  0 */\n      0x00\n        /* \"Contract_Templates/Reference.sol\":7817:7830  uint256 i = 0 */\n      swap1\n      pop\n        /* \"Contract_Templates/Reference.sol\":7812:7946  for (uint256 i = 0; i < numMembers; i++) {... */\n    tag_134:\n        /* \"Contract_Templates/Reference.sol\":7836:7846  numMembers */\n      sload(0x00)\n        /* \"Contract_Templates/Reference.sol\":7832:7833  i */\n      dup2\n        /* \"Contract_Templates/Reference.sol\":7832:7846  i < numMembers */\n      lt\n        /* \"Contract_Templates/Reference.sol\":7812:7946  for (uint256 i = 0; i < numMembers; i++) {... */\n      iszero\n      tag_135\n      jumpi\n        /* \"Contract_Templates/Reference.sol\":7885:7890  _addr */\n      dup3\n        /* \"Contract_Templates/Reference.sol\":7871:7890  members[i] == _addr */\n      0xffffffffffffffffffffffffffffffffffffffff\n      and\n        /* \"Contract_Templates/Reference.sol\":7871:7878  members */\n      0x04\n        /* \"Contract_Templates/Reference.sol\":7879:7880  i */\n      dup3\n        /* \"Contract_Templates/Reference.sol\":7871:7881  members[i] */\n      dup2\n      sload\n      dup2\n      lt\n      tag_137\n      jumpi\n      tag_138\n      tag_110\n      jump\t// in\n    tag_138:\n    tag_137:\n      swap1\n      0x00\n      mstore\n      keccak256(0x00, 0x20)\n      add\n      0x00\n      swap1\n      sload\n      swap1\n      0x0100\n      exp\n      swap1\n      div\n      0xffffffffffffffffffffffffffffffffffffffff\n      and\n        /* \"Contract_Templates/Reference.sol\":7871:7890  members[i] == _addr */\n      0xffffffffffffffffffffffffffffffffffffffff\n      and\n      sub\n        /* \"Contract_Templates/Reference.sol\":7867:7936  if (members[i] == _addr) {... */\n      tag_140\n      jumpi\n        /* \"Contract_Templates/Reference.sol\":7917:7921  true */\n      0x01\n        /* \"Contract_Templates/Reference.sol\":7910:7921  return true */\n      swap2\n      pop\n      pop\n      jump(tag_133)\n        /* \"Contract_Templates/Reference.sol\":7867:7936  if (members[i] == _addr) {... */\n    tag_140:\n        /* \"Contract_Templates/Reference.sol\":7848:7851  i++ */\n      dup1\n      dup1\n      0x01\n      add\n      swap2\n      pop\n      pop\n        /* \"Contract_Templates/Reference.sol\":7812:7946  for (uint256 i = 0; i < numMembers; i++) {... */\n      jump(tag_134)\n    tag_135:\n      pop\n        /* \"Contract_Templates/Reference.sol\":7962:7967  false */\n      0x00\n        /* \"Contract_Templates/Reference.sol\":7955:7967  return false */\n      swap1\n      pop\n        /* \"Contract_Templates/Reference.sol\":7742:7974  function isMember(address _addr) public view returns (bool) {... */\n    tag_133:\n      swap2\n      swap1\n      pop\n      jump\t// out\n        /* \"Contract_Templates/Reference.sol\":8069:8301  function allPaidOut() public view returns (bool) {... */\n    tag_93:\n        /* \"Contract_Templates/Reference.sol\":8112:8116  bool */\n      0x00\n        /* \"Contract_Templates/Reference.sol\":8133:8142  uint256 i */\n      dup1\n        /* \"Contract_Templates/Reference.sol\":8145:8146  0 */\n      0x00\n        /* \"Contract_Templates/Reference.sol\":8133:8146  uint256 i = 0 */\n      swap1\n      pop\n        /* \"Contract_Templates/Reference.sol\":8128:8274  for (uint256 i = 0; i < numMembers; i++) {... */\n    tag_142:\n        /* \"Contract_Templates/Reference.sol\":8152:8162  numMembers */\n      sload(0x00)\n        /* \"Contract_Templates/Reference.sol\":8148:8149  i */\n      dup2\n        /* \"Contract_Templates/Reference.sol\":8148:8162  i < numMembers */\n      lt\n        /* \"Contract_Templates/Reference.sol\":8128:8274  for (uint256 i = 0; i < numMembers; i++) {... */\n      iszero\n      tag_143\n      jumpi\n        /* \"Contract_Templates/Reference.sol\":8188:8205  hasReceivedPayout */\n      0x0a\n        /* \"Contract_Templates/Reference.sol\":8188:8217  hasReceivedPayout[members[i]] */\n      0x00\n        /* \"Contract_Templates/Reference.sol\":8206:8213  members */\n      0x04\n        /* \"Contract_Templates/Reference.sol\":8214:8215  i */\n      dup4\n        /* \"Contract_Templates/Reference.sol\":8206:8216  members[i] */\n      dup2\n      sload\n      dup2\n      lt\n      tag_145\n      jumpi\n      tag_146\n      tag_110\n      jump\t// in\n    tag_146:\n    tag_145:\n      swap1\n      0x00\n      mstore\n      keccak256(0x00, 0x20)\n      add\n      0x00\n      swap1\n      sload\n      swap1\n      0x0100\n      exp\n      swap1\n      div\n      0xffffffffffffffffffffffffffffffffffffffff\n      and\n        /* \"Contract_Templates/Reference.sol\":8188:8217  hasReceivedPayout[members[i]] */\n      0xffffffffffffffffffffffffffffffffffffffff\n      and\n      0xffffffffffffffffffffffffffffffffffffffff\n      and\n      dup2\n      mstore\n      0x20\n      add\n      swap1\n      dup2\n      mstore\n      0x20\n      add\n      0x00\n      keccak256\n      0x00\n      swap1\n      sload\n      swap1\n      0x0100\n      exp\n      swap1\n      div\n      0xff\n      and\n        /* \"Contract_Templates/Reference.sol\":8183:8264  if (!hasReceivedPayout[members[i]]) {... */\n      tag_148\n      jumpi\n        /* \"Contract_Templates/Reference.sol\":8244:8249  false */\n      0x00\n        /* \"Contract_Templates/Reference.sol\":8237:8249  return false */\n      swap2\n      pop\n      pop\n      jump(tag_141)\n        /* \"Contract_Templates/Reference.sol\":8183:8264  if (!hasReceivedPayout[members[i]]) {... */\n    tag_148:\n        /* \"Contract_Templates/Reference.sol\":8164:8167  i++ */\n      dup1\n      dup1\n      0x01\n      add\n      swap2\n      pop\n      pop\n        /* \"Contract_Templates/Reference.sol\":8128:8274  for (uint256 i = 0; i < numMembers; i++) {... */\n      jump(tag_142)\n    tag_143:\n      pop\n        /* \"Contract_Templates/Reference.sol\":8290:8294  true */\n      0x01\n        /* \"Contract_Templates/Reference.sol\":8283:8294  return true */\n      swap1\n      pop\n        /* \"Contract_Templates/Reference.sol\":8069:8301  function allPaidOut() public view returns (bool) {... */\n    tag_141:\n      swap1\n      jump\t// out\n        /* \"Contract_Templates/Reference.sol\":4053:5251  function contribute() external payable {... */\n    tag_96:\n        /* \"Contract_Templates/Reference.sol\":4144:4164  isMember(msg.sender) */\n      tag_150\n        /* \"Contract_Templates/Reference.sol\":4153:4163  msg.sender */\n      caller\n        /* \"Contract_Templates/Reference.sol\":4144:4152  isMember */\n      tag_89\n        /* \"Contract_Templates/Reference.sol\":4144:4164  isMember(msg.sender) */\n      jump\t// in\n    tag_150:\n        /* \"Contract_Templates/Reference.sol\":4136:4192  require(isMember(msg.sender), \"Not a registered member\") */\n      tag_151\n      jumpi\n      mload(0x40)\n      0x08c379a000000000000000000000000000000000000000000000000000000000\n      dup2\n      mstore\n      0x04\n      add\n      tag_152\n      swap1\n      tag_153\n      jump\t// in\n    tag_152:\n      mload(0x40)\n      dup1\n      swap2\n      sub\n      swap1\n      revert\n    tag_151:\n        /* \"Contract_Templates/Reference.sol\":4267:4290  hasContributedThisCycle */\n      0x05\n        /* \"Contract_Templates/Reference.sol\":4267:4302  hasContributedThisCycle[msg.sender] */\n      0x00\n        /* \"Contract_Templates/Reference.sol\":4291:4301  msg.sender */\n      caller\n        /* \"Contract_Templates/Reference.sol\":4267:4302  hasContributedThisCycle[msg.sender] */\n      0xffffffffffffffffffffffffffffffffffffffff\n      and\n      0xffffffffffffffffffffffffffffffffffffffff\n      and\n      dup2\n      mstore\n      0x20\n      add\n      swap1\n      dup2\n      mstore\n      0x20\n      add\n      0x00\n      keccak256\n      0x00\n      swap1\n      sload\n      swap1\n      0x0100\n      exp\n      swap1\n      div\n      0xff\n      and\n        /* \"Contract_Templates/Reference.sol\":4266:4302  !hasContributedThisCycle[msg.sender] */\n      iszero\n        /* \"Contract_Templates/Reference.sol\":4258:4337  require(!hasContributedThisCycle[msg.sender], \"Already contributed this cycle\") */\n      tag_154\n      jumpi\n      mload(0x40)\n      0x08c379a000000000000000000000000000000000000000000000000000000000\n      dup2\n      mstore\n      0x04\n      add\n      tag_155\n      swap1\n      tag_156\n      jump\t// in\n    tag_155:\n      mload(0x40)\n      dup1\n      swap2\n      sub\n      swap1\n      revert\n    tag_154:\n        /* \"Contract_Templates/Reference.sol\":4421:4439  contributionAmount */\n      sload(0x02)\n        /* \"Contract_Templates/Reference.sol\":4408:4417  msg.value */\n      callvalue\n        /* \"Contract_Templates/Reference.sol\":4408:4439  msg.value == contributionAmount */\n      eq\n        /* \"Contract_Templates/Reference.sol\":4400:4473  require(msg.value == contributionAmount, \"Incorrect contribution amount\") */\n      tag_157\n      jumpi\n      mload(0x40)\n      0x08c379a000000000000000000000000000000000000000000000000000000000\n      dup2\n      mstore\n      0x04\n      add\n      tag_158\n      swap1\n      tag_159\n      jump\t// in\n    tag_158:\n      mload(0x40)\n      dup1\n      swap2\n      sub\n      swap1\n      revert\n    tag_157:\n        /* \"Contract_Templates/Reference.sol\":4508:4513  false */\n      0x00\n        /* \"Contract_Templates/Reference.sol\":4492:4513  allPaidOut() == false */\n      iszero\n      iszero\n        /* \"Contract_Templates/Reference.sol\":4492:4504  allPaidOut() */\n      tag_160\n        /* \"Contract_Templates/Reference.sol\":4492:4502  allPaidOut */\n      tag_93\n        /* \"Contract_Templates/Reference.sol\":4492:4504  allPaidOut() */\n      jump\t// in\n    tag_160:\n        /* \"Contract_Templates/Reference.sol\":4492:4513  allPaidOut() == false */\n      iszero\n      iszero\n      eq\n        /* \"Contract_Templates/Reference.sol\":4484:4647  require(allPaidOut() == false, \"Everyone has been paid out once. Thank you for participating! Restart a new agreement if you'd like to continue with this Tanda.\" ) */\n      tag_161\n      jumpi\n      mload(0x40)\n      0x08c379a000000000000000000000000000000000000000000000000000000000\n      dup2\n      mstore\n      0x04\n      add\n      tag_162\n      swap1\n      tag_163\n      jump\t// in\n    tag_162:\n      mload(0x40)\n      dup1\n      swap2\n      sub\n      swap1\n      revert\n    tag_161:\n        /* \"Contract_Templates/Reference.sol\":4736:4757  uint256 cycleDuration */\n      0x00\n        /* \"Contract_Templates/Reference.sol\":4791:4798  1 weeks */\n      0x093a80\n        /* \"Contract_Templates/Reference.sol\":4760:4788  contributionFrequencyInWeeks */\n      sload(0x01)\n        /* \"Contract_Templates/Reference.sol\":4760:4798  contributionFrequencyInWeeks * 1 weeks */\n      tag_164\n      swap2\n      swap1\n      tag_129\n      jump\t// in\n    tag_164:\n        /* \"Contract_Templates/Reference.sol\":4736:4798  uint256 cycleDuration = contributionFrequencyInWeeks * 1 weeks */\n      swap1\n      pop\n        /* \"Contract_Templates/Reference.sol\":4865:4878  cycleDuration */\n      dup1\n        /* \"Contract_Templates/Reference.sol\":4848:4862  cycleStartTime */\n      sload(0x07)\n        /* \"Contract_Templates/Reference.sol\":4848:4878  cycleStartTime + cycleDuration */\n      tag_165\n      swap2\n      swap1\n      tag_105\n      jump\t// in\n    tag_165:\n        /* \"Contract_Templates/Reference.sol\":4829:4844  block.timestamp */\n      timestamp\n        /* \"Contract_Templates/Reference.sol\":4829:4879  block.timestamp < (cycleStartTime + cycleDuration) */\n      lt\n        /* \"Contract_Templates/Reference.sol\":4808:4949  require(... */\n      tag_166\n      jumpi\n      mload(0x40)\n      0x08c379a000000000000000000000000000000000000000000000000000000000\n      dup2\n      mstore\n      0x04\n      add\n      tag_167\n      swap1\n      tag_168\n      jump\t// in\n    tag_167:\n      mload(0x40)\n      dup1\n      swap2\n      sub\n      swap1\n      revert\n    tag_166:\n        /* \"Contract_Templates/Reference.sol\":5037:5041  true */\n      0x01\n        /* \"Contract_Templates/Reference.sol\":4999:5022  hasContributedThisCycle */\n      0x05\n        /* \"Contract_Templates/Reference.sol\":4999:5034  hasContributedThisCycle[msg.sender] */\n      0x00\n        /* \"Contract_Templates/Reference.sol\":5023:5033  msg.sender */\n      caller\n        /* \"Contract_Templates/Reference.sol\":4999:5034  hasContributedThisCycle[msg.sender] */\n      0xffffffffffffffffffffffffffffffffffffffff\n      and\n      0xffffffffffffffffffffffffffffffffffffffff\n      and\n      dup2\n      mstore\n      0x20\n      add\n      swap1\n      dup2\n      mstore\n      0x20\n      add\n      0x00\n      keccak256\n      0x00\n        /* \"Contract_Templates/Reference.sol\":4999:5041  hasContributedThisCycle[msg.sender] = true */\n      0x0100\n      exp\n      dup2\n      sload\n      dup2\n      0xff\n      mul\n      not\n      and\n      swap1\n      dup4\n      iszero\n      iszero\n      mul\n      or\n      swap1\n      sstore\n      pop\n        /* \"Contract_Templates/Reference.sol\":5077:5078  1 */\n      0x01\n        /* \"Contract_Templates/Reference.sol\":5051:5073  contributionsThisCycle */\n      0x06\n      0x00\n        /* \"Contract_Templates/Reference.sol\":5051:5078  contributionsThisCycle += 1 */\n      dup3\n      dup3\n      sload\n      tag_169\n      swap2\n      swap1\n      tag_105\n      jump\t// in\n    tag_169:\n      swap3\n      pop\n      pop\n      dup2\n      swap1\n      sstore\n      pop\n        /* \"Contract_Templates/Reference.sol\":5193:5203  numMembers */\n      sload(0x00)\n        /* \"Contract_Templates/Reference.sol\":5167:5189  contributionsThisCycle */\n      sload(0x06)\n        /* \"Contract_Templates/Reference.sol\":5167:5203  contributionsThisCycle == numMembers */\n      sub\n        /* \"Contract_Templates/Reference.sol\":5163:5245  if (contributionsThisCycle == numMembers) {... */\n      tag_170\n      jumpi\n        /* \"Contract_Templates/Reference.sol\":5219:5234  finalizeCycle() */\n      tag_171\n        /* \"Contract_Templates/Reference.sol\":5219:5232  finalizeCycle */\n      tag_99\n        /* \"Contract_Templates/Reference.sol\":5219:5234  finalizeCycle() */\n      jump\t// in\n    tag_171:\n        /* \"Contract_Templates/Reference.sol\":5163:5245  if (contributionsThisCycle == numMembers) {... */\n    tag_170:\n        /* \"Contract_Templates/Reference.sol\":4092:5251  {... */\n      pop\n        /* \"Contract_Templates/Reference.sol\":4053:5251  function contribute() external payable {... */\n      jump\t// out\n        /* \"Contract_Templates/Reference.sol\":5445:6196  function finalizeCycle() public {... */\n    tag_99:\n        /* \"Contract_Templates/Reference.sol\":5487:5508  uint256 cycleDuration */\n      0x00\n        /* \"Contract_Templates/Reference.sol\":5542:5549  1 weeks */\n      0x093a80\n        /* \"Contract_Templates/Reference.sol\":5511:5539  contributionFrequencyInWeeks */\n      sload(0x01)\n        /* \"Contract_Templates/Reference.sol\":5511:5549  contributionFrequencyInWeeks * 1 weeks */\n      tag_173\n      swap2\n      swap1\n      tag_129\n      jump\t// in\n    tag_173:\n        /* \"Contract_Templates/Reference.sol\":5487:5549  uint256 cycleDuration = contributionFrequencyInWeeks * 1 weeks */\n      swap1\n      pop\n        /* \"Contract_Templates/Reference.sol\":5701:5714  cycleDuration */\n      dup1\n        /* \"Contract_Templates/Reference.sol\":5684:5698  cycleStartTime */\n      sload(0x07)\n        /* \"Contract_Templates/Reference.sol\":5684:5714  cycleStartTime + cycleDuration */\n      tag_174\n      swap2\n      swap1\n      tag_105\n      jump\t// in\n    tag_174:\n        /* \"Contract_Templates/Reference.sol\":5664:5679  block.timestamp */\n      timestamp\n        /* \"Contract_Templates/Reference.sol\":5664:5715  block.timestamp >= (cycleStartTime + cycleDuration) */\n      lt\n      iszero\n        /* \"Contract_Templates/Reference.sol\":5664:5767  block.timestamp >= (cycleStartTime + cycleDuration) ||... */\n      dup1\n      tag_175\n      jumpi\n      pop\n        /* \"Contract_Templates/Reference.sol\":5757:5767  numMembers */\n      sload(0x00)\n        /* \"Contract_Templates/Reference.sol\":5731:5753  contributionsThisCycle */\n      sload(0x06)\n        /* \"Contract_Templates/Reference.sol\":5731:5767  contributionsThisCycle == numMembers */\n      eq\n        /* \"Contract_Templates/Reference.sol\":5664:5767  block.timestamp >= (cycleStartTime + cycleDuration) ||... */\n    tag_175:\n        /* \"Contract_Templates/Reference.sol\":5643:5818  require(... */\n      tag_176\n      jumpi\n      mload(0x40)\n      0x08c379a000000000000000000000000000000000000000000000000000000000\n      dup2\n      mstore\n      0x04\n      add\n      tag_177\n      swap1\n      tag_178\n      jump\t// in\n    tag_177:\n      mload(0x40)\n      dup1\n      swap2\n      sub\n      swap1\n      revert\n    tag_176:\n        /* \"Contract_Templates/Reference.sol\":5880:5881  1 */\n      0x01\n        /* \"Contract_Templates/Reference.sol\":5866:5876  cycleCount */\n      0x08\n      0x00\n        /* \"Contract_Templates/Reference.sol\":5866:5881  cycleCount += 1 */\n      dup3\n      dup3\n      sload\n      tag_179\n      swap2\n      swap1\n      tag_105\n      jump\t// in\n    tag_179:\n      swap3\n      pop\n      pop\n      dup2\n      swap1\n      sstore\n      pop\n        /* \"Contract_Templates/Reference.sol\":5954:5963  uint256 i */\n      0x00\n        /* \"Contract_Templates/Reference.sol\":5949:6058  for (uint256 i = 0; i < numMembers; i++) {... */\n    tag_180:\n        /* \"Contract_Templates/Reference.sol\":5973:5983  numMembers */\n      sload(0x00)\n        /* \"Contract_Templates/Reference.sol\":5969:5970  i */\n      dup2\n        /* \"Contract_Templates/Reference.sol\":5969:5983  i < numMembers */\n      lt\n        /* \"Contract_Templates/Reference.sol\":5949:6058  for (uint256 i = 0; i < numMembers; i++) {... */\n      iszero\n      tag_181\n      jumpi\n        /* \"Contract_Templates/Reference.sol\":6042:6047  false */\n      0x00\n        /* \"Contract_Templates/Reference.sol\":6004:6027  hasContributedThisCycle */\n      0x05\n        /* \"Contract_Templates/Reference.sol\":6004:6039  hasContributedThisCycle[members[i]] */\n      0x00\n        /* \"Contract_Templates/Reference.sol\":6028:6035  members */\n      0x04\n        /* \"Contract_Templates/Reference.sol\":6036:6037  i */\n      dup5\n        /* \"Contract_Templates/Reference.sol\":6028:6038  members[i] */\n      dup2\n      sload\n      dup2\n      lt\n      tag_183\n      jumpi\n      tag_184\n      tag_110\n      jump\t// in\n    tag_184:\n    tag_183:\n      swap1\n      0x00\n      mstore\n      keccak256(0x00, 0x20)\n      add\n      0x00\n      swap1\n      sload\n      swap1\n      0x0100\n      exp\n      swap1\n      div\n      0xffffffffffffffffffffffffffffffffffffffff\n      and\n        /* \"Contract_Templates/Reference.sol\":6004:6039  hasContributedThisCycle[members[i]] */\n      0xffffffffffffffffffffffffffffffffffffffff\n      and\n      0xffffffffffffffffffffffffffffffffffffffff\n      and\n      dup2\n      mstore\n      0x20\n      add\n      swap1\n      dup2\n      mstore\n      0x20\n      add\n      0x00\n      keccak256\n      0x00\n        /* \"Contract_Templates/Reference.sol\":6004:6047  hasContributedThisCycle[members[i]] = false */\n      0x0100\n      exp\n      dup2\n      sload\n      dup2\n      0xff\n      mul\n      not\n      and\n      swap1\n      dup4\n      iszero\n      iszero\n      mul\n      or\n      swap1\n      sstore\n      pop\n        /* \"Contract_Templates/Reference.sol\":5985:5988  i++ */\n      dup1\n      dup1\n      0x01\n      add\n      swap2\n      pop\n      pop\n        /* \"Contract_Templates/Reference.sol\":5949:6058  for (uint256 i = 0; i < numMembers; i++) {... */\n      jump(tag_180)\n    tag_181:\n      pop\n        /* \"Contract_Templates/Reference.sol\":6092:6093  0 */\n      0x00\n        /* \"Contract_Templates/Reference.sol\":6067:6089  contributionsThisCycle */\n      0x06\n        /* \"Contract_Templates/Reference.sol\":6067:6093  contributionsThisCycle = 0 */\n      dup2\n      swap1\n      sstore\n      pop\n        /* \"Contract_Templates/Reference.sol\":6174:6189  block.timestamp */\n      timestamp\n        /* \"Contract_Templates/Reference.sol\":6157:6171  cycleStartTime */\n      0x07\n        /* \"Contract_Templates/Reference.sol\":6157:6189  cycleStartTime = block.timestamp */\n      dup2\n      swap1\n      sstore\n      pop\n        /* \"Contract_Templates/Reference.sol\":5477:6196  {... */\n      pop\n        /* \"Contract_Templates/Reference.sol\":5445:6196  function finalizeCycle() public {... */\n      jump\t// out\n        /* \"#utility.yul\":7:176   */\n    tag_186:\n        /* \"#utility.yul\":91:102   */\n      0x00\n        /* \"#utility.yul\":125:131   */\n      dup3\n        /* \"#utility.yul\":120:123   */\n      dup3\n        /* \"#utility.yul\":113:132   */\n      mstore\n        /* \"#utility.yul\":165:169   */\n      0x20\n        /* \"#utility.yul\":160:163   */\n      dup3\n        /* \"#utility.yul\":156:170   */\n      add\n        /* \"#utility.yul\":141:170   */\n      swap1\n      pop\n        /* \"#utility.yul\":7:176   */\n      swap3\n      swap2\n      pop\n      pop\n      jump\t// out\n        /* \"#utility.yul\":182:359   */\n    tag_187:\n        /* \"#utility.yul\":322:351   */\n      0x55736520636f6e74726962757465282920746f206465706f7369740000000000\n        /* \"#utility.yul\":318:319   */\n      0x00\n        /* \"#utility.yul\":310:316   */\n      dup3\n        /* \"#utility.yul\":306:320   */\n      add\n        /* \"#utility.yul\":299:352   */\n      mstore\n        /* \"#utility.yul\":182:359   */\n      pop\n      jump\t// out\n        /* \"#utility.yul\":365:731   */\n    tag_188:\n        /* \"#utility.yul\":507:510   */\n      0x00\n        /* \"#utility.yul\":528:595   */\n      tag_230\n        /* \"#utility.yul\":592:594   */\n      0x1b\n        /* \"#utility.yul\":587:590   */\n      dup4\n        /* \"#utility.yul\":528:595   */\n      tag_186\n      jump\t// in\n    tag_230:\n        /* \"#utility.yul\":521:595   */\n      swap2\n      pop\n        /* \"#utility.yul\":604:697   */\n      tag_231\n        /* \"#utility.yul\":693:696   */\n      dup3\n        /* \"#utility.yul\":604:697   */\n      tag_187\n      jump\t// in\n    tag_231:\n        /* \"#utility.yul\":722:724   */\n      0x20\n        /* \"#utility.yul\":717:720   */\n      dup3\n        /* \"#utility.yul\":713:725   */\n      add\n        /* \"#utility.yul\":706:725   */\n      swap1\n      pop\n        /* \"#utility.yul\":365:731   */\n      swap2\n      swap1\n      pop\n      jump\t// out\n        /* \"#utility.yul\":737:1156   */\n    tag_26:\n        /* \"#utility.yul\":903:907   */\n      0x00\n        /* \"#utility.yul\":941:943   */\n      0x20\n        /* \"#utility.yul\":930:939   */\n      dup3\n        /* \"#utility.yul\":926:944   */\n      add\n        /* \"#utility.yul\":918:944   */\n      swap1\n      pop\n        /* \"#utility.yul\":990:999   */\n      dup2\n        /* \"#utility.yul\":984:988   */\n      dup2\n        /* \"#utility.yul\":980:1000   */\n      sub\n        /* \"#utility.yul\":976:977   */\n      0x00\n        /* \"#utility.yul\":965:974   */\n      dup4\n        /* \"#utility.yul\":961:978   */\n      add\n        /* \"#utility.yul\":954:1001   */\n      mstore\n        /* \"#utility.yul\":1018:1149   */\n      tag_233\n        /* \"#utility.yul\":1144:1148   */\n      dup2\n        /* \"#utility.yul\":1018:1149   */\n      tag_188\n      jump\t// in\n    tag_233:\n        /* \"#utility.yul\":1010:1149   */\n      swap1\n      pop\n        /* \"#utility.yul\":737:1156   */\n      swap2\n      swap1\n      pop\n      jump\t// out\n        /* \"#utility.yul\":1162:1239   */\n    tag_189:\n        /* \"#utility.yul\":1199:1206   */\n      0x00\n        /* \"#utility.yul\":1228:1233   */\n      dup2\n        /* \"#utility.yul\":1217:1233   */\n      swap1\n      pop\n        /* \"#utility.yul\":1162:1239   */\n      swap2\n      swap1\n      pop\n      jump\t// out\n        /* \"#utility.yul\":1245:1363   */\n    tag_190:\n        /* \"#utility.yul\":1332:1356   */\n      tag_236\n        /* \"#utility.yul\":1350:1355   */\n      dup2\n        /* \"#utility.yul\":1332:1356   */\n      tag_189\n      jump\t// in\n    tag_236:\n        /* \"#utility.yul\":1327:1330   */\n      dup3\n        /* \"#utility.yul\":1320:1357   */\n      mstore\n        /* \"#utility.yul\":1245:1363   */\n      pop\n      pop\n      jump\t// out\n        /* \"#utility.yul\":1369:1591   */\n    tag_31:\n        /* \"#utility.yul\":1462:1466   */\n      0x00\n        /* \"#utility.yul\":1500:1502   */\n      0x20\n        /* \"#utility.yul\":1489:1498   */\n      dup3\n        /* \"#utility.yul\":1485:1503   */\n      add\n        /* \"#utility.yul\":1477:1503   */\n      swap1\n      pop\n        /* \"#utility.yul\":1513:1584   */\n      tag_238\n        /* \"#utility.yul\":1581:1582   */\n      0x00\n        /* \"#utility.yul\":1570:1579   */\n      dup4\n        /* \"#utility.yul\":1566:1583   */\n      add\n        /* \"#utility.yul\":1557:1563   */\n      dup5\n        /* \"#utility.yul\":1513:1584   */\n      tag_190\n      jump\t// in\n    tag_238:\n        /* \"#utility.yul\":1369:1591   */\n      swap3\n      swap2\n      pop\n      pop\n      jump\t// out\n        /* \"#utility.yul\":1678:1795   */\n    tag_192:\n        /* \"#utility.yul\":1787:1788   */\n      0x00\n        /* \"#utility.yul\":1784:1785   */\n      dup1\n        /* \"#utility.yul\":1777:1789   */\n      revert\n        /* \"#utility.yul\":1924:2050   */\n    tag_194:\n        /* \"#utility.yul\":1961:1968   */\n      0x00\n        /* \"#utility.yul\":2001:2043   */\n      0xffffffffffffffffffffffffffffffffffffffff\n        /* \"#utility.yul\":1994:1999   */\n      dup3\n        /* \"#utility.yul\":1990:2044   */\n      and\n        /* \"#utility.yul\":1979:2044   */\n      swap1\n      pop\n        /* \"#utility.yul\":1924:2050   */\n      swap2\n      swap1\n      pop\n      jump\t// out\n        /* \"#utility.yul\":2056:2152   */\n    tag_195:\n        /* \"#utility.yul\":2093:2100   */\n      0x00\n        /* \"#utility.yul\":2122:2146   */\n      tag_244\n        /* \"#utility.yul\":2140:2145   */\n      dup3\n        /* \"#utility.yul\":2122:2146   */\n      tag_194\n      jump\t// in\n    tag_244:\n        /* \"#utility.yul\":2111:2146   */\n      swap1\n      pop\n        /* \"#utility.yul\":2056:2152   */\n      swap2\n      swap1\n      pop\n      jump\t// out\n        /* \"#utility.yul\":2158:2280   */\n    tag_196:\n        /* \"#utility.yul\":2231:2255   */\n      tag_246\n        /* \"#utility.yul\":2249:2254   */\n      dup2\n        /* \"#utility.yul\":2231:2255   */\n      tag_195\n      jump\t// in\n    tag_246:\n        /* \"#utility.yul\":2224:2229   */\n      dup2\n        /* \"#utility.yul\":2221:2256   */\n      eq\n        /* \"#utility.yul\":2211:2274   */\n      tag_247\n      jumpi\n        /* \"#utility.yul\":2270:2271   */\n      0x00\n        /* \"#utility.yul\":2267:2268   */\n      dup1\n        /* \"#utility.yul\":2260:2272   */\n      revert\n        /* \"#utility.yul\":2211:2274   */\n    tag_247:\n        /* \"#utility.yul\":2158:2280   */\n      pop\n      jump\t// out\n        /* \"#utility.yul\":2286:2425   */\n    tag_197:\n        /* \"#utility.yul\":2332:2337   */\n      0x00\n        /* \"#utility.yul\":2370:2376   */\n      dup2\n        /* \"#utility.yul\":2357:2377   */\n      calldataload\n        /* \"#utility.yul\":2348:2377   */\n      swap1\n      pop\n        /* \"#utility.yul\":2386:2419   */\n      tag_249\n        /* \"#utility.yul\":2413:2418   */\n      dup2\n        /* \"#utility.yul\":2386:2419   */\n      tag_196\n      jump\t// in\n    tag_249:\n        /* \"#utility.yul\":2286:2425   */\n      swap3\n      swap2\n      pop\n      pop\n      jump\t// out\n        /* \"#utility.yul\":2431:2760   */\n    tag_43:\n        /* \"#utility.yul\":2490:2496   */\n      0x00\n        /* \"#utility.yul\":2539:2541   */\n      0x20\n        /* \"#utility.yul\":2527:2536   */\n      dup3\n        /* \"#utility.yul\":2518:2525   */\n      dup5\n        /* \"#utility.yul\":2514:2537   */\n      sub\n        /* \"#utility.yul\":2510:2542   */\n      slt\n        /* \"#utility.yul\":2507:2626   */\n      iszero\n      tag_251\n      jumpi\n        /* \"#utility.yul\":2545:2624   */\n      tag_252\n      tag_192\n      jump\t// in\n    tag_252:\n        /* \"#utility.yul\":2507:2626   */\n    tag_251:\n        /* \"#utility.yul\":2665:2666   */\n      0x00\n        /* \"#utility.yul\":2690:2743   */\n      tag_253\n        /* \"#utility.yul\":2735:2742   */\n      dup5\n        /* \"#utility.yul\":2726:2732   */\n      dup3\n        /* \"#utility.yul\":2715:2724   */\n      dup6\n        /* \"#utility.yul\":2711:2733   */\n      add\n        /* \"#utility.yul\":2690:2743   */\n      tag_197\n      jump\t// in\n    tag_253:\n        /* \"#utility.yul\":2680:2743   */\n      swap2\n      pop\n        /* \"#utility.yul\":2636:2753   */\n      pop\n        /* \"#utility.yul\":2431:2760   */\n      swap3\n      swap2\n      pop\n      pop\n      jump\t// out\n        /* \"#utility.yul\":2766:2856   */\n    tag_198:\n        /* \"#utility.yul\":2800:2807   */\n      0x00\n        /* \"#utility.yul\":2843:2848   */\n      dup2\n        /* \"#utility.yul\":2836:2849   */\n      iszero\n        /* \"#utility.yul\":2829:2850   */\n      iszero\n        /* \"#utility.yul\":2818:2850   */\n      swap1\n      pop\n        /* \"#utility.yul\":2766:2856   */\n      swap2\n      swap1\n      pop\n      jump\t// out\n        /* \"#utility.yul\":2862:2971   */\n    tag_199:\n        /* \"#utility.yul\":2943:2964   */\n      tag_256\n        /* \"#utility.yul\":2958:2963   */\n      dup2\n        /* \"#utility.yul\":2943:2964   */\n      tag_198\n      jump\t// in\n    tag_256:\n        /* \"#utility.yul\":2938:2941   */\n      dup3\n        /* \"#utility.yul\":2931:2965   */\n      mstore\n        /* \"#utility.yul\":2862:2971   */\n      pop\n      pop\n      jump\t// out\n        /* \"#utility.yul\":2977:3187   */\n    tag_46:\n        /* \"#utility.yul\":3064:3068   */\n      0x00\n        /* \"#utility.yul\":3102:3104   */\n      0x20\n        /* \"#utility.yul\":3091:3100   */\n      dup3\n        /* \"#utility.yul\":3087:3105   */\n      add\n        /* \"#utility.yul\":3079:3105   */\n      swap1\n      pop\n        /* \"#utility.yul\":3115:3180   */\n      tag_258\n        /* \"#utility.yul\":3177:3178   */\n      0x00\n        /* \"#utility.yul\":3166:3175   */\n      dup4\n        /* \"#utility.yul\":3162:3179   */\n      add\n        /* \"#utility.yul\":3153:3159   */\n      dup5\n        /* \"#utility.yul\":3115:3180   */\n      tag_199\n      jump\t// in\n    tag_258:\n        /* \"#utility.yul\":2977:3187   */\n      swap3\n      swap2\n      pop\n      pop\n      jump\t// out\n        /* \"#utility.yul\":3193:3315   */\n    tag_200:\n        /* \"#utility.yul\":3266:3290   */\n      tag_260\n        /* \"#utility.yul\":3284:3289   */\n      dup2\n        /* \"#utility.yul\":3266:3290   */\n      tag_189\n      jump\t// in\n    tag_260:\n        /* \"#utility.yul\":3259:3264   */\n      dup2\n        /* \"#utility.yul\":3256:3291   */\n      eq\n        /* \"#utility.yul\":3246:3309   */\n      tag_261\n      jumpi\n        /* \"#utility.yul\":3305:3306   */\n      0x00\n        /* \"#utility.yul\":3302:3303   */\n      dup1\n        /* \"#utility.yul\":3295:3307   */\n      revert\n        /* \"#utility.yul\":3246:3309   */\n    tag_261:\n        /* \"#utility.yul\":3193:3315   */\n      pop\n      jump\t// out\n        /* \"#utility.yul\":3321:3460   */\n    tag_201:\n        /* \"#utility.yul\":3367:3372   */\n      0x00\n        /* \"#utility.yul\":3405:3411   */\n      dup2\n        /* \"#utility.yul\":3392:3412   */\n      calldataload\n        /* \"#utility.yul\":3383:3412   */\n      swap1\n      pop\n        /* \"#utility.yul\":3421:3454   */\n      tag_263\n        /* \"#utility.yul\":3448:3453   */\n      dup2\n        /* \"#utility.yul\":3421:3454   */\n      tag_200\n      jump\t// in\n    tag_263:\n        /* \"#utility.yul\":3321:3460   */\n      swap3\n      swap2\n      pop\n      pop\n      jump\t// out\n        /* \"#utility.yul\":3466:3795   */\n    tag_70:\n        /* \"#utility.yul\":3525:3531   */\n      0x00\n        /* \"#utility.yul\":3574:3576   */\n      0x20\n        /* \"#utility.yul\":3562:3571   */\n      dup3\n        /* \"#utility.yul\":3553:3560   */\n      dup5\n        /* \"#utility.yul\":3549:3572   */\n      sub\n        /* \"#utility.yul\":3545:3577   */\n      slt\n        /* \"#utility.yul\":3542:3661   */\n      iszero\n      tag_265\n      jumpi\n        /* \"#utility.yul\":3580:3659   */\n      tag_266\n      tag_192\n      jump\t// in\n    tag_266:\n        /* \"#utility.yul\":3542:3661   */\n    tag_265:\n        /* \"#utility.yul\":3700:3701   */\n      0x00\n        /* \"#utility.yul\":3725:3778   */\n      tag_267\n        /* \"#utility.yul\":3770:3777   */\n      dup5\n        /* \"#utility.yul\":3761:3767   */\n      dup3\n        /* \"#utility.yul\":3750:3759   */\n      dup6\n        /* \"#utility.yul\":3746:3768   */\n      add\n        /* \"#utility.yul\":3725:3778   */\n      tag_201\n      jump\t// in\n    tag_267:\n        /* \"#utility.yul\":3715:3778   */\n      swap2\n      pop\n        /* \"#utility.yul\":3671:3788   */\n      pop\n        /* \"#utility.yul\":3466:3795   */\n      swap3\n      swap2\n      pop\n      pop\n      jump\t// out\n        /* \"#utility.yul\":3801:3919   */\n    tag_202:\n        /* \"#utility.yul\":3888:3912   */\n      tag_269\n        /* \"#utility.yul\":3906:3911   */\n      dup2\n        /* \"#utility.yul\":3888:3912   */\n      tag_195\n      jump\t// in\n    tag_269:\n        /* \"#utility.yul\":3883:3886   */\n      dup3\n        /* \"#utility.yul\":3876:3913   */\n      mstore\n        /* \"#utility.yul\":3801:3919   */\n      pop\n      pop\n      jump\t// out\n        /* \"#utility.yul\":3925:4147   */\n    tag_73:\n        /* \"#utility.yul\":4018:4022   */\n      0x00\n        /* \"#utility.yul\":4056:4058   */\n      0x20\n        /* \"#utility.yul\":4045:4054   */\n      dup3\n        /* \"#utility.yul\":4041:4059   */\n      add\n        /* \"#utility.yul\":4033:4059   */\n      swap1\n      pop\n        /* \"#utility.yul\":4069:4140   */\n      tag_271\n        /* \"#utility.yul\":4137:4138   */\n      0x00\n        /* \"#utility.yul\":4126:4135   */\n      dup4\n        /* \"#utility.yul\":4122:4139   */\n      add\n        /* \"#utility.yul\":4113:4119   */\n      dup5\n        /* \"#utility.yul\":4069:4140   */\n      tag_202\n      jump\t// in\n    tag_271:\n        /* \"#utility.yul\":3925:4147   */\n      swap3\n      swap2\n      pop\n      pop\n      jump\t// out\n        /* \"#utility.yul\":4153:4333   */\n    tag_203:\n        /* \"#utility.yul\":4201:4278   */\n      0x4e487b7100000000000000000000000000000000000000000000000000000000\n        /* \"#utility.yul\":4198:4199   */\n      0x00\n        /* \"#utility.yul\":4191:4279   */\n      mstore\n        /* \"#utility.yul\":4298:4302   */\n      0x11\n        /* \"#utility.yul\":4295:4296   */\n      0x04\n        /* \"#utility.yul\":4288:4303   */\n      mstore\n        /* \"#utility.yul\":4322:4326   */\n      0x24\n        /* \"#utility.yul\":4319:4320   */\n      0x00\n        /* \"#utility.yul\":4312:4327   */\n      revert\n        /* \"#utility.yul\":4339:4530   */\n    tag_105:\n        /* \"#utility.yul\":4379:4382   */\n      0x00\n        /* \"#utility.yul\":4398:4418   */\n      tag_274\n        /* \"#utility.yul\":4416:4417   */\n      dup3\n        /* \"#utility.yul\":4398:4418   */\n      tag_189\n      jump\t// in\n    tag_274:\n        /* \"#utility.yul\":4393:4418   */\n      swap2\n      pop\n        /* \"#utility.yul\":4432:4452   */\n      tag_275\n        /* \"#utility.yul\":4450:4451   */\n      dup4\n        /* \"#utility.yul\":4432:4452   */\n      tag_189\n      jump\t// in\n    tag_275:\n        /* \"#utility.yul\":4427:4452   */\n      swap3\n      pop\n        /* \"#utility.yul\":4475:4476   */\n      dup3\n        /* \"#utility.yul\":4472:4473   */\n      dup3\n        /* \"#utility.yul\":4468:4477   */\n      add\n        /* \"#utility.yul\":4461:4477   */\n      swap1\n      pop\n        /* \"#utility.yul\":4496:4499   */\n      dup1\n        /* \"#utility.yul\":4493:4494   */\n      dup3\n        /* \"#utility.yul\":4490:4500   */\n      gt\n        /* \"#utility.yul\":4487:4523   */\n      iszero\n      tag_276\n      jumpi\n        /* \"#utility.yul\":4503:4521   */\n      tag_277\n      tag_203\n      jump\t// in\n    tag_277:\n        /* \"#utility.yul\":4487:4523   */\n    tag_276:\n        /* \"#utility.yul\":4339:4530   */\n      swap3\n      swap2\n      pop\n      pop\n      jump\t// out\n        /* \"#utility.yul\":4536:4716   */\n    tag_204:\n        /* \"#utility.yul\":4584:4661   */\n      0x4e487b7100000000000000000000000000000000000000000000000000000000\n        /* \"#utility.yul\":4581:4582   */\n      0x00\n        /* \"#utility.yul\":4574:4662   */\n      mstore\n        /* \"#utility.yul\":4681:4685   */\n      0x12\n        /* \"#utility.yul\":4678:4679   */\n      0x04\n        /* \"#utility.yul\":4671:4686   */\n      mstore\n        /* \"#utility.yul\":4705:4709   */\n      0x24\n        /* \"#utility.yul\":4702:4703   */\n      0x00\n        /* \"#utility.yul\":4695:4710   */\n      revert\n        /* \"#utility.yul\":4722:4898   */\n    tag_107:\n        /* \"#utility.yul\":4754:4755   */\n      0x00\n        /* \"#utility.yul\":4771:4791   */\n      tag_280\n        /* \"#utility.yul\":4789:4790   */\n      dup3\n        /* \"#utility.yul\":4771:4791   */\n      tag_189\n      jump\t// in\n    tag_280:\n        /* \"#utility.yul\":4766:4791   */\n      swap2\n      pop\n        /* \"#utility.yul\":4805:4825   */\n      tag_281\n        /* \"#utility.yul\":4823:4824   */\n      dup4\n        /* \"#utility.yul\":4805:4825   */\n      tag_189\n      jump\t// in\n    tag_281:\n        /* \"#utility.yul\":4800:4825   */\n      swap3\n      pop\n        /* \"#utility.yul\":4844:4845   */\n      dup3\n        /* \"#utility.yul\":4834:4869   */\n      tag_282\n      jumpi\n        /* \"#utility.yul\":4849:4867   */\n      tag_283\n      tag_204\n      jump\t// in\n    tag_283:\n        /* \"#utility.yul\":4834:4869   */\n    tag_282:\n        /* \"#utility.yul\":4890:4891   */\n      dup3\n        /* \"#utility.yul\":4887:4888   */\n      dup3\n        /* \"#utility.yul\":4883:4892   */\n      mod\n        /* \"#utility.yul\":4878:4892   */\n      swap1\n      pop\n        /* \"#utility.yul\":4722:4898   */\n      swap3\n      swap2\n      pop\n      pop\n      jump\t// out\n        /* \"#utility.yul\":4904:5084   */\n    tag_110:\n        /* \"#utility.yul\":4952:5029   */\n      0x4e487b7100000000000000000000000000000000000000000000000000000000\n        /* \"#utility.yul\":4949:4950   */\n      0x00\n        /* \"#utility.yul\":4942:5030   */\n      mstore\n        /* \"#utility.yul\":5049:5053   */\n      0x32\n        /* \"#utility.yul\":5046:5047   */\n      0x04\n        /* \"#utility.yul\":5039:5054   */\n      mstore\n        /* \"#utility.yul\":5073:5077   */\n      0x24\n        /* \"#utility.yul\":5070:5071   */\n      0x00\n        /* \"#utility.yul\":5063:5078   */\n      revert\n        /* \"#utility.yul\":5090:5311   */\n    tag_205:\n        /* \"#utility.yul\":5230:5264   */\n      0x416c6c206d656d62657273206861766520616c7265616479206265656e207061\n        /* \"#utility.yul\":5226:5227   */\n      0x00\n        /* \"#utility.yul\":5218:5224   */\n      dup3\n        /* \"#utility.yul\":5214:5228   */\n      add\n        /* \"#utility.yul\":5207:5265   */\n      mstore\n        /* \"#utility.yul\":5299:5303   */\n      0x6964000000000000000000000000000000000000000000000000000000000000\n        /* \"#utility.yul\":5294:5296   */\n      0x20\n        /* \"#utility.yul\":5286:5292   */\n      dup3\n        /* \"#utility.yul\":5282:5297   */\n      add\n        /* \"#utility.yul\":5275:5304   */\n      mstore\n        /* \"#utility.yul\":5090:5311   */\n      pop\n      jump\t// out\n        /* \"#utility.yul\":5317:5683   */\n    tag_206:\n        /* \"#utility.yul\":5459:5462   */\n      0x00\n        /* \"#utility.yul\":5480:5547   */\n      tag_287\n        /* \"#utility.yul\":5544:5546   */\n      0x22\n        /* \"#utility.yul\":5539:5542   */\n      dup4\n        /* \"#utility.yul\":5480:5547   */\n      tag_186\n      jump\t// in\n    tag_287:\n        /* \"#utility.yul\":5473:5547   */\n      swap2\n      pop\n        /* \"#utility.yul\":5556:5649   */\n      tag_288\n        /* \"#utility.yul\":5645:5648   */\n      dup3\n        /* \"#utility.yul\":5556:5649   */\n      tag_205\n      jump\t// in\n    tag_288:\n        /* \"#utility.yul\":5674:5676   */\n      0x40\n        /* \"#utility.yul\":5669:5672   */\n      dup3\n        /* \"#utility.yul\":5665:5677   */\n      add\n        /* \"#utility.yul\":5658:5677   */\n      swap1\n      pop\n        /* \"#utility.yul\":5317:5683   */\n      swap2\n      swap1\n      pop\n      jump\t// out\n        /* \"#utility.yul\":5689:6108   */\n    tag_116:\n        /* \"#utility.yul\":5855:5859   */\n      0x00\n        /* \"#utility.yul\":5893:5895   */\n      0x20\n        /* \"#utility.yul\":5882:5891   */\n      dup3\n        /* \"#utility.yul\":5878:5896   */\n      add\n        /* \"#utility.yul\":5870:5896   */\n      swap1\n      pop\n        /* \"#utility.yul\":5942:5951   */\n      dup2\n        /* \"#utility.yul\":5936:5940   */\n      dup2\n        /* \"#utility.yul\":5932:5952   */\n      sub\n        /* \"#utility.yul\":5928:5929   */\n      0x00\n        /* \"#utility.yul\":5917:5926   */\n      dup4\n        /* \"#utility.yul\":5913:5930   */\n      add\n        /* \"#utility.yul\":5906:5953   */\n      mstore\n        /* \"#utility.yul\":5970:6101   */\n      tag_290\n        /* \"#utility.yul\":6096:6100   */\n      dup2\n        /* \"#utility.yul\":5970:6101   */\n      tag_206\n      jump\t// in\n    tag_290:\n        /* \"#utility.yul\":5962:6101   */\n      swap1\n      pop\n        /* \"#utility.yul\":5689:6108   */\n      swap2\n      swap1\n      pop\n      jump\t// out\n        /* \"#utility.yul\":6114:6286   */\n    tag_207:\n        /* \"#utility.yul\":6254:6278   */\n      0x4e6f2066756e647320746f206469737472696275746500000000000000000000\n        /* \"#utility.yul\":6250:6251   */\n      0x00\n        /* \"#utility.yul\":6242:6248   */\n      dup3\n        /* \"#utility.yul\":6238:6252   */\n      add\n        /* \"#utility.yul\":6231:6279   */\n      mstore\n        /* \"#utility.yul\":6114:6286   */\n      pop\n      jump\t// out\n        /* \"#utility.yul\":6292:6658   */\n    tag_208:\n        /* \"#utility.yul\":6434:6437   */\n      0x00\n        /* \"#utility.yul\":6455:6522   */\n      tag_293\n        /* \"#utility.yul\":6519:6521   */\n      0x16\n        /* \"#utility.yul\":6514:6517   */\n      dup4\n        /* \"#utility.yul\":6455:6522   */\n      tag_186\n      jump\t// in\n    tag_293:\n        /* \"#utility.yul\":6448:6522   */\n      swap2\n      pop\n        /* \"#utility.yul\":6531:6624   */\n      tag_294\n        /* \"#utility.yul\":6620:6623   */\n      dup3\n        /* \"#utility.yul\":6531:6624   */\n      tag_207\n      jump\t// in\n    tag_294:\n        /* \"#utility.yul\":6649:6651   */\n      0x20\n        /* \"#utility.yul\":6644:6647   */\n      dup3\n        /* \"#utility.yul\":6640:6652   */\n      add\n        /* \"#utility.yul\":6633:6652   */\n      swap1\n      pop\n        /* \"#utility.yul\":6292:6658   */\n      swap2\n      swap1\n      pop\n      jump\t// out\n        /* \"#utility.yul\":6664:7083   */\n    tag_119:\n        /* \"#utility.yul\":6830:6834   */\n      0x00\n        /* \"#utility.yul\":6868:6870   */\n      0x20\n        /* \"#utility.yul\":6857:6866   */\n      dup3\n        /* \"#utility.yul\":6853:6871   */\n      add\n        /* \"#utility.yul\":6845:6871   */\n      swap1\n      pop\n        /* \"#utility.yul\":6917:6926   */\n      dup2\n        /* \"#utility.yul\":6911:6915   */\n      dup2\n        /* \"#utility.yul\":6907:6927   */\n      sub\n        /* \"#utility.yul\":6903:6904   */\n      0x00\n        /* \"#utility.yul\":6892:6901   */\n      dup4\n        /* \"#utility.yul\":6888:6905   */\n      add\n        /* \"#utility.yul\":6881:6928   */\n      mstore\n        /* \"#utility.yul\":6945:7076   */\n      tag_296\n        /* \"#utility.yul\":7071:7075   */\n      dup2\n        /* \"#utility.yul\":6945:7076   */\n      tag_208\n      jump\t// in\n    tag_296:\n        /* \"#utility.yul\":6937:7076   */\n      swap1\n      pop\n        /* \"#utility.yul\":6664:7083   */\n      swap2\n      swap1\n      pop\n      jump\t// out\n        /* \"#utility.yul\":7089:7236   */\n    tag_209:\n        /* \"#utility.yul\":7190:7201   */\n      0x00\n        /* \"#utility.yul\":7227:7230   */\n      dup2\n        /* \"#utility.yul\":7212:7230   */\n      swap1\n      pop\n        /* \"#utility.yul\":7089:7236   */\n      swap3\n      swap2\n      pop\n      pop\n      jump\t// out\n        /* \"#utility.yul\":7242:7356   */\n    tag_210:\n      pop\n      jump\t// out\n        /* \"#utility.yul\":7362:7760   */\n    tag_211:\n        /* \"#utility.yul\":7521:7524   */\n      0x00\n        /* \"#utility.yul\":7542:7625   */\n      tag_300\n        /* \"#utility.yul\":7623:7624   */\n      0x00\n        /* \"#utility.yul\":7618:7621   */\n      dup4\n        /* \"#utility.yul\":7542:7625   */\n      tag_209\n      jump\t// in\n    tag_300:\n        /* \"#utility.yul\":7535:7625   */\n      swap2\n      pop\n        /* \"#utility.yul\":7634:7727   */\n      tag_301\n        /* \"#utility.yul\":7723:7726   */\n      dup3\n        /* \"#utility.yul\":7634:7727   */\n      tag_210\n      jump\t// in\n    tag_301:\n        /* \"#utility.yul\":7752:7753   */\n      0x00\n        /* \"#utility.yul\":7747:7750   */\n      dup3\n        /* \"#utility.yul\":7743:7754   */\n      add\n        /* \"#utility.yul\":7736:7754   */\n      swap1\n      pop\n        /* \"#utility.yul\":7362:7760   */\n      swap2\n      swap1\n      pop\n      jump\t// out\n        /* \"#utility.yul\":7766:8145   */\n    tag_121:\n        /* \"#utility.yul\":7950:7953   */\n      0x00\n        /* \"#utility.yul\":7972:8119   */\n      tag_303\n        /* \"#utility.yul\":8115:8118   */\n      dup3\n        /* \"#utility.yul\":7972:8119   */\n      tag_211\n      jump\t// in\n    tag_303:\n        /* \"#utility.yul\":7965:8119   */\n      swap2\n      pop\n        /* \"#utility.yul\":8136:8139   */\n      dup2\n        /* \"#utility.yul\":8129:8139   */\n      swap1\n      pop\n        /* \"#utility.yul\":7766:8145   */\n      swap2\n      swap1\n      pop\n      jump\t// out\n        /* \"#utility.yul\":8151:8316   */\n    tag_212:\n        /* \"#utility.yul\":8291:8308   */\n      0x5472616e73666572206661696c65640000000000000000000000000000000000\n        /* \"#utility.yul\":8287:8288   */\n      0x00\n        /* \"#utility.yul\":8279:8285   */\n      dup3\n        /* \"#utility.yul\":8275:8289   */\n      add\n        /* \"#utility.yul\":8268:8309   */\n      mstore\n        /* \"#utility.yul\":8151:8316   */\n      pop\n      jump\t// out\n        /* \"#utility.yul\":8322:8688   */\n    tag_213:\n        /* \"#utility.yul\":8464:8467   */\n      0x00\n        /* \"#utility.yul\":8485:8552   */\n      tag_306\n        /* \"#utility.yul\":8549:8551   */\n      0x0f\n        /* \"#utility.yul\":8544:8547   */\n      dup4\n        /* \"#utility.yul\":8485:8552   */\n      tag_186\n      jump\t// in\n    tag_306:\n        /* \"#utility.yul\":8478:8552   */\n      swap2\n      pop\n        /* \"#utility.yul\":8561:8654   */\n      tag_307\n        /* \"#utility.yul\":8650:8653   */\n      dup3\n        /* \"#utility.yul\":8561:8654   */\n      tag_212\n      jump\t// in\n    tag_307:\n        /* \"#utility.yul\":8679:8681   */\n      0x20\n        /* \"#utility.yul\":8674:8677   */\n      dup3\n        /* \"#utility.yul\":8670:8682   */\n      add\n        /* \"#utility.yul\":8663:8682   */\n      swap1\n      pop\n        /* \"#utility.yul\":8322:8688   */\n      swap2\n      swap1\n      pop\n      jump\t// out\n        /* \"#utility.yul\":8694:9113   */\n    tag_127:\n        /* \"#utility.yul\":8860:8864   */\n      0x00\n        /* \"#utility.yul\":8898:8900   */\n      0x20\n        /* \"#utility.yul\":8887:8896   */\n      dup3\n        /* \"#utility.yul\":8883:8901   */\n      add\n        /* \"#utility.yul\":8875:8901   */\n      swap1\n      pop\n        /* \"#utility.yul\":8947:8956   */\n      dup2\n        /* \"#utility.yul\":8941:8945   */\n      dup2\n        /* \"#utility.yul\":8937:8957   */\n      sub\n        /* \"#utility.yul\":8933:8934   */\n      0x00\n        /* \"#utility.yul\":8922:8931   */\n      dup4\n        /* \"#utility.yul\":8918:8935   */\n      add\n        /* \"#utility.yul\":8911:8958   */\n      mstore\n        /* \"#utility.yul\":8975:9106   */\n      tag_309\n        /* \"#utility.yul\":9101:9105   */\n      dup2\n        /* \"#utility.yul\":8975:9106   */\n      tag_213\n      jump\t// in\n    tag_309:\n        /* \"#utility.yul\":8967:9106   */\n      swap1\n      pop\n        /* \"#utility.yul\":8694:9113   */\n      swap2\n      swap1\n      pop\n      jump\t// out\n        /* \"#utility.yul\":9119:9529   */\n    tag_129:\n        /* \"#utility.yul\":9159:9166   */\n      0x00\n        /* \"#utility.yul\":9182:9202   */\n      tag_311\n        /* \"#utility.yul\":9200:9201   */\n      dup3\n        /* \"#utility.yul\":9182:9202   */\n      tag_189\n      jump\t// in\n    tag_311:\n        /* \"#utility.yul\":9177:9202   */\n      swap2\n      pop\n        /* \"#utility.yul\":9216:9236   */\n      tag_312\n        /* \"#utility.yul\":9234:9235   */\n      dup4\n        /* \"#utility.yul\":9216:9236   */\n      tag_189\n      jump\t// in\n    tag_312:\n        /* \"#utility.yul\":9211:9236   */\n      swap3\n      pop\n        /* \"#utility.yul\":9271:9272   */\n      dup3\n        /* \"#utility.yul\":9268:9269   */\n      dup3\n        /* \"#utility.yul\":9264:9273   */\n      mul\n        /* \"#utility.yul\":9293:9323   */\n      tag_313\n        /* \"#utility.yul\":9311:9322   */\n      dup2\n        /* \"#utility.yul\":9293:9323   */\n      tag_189\n      jump\t// in\n    tag_313:\n        /* \"#utility.yul\":9282:9323   */\n      swap2\n      pop\n        /* \"#utility.yul\":9472:9473   */\n      dup3\n        /* \"#utility.yul\":9463:9470   */\n      dup3\n        /* \"#utility.yul\":9459:9474   */\n      div\n        /* \"#utility.yul\":9456:9457   */\n      dup5\n        /* \"#utility.yul\":9453:9475   */\n      eq\n        /* \"#utility.yul\":9433:9434   */\n      dup4\n        /* \"#utility.yul\":9426:9435   */\n      iszero\n        /* \"#utility.yul\":9406:9489   */\n      or\n        /* \"#utility.yul\":9383:9522   */\n      tag_314\n      jumpi\n        /* \"#utility.yul\":9502:9520   */\n      tag_315\n      tag_203\n      jump\t// in\n    tag_315:\n        /* \"#utility.yul\":9383:9522   */\n    tag_314:\n        /* \"#utility.yul\":9167:9529   */\n      pop\n        /* \"#utility.yul\":9119:9529   */\n      swap3\n      swap2\n      pop\n      pop\n      jump\t// out\n        /* \"#utility.yul\":9535:9708   */\n    tag_214:\n        /* \"#utility.yul\":9675:9700   */\n      0x4e6f7420612072656769737465726564206d656d626572000000000000000000\n        /* \"#utility.yul\":9671:9672   */\n      0x00\n        /* \"#utility.yul\":9663:9669   */\n      dup3\n        /* \"#utility.yul\":9659:9673   */\n      add\n        /* \"#utility.yul\":9652:9701   */\n      mstore\n        /* \"#utility.yul\":9535:9708   */\n      pop\n      jump\t// out\n        /* \"#utility.yul\":9714:10080   */\n    tag_215:\n        /* \"#utility.yul\":9856:9859   */\n      0x00\n        /* \"#utility.yul\":9877:9944   */\n      tag_318\n        /* \"#utility.yul\":9941:9943   */\n      0x17\n        /* \"#utility.yul\":9936:9939   */\n      dup4\n        /* \"#utility.yul\":9877:9944   */\n      tag_186\n      jump\t// in\n    tag_318:\n        /* \"#utility.yul\":9870:9944   */\n      swap2\n      pop\n        /* \"#utility.yul\":9953:10046   */\n      tag_319\n        /* \"#utility.yul\":10042:10045   */\n      dup3\n        /* \"#utility.yul\":9953:10046   */\n      tag_214\n      jump\t// in\n    tag_319:\n        /* \"#utility.yul\":10071:10073   */\n      0x20\n        /* \"#utility.yul\":10066:10069   */\n      dup3\n        /* \"#utility.yul\":10062:10074   */\n      add\n        /* \"#utility.yul\":10055:10074   */\n      swap1\n      pop\n        /* \"#utility.yul\":9714:10080   */\n      swap2\n      swap1\n      pop\n      jump\t// out\n        /* \"#utility.yul\":10086:10505   */\n    tag_153:\n        /* \"#utility.yul\":10252:10256   */\n      0x00\n        /* \"#utility.yul\":10290:10292   */\n      0x20\n        /* \"#utility.yul\":10279:10288   */\n      dup3\n        /* \"#utility.yul\":10275:10293   */\n      add\n        /* \"#utility.yul\":10267:10293   */\n      swap1\n      pop\n        /* \"#utility.yul\":10339:10348   */\n      dup2\n        /* \"#utility.yul\":10333:10337   */\n      dup2\n        /* \"#utility.yul\":10329:10349   */\n      sub\n        /* \"#utility.yul\":10325:10326   */\n      0x00\n        /* \"#utility.yul\":10314:10323   */\n      dup4\n        /* \"#utility.yul\":10310:10327   */\n      add\n        /* \"#utility.yul\":10303:10350   */\n      mstore\n        /* \"#utility.yul\":10367:10498   */\n      tag_321\n        /* \"#utility.yul\":10493:10497   */\n      dup2\n        /* \"#utility.yul\":10367:10498   */\n      tag_215\n      jump\t// in\n    tag_321:\n        /* \"#utility.yul\":10359:10498   */\n      swap1\n      pop\n        /* \"#utility.yul\":10086:10505   */\n      swap2\n      swap1\n      pop\n      jump\t// out\n        /* \"#utility.yul\":10511:10691   */\n    tag_216:\n        /* \"#utility.yul\":10651:10683   */\n      0x416c726561647920636f6e74726962757465642074686973206379636c650000\n        /* \"#utility.yul\":10647:10648   */\n      0x00\n        /* \"#utility.yul\":10639:10645   */\n      dup3\n        /* \"#utility.yul\":10635:10649   */\n      add\n        /* \"#utility.yul\":10628:10684   */\n      mstore\n        /* \"#utility.yul\":10511:10691   */\n      pop\n      jump\t// out\n        /* \"#utility.yul\":10697:11063   */\n    tag_217:\n        /* \"#utility.yul\":10839:10842   */\n      0x00\n        /* \"#utility.yul\":10860:10927   */\n      tag_324\n        /* \"#utility.yul\":10924:10926   */\n      0x1e\n        /* \"#utility.yul\":10919:10922   */\n      dup4\n        /* \"#utility.yul\":10860:10927   */\n      tag_186\n      jump\t// in\n    tag_324:\n        /* \"#utility.yul\":10853:10927   */\n      swap2\n      pop\n        /* \"#utility.yul\":10936:11029   */\n      tag_325\n        /* \"#utility.yul\":11025:11028   */\n      dup3\n        /* \"#utility.yul\":10936:11029   */\n      tag_216\n      jump\t// in\n    tag_325:\n        /* \"#utility.yul\":11054:11056   */\n      0x20\n        /* \"#utility.yul\":11049:11052   */\n      dup3\n        /* \"#utility.yul\":11045:11057   */\n      add\n        /* \"#utility.yul\":11038:11057   */\n      swap1\n      pop\n        /* \"#utility.yul\":10697:11063   */\n      swap2\n      swap1\n      pop\n      jump\t// out\n        /* \"#utility.yul\":11069:11488   */\n    tag_156:\n        /* \"#utility.yul\":11235:11239   */\n      0x00\n        /* \"#utility.yul\":11273:11275   */\n      0x20\n        /* \"#utility.yul\":11262:11271   */\n      dup3\n        /* \"#utility.yul\":11258:11276   */\n      add\n        /* \"#utility.yul\":11250:11276   */\n      swap1\n      pop\n        /* \"#utility.yul\":11322:11331   */\n      dup2\n        /* \"#utility.yul\":11316:11320   */\n      dup2\n        /* \"#utility.yul\":11312:11332   */\n      sub\n        /* \"#utility.yul\":11308:11309   */\n      0x00\n        /* \"#utility.yul\":11297:11306   */\n      dup4\n        /* \"#utility.yul\":11293:11310   */\n      add\n        /* \"#utility.yul\":11286:11333   */\n      mstore\n        /* \"#utility.yul\":11350:11481   */\n      tag_327\n        /* \"#utility.yul\":11476:11480   */\n      dup2\n        /* \"#utility.yul\":11350:11481   */\n      tag_217\n      jump\t// in\n    tag_327:\n        /* \"#utility.yul\":11342:11481   */\n      swap1\n      pop\n        /* \"#utility.yul\":11069:11488   */\n      swap2\n      swap1\n      pop\n      jump\t// out\n        /* \"#utility.yul\":11494:11673   */\n    tag_218:\n        /* \"#utility.yul\":11634:11665   */\n      0x496e636f727265637420636f6e747269627574696f6e20616d6f756e74000000\n        /* \"#utility.yul\":11630:11631   */\n      0x00\n        /* \"#utility.yul\":11622:11628   */\n      dup3\n        /* \"#utility.yul\":11618:11632   */\n      add\n        /* \"#utility.yul\":11611:11666   */\n      mstore\n        /* \"#utility.yul\":11494:11673   */\n      pop\n      jump\t// out\n        /* \"#utility.yul\":11679:12045   */\n    tag_219:\n        /* \"#utility.yul\":11821:11824   */\n      0x00\n        /* \"#utility.yul\":11842:11909   */\n      tag_330\n        /* \"#utility.yul\":11906:11908   */\n      0x1d\n        /* \"#utility.yul\":11901:11904   */\n      dup4\n        /* \"#utility.yul\":11842:11909   */\n      tag_186\n      jump\t// in\n    tag_330:\n        /* \"#utility.yul\":11835:11909   */\n      swap2\n      pop\n        /* \"#utility.yul\":11918:12011   */\n      tag_331\n        /* \"#utility.yul\":12007:12010   */\n      dup3\n        /* \"#utility.yul\":11918:12011   */\n      tag_218\n      jump\t// in\n    tag_331:\n        /* \"#utility.yul\":12036:12038   */\n      0x20\n        /* \"#utility.yul\":12031:12034   */\n      dup3\n        /* \"#utility.yul\":12027:12039   */\n      add\n        /* \"#utility.yul\":12020:12039   */\n      swap1\n      pop\n        /* \"#utility.yul\":11679:12045   */\n      swap2\n      swap1\n      pop\n      jump\t// out\n        /* \"#utility.yul\":12051:12470   */\n    tag_159:\n        /* \"#utility.yul\":12217:12221   */\n      0x00\n        /* \"#utility.yul\":12255:12257   */\n      0x20\n        /* \"#utility.yul\":12244:12253   */\n      dup3\n        /* \"#utility.yul\":12240:12258   */\n      add\n        /* \"#utility.yul\":12232:12258   */\n      swap1\n      pop\n        /* \"#utility.yul\":12304:12313   */\n      dup2\n        /* \"#utility.yul\":12298:12302   */\n      dup2\n        /* \"#utility.yul\":12294:12314   */\n      sub\n        /* \"#utility.yul\":12290:12291   */\n      0x00\n        /* \"#utility.yul\":12279:12288   */\n      dup4\n        /* \"#utility.yul\":12275:12292   */\n      add\n        /* \"#utility.yul\":12268:12315   */\n      mstore\n        /* \"#utility.yul\":12332:12463   */\n      tag_333\n        /* \"#utility.yul\":12458:12462   */\n      dup2\n        /* \"#utility.yul\":12332:12463   */\n      tag_219\n      jump\t// in\n    tag_333:\n        /* \"#utility.yul\":12324:12463   */\n      swap1\n      pop\n        /* \"#utility.yul\":12051:12470   */\n      swap2\n      swap1\n      pop\n      jump\t// out\n        /* \"#utility.yul\":12476:12865   */\n    tag_220:\n        /* \"#utility.yul\":12616:12650   */\n      0x45766572796f6e6520686173206265656e2070616964206f7574206f6e63652e\n        /* \"#utility.yul\":12612:12613   */\n      0x00\n        /* \"#utility.yul\":12604:12610   */\n      dup3\n        /* \"#utility.yul\":12600:12614   */\n      add\n        /* \"#utility.yul\":12593:12651   */\n      mstore\n        /* \"#utility.yul\":12685:12719   */\n      0x205468616e6b20796f7520666f722070617274696369706174696e6721205265\n        /* \"#utility.yul\":12680:12682   */\n      0x20\n        /* \"#utility.yul\":12672:12678   */\n      dup3\n        /* \"#utility.yul\":12668:12683   */\n      add\n        /* \"#utility.yul\":12661:12720   */\n      mstore\n        /* \"#utility.yul\":12754:12788   */\n      0x73746172742061206e65772061677265656d656e7420696620796f752764206c\n        /* \"#utility.yul\":12749:12751   */\n      0x40\n        /* \"#utility.yul\":12741:12747   */\n      dup3\n        /* \"#utility.yul\":12737:12752   */\n      add\n        /* \"#utility.yul\":12730:12789   */\n      mstore\n        /* \"#utility.yul\":12823:12857   */\n      0x696b6520746f20636f6e74696e7565207769746820746869732054616e64612e\n        /* \"#utility.yul\":12818:12820   */\n      0x60\n        /* \"#utility.yul\":12810:12816   */\n      dup3\n        /* \"#utility.yul\":12806:12821   */\n      add\n        /* \"#utility.yul\":12799:12858   */\n      mstore\n        /* \"#utility.yul\":12476:12865   */\n      pop\n      jump\t// out\n        /* \"#utility.yul\":12871:13239   */\n    tag_221:\n        /* \"#utility.yul\":13013:13016   */\n      0x00\n        /* \"#utility.yul\":13034:13102   */\n      tag_336\n        /* \"#utility.yul\":13098:13101   */\n      0x80\n        /* \"#utility.yul\":13093:13096   */\n      dup4\n        /* \"#utility.yul\":13034:13102   */\n      tag_186\n      jump\t// in\n    tag_336:\n        /* \"#utility.yul\":13027:13102   */\n      swap2\n      pop\n        /* \"#utility.yul\":13111:13204   */\n      tag_337\n        /* \"#utility.yul\":13200:13203   */\n      dup3\n        /* \"#utility.yul\":13111:13204   */\n      tag_220\n      jump\t// in\n    tag_337:\n        /* \"#utility.yul\":13229:13232   */\n      0x80\n        /* \"#utility.yul\":13224:13227   */\n      dup3\n        /* \"#utility.yul\":13220:13233   */\n      add\n        /* \"#utility.yul\":13213:13233   */\n      swap1\n      pop\n        /* \"#utility.yul\":12871:13239   */\n      swap2\n      swap1\n      pop\n      jump\t// out\n        /* \"#utility.yul\":13245:13664   */\n    tag_163:\n        /* \"#utility.yul\":13411:13415   */\n      0x00\n        /* \"#utility.yul\":13449:13451   */\n      0x20\n        /* \"#utility.yul\":13438:13447   */\n      dup3\n        /* \"#utility.yul\":13434:13452   */\n      add\n        /* \"#utility.yul\":13426:13452   */\n      swap1\n      pop\n        /* \"#utility.yul\":13498:13507   */\n      dup2\n        /* \"#utility.yul\":13492:13496   */\n      dup2\n        /* \"#utility.yul\":13488:13508   */\n      sub\n        /* \"#utility.yul\":13484:13485   */\n      0x00\n        /* \"#utility.yul\":13473:13482   */\n      dup4\n        /* \"#utility.yul\":13469:13486   */\n      add\n        /* \"#utility.yul\":13462:13509   */\n      mstore\n        /* \"#utility.yul\":13526:13657   */\n      tag_339\n        /* \"#utility.yul\":13652:13656   */\n      dup2\n        /* \"#utility.yul\":13526:13657   */\n      tag_221\n      jump\t// in\n    tag_339:\n        /* \"#utility.yul\":13518:13657   */\n      swap1\n      pop\n        /* \"#utility.yul\":13245:13664   */\n      swap2\n      swap1\n      pop\n      jump\t// out\n        /* \"#utility.yul\":13670:13901   */\n    tag_222:\n        /* \"#utility.yul\":13810:13844   */\n      0x436f6e747269627574696f6e2077696e646f7720666f72207468697320637963\n        /* \"#utility.yul\":13806:13807   */\n      0x00\n        /* \"#utility.yul\":13798:13804   */\n      dup3\n        /* \"#utility.yul\":13794:13808   */\n      add\n        /* \"#utility.yul\":13787:13845   */\n      mstore\n        /* \"#utility.yul\":13879:13893   */\n      0x6c6520697320636c6f7365640000000000000000000000000000000000000000\n        /* \"#utility.yul\":13874:13876   */\n      0x20\n        /* \"#utility.yul\":13866:13872   */\n      dup3\n        /* \"#utility.yul\":13862:13877   */\n      add\n        /* \"#utility.yul\":13855:13894   */\n      mstore\n        /* \"#utility.yul\":13670:13901   */\n      pop\n      jump\t// out\n        /* \"#utility.yul\":13907:14273   */\n    tag_223:\n        /* \"#utility.yul\":14049:14052   */\n      0x00\n        /* \"#utility.yul\":14070:14137   */\n      tag_342\n        /* \"#utility.yul\":14134:14136   */\n      0x2c\n        /* \"#utility.yul\":14129:14132   */\n      dup4\n        /* \"#utility.yul\":14070:14137   */\n      tag_186\n      jump\t// in\n    tag_342:\n        /* \"#utility.yul\":14063:14137   */\n      swap2\n      pop\n        /* \"#utility.yul\":14146:14239   */\n      tag_343\n        /* \"#utility.yul\":14235:14238   */\n      dup3\n        /* \"#utility.yul\":14146:14239   */\n      tag_222\n      jump\t// in\n    tag_343:\n        /* \"#utility.yul\":14264:14266   */\n      0x40\n        /* \"#utility.yul\":14259:14262   */\n      dup3\n        /* \"#utility.yul\":14255:14267   */\n      add\n        /* \"#utility.yul\":14248:14267   */\n      swap1\n      pop\n        /* \"#utility.yul\":13907:14273   */\n      swap2\n      swap1\n      pop\n      jump\t// out\n        /* \"#utility.yul\":14279:14698   */\n    tag_168:\n        /* \"#utility.yul\":14445:14449   */\n      0x00\n        /* \"#utility.yul\":14483:14485   */\n      0x20\n        /* \"#utility.yul\":14472:14481   */\n      dup3\n        /* \"#utility.yul\":14468:14486   */\n      add\n        /* \"#utility.yul\":14460:14486   */\n      swap1\n      pop\n        /* \"#utility.yul\":14532:14541   */\n      dup2\n        /* \"#utility.yul\":14526:14530   */\n      dup2\n        /* \"#utility.yul\":14522:14542   */\n      sub\n        /* \"#utility.yul\":14518:14519   */\n      0x00\n        /* \"#utility.yul\":14507:14516   */\n      dup4\n        /* \"#utility.yul\":14503:14520   */\n      add\n        /* \"#utility.yul\":14496:14543   */\n      mstore\n        /* \"#utility.yul\":14560:14691   */\n      tag_345\n        /* \"#utility.yul\":14686:14690   */\n      dup2\n        /* \"#utility.yul\":14560:14691   */\n      tag_223\n      jump\t// in\n    tag_345:\n        /* \"#utility.yul\":14552:14691   */\n      swap1\n      pop\n        /* \"#utility.yul\":14279:14698   */\n      swap2\n      swap1\n      pop\n      jump\t// out\n        /* \"#utility.yul\":14704:14879   */\n    tag_224:\n        /* \"#utility.yul\":14844:14871   */\n      0x43616e6e6f742066696e616c697a65206379636c652079657400000000000000\n        /* \"#utility.yul\":14840:14841   */\n      0x00\n        /* \"#utility.yul\":14832:14838   */\n      dup3\n        /* \"#utility.yul\":14828:14842   */\n      add\n        /* \"#utility.yul\":14821:14872   */\n      mstore\n        /* \"#utility.yul\":14704:14879   */\n      pop\n      jump\t// out\n        /* \"#utility.yul\":14885:15251   */\n    tag_225:\n        /* \"#utility.yul\":15027:15030   */\n      0x00\n        /* \"#utility.yul\":15048:15115   */\n      tag_348\n        /* \"#utility.yul\":15112:15114   */\n      0x19\n        /* \"#utility.yul\":15107:15110   */\n      dup4\n        /* \"#utility.yul\":15048:15115   */\n      tag_186\n      jump\t// in\n    tag_348:\n        /* \"#utility.yul\":15041:15115   */\n      swap2\n      pop\n        /* \"#utility.yul\":15124:15217   */\n      tag_349\n        /* \"#utility.yul\":15213:15216   */\n      dup3\n        /* \"#utility.yul\":15124:15217   */\n      tag_224\n      jump\t// in\n    tag_349:\n        /* \"#utility.yul\":15242:15244   */\n      0x20\n        /* \"#utility.yul\":15237:15240   */\n      dup3\n        /* \"#utility.yul\":15233:15245   */\n      add\n        /* \"#utility.yul\":15226:15245   */\n      swap1\n      pop\n        /* \"#utility.yul\":14885:15251   */\n      swap2\n      swap1\n      pop\n      jump\t// out\n        /* \"#utility.yul\":15257:15676   */\n    tag_178:\n        /* \"#utility.yul\":15423:15427   */\n      0x00\n        /* \"#utility.yul\":15461:15463   */\n      0x20\n        /* \"#utility.yul\":15450:15459   */\n      dup3\n        /* \"#utility.yul\":15446:15464   */\n      add\n        /* \"#utility.yul\":15438:15464   */\n      swap1\n      pop\n        /* \"#utility.yul\":15510:15519   */\n      dup2\n        /* \"#utility.yul\":15504:15508   */\n      dup2\n        /* \"#utility.yul\":15500:15520   */\n      sub\n        /* \"#utility.yul\":15496:15497   */\n      0x00\n        /* \"#utility.yul\":15485:15494   */\n      dup4\n        /* \"#utility.yul\":15481:15498   */\n      add\n        /* \"#utility.yul\":15474:15521   */\n      mstore\n        /* \"#utility.yul\":15538:15669   */\n      tag_351\n        /* \"#utility.yul\":15664:15668   */\n      dup2\n        /* \"#utility.yul\":15538:15669   */\n      tag_225\n      jump\t// in\n    tag_351:\n        /* \"#utility.yul\":15530:15669   */\n      swap1\n      pop\n        /* \"#utility.yul\":15257:15676   */\n      swap2\n      swap1\n      pop\n      jump\t// out\n\n    auxdata: 0xa26469706673582212207fd50eb5a99332bfaeb5560cbb50174f3cd0729ee4f40a669951c222409f076a64736f6c634300081a0033\n}\n",
				"bytecode": {
					"linkReferences": {},
					"object": "608060405234801561000f575f80fd5b50604051611a8d380380611a8d8339818101604052810190610031919061041e565b84815114610074576040517f08c379a000000000000000000000000000000000000000000000000000000000815260040161006b9061050b565b60405180910390fd5b5f5b85811015610113575f73ffffffffffffffffffffffffffffffffffffffff168282815181106100a8576100a7610529565b5b602002602001015173ffffffffffffffffffffffffffffffffffffffff1603610106576040517f08c379a00000000000000000000000000000000000000000000000000000000081526004016100fd906105a0565b60405180910390fd5b8080600101915050610076565b50845f81905550836001819055508260038190555081600281905550806004908051906020019061014592919061018e565b504260078190555062093a8060035461015e91906105eb565b42610169919061062c565b6009819055505f6008819055505f6006819055505f600b81905550505050505061065f565b828054828255905f5260205f20908101928215610204579160200282015b82811115610203578251825f6101000a81548173ffffffffffffffffffffffffffffffffffffffff021916908373ffffffffffffffffffffffffffffffffffffffff160217905550916020019190600101906101ac565b5b5090506102119190610215565b5090565b5b8082111561022c575f815f905550600101610216565b5090565b5f604051905090565b5f80fd5b5f80fd5b5f819050919050565b61025381610241565b811461025d575f80fd5b50565b5f8151905061026e8161024a565b92915050565b5f80fd5b5f601f19601f8301169050919050565b7f4e487b71000000000000000000000000000000000000000000000000000000005f52604160045260245ffd5b6102be82610278565b810181811067ffffffffffffffff821117156102dd576102dc610288565b5b80604052505050565b5f6102ef610230565b90506102fb82826102b5565b919050565b5f67ffffffffffffffff82111561031a57610319610288565b5b602082029050602081019050919050565b5f80fd5b5f73ffffffffffffffffffffffffffffffffffffffff82169050919050565b5f6103588261032f565b9050919050565b6103688161034e565b8114610372575f80fd5b50565b5f815190506103838161035f565b92915050565b5f61039b61039684610300565b6102e6565b905080838252602082019050602084028301858111156103be576103bd61032b565b5b835b818110156103e757806103d38882610375565b8452602084019350506020810190506103c0565b5050509392505050565b5f82601f83011261040557610404610274565b5b8151610415848260208601610389565b91505092915050565b5f805f805f60a0868803121561043757610436610239565b5b5f61044488828901610260565b955050602061045588828901610260565b945050604061046688828901610260565b935050606061047788828901610260565b925050608086015167ffffffffffffffff8111156104985761049761023d565b5b6104a4888289016103f1565b9150509295509295909350565b5f82825260208201905092915050565b7f4d656d626572732061727261792073697a65206d69736d6174636800000000005f82015250565b5f6104f5601b836104b1565b9150610500826104c1565b602082019050919050565b5f6020820190508181035f830152610522816104e9565b9050919050565b7f4e487b71000000000000000000000000000000000000000000000000000000005f52603260045260245ffd5b7f496e76616c6964206d656d6265722061646472657373000000000000000000005f82015250565b5f61058a6016836104b1565b915061059582610556565b602082019050919050565b5f6020820190508181035f8301526105b78161057e565b9050919050565b7f4e487b71000000000000000000000000000000000000000000000000000000005f52601160045260245ffd5b5f6105f582610241565b915061060083610241565b925082820261060e81610241565b91508282048414831517610625576106246105be565b5b5092915050565b5f61063682610241565b915061064183610241565b9250828201905080821115610659576106586105be565b5b92915050565b6114218061066c5f395ff3fe608060405260043610610101575f3560e01c806350a644d1116100945780639172e5c2116100635780639172e5c21461035f578063a230c52414610389578063c74e7261146103c5578063d7bb99ba146103ef578063ec33d2a0146103f957610141565b806350a644d1146102a55780635daf08ca146102cf5780635fa0b65f1461030b5780638d0aa1b21461033557610141565b806335cd4b46116100d057806335cd4b46146101ff578063368d6eb7146102155780633fe071be146102515780634698d1101461027b57610141565b8063091fb01014610145578063316fda0f1461016f578063335e536c14610199578063346477c7146101c357610141565b36610141576040517f08c379a000000000000000000000000000000000000000000000000000000000815260040161013890610c91565b60405180910390fd5b5f80fd5b348015610150575f80fd5b5061015961040f565b6040516101669190610cc7565b60405180910390f35b34801561017a575f80fd5b50610183610415565b6040516101909190610cc7565b60405180910390f35b3480156101a4575f80fd5b506101ad61041b565b6040516101ba9190610cc7565b60405180910390f35b3480156101ce575f80fd5b506101e960048036038101906101e49190610d3e565b610421565b6040516101f69190610d83565b60405180910390f35b34801561020a575f80fd5b5061021361043e565b005b348015610220575f80fd5b5061023b60048036038101906102369190610d3e565b6106da565b6040516102489190610d83565b60405180910390f35b34801561025c575f80fd5b506102656106f7565b6040516102729190610cc7565b60405180910390f35b348015610286575f80fd5b5061028f6106fd565b60405161029c9190610cc7565b60405180910390f35b3480156102b0575f80fd5b506102b9610702565b6040516102c69190610cc7565b60405180910390f35b3480156102da575f80fd5b506102f560048036038101906102f09190610dc6565b610708565b6040516103029190610e00565b60405180910390f35b348015610316575f80fd5b5061031f610743565b60405161032c9190610cc7565b60405180910390f35b348015610340575f80fd5b50610349610749565b6040516103569190610cc7565b60405180910390f35b34801561036a575f80fd5b5061037361074f565b6040516103809190610cc7565b60405180910390f35b348015610394575f80fd5b506103af60048036038101906103aa9190610d3e565b610755565b6040516103bc9190610d83565b60405180910390f35b3480156103d0575f80fd5b506103d96107f3565b6040516103e69190610d83565b60405180910390f35b6103f76108aa565b005b348015610404575f80fd5b5061040d610af4565b005b60095481565b60085481565b60075481565b600a602052805f5260405f205f915054906101000a900460ff1681565b5f805f90505f5b5f54811015610528575f805482600b5461045f9190610e46565b6104699190610ea6565b90505f600482815481106104805761047f610ed6565b5b905f5260205f20015f9054906101000a900473ffffffffffffffffffffffffffffffffffffffff169050600a5f8273ffffffffffffffffffffffffffffffffffffffff1673ffffffffffffffffffffffffffffffffffffffff1681526020019081526020015f205f9054906101000a900460ff16610519578094506001826105089190610e46565b600b81905550600193505050610528565b50508080600101915050610445565b5080610569576040517f08c379a000000000000000000000000000000000000000000000000000000000815260040161056090610f73565b60405180910390fd5b6001600a5f8473ffffffffffffffffffffffffffffffffffffffff1673ffffffffffffffffffffffffffffffffffffffff1681526020019081526020015f205f6101000a81548160ff0219169083151502179055505f4790505f8111610604576040517f08c379a00000000000000000000000000000000000000000000000000000000081526004016105fb90610fdb565b60405180910390fd5b5f8373ffffffffffffffffffffffffffffffffffffffff168260405161062990611026565b5f6040518083038185875af1925050503d805f8114610663576040519150601f19603f3d011682016040523d82523d5f602084013e610668565b606091505b50509050806106ac576040517f08c379a00000000000000000000000000000000000000000000000000000000081526004016106a390611084565b60405180910390fd5b62093a806003546106bd91906110a2565b60095f8282546106cd9190610e46565b9250508190555050505050565b6005602052805f5260405f205f915054906101000a900460ff1681565b600b5481565b5f5481565b60065481565b60048181548110610717575f80fd5b905f5260205f20015f915054906101000a900473ffffffffffffffffffffffffffffffffffffffff1681565b60025481565b60015481565b60035481565b5f805f90505b5f548110156107e9578273ffffffffffffffffffffffffffffffffffffffff166004828154811061078f5761078e610ed6565b5b905f5260205f20015f9054906101000a900473ffffffffffffffffffffffffffffffffffffffff1673ffffffffffffffffffffffffffffffffffffffff16036107dc5760019150506107ee565b808060010191505061075b565b505f90505b919050565b5f805f90505b5f548110156108a157600a5f6004838154811061081957610818610ed6565b5b905f5260205f20015f9054906101000a900473ffffffffffffffffffffffffffffffffffffffff1673ffffffffffffffffffffffffffffffffffffffff1673ffffffffffffffffffffffffffffffffffffffff1681526020019081526020015f205f9054906101000a900460ff16610894575f9150506108a7565b80806001019150506107f9565b50600190505b90565b6108b333610755565b6108f2576040517f08c379a00000000000000000000000000000000000000000000000000000000081526004016108e99061112d565b60405180910390fd5b60055f3373ffffffffffffffffffffffffffffffffffffffff1673ffffffffffffffffffffffffffffffffffffffff1681526020019081526020015f205f9054906101000a900460ff161561097c576040517f08c379a000000000000000000000000000000000000000000000000000000000815260040161097390611195565b60405180910390fd5b60025434146109c0576040517f08c379a00000000000000000000000000000000000000000000000000000000081526004016109b7906111fd565b60405180910390fd5b5f15156109cb6107f3565b151514610a0d576040517f08c379a0000000000000000000000000000000000000000000000000000000008152600401610a04906112d7565b60405180910390fd5b5f62093a80600154610a1f91906110a2565b905080600754610a2f9190610e46565b4210610a70576040517f08c379a0000000000000000000000000000000000000000000000000000000008152600401610a6790611365565b60405180910390fd5b600160055f3373ffffffffffffffffffffffffffffffffffffffff1673ffffffffffffffffffffffffffffffffffffffff1681526020019081526020015f205f6101000a81548160ff021916908315150217905550600160065f828254610ad79190610e46565b925050819055505f5460065403610af157610af0610af4565b5b50565b5f62093a80600154610b0691906110a2565b905080600754610b169190610e46565b42101580610b2657505f54600654145b610b65576040517f08c379a0000000000000000000000000000000000000000000000000000000008152600401610b5c906113cd565b60405180910390fd5b600160085f828254610b779190610e46565b925050819055505f5b5f54811015610c25575f60055f60048481548110610ba157610ba0610ed6565b5b905f5260205f20015f9054906101000a900473ffffffffffffffffffffffffffffffffffffffff1673ffffffffffffffffffffffffffffffffffffffff1673ffffffffffffffffffffffffffffffffffffffff1681526020019081526020015f205f6101000a81548160ff0219169083151502179055508080600101915050610b80565b505f6006819055504260078190555050565b5f82825260208201905092915050565b7f55736520636f6e74726962757465282920746f206465706f73697400000000005f82015250565b5f610c7b601b83610c37565b9150610c8682610c47565b602082019050919050565b5f6020820190508181035f830152610ca881610c6f565b9050919050565b5f819050919050565b610cc181610caf565b82525050565b5f602082019050610cda5f830184610cb8565b92915050565b5f80fd5b5f73ffffffffffffffffffffffffffffffffffffffff82169050919050565b5f610d0d82610ce4565b9050919050565b610d1d81610d03565b8114610d27575f80fd5b50565b5f81359050610d3881610d14565b92915050565b5f60208284031215610d5357610d52610ce0565b5b5f610d6084828501610d2a565b91505092915050565b5f8115159050919050565b610d7d81610d69565b82525050565b5f602082019050610d965f830184610d74565b92915050565b610da581610caf565b8114610daf575f80fd5b50565b5f81359050610dc081610d9c565b92915050565b5f60208284031215610ddb57610dda610ce0565b5b5f610de884828501610db2565b91505092915050565b610dfa81610d03565b82525050565b5f602082019050610e135f830184610df1565b92915050565b7f4e487b71000000000000000000000000000000000000000000000000000000005f52601160045260245ffd5b5f610e5082610caf565b9150610e5b83610caf565b9250828201905080821115610e7357610e72610e19565b5b92915050565b7f4e487b71000000000000000000000000000000000000000000000000000000005f52601260045260245ffd5b5f610eb082610caf565b9150610ebb83610caf565b925082610ecb57610eca610e79565b5b828206905092915050565b7f4e487b71000000000000000000000000000000000000000000000000000000005f52603260045260245ffd5b7f416c6c206d656d62657273206861766520616c7265616479206265656e2070615f8201527f6964000000000000000000000000000000000000000000000000000000000000602082015250565b5f610f5d602283610c37565b9150610f6882610f03565b604082019050919050565b5f6020820190508181035f830152610f8a81610f51565b9050919050565b7f4e6f2066756e647320746f2064697374726962757465000000000000000000005f82015250565b5f610fc5601683610c37565b9150610fd082610f91565b602082019050919050565b5f6020820190508181035f830152610ff281610fb9565b9050919050565b5f81905092915050565b50565b5f6110115f83610ff9565b915061101c82611003565b5f82019050919050565b5f61103082611006565b9150819050919050565b7f5472616e73666572206661696c656400000000000000000000000000000000005f82015250565b5f61106e600f83610c37565b91506110798261103a565b602082019050919050565b5f6020820190508181035f83015261109b81611062565b9050919050565b5f6110ac82610caf565b91506110b783610caf565b92508282026110c581610caf565b915082820484148315176110dc576110db610e19565b5b5092915050565b7f4e6f7420612072656769737465726564206d656d6265720000000000000000005f82015250565b5f611117601783610c37565b9150611122826110e3565b602082019050919050565b5f6020820190508181035f8301526111448161110b565b9050919050565b7f416c726561647920636f6e74726962757465642074686973206379636c6500005f82015250565b5f61117f601e83610c37565b915061118a8261114b565b602082019050919050565b5f6020820190508181035f8301526111ac81611173565b9050919050565b7f496e636f727265637420636f6e747269627574696f6e20616d6f756e740000005f82015250565b5f6111e7601d83610c37565b91506111f2826111b3565b602082019050919050565b5f6020820190508181035f830152611214816111db565b9050919050565b7f45766572796f6e6520686173206265656e2070616964206f7574206f6e63652e5f8201527f205468616e6b20796f7520666f722070617274696369706174696e672120526560208201527f73746172742061206e65772061677265656d656e7420696620796f752764206c60408201527f696b6520746f20636f6e74696e7565207769746820746869732054616e64612e606082015250565b5f6112c1608083610c37565b91506112cc8261121b565b608082019050919050565b5f6020820190508181035f8301526112ee816112b5565b9050919050565b7f436f6e747269627574696f6e2077696e646f7720666f722074686973206379635f8201527f6c6520697320636c6f7365640000000000000000000000000000000000000000602082015250565b5f61134f602c83610c37565b915061135a826112f5565b604082019050919050565b5f6020820190508181035f83015261137c81611343565b9050919050565b7f43616e6e6f742066696e616c697a65206379636c6520796574000000000000005f82015250565b5f6113b7601983610c37565b91506113c282611383565b602082019050919050565b5f6020820190508181035f8301526113e4816113ab565b905091905056fea26469706673582212207fd50eb5a99332bfaeb5560cbb50174f3cd0729ee4f40a669951c222409f076a64736f6c634300081a0033",
					"opcodes": "PUSH1 0x80 PUSH1 0x40 MSTORE CALLVALUE DUP1 ISZERO PUSH2 0xF JUMPI PUSH0 DUP1 REVERT JUMPDEST POP PUSH1 0x40 MLOAD PUSH2 0x1A8D CODESIZE SUB DUP1 PUSH2 0x1A8D DUP4 CODECOPY DUP2 DUP2 ADD PUSH1 0x40 MSTORE DUP2 ADD SWAP1 PUSH2 0x31 SWAP2 SWAP1 PUSH2 0x41E JUMP JUMPDEST DUP5 DUP2 MLOAD EQ PUSH2 0x74 JUMPI PUSH1 0x40 MLOAD PUSH32 0x8C379A000000000000000000000000000000000000000000000000000000000 DUP2 MSTORE PUSH1 0x4 ADD PUSH2 0x6B SWAP1 PUSH2 0x50B JUMP JUMPDEST PUSH1 0x40 MLOAD DUP1 SWAP2 SUB SWAP1 REVERT JUMPDEST PUSH0 JUMPDEST DUP6 DUP2 LT ISZERO PUSH2 0x113 JUMPI PUSH0 PUSH20 0xFFFFFFFFFFFFFFFFFFFFFFFFFFFFFFFFFFFFFFFF AND DUP3 DUP3 DUP2 MLOAD DUP2 LT PUSH2 0xA8 JUMPI PUSH2 0xA7 PUSH2 0x529 JUMP JUMPDEST JUMPDEST PUSH1 0x20 MUL PUSH1 0x20 ADD ADD MLOAD PUSH20 0xFFFFFFFFFFFFFFFFFFFFFFFFFFFFFFFFFFFFFFFF AND SUB PUSH2 0x106 JUMPI PUSH1 0x40 MLOAD PUSH32 0x8C379A000000000000000000000000000000000000000000000000000000000 DUP2 MSTORE PUSH1 0x4 ADD PUSH2 0xFD SWAP1 PUSH2 0x5A0 JUMP JUMPDEST PUSH1 0x40 MLOAD DUP1 SWAP2 SUB SWAP1 REVERT JUMPDEST DUP1 DUP1 PUSH1 0x1 ADD SWAP2 POP POP PUSH2 0x76 JUMP JUMPDEST POP DUP5 PUSH0 DUP2 SWAP1 SSTORE POP DUP4 PUSH1 0x1 DUP2 SWAP1 SSTORE POP DUP3 PUSH1 0x3 DUP2 SWAP1 SSTORE POP DUP2 PUSH1 0x2 DUP2 SWAP1 SSTORE POP DUP1 PUSH1 0x4 SWAP1 DUP1 MLOAD SWAP1 PUSH1 0x20 ADD SWAP1 PUSH2 0x145 SWAP3 SWAP2 SWAP1 PUSH2 0x18E JUMP JUMPDEST POP TIMESTAMP PUSH1 0x7 DUP2 SWAP1 SSTORE POP PUSH3 0x93A80 PUSH1 0x3 SLOAD PUSH2 0x15E SWAP2 SWAP1 PUSH2 0x5EB JUMP JUMPDEST TIMESTAMP PUSH2 0x169 SWAP2 SWAP1 PUSH2 0x62C JUMP JUMPDEST PUSH1 0x9 DUP2 SWAP1 SSTORE POP PUSH0 PUSH1 0x8 DUP2 SWAP1 SSTORE POP PUSH0 PUSH1 0x6 DUP2 SWAP1 SSTORE POP PUSH0 PUSH1 0xB DUP2 SWAP1 SSTORE POP POP POP POP POP POP PUSH2 0x65F JUMP JUMPDEST DUP3 DUP1 SLOAD DUP3 DUP3 SSTORE SWAP1 PUSH0 MSTORE PUSH1 0x20 PUSH0 KECCAK256 SWAP1 DUP2 ADD SWAP3 DUP3 ISZERO PUSH2 0x204 JUMPI SWAP2 PUSH1 0x20 MUL DUP3 ADD JUMPDEST DUP3 DUP2 GT ISZERO PUSH2 0x203 JUMPI DUP3 MLOAD DUP3 PUSH0 PUSH2 0x100 EXP DUP2 SLOAD DUP2 PUSH20 0xFFFFFFFFFFFFFFFFFFFFFFFFFFFFFFFFFFFFFFFF MUL NOT AND SWAP1 DUP4 PUSH20 0xFFFFFFFFFFFFFFFFFFFFFFFFFFFFFFFFFFFFFFFF AND MUL OR SWAP1 SSTORE POP SWAP2 PUSH1 0x20 ADD SWAP2 SWAP1 PUSH1 0x1 ADD SWAP1 PUSH2 0x1AC JUMP JUMPDEST JUMPDEST POP SWAP1 POP PUSH2 0x211 SWAP2 SWAP1 PUSH2 0x215 JUMP JUMPDEST POP SWAP1 JUMP JUMPDEST JUMPDEST DUP1 DUP3 GT ISZERO PUSH2 0x22C JUMPI PUSH0 DUP2 PUSH0 SWAP1 SSTORE POP PUSH1 0x1 ADD PUSH2 0x216 JUMP JUMPDEST POP SWAP1 JUMP JUMPDEST PUSH0 PUSH1 0x40 MLOAD SWAP1 POP SWAP1 JUMP JUMPDEST PUSH0 DUP1 REVERT JUMPDEST PUSH0 DUP1 REVERT JUMPDEST PUSH0 DUP2 SWAP1 POP SWAP2 SWAP1 POP JUMP JUMPDEST PUSH2 0x253 DUP2 PUSH2 0x241 JUMP JUMPDEST DUP2 EQ PUSH2 0x25D JUMPI PUSH0 DUP1 REVERT JUMPDEST POP JUMP JUMPDEST PUSH0 DUP2 MLOAD SWAP1 POP PUSH2 0x26E DUP2 PUSH2 0x24A JUMP JUMPDEST SWAP3 SWAP2 POP POP JUMP JUMPDEST PUSH0 DUP1 REVERT JUMPDEST PUSH0 PUSH1 0x1F NOT PUSH1 0x1F DUP4 ADD AND SWAP1 POP SWAP2 SWAP1 POP JUMP JUMPDEST PUSH32 0x4E487B7100000000000000000000000000000000000000000000000000000000 PUSH0 MSTORE PUSH1 0x41 PUSH1 0x4 MSTORE PUSH1 0x24 PUSH0 REVERT JUMPDEST PUSH2 0x2BE DUP3 PUSH2 0x278 JUMP JUMPDEST DUP2 ADD DUP2 DUP2 LT PUSH8 0xFFFFFFFFFFFFFFFF DUP3 GT OR ISZERO PUSH2 0x2DD JUMPI PUSH2 0x2DC PUSH2 0x288 JUMP JUMPDEST JUMPDEST DUP1 PUSH1 0x40 MSTORE POP POP POP JUMP JUMPDEST PUSH0 PUSH2 0x2EF PUSH2 0x230 JUMP JUMPDEST SWAP1 POP PUSH2 0x2FB DUP3 DUP3 PUSH2 0x2B5 JUMP JUMPDEST SWAP2 SWAP1 POP JUMP JUMPDEST PUSH0 PUSH8 0xFFFFFFFFFFFFFFFF DUP3 GT ISZERO PUSH2 0x31A JUMPI PUSH2 0x319 PUSH2 0x288 JUMP JUMPDEST JUMPDEST PUSH1 0x20 DUP3 MUL SWAP1 POP PUSH1 0x20 DUP2 ADD SWAP1 POP SWAP2 SWAP1 POP JUMP JUMPDEST PUSH0 DUP1 REVERT JUMPDEST PUSH0 PUSH20 0xFFFFFFFFFFFFFFFFFFFFFFFFFFFFFFFFFFFFFFFF DUP3 AND SWAP1 POP SWAP2 SWAP1 POP JUMP JUMPDEST PUSH0 PUSH2 0x358 DUP3 PUSH2 0x32F JUMP JUMPDEST SWAP1 POP SWAP2 SWAP1 POP JUMP JUMPDEST PUSH2 0x368 DUP2 PUSH2 0x34E JUMP JUMPDEST DUP2 EQ PUSH2 0x372 JUMPI PUSH0 DUP1 REVERT JUMPDEST POP JUMP JUMPDEST PUSH0 DUP2 MLOAD SWAP1 POP PUSH2 0x383 DUP2 PUSH2 0x35F JUMP JUMPDEST SWAP3 SWAP2 POP POP JUMP JUMPDEST PUSH0 PUSH2 0x39B PUSH2 0x396 DUP5 PUSH2 0x300 JUMP JUMPDEST PUSH2 0x2E6 JUMP JUMPDEST SWAP1 POP DUP1 DUP4 DUP3 MSTORE PUSH1 0x20 DUP3 ADD SWAP1 POP PUSH1 0x20 DUP5 MUL DUP4 ADD DUP6 DUP2 GT ISZERO PUSH2 0x3BE JUMPI PUSH2 0x3BD PUSH2 0x32B JUMP JUMPDEST JUMPDEST DUP4 JUMPDEST DUP2 DUP2 LT ISZERO PUSH2 0x3E7 JUMPI DUP1 PUSH2 0x3D3 DUP9 DUP3 PUSH2 0x375 JUMP JUMPDEST DUP5 MSTORE PUSH1 0x20 DUP5 ADD SWAP4 POP POP PUSH1 0x20 DUP2 ADD SWAP1 POP PUSH2 0x3C0 JUMP JUMPDEST POP POP POP SWAP4 SWAP3 POP POP POP JUMP JUMPDEST PUSH0 DUP3 PUSH1 0x1F DUP4 ADD SLT PUSH2 0x405 JUMPI PUSH2 0x404 PUSH2 0x274 JUMP JUMPDEST JUMPDEST DUP2 MLOAD PUSH2 0x415 DUP5 DUP3 PUSH1 0x20 DUP7 ADD PUSH2 0x389 JUMP JUMPDEST SWAP2 POP POP SWAP3 SWAP2 POP POP JUMP JUMPDEST PUSH0 DUP1 PUSH0 DUP1 PUSH0 PUSH1 0xA0 DUP7 DUP9 SUB SLT ISZERO PUSH2 0x437 JUMPI PUSH2 0x436 PUSH2 0x239 JUMP JUMPDEST JUMPDEST PUSH0 PUSH2 0x444 DUP9 DUP3 DUP10 ADD PUSH2 0x260 JUMP JUMPDEST SWAP6 POP POP PUSH1 0x20 PUSH2 0x455 DUP9 DUP3 DUP10 ADD PUSH2 0x260 JUMP JUMPDEST SWAP5 POP POP PUSH1 0x40 PUSH2 0x466 DUP9 DUP3 DUP10 ADD PUSH2 0x260 JUMP JUMPDEST SWAP4 POP POP PUSH1 0x60 PUSH2 0x477 DUP9 DUP3 DUP10 ADD PUSH2 0x260 JUMP JUMPDEST SWAP3 POP POP PUSH1 0x80 DUP7 ADD MLOAD PUSH8 0xFFFFFFFFFFFFFFFF DUP2 GT ISZERO PUSH2 0x498 JUMPI PUSH2 0x497 PUSH2 0x23D JUMP JUMPDEST JUMPDEST PUSH2 0x4A4 DUP9 DUP3 DUP10 ADD PUSH2 0x3F1 JUMP JUMPDEST SWAP2 POP POP SWAP3 SWAP6 POP SWAP3 SWAP6 SWAP1 SWAP4 POP JUMP JUMPDEST PUSH0 DUP3 DUP3 MSTORE PUSH1 0x20 DUP3 ADD SWAP1 POP SWAP3 SWAP2 POP POP JUMP JUMPDEST PUSH32 0x4D656D626572732061727261792073697A65206D69736D617463680000000000 PUSH0 DUP3 ADD MSTORE POP JUMP JUMPDEST PUSH0 PUSH2 0x4F5 PUSH1 0x1B DUP4 PUSH2 0x4B1 JUMP JUMPDEST SWAP2 POP PUSH2 0x500 DUP3 PUSH2 0x4C1 JUMP JUMPDEST PUSH1 0x20 DUP3 ADD SWAP1 POP SWAP2 SWAP1 POP JUMP JUMPDEST PUSH0 PUSH1 0x20 DUP3 ADD SWAP1 POP DUP2 DUP2 SUB PUSH0 DUP4 ADD MSTORE PUSH2 0x522 DUP2 PUSH2 0x4E9 JUMP JUMPDEST SWAP1 POP SWAP2 SWAP1 POP JUMP JUMPDEST PUSH32 0x4E487B7100000000000000000000000000000000000000000000000000000000 PUSH0 MSTORE PUSH1 0x32 PUSH1 0x4 MSTORE PUSH1 0x24 PUSH0 REVERT JUMPDEST PUSH32 0x496E76616C6964206D656D626572206164647265737300000000000000000000 PUSH0 DUP3 ADD MSTORE POP JUMP JUMPDEST PUSH0 PUSH2 0x58A PUSH1 0x16 DUP4 PUSH2 0x4B1 JUMP JUMPDEST SWAP2 POP PUSH2 0x595 DUP3 PUSH2 0x556 JUMP JUMPDEST PUSH1 0x20 DUP3 ADD SWAP1 POP SWAP2 SWAP1 POP JUMP JUMPDEST PUSH0 PUSH1 0x20 DUP3 ADD SWAP1 POP DUP2 DUP2 SUB PUSH0 DUP4 ADD MSTORE PUSH2 0x5B7 DUP2 PUSH2 0x57E JUMP JUMPDEST SWAP1 POP SWAP2 SWAP1 POP JUMP JUMPDEST PUSH32 0x4E487B7100000000000000000000000000000000000000000000000000000000 PUSH0 MSTORE PUSH1 0x11 PUSH1 0x4 MSTORE PUSH1 0x24 PUSH0 REVERT JUMPDEST PUSH0 PUSH2 0x5F5 DUP3 PUSH2 0x241 JUMP JUMPDEST SWAP2 POP PUSH2 0x600 DUP4 PUSH2 0x241 JUMP JUMPDEST SWAP3 POP DUP3 DUP3 MUL PUSH2 0x60E DUP2 PUSH2 0x241 JUMP JUMPDEST SWAP2 POP DUP3 DUP3 DIV DUP5 EQ DUP4 ISZERO OR PUSH2 0x625 JUMPI PUSH2 0x624 PUSH2 0x5BE JUMP JUMPDEST JUMPDEST POP SWAP3 SWAP2 POP POP JUMP JUMPDEST PUSH0 PUSH2 0x636 DUP3 PUSH2 0x241 JUMP JUMPDEST SWAP2 POP PUSH2 0x641 DUP4 PUSH2 0x241 JUMP JUMPDEST SWAP3 POP DUP3 DUP3 ADD SWAP1 POP DUP1 DUP3 GT ISZERO PUSH2 0x659 JUMPI PUSH2 0x658 PUSH2 0x5BE JUMP JUMPDEST JUMPDEST SWAP3 SWAP2 POP POP JUMP JUMPDEST PUSH2 0x1421 DUP1 PUSH2 0x66C PUSH0 CODECOPY PUSH0 RETURN INVALID PUSH1 0x80 PUSH1 0x40 MSTORE PUSH1 0x4 CALLDATASIZE LT PUSH2 0x101 JUMPI PUSH0 CALLDATALOAD PUSH1 0xE0 SHR DUP1 PUSH4 0x50A644D1 GT PUSH2 0x94 JUMPI DUP1 PUSH4 0x9172E5C2 GT PUSH2 0x63 JUMPI DUP1 PUSH4 0x9172E5C2 EQ PUSH2 0x35F JUMPI DUP1 PUSH4 0xA230C524 EQ PUSH2 0x389 JUMPI DUP1 PUSH4 0xC74E7261 EQ PUSH2 0x3C5 JUMPI DUP1 PUSH4 0xD7BB99BA EQ PUSH2 0x3EF JUMPI DUP1 PUSH4 0xEC33D2A0 EQ PUSH2 0x3F9 JUMPI PUSH2 0x141 JUMP JUMPDEST DUP1 PUSH4 0x50A644D1 EQ PUSH2 0x2A5 JUMPI DUP1 PUSH4 0x5DAF08CA EQ PUSH2 0x2CF JUMPI DUP1 PUSH4 0x5FA0B65F EQ PUSH2 0x30B JUMPI DUP1 PUSH4 0x8D0AA1B2 EQ PUSH2 0x335 JUMPI PUSH2 0x141 JUMP JUMPDEST DUP1 PUSH4 0x35CD4B46 GT PUSH2 0xD0 JUMPI DUP1 PUSH4 0x35CD4B46 EQ PUSH2 0x1FF JUMPI DUP1 PUSH4 0x368D6EB7 EQ PUSH2 0x215 JUMPI DUP1 PUSH4 0x3FE071BE EQ PUSH2 0x251 JUMPI DUP1 PUSH4 0x4698D110 EQ PUSH2 0x27B JUMPI PUSH2 0x141 JUMP JUMPDEST DUP1 PUSH4 0x91FB010 EQ PUSH2 0x145 JUMPI DUP1 PUSH4 0x316FDA0F EQ PUSH2 0x16F JUMPI DUP1 PUSH4 0x335E536C EQ PUSH2 0x199 JUMPI DUP1 PUSH4 0x346477C7 EQ PUSH2 0x1C3 JUMPI PUSH2 0x141 JUMP JUMPDEST CALLDATASIZE PUSH2 0x141 JUMPI PUSH1 0x40 MLOAD PUSH32 0x8C379A000000000000000000000000000000000000000000000000000000000 DUP2 MSTORE PUSH1 0x4 ADD PUSH2 0x138 SWAP1 PUSH2 0xC91 JUMP JUMPDEST PUSH1 0x40 MLOAD DUP1 SWAP2 SUB SWAP1 REVERT JUMPDEST PUSH0 DUP1 REVERT JUMPDEST CALLVALUE DUP1 ISZERO PUSH2 0x150 JUMPI PUSH0 DUP1 REVERT JUMPDEST POP PUSH2 0x159 PUSH2 0x40F JUMP JUMPDEST PUSH1 0x40 MLOAD PUSH2 0x166 SWAP2 SWAP1 PUSH2 0xCC7 JUMP JUMPDEST PUSH1 0x40 MLOAD DUP1 SWAP2 SUB SWAP1 RETURN JUMPDEST CALLVALUE DUP1 ISZERO PUSH2 0x17A JUMPI PUSH0 DUP1 REVERT JUMPDEST POP PUSH2 0x183 PUSH2 0x415 JUMP JUMPDEST PUSH1 0x40 MLOAD PUSH2 0x190 SWAP2 SWAP1 PUSH2 0xCC7 JUMP JUMPDEST PUSH1 0x40 MLOAD DUP1 SWAP2 SUB SWAP1 RETURN JUMPDEST CALLVALUE DUP1 ISZERO PUSH2 0x1A4 JUMPI PUSH0 DUP1 REVERT JUMPDEST POP PUSH2 0x1AD PUSH2 0x41B JUMP JUMPDEST PUSH1 0x40 MLOAD PUSH2 0x1BA SWAP2 SWAP1 PUSH2 0xCC7 JUMP JUMPDEST PUSH1 0x40 MLOAD DUP1 SWAP2 SUB SWAP1 RETURN JUMPDEST CALLVALUE DUP1 ISZERO PUSH2 0x1CE JUMPI PUSH0 DUP1 REVERT JUMPDEST POP PUSH2 0x1E9 PUSH1 0x4 DUP1 CALLDATASIZE SUB DUP2 ADD SWAP1 PUSH2 0x1E4 SWAP2 SWAP1 PUSH2 0xD3E JUMP JUMPDEST PUSH2 0x421 JUMP JUMPDEST PUSH1 0x40 MLOAD PUSH2 0x1F6 SWAP2 SWAP1 PUSH2 0xD83 JUMP JUMPDEST PUSH1 0x40 MLOAD DUP1 SWAP2 SUB SWAP1 RETURN JUMPDEST CALLVALUE DUP1 ISZERO PUSH2 0x20A JUMPI PUSH0 DUP1 REVERT JUMPDEST POP PUSH2 0x213 PUSH2 0x43E JUMP JUMPDEST STOP JUMPDEST CALLVALUE DUP1 ISZERO PUSH2 0x220 JUMPI PUSH0 DUP1 REVERT JUMPDEST POP PUSH2 0x23B PUSH1 0x4 DUP1 CALLDATASIZE SUB DUP2 ADD SWAP1 PUSH2 0x236 SWAP2 SWAP1 PUSH2 0xD3E JUMP JUMPDEST PUSH2 0x6DA JUMP JUMPDEST PUSH1 0x40 MLOAD PUSH2 0x248 SWAP2 SWAP1 PUSH2 0xD83 JUMP JUMPDEST PUSH1 0x40 MLOAD DUP1 SWAP2 SUB SWAP1 RETURN JUMPDEST CALLVALUE DUP1 ISZERO PUSH2 0x25C JUMPI PUSH0 DUP1 REVERT JUMPDEST POP PUSH2 0x265 PUSH2 0x6F7 JUMP JUMPDEST PUSH1 0x40 MLOAD PUSH2 0x272 SWAP2 SWAP1 PUSH2 0xCC7 JUMP JUMPDEST PUSH1 0x40 MLOAD DUP1 SWAP2 SUB SWAP1 RETURN JUMPDEST CALLVALUE DUP1 ISZERO PUSH2 0x286 JUMPI PUSH0 DUP1 REVERT JUMPDEST POP PUSH2 0x28F PUSH2 0x6FD JUMP JUMPDEST PUSH1 0x40 MLOAD PUSH2 0x29C SWAP2 SWAP1 PUSH2 0xCC7 JUMP JUMPDEST PUSH1 0x40 MLOAD DUP1 SWAP2 SUB SWAP1 RETURN JUMPDEST CALLVALUE DUP1 ISZERO PUSH2 0x2B0 JUMPI PUSH0 DUP1 REVERT JUMPDEST POP PUSH2 0x2B9 PUSH2 0x702 JUMP JUMPDEST PUSH1 0x40 MLOAD PUSH2 0x2C6 SWAP2 SWAP1 PUSH2 0xCC7 JUMP JUMPDEST PUSH1 0x40 MLOAD DUP1 SWAP2 SUB SWAP1 RETURN JUMPDEST CALLVALUE DUP1 ISZERO PUSH2 0x2DA JUMPI PUSH0 DUP1 REVERT JUMPDEST POP PUSH2 0x2F5 PUSH1 0x4 DUP1 CALLDATASIZE SUB DUP2 ADD SWAP1 PUSH2 0x2F0 SWAP2 SWAP1 PUSH2 0xDC6 JUMP JUMPDEST PUSH2 0x708 JUMP JUMPDEST PUSH1 0x40 MLOAD PUSH2 0x302 SWAP2 SWAP1 PUSH2 0xE00 JUMP JUMPDEST PUSH1 0x40 MLOAD DUP1 SWAP2 SUB SWAP1 RETURN JUMPDEST CALLVALUE DUP1 ISZERO PUSH2 0x316 JUMPI PUSH0 DUP1 REVERT JUMPDEST POP PUSH2 0x31F PUSH2 0x743 JUMP JUMPDEST PUSH1 0x40 MLOAD PUSH2 0x32C SWAP2 SWAP1 PUSH2 0xCC7 JUMP JUMPDEST PUSH1 0x40 MLOAD DUP1 SWAP2 SUB SWAP1 RETURN JUMPDEST CALLVALUE DUP1 ISZERO PUSH2 0x340 JUMPI PUSH0 DUP1 REVERT JUMPDEST POP PUSH2 0x349 PUSH2 0x749 JUMP JUMPDEST PUSH1 0x40 MLOAD PUSH2 0x356 SWAP2 SWAP1 PUSH2 0xCC7 JUMP JUMPDEST PUSH1 0x40 MLOAD DUP1 SWAP2 SUB SWAP1 RETURN JUMPDEST CALLVALUE DUP1 ISZERO PUSH2 0x36A JUMPI PUSH0 DUP1 REVERT JUMPDEST POP PUSH2 0x373 PUSH2 0x74F JUMP JUMPDEST PUSH1 0x40 MLOAD PUSH2 0x380 SWAP2 SWAP1 PUSH2 0xCC7 JUMP JUMPDEST PUSH1 0x40 MLOAD DUP1 SWAP2 SUB SWAP1 RETURN JUMPDEST CALLVALUE DUP1 ISZERO PUSH2 0x394 JUMPI PUSH0 DUP1 REVERT JUMPDEST POP PUSH2 0x3AF PUSH1 0x4 DUP1 CALLDATASIZE SUB DUP2 ADD SWAP1 PUSH2 0x3AA SWAP2 SWAP1 PUSH2 0xD3E JUMP JUMPDEST PUSH2 0x755 JUMP JUMPDEST PUSH1 0x40 MLOAD PUSH2 0x3BC SWAP2 SWAP1 PUSH2 0xD83 JUMP JUMPDEST PUSH1 0x40 MLOAD DUP1 SWAP2 SUB SWAP1 RETURN JUMPDEST CALLVALUE DUP1 ISZERO PUSH2 0x3D0 JUMPI PUSH0 DUP1 REVERT JUMPDEST POP PUSH2 0x3D9 PUSH2 0x7F3 JUMP JUMPDEST PUSH1 0x40 MLOAD PUSH2 0x3E6 SWAP2 SWAP1 PUSH2 0xD83 JUMP JUMPDEST PUSH1 0x40 MLOAD DUP1 SWAP2 SUB SWAP1 RETURN JUMPDEST PUSH2 0x3F7 PUSH2 0x8AA JUMP JUMPDEST STOP JUMPDEST CALLVALUE DUP1 ISZERO PUSH2 0x404 JUMPI PUSH0 DUP1 REVERT JUMPDEST POP PUSH2 0x40D PUSH2 0xAF4 JUMP JUMPDEST STOP JUMPDEST PUSH1 0x9 SLOAD DUP2 JUMP JUMPDEST PUSH1 0x8 SLOAD DUP2 JUMP JUMPDEST PUSH1 0x7 SLOAD DUP2 JUMP JUMPDEST PUSH1 0xA PUSH1 0x20 MSTORE DUP1 PUSH0 MSTORE PUSH1 0x40 PUSH0 KECCAK256 PUSH0 SWAP2 POP SLOAD SWAP1 PUSH2 0x100 EXP SWAP1 DIV PUSH1 0xFF AND DUP2 JUMP JUMPDEST PUSH0 DUP1 PUSH0 SWAP1 POP PUSH0 JUMPDEST PUSH0 SLOAD DUP2 LT ISZERO PUSH2 0x528 JUMPI PUSH0 DUP1 SLOAD DUP3 PUSH1 0xB SLOAD PUSH2 0x45F SWAP2 SWAP1 PUSH2 0xE46 JUMP JUMPDEST PUSH2 0x469 SWAP2 SWAP1 PUSH2 0xEA6 JUMP JUMPDEST SWAP1 POP PUSH0 PUSH1 0x4 DUP3 DUP2 SLOAD DUP2 LT PUSH2 0x480 JUMPI PUSH2 0x47F PUSH2 0xED6 JUMP JUMPDEST JUMPDEST SWAP1 PUSH0 MSTORE PUSH1 0x20 PUSH0 KECCAK256 ADD PUSH0 SWAP1 SLOAD SWAP1 PUSH2 0x100 EXP SWAP1 DIV PUSH20 0xFFFFFFFFFFFFFFFFFFFFFFFFFFFFFFFFFFFFFFFF AND SWAP1 POP PUSH1 0xA PUSH0 DUP3 PUSH20 0xFFFFFFFFFFFFFFFFFFFFFFFFFFFFFFFFFFFFFFFF AND PUSH20 0xFFFFFFFFFFFFFFFFFFFFFFFFFFFFFFFFFFFFFFFF AND DUP2 MSTORE PUSH1 0x20 ADD SWAP1 DUP2 MSTORE PUSH1 0x20 ADD PUSH0 KECCAK256 PUSH0 SWAP1 SLOAD SWAP1 PUSH2 0x100 EXP SWAP1 DIV PUSH1 0xFF AND PUSH2 0x519 JUMPI DUP1 SWAP5 POP PUSH1 0x1 DUP3 PUSH2 0x508 SWAP2 SWAP1 PUSH2 0xE46 JUMP JUMPDEST PUSH1 0xB DUP2 SWAP1 SSTORE POP PUSH1 0x1 SWAP4 POP POP POP PUSH2 0x528 JUMP JUMPDEST POP POP DUP1 DUP1 PUSH1 0x1 ADD SWAP2 POP POP PUSH2 0x445 JUMP JUMPDEST POP DUP1 PUSH2 0x569 JUMPI PUSH1 0x40 MLOAD PUSH32 0x8C379A000000000000000000000000000000000000000000000000000000000 DUP2 MSTORE PUSH1 0x4 ADD PUSH2 0x560 SWAP1 PUSH2 0xF73 JUMP JUMPDEST PUSH1 0x40 MLOAD DUP1 SWAP2 SUB SWAP1 REVERT JUMPDEST PUSH1 0x1 PUSH1 0xA PUSH0 DUP5 PUSH20 0xFFFFFFFFFFFFFFFFFFFFFFFFFFFFFFFFFFFFFFFF AND PUSH20 0xFFFFFFFFFFFFFFFFFFFFFFFFFFFFFFFFFFFFFFFF AND DUP2 MSTORE PUSH1 0x20 ADD SWAP1 DUP2 MSTORE PUSH1 0x20 ADD PUSH0 KECCAK256 PUSH0 PUSH2 0x100 EXP DUP2 SLOAD DUP2 PUSH1 0xFF MUL NOT AND SWAP1 DUP4 ISZERO ISZERO MUL OR SWAP1 SSTORE POP PUSH0 SELFBALANCE SWAP1 POP PUSH0 DUP2 GT PUSH2 0x604 JUMPI PUSH1 0x40 MLOAD PUSH32 0x8C379A000000000000000000000000000000000000000000000000000000000 DUP2 MSTORE PUSH1 0x4 ADD PUSH2 0x5FB SWAP1 PUSH2 0xFDB JUMP JUMPDEST PUSH1 0x40 MLOAD DUP1 SWAP2 SUB SWAP1 REVERT JUMPDEST PUSH0 DUP4 PUSH20 0xFFFFFFFFFFFFFFFFFFFFFFFFFFFFFFFFFFFFFFFF AND DUP3 PUSH1 0x40 MLOAD PUSH2 0x629 SWAP1 PUSH2 0x1026 JUMP JUMPDEST PUSH0 PUSH1 0x40 MLOAD DUP1 DUP4 SUB DUP2 DUP6 DUP8 GAS CALL SWAP3 POP POP POP RETURNDATASIZE DUP1 PUSH0 DUP2 EQ PUSH2 0x663 JUMPI PUSH1 0x40 MLOAD SWAP2 POP PUSH1 0x1F NOT PUSH1 0x3F RETURNDATASIZE ADD AND DUP3 ADD PUSH1 0x40 MSTORE RETURNDATASIZE DUP3 MSTORE RETURNDATASIZE PUSH0 PUSH1 0x20 DUP5 ADD RETURNDATACOPY PUSH2 0x668 JUMP JUMPDEST PUSH1 0x60 SWAP2 POP JUMPDEST POP POP SWAP1 POP DUP1 PUSH2 0x6AC JUMPI PUSH1 0x40 MLOAD PUSH32 0x8C379A000000000000000000000000000000000000000000000000000000000 DUP2 MSTORE PUSH1 0x4 ADD PUSH2 0x6A3 SWAP1 PUSH2 0x1084 JUMP JUMPDEST PUSH1 0x40 MLOAD DUP1 SWAP2 SUB SWAP1 REVERT JUMPDEST PUSH3 0x93A80 PUSH1 0x3 SLOAD PUSH2 0x6BD SWAP2 SWAP1 PUSH2 0x10A2 JUMP JUMPDEST PUSH1 0x9 PUSH0 DUP3 DUP3 SLOAD PUSH2 0x6CD SWAP2 SWAP1 PUSH2 0xE46 JUMP JUMPDEST SWAP3 POP POP DUP2 SWAP1 SSTORE POP POP POP POP POP JUMP JUMPDEST PUSH1 0x5 PUSH1 0x20 MSTORE DUP1 PUSH0 MSTORE PUSH1 0x40 PUSH0 KECCAK256 PUSH0 SWAP2 POP SLOAD SWAP1 PUSH2 0x100 EXP SWAP1 DIV PUSH1 0xFF AND DUP2 JUMP JUMPDEST PUSH1 0xB SLOAD DUP2 JUMP JUMPDEST PUSH0 SLOAD DUP2 JUMP JUMPDEST PUSH1 0x6 SLOAD DUP2 JUMP JUMPDEST PUSH1 0x4 DUP2 DUP2 SLOAD DUP2 LT PUSH2 0x717 JUMPI PUSH0 DUP1 REVERT JUMPDEST SWAP1 PUSH0 MSTORE PUSH1 0x20 PUSH0 KECCAK256 ADD PUSH0 SWAP2 POP SLOAD SWAP1 PUSH2 0x100 EXP SWAP1 DIV PUSH20 0xFFFFFFFFFFFFFFFFFFFFFFFFFFFFFFFFFFFFFFFF AND DUP2 JUMP JUMPDEST PUSH1 0x2 SLOAD DUP2 JUMP JUMPDEST PUSH1 0x1 SLOAD DUP2 JUMP JUMPDEST PUSH1 0x3 SLOAD DUP2 JUMP JUMPDEST PUSH0 DUP1 PUSH0 SWAP1 POP JUMPDEST PUSH0 SLOAD DUP2 LT ISZERO PUSH2 0x7E9 JUMPI DUP3 PUSH20 0xFFFFFFFFFFFFFFFFFFFFFFFFFFFFFFFFFFFFFFFF AND PUSH1 0x4 DUP3 DUP2 SLOAD DUP2 LT PUSH2 0x78F JUMPI PUSH2 0x78E PUSH2 0xED6 JUMP JUMPDEST JUMPDEST SWAP1 PUSH0 MSTORE PUSH1 0x20 PUSH0 KECCAK256 ADD PUSH0 SWAP1 SLOAD SWAP1 PUSH2 0x100 EXP SWAP1 DIV PUSH20 0xFFFFFFFFFFFFFFFFFFFFFFFFFFFFFFFFFFFFFFFF AND PUSH20 0xFFFFFFFFFFFFFFFFFFFFFFFFFFFFFFFFFFFFFFFF AND SUB PUSH2 0x7DC JUMPI PUSH1 0x1 SWAP2 POP POP PUSH2 0x7EE JUMP JUMPDEST DUP1 DUP1 PUSH1 0x1 ADD SWAP2 POP POP PUSH2 0x75B JUMP JUMPDEST POP PUSH0 SWAP1 POP JUMPDEST SWAP2 SWAP1 POP JUMP JUMPDEST PUSH0 DUP1 PUSH0 SWAP1 POP JUMPDEST PUSH0 SLOAD DUP2 LT ISZERO PUSH2 0x8A1 JUMPI PUSH1 0xA PUSH0 PUSH1 0x4 DUP4 DUP2 SLOAD DUP2 LT PUSH2 0x819 JUMPI PUSH2 0x818 PUSH2 0xED6 JUMP JUMPDEST JUMPDEST SWAP1 PUSH0 MSTORE PUSH1 0x20 PUSH0 KECCAK256 ADD PUSH0 SWAP1 SLOAD SWAP1 PUSH2 0x100 EXP SWAP1 DIV PUSH20 0xFFFFFFFFFFFFFFFFFFFFFFFFFFFFFFFFFFFFFFFF AND PUSH20 0xFFFFFFFFFFFFFFFFFFFFFFFFFFFFFFFFFFFFFFFF AND PUSH20 0xFFFFFFFFFFFFFFFFFFFFFFFFFFFFFFFFFFFFFFFF AND DUP2 MSTORE PUSH1 0x20 ADD SWAP1 DUP2 MSTORE PUSH1 0x20 ADD PUSH0 KECCAK256 PUSH0 SWAP1 SLOAD SWAP1 PUSH2 0x100 EXP SWAP1 DIV PUSH1 0xFF AND PUSH2 0x894 JUMPI PUSH0 SWAP2 POP POP PUSH2 0x8A7 JUMP JUMPDEST DUP1 DUP1 PUSH1 0x1 ADD SWAP2 POP POP PUSH2 0x7F9 JUMP JUMPDEST POP PUSH1 0x1 SWAP1 POP JUMPDEST SWAP1 JUMP JUMPDEST PUSH2 0x8B3 CALLER PUSH2 0x755 JUMP JUMPDEST PUSH2 0x8F2 JUMPI PUSH1 0x40 MLOAD PUSH32 0x8C379A000000000000000000000000000000000000000000000000000000000 DUP2 MSTORE PUSH1 0x4 ADD PUSH2 0x8E9 SWAP1 PUSH2 0x112D JUMP JUMPDEST PUSH1 0x40 MLOAD DUP1 SWAP2 SUB SWAP1 REVERT JUMPDEST PUSH1 0x5 PUSH0 CALLER PUSH20 0xFFFFFFFFFFFFFFFFFFFFFFFFFFFFFFFFFFFFFFFF AND PUSH20 0xFFFFFFFFFFFFFFFFFFFFFFFFFFFFFFFFFFFFFFFF AND DUP2 MSTORE PUSH1 0x20 ADD SWAP1 DUP2 MSTORE PUSH1 0x20 ADD PUSH0 KECCAK256 PUSH0 SWAP1 SLOAD SWAP1 PUSH2 0x100 EXP SWAP1 DIV PUSH1 0xFF AND ISZERO PUSH2 0x97C JUMPI PUSH1 0x40 MLOAD PUSH32 0x8C379A000000000000000000000000000000000000000000000000000000000 DUP2 MSTORE PUSH1 0x4 ADD PUSH2 0x973 SWAP1 PUSH2 0x1195 JUMP JUMPDEST PUSH1 0x40 MLOAD DUP1 SWAP2 SUB SWAP1 REVERT JUMPDEST PUSH1 0x2 SLOAD CALLVALUE EQ PUSH2 0x9C0 JUMPI PUSH1 0x40 MLOAD PUSH32 0x8C379A000000000000000000000000000000000000000000000000000000000 DUP2 MSTORE PUSH1 0x4 ADD PUSH2 0x9B7 SWAP1 PUSH2 0x11FD JUMP JUMPDEST PUSH1 0x40 MLOAD DUP1 SWAP2 SUB SWAP1 REVERT JUMPDEST PUSH0 ISZERO ISZERO PUSH2 0x9CB PUSH2 0x7F3 JUMP JUMPDEST ISZERO ISZERO EQ PUSH2 0xA0D JUMPI PUSH1 0x40 MLOAD PUSH32 0x8C379A000000000000000000000000000000000000000000000000000000000 DUP2 MSTORE PUSH1 0x4 ADD PUSH2 0xA04 SWAP1 PUSH2 0x12D7 JUMP JUMPDEST PUSH1 0x40 MLOAD DUP1 SWAP2 SUB SWAP1 REVERT JUMPDEST PUSH0 PUSH3 0x93A80 PUSH1 0x1 SLOAD PUSH2 0xA1F SWAP2 SWAP1 PUSH2 0x10A2 JUMP JUMPDEST SWAP1 POP DUP1 PUSH1 0x7 SLOAD PUSH2 0xA2F SWAP2 SWAP1 PUSH2 0xE46 JUMP JUMPDEST TIMESTAMP LT PUSH2 0xA70 JUMPI PUSH1 0x40 MLOAD PUSH32 0x8C379A000000000000000000000000000000000000000000000000000000000 DUP2 MSTORE PUSH1 0x4 ADD PUSH2 0xA67 SWAP1 PUSH2 0x1365 JUMP JUMPDEST PUSH1 0x40 MLOAD DUP1 SWAP2 SUB SWAP1 REVERT JUMPDEST PUSH1 0x1 PUSH1 0x5 PUSH0 CALLER PUSH20 0xFFFFFFFFFFFFFFFFFFFFFFFFFFFFFFFFFFFFFFFF AND PUSH20 0xFFFFFFFFFFFFFFFFFFFFFFFFFFFFFFFFFFFFFFFF AND DUP2 MSTORE PUSH1 0x20 ADD SWAP1 DUP2 MSTORE PUSH1 0x20 ADD PUSH0 KECCAK256 PUSH0 PUSH2 0x100 EXP DUP2 SLOAD DUP2 PUSH1 0xFF MUL NOT AND SWAP1 DUP4 ISZERO ISZERO MUL OR SWAP1 SSTORE POP PUSH1 0x1 PUSH1 0x6 PUSH0 DUP3 DUP3 SLOAD PUSH2 0xAD7 SWAP2 SWAP1 PUSH2 0xE46 JUMP JUMPDEST SWAP3 POP POP DUP2 SWAP1 SSTORE POP PUSH0 SLOAD PUSH1 0x6 SLOAD SUB PUSH2 0xAF1 JUMPI PUSH2 0xAF0 PUSH2 0xAF4 JUMP JUMPDEST JUMPDEST POP JUMP JUMPDEST PUSH0 PUSH3 0x93A80 PUSH1 0x1 SLOAD PUSH2 0xB06 SWAP2 SWAP1 PUSH2 0x10A2 JUMP JUMPDEST SWAP1 POP DUP1 PUSH1 0x7 SLOAD PUSH2 0xB16 SWAP2 SWAP1 PUSH2 0xE46 JUMP JUMPDEST TIMESTAMP LT ISZERO DUP1 PUSH2 0xB26 JUMPI POP PUSH0 SLOAD PUSH1 0x6 SLOAD EQ JUMPDEST PUSH2 0xB65 JUMPI PUSH1 0x40 MLOAD PUSH32 0x8C379A000000000000000000000000000000000000000000000000000000000 DUP2 MSTORE PUSH1 0x4 ADD PUSH2 0xB5C SWAP1 PUSH2 0x13CD JUMP JUMPDEST PUSH1 0x40 MLOAD DUP1 SWAP2 SUB SWAP1 REVERT JUMPDEST PUSH1 0x1 PUSH1 0x8 PUSH0 DUP3 DUP3 SLOAD PUSH2 0xB77 SWAP2 SWAP1 PUSH2 0xE46 JUMP JUMPDEST SWAP3 POP POP DUP2 SWAP1 SSTORE POP PUSH0 JUMPDEST PUSH0 SLOAD DUP2 LT ISZERO PUSH2 0xC25 JUMPI PUSH0 PUSH1 0x5 PUSH0 PUSH1 0x4 DUP5 DUP2 SLOAD DUP2 LT PUSH2 0xBA1 JUMPI PUSH2 0xBA0 PUSH2 0xED6 JUMP JUMPDEST JUMPDEST SWAP1 PUSH0 MSTORE PUSH1 0x20 PUSH0 KECCAK256 ADD PUSH0 SWAP1 SLOAD SWAP1 PUSH2 0x100 EXP SWAP1 DIV PUSH20 0xFFFFFFFFFFFFFFFFFFFFFFFFFFFFFFFFFFFFFFFF AND PUSH20 0xFFFFFFFFFFFFFFFFFFFFFFFFFFFFFFFFFFFFFFFF AND PUSH20 0xFFFFFFFFFFFFFFFFFFFFFFFFFFFFFFFFFFFFFFFF AND DUP2 MSTORE PUSH1 0x20 ADD SWAP1 DUP2 MSTORE PUSH1 0x20 ADD PUSH0 KECCAK256 PUSH0 PUSH2 0x100 EXP DUP2 SLOAD DUP2 PUSH1 0xFF MUL NOT AND SWAP1 DUP4 ISZERO ISZERO MUL OR SWAP1 SSTORE POP DUP1 DUP1 PUSH1 0x1 ADD SWAP2 POP POP PUSH2 0xB80 JUMP JUMPDEST POP PUSH0 PUSH1 0x6 DUP2 SWAP1 SSTORE POP TIMESTAMP PUSH1 0x7 DUP2 SWAP1 SSTORE POP POP JUMP JUMPDEST PUSH0 DUP3 DUP3 MSTORE PUSH1 0x20 DUP3 ADD SWAP1 POP SWAP3 SWAP2 POP POP JUMP JUMPDEST PUSH32 0x55736520636F6E74726962757465282920746F206465706F7369740000000000 PUSH0 DUP3 ADD MSTORE POP JUMP JUMPDEST PUSH0 PUSH2 0xC7B PUSH1 0x1B DUP4 PUSH2 0xC37 JUMP JUMPDEST SWAP2 POP PUSH2 0xC86 DUP3 PUSH2 0xC47 JUMP JUMPDEST PUSH1 0x20 DUP3 ADD SWAP1 POP SWAP2 SWAP1 POP JUMP JUMPDEST PUSH0 PUSH1 0x20 DUP3 ADD SWAP1 POP DUP2 DUP2 SUB PUSH0 DUP4 ADD MSTORE PUSH2 0xCA8 DUP2 PUSH2 0xC6F JUMP JUMPDEST SWAP1 POP SWAP2 SWAP1 POP JUMP JUMPDEST PUSH0 DUP2 SWAP1 POP SWAP2 SWAP1 POP JUMP JUMPDEST PUSH2 0xCC1 DUP2 PUSH2 0xCAF JUMP JUMPDEST DUP3 MSTORE POP POP JUMP JUMPDEST PUSH0 PUSH1 0x20 DUP3 ADD SWAP1 POP PUSH2 0xCDA PUSH0 DUP4 ADD DUP5 PUSH2 0xCB8 JUMP JUMPDEST SWAP3 SWAP2 POP POP JUMP JUMPDEST PUSH0 DUP1 REVERT JUMPDEST PUSH0 PUSH20 0xFFFFFFFFFFFFFFFFFFFFFFFFFFFFFFFFFFFFFFFF DUP3 AND SWAP1 POP SWAP2 SWAP1 POP JUMP JUMPDEST PUSH0 PUSH2 0xD0D DUP3 PUSH2 0xCE4 JUMP JUMPDEST SWAP1 POP SWAP2 SWAP1 POP JUMP JUMPDEST PUSH2 0xD1D DUP2 PUSH2 0xD03 JUMP JUMPDEST DUP2 EQ PUSH2 0xD27 JUMPI PUSH0 DUP1 REVERT JUMPDEST POP JUMP JUMPDEST PUSH0 DUP2 CALLDATALOAD SWAP1 POP PUSH2 0xD38 DUP2 PUSH2 0xD14 JUMP JUMPDEST SWAP3 SWAP2 POP POP JUMP JUMPDEST PUSH0 PUSH1 0x20 DUP3 DUP5 SUB SLT ISZERO PUSH2 0xD53 JUMPI PUSH2 0xD52 PUSH2 0xCE0 JUMP JUMPDEST JUMPDEST PUSH0 PUSH2 0xD60 DUP5 DUP3 DUP6 ADD PUSH2 0xD2A JUMP JUMPDEST SWAP2 POP POP SWAP3 SWAP2 POP POP JUMP JUMPDEST PUSH0 DUP2 ISZERO ISZERO SWAP1 POP SWAP2 SWAP1 POP JUMP JUMPDEST PUSH2 0xD7D DUP2 PUSH2 0xD69 JUMP JUMPDEST DUP3 MSTORE POP POP JUMP JUMPDEST PUSH0 PUSH1 0x20 DUP3 ADD SWAP1 POP PUSH2 0xD96 PUSH0 DUP4 ADD DUP5 PUSH2 0xD74 JUMP JUMPDEST SWAP3 SWAP2 POP POP JUMP JUMPDEST PUSH2 0xDA5 DUP2 PUSH2 0xCAF JUMP JUMPDEST DUP2 EQ PUSH2 0xDAF JUMPI PUSH0 DUP1 REVERT JUMPDEST POP JUMP JUMPDEST PUSH0 DUP2 CALLDATALOAD SWAP1 POP PUSH2 0xDC0 DUP2 PUSH2 0xD9C JUMP JUMPDEST SWAP3 SWAP2 POP POP JUMP JUMPDEST PUSH0 PUSH1 0x20 DUP3 DUP5 SUB SLT ISZERO PUSH2 0xDDB JUMPI PUSH2 0xDDA PUSH2 0xCE0 JUMP JUMPDEST JUMPDEST PUSH0 PUSH2 0xDE8 DUP5 DUP3 DUP6 ADD PUSH2 0xDB2 JUMP JUMPDEST SWAP2 POP POP SWAP3 SWAP2 POP POP JUMP JUMPDEST PUSH2 0xDFA DUP2 PUSH2 0xD03 JUMP JUMPDEST DUP3 MSTORE POP POP JUMP JUMPDEST PUSH0 PUSH1 0x20 DUP3 ADD SWAP1 POP PUSH2 0xE13 PUSH0 DUP4 ADD DUP5 PUSH2 0xDF1 JUMP JUMPDEST SWAP3 SWAP2 POP POP JUMP JUMPDEST PUSH32 0x4E487B7100000000000000000000000000000000000000000000000000000000 PUSH0 MSTORE PUSH1 0x11 PUSH1 0x4 MSTORE PUSH1 0x24 PUSH0 REVERT JUMPDEST PUSH0 PUSH2 0xE50 DUP3 PUSH2 0xCAF JUMP JUMPDEST SWAP2 POP PUSH2 0xE5B DUP4 PUSH2 0xCAF JUMP JUMPDEST SWAP3 POP DUP3 DUP3 ADD SWAP1 POP DUP1 DUP3 GT ISZERO PUSH2 0xE73 JUMPI PUSH2 0xE72 PUSH2 0xE19 JUMP JUMPDEST JUMPDEST SWAP3 SWAP2 POP POP JUMP JUMPDEST PUSH32 0x4E487B7100000000000000000000000000000000000000000000000000000000 PUSH0 MSTORE PUSH1 0x12 PUSH1 0x4 MSTORE PUSH1 0x24 PUSH0 REVERT JUMPDEST PUSH0 PUSH2 0xEB0 DUP3 PUSH2 0xCAF JUMP JUMPDEST SWAP2 POP PUSH2 0xEBB DUP4 PUSH2 0xCAF JUMP JUMPDEST SWAP3 POP DUP3 PUSH2 0xECB JUMPI PUSH2 0xECA PUSH2 0xE79 JUMP JUMPDEST JUMPDEST DUP3 DUP3 MOD SWAP1 POP SWAP3 SWAP2 POP POP JUMP JUMPDEST PUSH32 0x4E487B7100000000000000000000000000000000000000000000000000000000 PUSH0 MSTORE PUSH1 0x32 PUSH1 0x4 MSTORE PUSH1 0x24 PUSH0 REVERT JUMPDEST PUSH32 0x416C6C206D656D62657273206861766520616C7265616479206265656E207061 PUSH0 DUP3 ADD MSTORE PUSH32 0x6964000000000000000000000000000000000000000000000000000000000000 PUSH1 0x20 DUP3 ADD MSTORE POP JUMP JUMPDEST PUSH0 PUSH2 0xF5D PUSH1 0x22 DUP4 PUSH2 0xC37 JUMP JUMPDEST SWAP2 POP PUSH2 0xF68 DUP3 PUSH2 0xF03 JUMP JUMPDEST PUSH1 0x40 DUP3 ADD SWAP1 POP SWAP2 SWAP1 POP JUMP JUMPDEST PUSH0 PUSH1 0x20 DUP3 ADD SWAP1 POP DUP2 DUP2 SUB PUSH0 DUP4 ADD MSTORE PUSH2 0xF8A DUP2 PUSH2 0xF51 JUMP JUMPDEST SWAP1 POP SWAP2 SWAP1 POP JUMP JUMPDEST PUSH32 0x4E6F2066756E647320746F206469737472696275746500000000000000000000 PUSH0 DUP3 ADD MSTORE POP JUMP JUMPDEST PUSH0 PUSH2 0xFC5 PUSH1 0x16 DUP4 PUSH2 0xC37 JUMP JUMPDEST SWAP2 POP PUSH2 0xFD0 DUP3 PUSH2 0xF91 JUMP JUMPDEST PUSH1 0x20 DUP3 ADD SWAP1 POP SWAP2 SWAP1 POP JUMP JUMPDEST PUSH0 PUSH1 0x20 DUP3 ADD SWAP1 POP DUP2 DUP2 SUB PUSH0 DUP4 ADD MSTORE PUSH2 0xFF2 DUP2 PUSH2 0xFB9 JUMP JUMPDEST SWAP1 POP SWAP2 SWAP1 POP JUMP JUMPDEST PUSH0 DUP2 SWAP1 POP SWAP3 SWAP2 POP POP JUMP JUMPDEST POP JUMP JUMPDEST PUSH0 PUSH2 0x1011 PUSH0 DUP4 PUSH2 0xFF9 JUMP JUMPDEST SWAP2 POP PUSH2 0x101C DUP3 PUSH2 0x1003 JUMP JUMPDEST PUSH0 DUP3 ADD SWAP1 POP SWAP2 SWAP1 POP JUMP JUMPDEST PUSH0 PUSH2 0x1030 DUP3 PUSH2 0x1006 JUMP JUMPDEST SWAP2 POP DUP2 SWAP1 POP SWAP2 SWAP1 POP JUMP JUMPDEST PUSH32 0x5472616E73666572206661696C65640000000000000000000000000000000000 PUSH0 DUP3 ADD MSTORE POP JUMP JUMPDEST PUSH0 PUSH2 0x106E PUSH1 0xF DUP4 PUSH2 0xC37 JUMP JUMPDEST SWAP2 POP PUSH2 0x1079 DUP3 PUSH2 0x103A JUMP JUMPDEST PUSH1 0x20 DUP3 ADD SWAP1 POP SWAP2 SWAP1 POP JUMP JUMPDEST PUSH0 PUSH1 0x20 DUP3 ADD SWAP1 POP DUP2 DUP2 SUB PUSH0 DUP4 ADD MSTORE PUSH2 0x109B DUP2 PUSH2 0x1062 JUMP JUMPDEST SWAP1 POP SWAP2 SWAP1 POP JUMP JUMPDEST PUSH0 PUSH2 0x10AC DUP3 PUSH2 0xCAF JUMP JUMPDEST SWAP2 POP PUSH2 0x10B7 DUP4 PUSH2 0xCAF JUMP JUMPDEST SWAP3 POP DUP3 DUP3 MUL PUSH2 0x10C5 DUP2 PUSH2 0xCAF JUMP JUMPDEST SWAP2 POP DUP3 DUP3 DIV DUP5 EQ DUP4 ISZERO OR PUSH2 0x10DC JUMPI PUSH2 0x10DB PUSH2 0xE19 JUMP JUMPDEST JUMPDEST POP SWAP3 SWAP2 POP POP JUMP JUMPDEST PUSH32 0x4E6F7420612072656769737465726564206D656D626572000000000000000000 PUSH0 DUP3 ADD MSTORE POP JUMP JUMPDEST PUSH0 PUSH2 0x1117 PUSH1 0x17 DUP4 PUSH2 0xC37 JUMP JUMPDEST SWAP2 POP PUSH2 0x1122 DUP3 PUSH2 0x10E3 JUMP JUMPDEST PUSH1 0x20 DUP3 ADD SWAP1 POP SWAP2 SWAP1 POP JUMP JUMPDEST PUSH0 PUSH1 0x20 DUP3 ADD SWAP1 POP DUP2 DUP2 SUB PUSH0 DUP4 ADD MSTORE PUSH2 0x1144 DUP2 PUSH2 0x110B JUMP JUMPDEST SWAP1 POP SWAP2 SWAP1 POP JUMP JUMPDEST PUSH32 0x416C726561647920636F6E74726962757465642074686973206379636C650000 PUSH0 DUP3 ADD MSTORE POP JUMP JUMPDEST PUSH0 PUSH2 0x117F PUSH1 0x1E DUP4 PUSH2 0xC37 JUMP JUMPDEST SWAP2 POP PUSH2 0x118A DUP3 PUSH2 0x114B JUMP JUMPDEST PUSH1 0x20 DUP3 ADD SWAP1 POP SWAP2 SWAP1 POP JUMP JUMPDEST PUSH0 PUSH1 0x20 DUP3 ADD SWAP1 POP DUP2 DUP2 SUB PUSH0 DUP4 ADD MSTORE PUSH2 0x11AC DUP2 PUSH2 0x1173 JUMP JUMPDEST SWAP1 POP SWAP2 SWAP1 POP JUMP JUMPDEST PUSH32 0x496E636F727265637420636F6E747269627574696F6E20616D6F756E74000000 PUSH0 DUP3 ADD MSTORE POP JUMP JUMPDEST PUSH0 PUSH2 0x11E7 PUSH1 0x1D DUP4 PUSH2 0xC37 JUMP JUMPDEST SWAP2 POP PUSH2 0x11F2 DUP3 PUSH2 0x11B3 JUMP JUMPDEST PUSH1 0x20 DUP3 ADD SWAP1 POP SWAP2 SWAP1 POP JUMP JUMPDEST PUSH0 PUSH1 0x20 DUP3 ADD SWAP1 POP DUP2 DUP2 SUB PUSH0 DUP4 ADD MSTORE PUSH2 0x1214 DUP2 PUSH2 0x11DB JUMP JUMPDEST SWAP1 POP SWAP2 SWAP1 POP JUMP JUMPDEST PUSH32 0x45766572796F6E6520686173206265656E2070616964206F7574206F6E63652E PUSH0 DUP3 ADD MSTORE PUSH32 0x205468616E6B20796F7520666F722070617274696369706174696E6721205265 PUSH1 0x20 DUP3 ADD MSTORE PUSH32 0x73746172742061206E65772061677265656D656E7420696620796F752764206C PUSH1 0x40 DUP3 ADD MSTORE PUSH32 0x696B6520746F20636F6E74696E7565207769746820746869732054616E64612E PUSH1 0x60 DUP3 ADD MSTORE POP JUMP JUMPDEST PUSH0 PUSH2 0x12C1 PUSH1 0x80 DUP4 PUSH2 0xC37 JUMP JUMPDEST SWAP2 POP PUSH2 0x12CC DUP3 PUSH2 0x121B JUMP JUMPDEST PUSH1 0x80 DUP3 ADD SWAP1 POP SWAP2 SWAP1 POP JUMP JUMPDEST PUSH0 PUSH1 0x20 DUP3 ADD SWAP1 POP DUP2 DUP2 SUB PUSH0 DUP4 ADD MSTORE PUSH2 0x12EE DUP2 PUSH2 0x12B5 JUMP JUMPDEST SWAP1 POP SWAP2 SWAP1 POP JUMP JUMPDEST PUSH32 0x436F6E747269627574696F6E2077696E646F7720666F72207468697320637963 PUSH0 DUP3 ADD MSTORE PUSH32 0x6C6520697320636C6F7365640000000000000000000000000000000000000000 PUSH1 0x20 DUP3 ADD MSTORE POP JUMP JUMPDEST PUSH0 PUSH2 0x134F PUSH1 0x2C DUP4 PUSH2 0xC37 JUMP JUMPDEST SWAP2 POP PUSH2 0x135A DUP3 PUSH2 0x12F5 JUMP JUMPDEST PUSH1 0x40 DUP3 ADD SWAP1 POP SWAP2 SWAP1 POP JUMP JUMPDEST PUSH0 PUSH1 0x20 DUP3 ADD SWAP1 POP DUP2 DUP2 SUB PUSH0 DUP4 ADD MSTORE PUSH2 0x137C DUP2 PUSH2 0x1343 JUMP JUMPDEST SWAP1 POP SWAP2 SWAP1 POP JUMP JUMPDEST PUSH32 0x43616E6E6F742066696E616C697A65206379636C652079657400000000000000 PUSH0 DUP3 ADD MSTORE POP JUMP JUMPDEST PUSH0 PUSH2 0x13B7 PUSH1 0x19 DUP4 PUSH2 0xC37 JUMP JUMPDEST SWAP2 POP PUSH2 0x13C2 DUP3 PUSH2 0x1383 JUMP JUMPDEST PUSH1 0x20 DUP3 ADD SWAP1 POP SWAP2 SWAP1 POP JUMP JUMPDEST PUSH0 PUSH1 0x20 DUP3 ADD SWAP1 POP DUP2 DUP2 SUB PUSH0 DUP4 ADD MSTORE PUSH2 0x13E4 DUP2 PUSH2 0x13AB JUMP JUMPDEST SWAP1 POP SWAP2 SWAP1 POP JUMP INVALID LOG2 PUSH5 0x6970667358 0x22 SLT KECCAK256 PUSH32 0xD50EB5A99332BFAEB5560CBB50174F3CD0729EE4F40A669951C222409F076A64 PUSH20 0x6F6C634300081A00330000000000000000000000 "
				},
				"gasEstimates": {
					"creation": {
						"codeDepositCost": "1030600",
						"executionCost": "infinite",
						"totalCost": "infinite"
					},
					"external": {
						"allPaidOut()": "infinite",
						"contribute()": "infinite",
						"contributionAmount()": "2492",
						"contributionFrequencyInWeeks()": "2514",
						"contributionsThisCycle()": "2448",
						"cycleCount()": "2471",
						"cycleStartTime()": "2493",
						"distributionIntervalInWeeks()": "2447",
						"finalizeCycle()": "infinite",
						"hasContributedThisCycle(address)": "2878",
						"hasReceivedPayout(address)": "2923",
						"isMember(address)": "infinite",
						"members(uint256)": "4989",
						"nextDistributionTime()": "2449",
						"nextPayoutIndex()": "2492",
						"numMembers()": "2513",
						"triggerDistribution()": "infinite"
					}
				},
				"methodIdentifiers": {
					"allPaidOut()": "c74e7261",
					"contribute()": "d7bb99ba",
					"contributionAmount()": "5fa0b65f",
					"contributionFrequencyInWeeks()": "8d0aa1b2",
					"contributionsThisCycle()": "50a644d1",
					"cycleCount()": "316fda0f",
					"cycleStartTime()": "335e536c",
					"distributionIntervalInWeeks()": "9172e5c2",
					"finalizeCycle()": "ec33d2a0",
					"hasContributedThisCycle(address)": "368d6eb7",
					"hasReceivedPayout(address)": "346477c7",
					"isMember(address)": "a230c524",
					"members(uint256)": "5daf08ca",
					"nextDistributionTime()": "091fb010",
					"nextPayoutIndex()": "3fe071be",
					"numMembers()": "4698d110",
					"triggerDistribution()": "35cd4b46"
				}
			},
			"storageLayout": {
				"storage": [
					{
						"astId": 5,
						"contract": "Contract_Templates/Reference.sol:Tanda",
						"label": "numMembers",
						"offset": 0,
						"slot": "0",
						"type": "t_uint256"
					},
					{
						"astId": 8,
						"contract": "Contract_Templates/Reference.sol:Tanda",
						"label": "contributionFrequencyInWeeks",
						"offset": 0,
						"slot": "1",
						"type": "t_uint256"
					},
					{
						"astId": 11,
						"contract": "Contract_Templates/Reference.sol:Tanda",
						"label": "contributionAmount",
						"offset": 0,
						"slot": "2",
						"type": "t_uint256"
					},
					{
						"astId": 14,
						"contract": "Contract_Templates/Reference.sol:Tanda",
						"label": "distributionIntervalInWeeks",
						"offset": 0,
						"slot": "3",
						"type": "t_uint256"
					},
					{
						"astId": 18,
						"contract": "Contract_Templates/Reference.sol:Tanda",
						"label": "members",
						"offset": 0,
						"slot": "4",
						"type": "t_array(t_address)dyn_storage"
					},
					{
						"astId": 23,
						"contract": "Contract_Templates/Reference.sol:Tanda",
						"label": "hasContributedThisCycle",
						"offset": 0,
						"slot": "5",
						"type": "t_mapping(t_address,t_bool)"
					},
					{
						"astId": 26,
						"contract": "Contract_Templates/Reference.sol:Tanda",
						"label": "contributionsThisCycle",
						"offset": 0,
						"slot": "6",
						"type": "t_uint256"
					},
					{
						"astId": 29,
						"contract": "Contract_Templates/Reference.sol:Tanda",
						"label": "cycleStartTime",
						"offset": 0,
						"slot": "7",
						"type": "t_uint256"
					},
					{
						"astId": 32,
						"contract": "Contract_Templates/Reference.sol:Tanda",
						"label": "cycleCount",
						"offset": 0,
						"slot": "8",
						"type": "t_uint256"
					},
					{
						"astId": 35,
						"contract": "Contract_Templates/Reference.sol:Tanda",
						"label": "nextDistributionTime",
						"offset": 0,
						"slot": "9",
						"type": "t_uint256"
					},
					{
						"astId": 40,
						"contract": "Contract_Templates/Reference.sol:Tanda",
						"label": "hasReceivedPayout",
						"offset": 0,
						"slot": "10",
						"type": "t_mapping(t_address,t_bool)"
					},
					{
						"astId": 43,
						"contract": "Contract_Templates/Reference.sol:Tanda",
						"label": "nextPayoutIndex",
						"offset": 0,
						"slot": "11",
						"type": "t_uint256"
					}
				],
				"types": {
					"t_address": {
						"encoding": "inplace",
						"label": "address",
						"numberOfBytes": "20"
					},
					"t_array(t_address)dyn_storage": {
						"base": "t_address",
						"encoding": "dynamic_array",
						"label": "address[]",
						"numberOfBytes": "32"
					},
					"t_bool": {
						"encoding": "inplace",
						"label": "bool",
						"numberOfBytes": "1"
					},
					"t_mapping(t_address,t_bool)": {
						"encoding": "mapping",
						"key": "t_address",
						"label": "mapping(address => bool)",
						"numberOfBytes": "32",
						"value": "t_bool"
					},
					"t_uint256": {
						"encoding": "inplace",
						"label": "uint256",
						"numberOfBytes": "32"
					}
				}
			},
			"userdoc": {
				"kind": "user",
				"methods": {
					"allPaidOut()": {
						"notice": "Helper to check if everyone has received the pot already."
					},
					"contribute()": {
						"notice": "Each member should call `contribute()` once per contribution cycle,         sending exactly `contributionAmount` wei (equivalent to the specified decimal Ether)."
					},
					"finalizeCycle()": {
						"notice": "Finalizes the current contribution cycle if either:         1) The contribution window has passed, or         2) All members have contributed."
					},
					"triggerDistribution()": {
						"notice": "Trigger the distribution of the entire contract balance to the next unpaid member         if the current time is past `nextDistributionTime`."
					}
				},
				"notice": "Demonstrates a rotating savings contract with customizable parameters:         - Number of members         - Frequency of contributions (in weeks)         - Contribution amount (in Ether, supporting decimals)         - Distribution interval (in weeks)         - List of member addresses IMPORTANT: This is a simplified example and is NOT production-ready.",
				"version": 1
			}
		}
	}
}