{
	"Contract_Templates/Tanda.sol": {
		"Tanda": {
			"abi": [
				{
					"inputs": [
						{
							"internalType": "address[]",
							"name": "_associationMembers",
							"type": "address[]"
						},
						{
							"internalType": "uint256",
							"name": "_numMembers",
							"type": "uint256"
						},
						{
							"internalType": "uint256",
							"name": "_contributionFrequencyInWeeks",
							"type": "uint256"
						},
						{
							"internalType": "uint256",
							"name": "_distributionIntervalInWeeks",
							"type": "uint256"
						},
						{
							"internalType": "uint256",
							"name": "_contributionAmount",
							"type": "uint256"
						}
					],
					"stateMutability": "nonpayable",
					"type": "constructor"
				},
				{
					"inputs": [],
					"name": "contributionFrequencyInWeeks",
					"outputs": [
						{
							"internalType": "uint256",
							"name": "",
							"type": "uint256"
						}
					],
					"stateMutability": "view",
					"type": "function"
				},
				{
					"inputs": [],
					"name": "contributionsThisCycle",
					"outputs": [
						{
							"internalType": "uint256",
							"name": "",
							"type": "uint256"
						}
					],
					"stateMutability": "view",
					"type": "function"
				},
				{
					"inputs": [],
					"name": "cycleCount",
					"outputs": [
						{
							"internalType": "uint256",
							"name": "",
							"type": "uint256"
						}
					],
					"stateMutability": "view",
					"type": "function"
				},
				{
					"inputs": [],
					"name": "cycleStartTime",
					"outputs": [
						{
							"internalType": "uint256",
							"name": "",
							"type": "uint256"
						}
					],
					"stateMutability": "view",
					"type": "function"
				},
				{
					"inputs": [
						{
							"internalType": "address",
							"name": "",
							"type": "address"
						}
					],
					"name": "hasContributedThisCycle",
					"outputs": [
						{
							"internalType": "bool",
							"name": "",
							"type": "bool"
						}
					],
					"stateMutability": "view",
					"type": "function"
				},
				{
					"inputs": [
						{
							"internalType": "address",
							"name": "",
							"type": "address"
						}
					],
					"name": "hasReceivedPayout",
					"outputs": [
						{
							"internalType": "bool",
							"name": "",
							"type": "bool"
						}
					],
					"stateMutability": "view",
					"type": "function"
				},
				{
					"inputs": [],
					"name": "nextDistributionTime",
					"outputs": [
						{
							"internalType": "uint256",
							"name": "",
							"type": "uint256"
						}
					],
					"stateMutability": "view",
					"type": "function"
				},
				{
					"inputs": [],
					"name": "nextPayoutIndex",
					"outputs": [
						{
							"internalType": "uint256",
							"name": "",
							"type": "uint256"
						}
					],
					"stateMutability": "view",
					"type": "function"
				},
				{
					"inputs": [],
					"name": "numMembers",
					"outputs": [
						{
							"internalType": "uint256",
							"name": "",
							"type": "uint256"
						}
					],
					"stateMutability": "view",
					"type": "function"
				},
				{
					"inputs": [],
					"name": "regular_contribution",
					"outputs": [
						{
							"internalType": "string",
							"name": "",
							"type": "string"
						}
					],
					"stateMutability": "payable",
					"type": "function"
				}
			],
			"devdoc": {
				"kind": "dev",
				"methods": {},
				"stateVariables": {
					"contributionAmount": {
						"details": "How much each member must contribute at each interval, stored in wei.      However, you can specify this value in the constructor as decimal Ether       (e.g., 0.002 ether, 0.5 ether, 1 ether, etc.)."
					},
					"contributionFrequencyInWeeks": {
						"details": "How often each member must contribute, in weeks"
					},
					"contributionsThisCycle": {
						"details": "How many total contributions have been made this cycle"
					},
					"cycleCount": {
						"details": "Count of completed contribution cycles"
					},
					"cycleStartTime": {
						"details": "Timestamp for when the current contribution cycle started"
					},
					"distributionIntervalInWeeks": {
						"details": "Interval (in weeks) at which the pot is distributed"
					},
					"hasContributedThisCycle": {
						"details": "Tracks whether a member has contributed in the current cycle"
					},
					"hasReceivedPayout": {
						"details": "Tracks whether a member has received their one-time payout"
					},
					"members": {
						"details": "List of all members’ addresses"
					},
					"nextDistributionTime": {
						"details": "Next timestamp at or after which a distribution can occur"
					},
					"nextPayoutIndex": {
						"details": "Index for picking the next unpaid member in the `members` array"
					},
					"numMembers": {
						"details": "Number of participants in the tanda"
					}
				},
				"version": 1
			},
			"evm": {
				"assembly": "    /* \"Contract_Templates/Tanda.sol\":58:3225  contract Tanda {... */\n  mstore(0x40, 0x80)\n    /* \"Contract_Templates/Tanda.sol\":1589:2461  constructor(... */\n  callvalue\n  dup1\n  iszero\n  tag_1\n  jumpi\n  0x00\n  dup1\n  revert\ntag_1:\n  pop\n  mload(0x40)\n  sub(codesize, bytecodeSize)\n  dup1\n  bytecodeSize\n  dup4\n  codecopy\n  dup2\n  dup2\n  add\n  0x40\n  mstore\n  dup2\n  add\n  swap1\n  tag_2\n  swap2\n  swap1\n  tag_3\n  jump\t// in\ntag_2:\n    /* \"Contract_Templates/Tanda.sol\":1923:1934  _numMembers */\n  dup4\n    /* \"Contract_Templates/Tanda.sol\":1893:1912  _associationMembers */\n  dup6\n    /* \"Contract_Templates/Tanda.sol\":1893:1919  _associationMembers.length */\n  mload\n    /* \"Contract_Templates/Tanda.sol\":1893:1934  _associationMembers.length == _numMembers */\n  eq\n    /* \"Contract_Templates/Tanda.sol\":1885:2033  require(_associationMembers.length == _numMembers, \"Please ensure the number of association members match the number of wallet addresses provided.\") */\n  tag_6\n  jumpi\n  mload(0x40)\n  0x08c379a000000000000000000000000000000000000000000000000000000000\n  dup2\n  mstore\n  0x04\n  add\n  tag_7\n  swap1\n  tag_8\n  jump\t// in\ntag_7:\n  mload(0x40)\n  dup1\n  swap2\n  sub\n  swap1\n  revert\ntag_6:\n    /* \"Contract_Templates/Tanda.sol\":2048:2057  uint256 i */\n  0x00\n    /* \"Contract_Templates/Tanda.sol\":2043:2181  for (uint256 i = 0; i < _numMembers; i++) {... */\ntag_9:\n    /* \"Contract_Templates/Tanda.sol\":2067:2078  _numMembers */\n  dup5\n    /* \"Contract_Templates/Tanda.sol\":2063:2064  i */\n  dup2\n    /* \"Contract_Templates/Tanda.sol\":2063:2078  i < _numMembers */\n  lt\n    /* \"Contract_Templates/Tanda.sol\":2043:2181  for (uint256 i = 0; i < _numMembers; i++) {... */\n  iszero\n  tag_10\n  jumpi\n    /* \"Contract_Templates/Tanda.sol\":2141:2142  0 */\n  0x00\n    /* \"Contract_Templates/Tanda.sol\":2107:2143  _associationMembers[i] != address(0) */\n  0xffffffffffffffffffffffffffffffffffffffff\n  and\n    /* \"Contract_Templates/Tanda.sol\":2107:2126  _associationMembers */\n  dup7\n    /* \"Contract_Templates/Tanda.sol\":2127:2128  i */\n  dup3\n    /* \"Contract_Templates/Tanda.sol\":2107:2129  _associationMembers[i] */\n  dup2\n  mload\n  dup2\n  lt\n  tag_12\n  jumpi\n  tag_13\n  tag_14\n  jump\t// in\ntag_13:\ntag_12:\n  0x20\n  mul\n  0x20\n  add\n  add\n  mload\n    /* \"Contract_Templates/Tanda.sol\":2107:2143  _associationMembers[i] != address(0) */\n  0xffffffffffffffffffffffffffffffffffffffff\n  and\n  sub\n    /* \"Contract_Templates/Tanda.sol\":2099:2170  require(_associationMembers[i] != address(0), \"Invalid member address\") */\n  tag_15\n  jumpi\n  mload(0x40)\n  0x08c379a000000000000000000000000000000000000000000000000000000000\n  dup2\n  mstore\n  0x04\n  add\n  tag_16\n  swap1\n  tag_17\n  jump\t// in\ntag_16:\n  mload(0x40)\n  dup1\n  swap2\n  sub\n  swap1\n  revert\ntag_15:\n    /* \"Contract_Templates/Tanda.sol\":2080:2083  i++ */\n  dup1\n  dup1\n  0x01\n  add\n  swap2\n  pop\n  pop\n    /* \"Contract_Templates/Tanda.sol\":2043:2181  for (uint256 i = 0; i < _numMembers; i++) {... */\n  jump(tag_9)\ntag_10:\n  pop\n    /* \"Contract_Templates/Tanda.sol\":2209:2228  _associationMembers */\n  dup5\n    /* \"Contract_Templates/Tanda.sol\":2199:2206  members */\n  0x04\n    /* \"Contract_Templates/Tanda.sol\":2199:2228  members = _associationMembers */\n  swap1\n  dup1\n  mload\n  swap1\n  0x20\n  add\n  swap1\n  tag_18\n  swap3\n  swap2\n  swap1\n  tag_19\n  jump\t// in\ntag_18:\n  pop\n    /* \"Contract_Templates/Tanda.sol\":2251:2262  _numMembers */\n  dup4\n    /* \"Contract_Templates/Tanda.sol\":2238:2248  numMembers */\n  0x00\n    /* \"Contract_Templates/Tanda.sol\":2238:2262  numMembers = _numMembers */\n  dup2\n  swap1\n  sstore\n  pop\n    /* \"Contract_Templates/Tanda.sol\":2303:2332  _contributionFrequencyInWeeks */\n  dup3\n    /* \"Contract_Templates/Tanda.sol\":2272:2300  contributionFrequencyInWeeks */\n  0x01\n    /* \"Contract_Templates/Tanda.sol\":2272:2332  contributionFrequencyInWeeks = _contributionFrequencyInWeeks */\n  dup2\n  swap1\n  sstore\n  pop\n    /* \"Contract_Templates/Tanda.sol\":2372:2400  _distributionIntervalInWeeks */\n  dup2\n    /* \"Contract_Templates/Tanda.sol\":2342:2369  distributionIntervalInWeeks */\n  0x03\n    /* \"Contract_Templates/Tanda.sol\":2342:2400  distributionIntervalInWeeks = _distributionIntervalInWeeks */\n  dup2\n  swap1\n  sstore\n  pop\n    /* \"Contract_Templates/Tanda.sol\":2431:2450  _contributionAmount */\n  dup1\n    /* \"Contract_Templates/Tanda.sol\":2410:2428  contributionAmount */\n  0x02\n    /* \"Contract_Templates/Tanda.sol\":2410:2450  contributionAmount = _contributionAmount */\n  dup2\n  swap1\n  sstore\n  pop\n    /* \"Contract_Templates/Tanda.sol\":1589:2461  constructor(... */\n  pop\n  pop\n  pop\n  pop\n  pop\n    /* \"Contract_Templates/Tanda.sol\":58:3225  contract Tanda {... */\n  jump(tag_20)\ntag_19:\n  dup3\n  dup1\n  sload\n  dup3\n  dup3\n  sstore\n  swap1\n  0x00\n  mstore\n  keccak256(0x00, 0x20)\n  swap1\n  dup2\n  add\n  swap3\n  dup3\n  iszero\n  tag_21\n  jumpi\n  swap2\n  0x20\n  mul\n  dup3\n  add\ntag_22:\n  dup3\n  dup2\n  gt\n  iszero\n  tag_23\n  jumpi\n  dup3\n  mload\n  dup3\n  exp(0x0100, 0x00)\n  dup2\n  sload\n  dup2\n  0xffffffffffffffffffffffffffffffffffffffff\n  mul\n  not\n  and\n  swap1\n  dup4\n  0xffffffffffffffffffffffffffffffffffffffff\n  and\n  mul\n  or\n  swap1\n  sstore\n  pop\n  swap2\n  0x20\n  add\n  swap2\n  swap1\n  0x01\n  add\n  swap1\n  jump(tag_22)\ntag_23:\ntag_21:\n  pop\n  swap1\n  pop\n  tag_24\n  swap2\n  swap1\n  tag_25\n  jump\t// in\ntag_24:\n  pop\n  swap1\n  jump\t// out\ntag_25:\ntag_26:\n  dup1\n  dup3\n  gt\n  iszero\n  tag_27\n  jumpi\n  0x00\n  dup2\n  0x00\n  swap1\n  sstore\n  pop\n  0x01\n  add\n  jump(tag_26)\ntag_27:\n  pop\n  swap1\n  jump\t// out\n    /* \"#utility.yul\":7:82   */\ntag_28:\n    /* \"#utility.yul\":40:46   */\n  0x00\n    /* \"#utility.yul\":73:75   */\n  0x40\n    /* \"#utility.yul\":67:76   */\n  mload\n    /* \"#utility.yul\":57:76   */\n  swap1\n  pop\n    /* \"#utility.yul\":7:82   */\n  swap1\n  jump\t// out\n    /* \"#utility.yul\":88:205   */\ntag_29:\n    /* \"#utility.yul\":197:198   */\n  0x00\n    /* \"#utility.yul\":194:195   */\n  dup1\n    /* \"#utility.yul\":187:199   */\n  revert\n    /* \"#utility.yul\":211:328   */\ntag_30:\n    /* \"#utility.yul\":320:321   */\n  0x00\n    /* \"#utility.yul\":317:318   */\n  dup1\n    /* \"#utility.yul\":310:322   */\n  revert\n    /* \"#utility.yul\":334:451   */\ntag_31:\n    /* \"#utility.yul\":443:444   */\n  0x00\n    /* \"#utility.yul\":440:441   */\n  dup1\n    /* \"#utility.yul\":433:445   */\n  revert\n    /* \"#utility.yul\":457:559   */\ntag_32:\n    /* \"#utility.yul\":498:504   */\n  0x00\n    /* \"#utility.yul\":549:551   */\n  0x1f\n    /* \"#utility.yul\":545:552   */\n  not\n    /* \"#utility.yul\":540:542   */\n  0x1f\n    /* \"#utility.yul\":533:538   */\n  dup4\n    /* \"#utility.yul\":529:543   */\n  add\n    /* \"#utility.yul\":525:553   */\n  and\n    /* \"#utility.yul\":515:553   */\n  swap1\n  pop\n    /* \"#utility.yul\":457:559   */\n  swap2\n  swap1\n  pop\n  jump\t// out\n    /* \"#utility.yul\":565:745   */\ntag_33:\n    /* \"#utility.yul\":613:690   */\n  0x4e487b7100000000000000000000000000000000000000000000000000000000\n    /* \"#utility.yul\":610:611   */\n  0x00\n    /* \"#utility.yul\":603:691   */\n  mstore\n    /* \"#utility.yul\":710:714   */\n  0x41\n    /* \"#utility.yul\":707:708   */\n  0x04\n    /* \"#utility.yul\":700:715   */\n  mstore\n    /* \"#utility.yul\":734:738   */\n  0x24\n    /* \"#utility.yul\":731:732   */\n  0x00\n    /* \"#utility.yul\":724:739   */\n  revert\n    /* \"#utility.yul\":751:1032   */\ntag_34:\n    /* \"#utility.yul\":834:861   */\n  tag_60\n    /* \"#utility.yul\":856:860   */\n  dup3\n    /* \"#utility.yul\":834:861   */\n  tag_32\n  jump\t// in\ntag_60:\n    /* \"#utility.yul\":826:832   */\n  dup2\n    /* \"#utility.yul\":822:862   */\n  add\n    /* \"#utility.yul\":964:970   */\n  dup2\n    /* \"#utility.yul\":952:962   */\n  dup2\n    /* \"#utility.yul\":949:971   */\n  lt\n    /* \"#utility.yul\":928:946   */\n  0xffffffffffffffff\n    /* \"#utility.yul\":916:926   */\n  dup3\n    /* \"#utility.yul\":913:947   */\n  gt\n    /* \"#utility.yul\":910:972   */\n  or\n    /* \"#utility.yul\":907:995   */\n  iszero\n  tag_61\n  jumpi\n    /* \"#utility.yul\":975:993   */\n  tag_62\n  tag_33\n  jump\t// in\ntag_62:\n    /* \"#utility.yul\":907:995   */\ntag_61:\n    /* \"#utility.yul\":1015:1025   */\n  dup1\n    /* \"#utility.yul\":1011:1013   */\n  0x40\n    /* \"#utility.yul\":1004:1026   */\n  mstore\n    /* \"#utility.yul\":794:1032   */\n  pop\n    /* \"#utility.yul\":751:1032   */\n  pop\n  pop\n  jump\t// out\n    /* \"#utility.yul\":1038:1167   */\ntag_35:\n    /* \"#utility.yul\":1072:1078   */\n  0x00\n    /* \"#utility.yul\":1099:1119   */\n  tag_64\n  tag_28\n  jump\t// in\ntag_64:\n    /* \"#utility.yul\":1089:1119   */\n  swap1\n  pop\n    /* \"#utility.yul\":1128:1161   */\n  tag_65\n    /* \"#utility.yul\":1156:1160   */\n  dup3\n    /* \"#utility.yul\":1148:1154   */\n  dup3\n    /* \"#utility.yul\":1128:1161   */\n  tag_34\n  jump\t// in\ntag_65:\n    /* \"#utility.yul\":1038:1167   */\n  swap2\n  swap1\n  pop\n  jump\t// out\n    /* \"#utility.yul\":1173:1484   */\ntag_36:\n    /* \"#utility.yul\":1250:1254   */\n  0x00\n    /* \"#utility.yul\":1340:1358   */\n  0xffffffffffffffff\n    /* \"#utility.yul\":1332:1338   */\n  dup3\n    /* \"#utility.yul\":1329:1359   */\n  gt\n    /* \"#utility.yul\":1326:1382   */\n  iszero\n  tag_67\n  jumpi\n    /* \"#utility.yul\":1362:1380   */\n  tag_68\n  tag_33\n  jump\t// in\ntag_68:\n    /* \"#utility.yul\":1326:1382   */\ntag_67:\n    /* \"#utility.yul\":1412:1416   */\n  0x20\n    /* \"#utility.yul\":1404:1410   */\n  dup3\n    /* \"#utility.yul\":1400:1417   */\n  mul\n    /* \"#utility.yul\":1392:1417   */\n  swap1\n  pop\n    /* \"#utility.yul\":1472:1476   */\n  0x20\n    /* \"#utility.yul\":1466:1470   */\n  dup2\n    /* \"#utility.yul\":1462:1477   */\n  add\n    /* \"#utility.yul\":1454:1477   */\n  swap1\n  pop\n    /* \"#utility.yul\":1173:1484   */\n  swap2\n  swap1\n  pop\n  jump\t// out\n    /* \"#utility.yul\":1490:1607   */\ntag_37:\n    /* \"#utility.yul\":1599:1600   */\n  0x00\n    /* \"#utility.yul\":1596:1597   */\n  dup1\n    /* \"#utility.yul\":1589:1601   */\n  revert\n    /* \"#utility.yul\":1613:1739   */\ntag_38:\n    /* \"#utility.yul\":1650:1657   */\n  0x00\n    /* \"#utility.yul\":1690:1732   */\n  0xffffffffffffffffffffffffffffffffffffffff\n    /* \"#utility.yul\":1683:1688   */\n  dup3\n    /* \"#utility.yul\":1679:1733   */\n  and\n    /* \"#utility.yul\":1668:1733   */\n  swap1\n  pop\n    /* \"#utility.yul\":1613:1739   */\n  swap2\n  swap1\n  pop\n  jump\t// out\n    /* \"#utility.yul\":1745:1841   */\ntag_39:\n    /* \"#utility.yul\":1782:1789   */\n  0x00\n    /* \"#utility.yul\":1811:1835   */\n  tag_72\n    /* \"#utility.yul\":1829:1834   */\n  dup3\n    /* \"#utility.yul\":1811:1835   */\n  tag_38\n  jump\t// in\ntag_72:\n    /* \"#utility.yul\":1800:1835   */\n  swap1\n  pop\n    /* \"#utility.yul\":1745:1841   */\n  swap2\n  swap1\n  pop\n  jump\t// out\n    /* \"#utility.yul\":1847:1969   */\ntag_40:\n    /* \"#utility.yul\":1920:1944   */\n  tag_74\n    /* \"#utility.yul\":1938:1943   */\n  dup2\n    /* \"#utility.yul\":1920:1944   */\n  tag_39\n  jump\t// in\ntag_74:\n    /* \"#utility.yul\":1913:1918   */\n  dup2\n    /* \"#utility.yul\":1910:1945   */\n  eq\n    /* \"#utility.yul\":1900:1963   */\n  tag_75\n  jumpi\n    /* \"#utility.yul\":1959:1960   */\n  0x00\n    /* \"#utility.yul\":1956:1957   */\n  dup1\n    /* \"#utility.yul\":1949:1961   */\n  revert\n    /* \"#utility.yul\":1900:1963   */\ntag_75:\n    /* \"#utility.yul\":1847:1969   */\n  pop\n  jump\t// out\n    /* \"#utility.yul\":1975:2118   */\ntag_41:\n    /* \"#utility.yul\":2032:2037   */\n  0x00\n    /* \"#utility.yul\":2063:2069   */\n  dup2\n    /* \"#utility.yul\":2057:2070   */\n  mload\n    /* \"#utility.yul\":2048:2070   */\n  swap1\n  pop\n    /* \"#utility.yul\":2079:2112   */\n  tag_77\n    /* \"#utility.yul\":2106:2111   */\n  dup2\n    /* \"#utility.yul\":2079:2112   */\n  tag_40\n  jump\t// in\ntag_77:\n    /* \"#utility.yul\":1975:2118   */\n  swap3\n  swap2\n  pop\n  pop\n  jump\t// out\n    /* \"#utility.yul\":2141:2873   */\ntag_42:\n    /* \"#utility.yul\":2248:2253   */\n  0x00\n    /* \"#utility.yul\":2273:2354   */\n  tag_79\n    /* \"#utility.yul\":2289:2353   */\n  tag_80\n    /* \"#utility.yul\":2346:2352   */\n  dup5\n    /* \"#utility.yul\":2289:2353   */\n  tag_36\n  jump\t// in\ntag_80:\n    /* \"#utility.yul\":2273:2354   */\n  tag_35\n  jump\t// in\ntag_79:\n    /* \"#utility.yul\":2264:2354   */\n  swap1\n  pop\n    /* \"#utility.yul\":2374:2379   */\n  dup1\n    /* \"#utility.yul\":2403:2409   */\n  dup4\n    /* \"#utility.yul\":2396:2401   */\n  dup3\n    /* \"#utility.yul\":2389:2410   */\n  mstore\n    /* \"#utility.yul\":2437:2441   */\n  0x20\n    /* \"#utility.yul\":2430:2435   */\n  dup3\n    /* \"#utility.yul\":2426:2442   */\n  add\n    /* \"#utility.yul\":2419:2442   */\n  swap1\n  pop\n    /* \"#utility.yul\":2490:2494   */\n  0x20\n    /* \"#utility.yul\":2482:2488   */\n  dup5\n    /* \"#utility.yul\":2478:2495   */\n  mul\n    /* \"#utility.yul\":2470:2476   */\n  dup4\n    /* \"#utility.yul\":2466:2496   */\n  add\n    /* \"#utility.yul\":2519:2522   */\n  dup6\n    /* \"#utility.yul\":2511:2517   */\n  dup2\n    /* \"#utility.yul\":2508:2523   */\n  gt\n    /* \"#utility.yul\":2505:2627   */\n  iszero\n  tag_81\n  jumpi\n    /* \"#utility.yul\":2538:2617   */\n  tag_82\n  tag_37\n  jump\t// in\ntag_82:\n    /* \"#utility.yul\":2505:2627   */\ntag_81:\n    /* \"#utility.yul\":2653:2659   */\n  dup4\n    /* \"#utility.yul\":2636:2867   */\ntag_83:\n    /* \"#utility.yul\":2670:2676   */\n  dup2\n    /* \"#utility.yul\":2665:2668   */\n  dup2\n    /* \"#utility.yul\":2662:2677   */\n  lt\n    /* \"#utility.yul\":2636:2867   */\n  iszero\n  tag_85\n  jumpi\n    /* \"#utility.yul\":2745:2748   */\n  dup1\n    /* \"#utility.yul\":2774:2822   */\n  tag_86\n    /* \"#utility.yul\":2818:2821   */\n  dup9\n    /* \"#utility.yul\":2806:2816   */\n  dup3\n    /* \"#utility.yul\":2774:2822   */\n  tag_41\n  jump\t// in\ntag_86:\n    /* \"#utility.yul\":2769:2772   */\n  dup5\n    /* \"#utility.yul\":2762:2823   */\n  mstore\n    /* \"#utility.yul\":2852:2856   */\n  0x20\n    /* \"#utility.yul\":2847:2850   */\n  dup5\n    /* \"#utility.yul\":2843:2857   */\n  add\n    /* \"#utility.yul\":2836:2857   */\n  swap4\n  pop\n    /* \"#utility.yul\":2712:2867   */\n  pop\n    /* \"#utility.yul\":2696:2700   */\n  0x20\n    /* \"#utility.yul\":2691:2694   */\n  dup2\n    /* \"#utility.yul\":2687:2701   */\n  add\n    /* \"#utility.yul\":2680:2701   */\n  swap1\n  pop\n    /* \"#utility.yul\":2636:2867   */\n  jump(tag_83)\ntag_85:\n    /* \"#utility.yul\":2640:2661   */\n  pop\n    /* \"#utility.yul\":2254:2873   */\n  pop\n  pop\n    /* \"#utility.yul\":2141:2873   */\n  swap4\n  swap3\n  pop\n  pop\n  pop\n  jump\t// out\n    /* \"#utility.yul\":2896:3281   */\ntag_43:\n    /* \"#utility.yul\":2978:2983   */\n  0x00\n    /* \"#utility.yul\":3027:3030   */\n  dup3\n    /* \"#utility.yul\":3020:3024   */\n  0x1f\n    /* \"#utility.yul\":3012:3018   */\n  dup4\n    /* \"#utility.yul\":3008:3025   */\n  add\n    /* \"#utility.yul\":3004:3031   */\n  slt\n    /* \"#utility.yul\":2994:3116   */\n  tag_88\n  jumpi\n    /* \"#utility.yul\":3035:3114   */\n  tag_89\n  tag_31\n  jump\t// in\ntag_89:\n    /* \"#utility.yul\":2994:3116   */\ntag_88:\n    /* \"#utility.yul\":3145:3151   */\n  dup2\n    /* \"#utility.yul\":3139:3152   */\n  mload\n    /* \"#utility.yul\":3170:3275   */\n  tag_90\n    /* \"#utility.yul\":3271:3274   */\n  dup5\n    /* \"#utility.yul\":3263:3269   */\n  dup3\n    /* \"#utility.yul\":3256:3260   */\n  0x20\n    /* \"#utility.yul\":3248:3254   */\n  dup7\n    /* \"#utility.yul\":3244:3261   */\n  add\n    /* \"#utility.yul\":3170:3275   */\n  tag_42\n  jump\t// in\ntag_90:\n    /* \"#utility.yul\":3161:3275   */\n  swap2\n  pop\n    /* \"#utility.yul\":2984:3281   */\n  pop\n    /* \"#utility.yul\":2896:3281   */\n  swap3\n  swap2\n  pop\n  pop\n  jump\t// out\n    /* \"#utility.yul\":3287:3364   */\ntag_44:\n    /* \"#utility.yul\":3324:3331   */\n  0x00\n    /* \"#utility.yul\":3353:3358   */\n  dup2\n    /* \"#utility.yul\":3342:3358   */\n  swap1\n  pop\n    /* \"#utility.yul\":3287:3364   */\n  swap2\n  swap1\n  pop\n  jump\t// out\n    /* \"#utility.yul\":3370:3492   */\ntag_45:\n    /* \"#utility.yul\":3443:3467   */\n  tag_93\n    /* \"#utility.yul\":3461:3466   */\n  dup2\n    /* \"#utility.yul\":3443:3467   */\n  tag_44\n  jump\t// in\ntag_93:\n    /* \"#utility.yul\":3436:3441   */\n  dup2\n    /* \"#utility.yul\":3433:3468   */\n  eq\n    /* \"#utility.yul\":3423:3486   */\n  tag_94\n  jumpi\n    /* \"#utility.yul\":3482:3483   */\n  0x00\n    /* \"#utility.yul\":3479:3480   */\n  dup1\n    /* \"#utility.yul\":3472:3484   */\n  revert\n    /* \"#utility.yul\":3423:3486   */\ntag_94:\n    /* \"#utility.yul\":3370:3492   */\n  pop\n  jump\t// out\n    /* \"#utility.yul\":3498:3641   */\ntag_46:\n    /* \"#utility.yul\":3555:3560   */\n  0x00\n    /* \"#utility.yul\":3586:3592   */\n  dup2\n    /* \"#utility.yul\":3580:3593   */\n  mload\n    /* \"#utility.yul\":3571:3593   */\n  swap1\n  pop\n    /* \"#utility.yul\":3602:3635   */\n  tag_96\n    /* \"#utility.yul\":3629:3634   */\n  dup2\n    /* \"#utility.yul\":3602:3635   */\n  tag_45\n  jump\t// in\ntag_96:\n    /* \"#utility.yul\":3498:3641   */\n  swap3\n  swap2\n  pop\n  pop\n  jump\t// out\n    /* \"#utility.yul\":3647:4827   */\ntag_3:\n    /* \"#utility.yul\":3778:3784   */\n  0x00\n    /* \"#utility.yul\":3786:3792   */\n  dup1\n    /* \"#utility.yul\":3794:3800   */\n  0x00\n    /* \"#utility.yul\":3802:3808   */\n  dup1\n    /* \"#utility.yul\":3810:3816   */\n  0x00\n    /* \"#utility.yul\":3859:3862   */\n  0xa0\n    /* \"#utility.yul\":3847:3856   */\n  dup7\n    /* \"#utility.yul\":3838:3845   */\n  dup9\n    /* \"#utility.yul\":3834:3857   */\n  sub\n    /* \"#utility.yul\":3830:3863   */\n  slt\n    /* \"#utility.yul\":3827:3947   */\n  iszero\n  tag_98\n  jumpi\n    /* \"#utility.yul\":3866:3945   */\n  tag_99\n  tag_29\n  jump\t// in\ntag_99:\n    /* \"#utility.yul\":3827:3947   */\ntag_98:\n    /* \"#utility.yul\":4007:4008   */\n  0x00\n    /* \"#utility.yul\":3996:4005   */\n  dup7\n    /* \"#utility.yul\":3992:4009   */\n  add\n    /* \"#utility.yul\":3986:4010   */\n  mload\n    /* \"#utility.yul\":4037:4055   */\n  0xffffffffffffffff\n    /* \"#utility.yul\":4029:4035   */\n  dup2\n    /* \"#utility.yul\":4026:4056   */\n  gt\n    /* \"#utility.yul\":4023:4140   */\n  iszero\n  tag_100\n  jumpi\n    /* \"#utility.yul\":4059:4138   */\n  tag_101\n  tag_30\n  jump\t// in\ntag_101:\n    /* \"#utility.yul\":4023:4140   */\ntag_100:\n    /* \"#utility.yul\":4164:4253   */\n  tag_102\n    /* \"#utility.yul\":4245:4252   */\n  dup9\n    /* \"#utility.yul\":4236:4242   */\n  dup3\n    /* \"#utility.yul\":4225:4234   */\n  dup10\n    /* \"#utility.yul\":4221:4243   */\n  add\n    /* \"#utility.yul\":4164:4253   */\n  tag_43\n  jump\t// in\ntag_102:\n    /* \"#utility.yul\":4154:4253   */\n  swap6\n  pop\n    /* \"#utility.yul\":3957:4263   */\n  pop\n    /* \"#utility.yul\":4302:4304   */\n  0x20\n    /* \"#utility.yul\":4328:4392   */\n  tag_103\n    /* \"#utility.yul\":4384:4391   */\n  dup9\n    /* \"#utility.yul\":4375:4381   */\n  dup3\n    /* \"#utility.yul\":4364:4373   */\n  dup10\n    /* \"#utility.yul\":4360:4382   */\n  add\n    /* \"#utility.yul\":4328:4392   */\n  tag_46\n  jump\t// in\ntag_103:\n    /* \"#utility.yul\":4318:4392   */\n  swap5\n  pop\n    /* \"#utility.yul\":4273:4402   */\n  pop\n    /* \"#utility.yul\":4441:4443   */\n  0x40\n    /* \"#utility.yul\":4467:4531   */\n  tag_104\n    /* \"#utility.yul\":4523:4530   */\n  dup9\n    /* \"#utility.yul\":4514:4520   */\n  dup3\n    /* \"#utility.yul\":4503:4512   */\n  dup10\n    /* \"#utility.yul\":4499:4521   */\n  add\n    /* \"#utility.yul\":4467:4531   */\n  tag_46\n  jump\t// in\ntag_104:\n    /* \"#utility.yul\":4457:4531   */\n  swap4\n  pop\n    /* \"#utility.yul\":4412:4541   */\n  pop\n    /* \"#utility.yul\":4580:4582   */\n  0x60\n    /* \"#utility.yul\":4606:4670   */\n  tag_105\n    /* \"#utility.yul\":4662:4669   */\n  dup9\n    /* \"#utility.yul\":4653:4659   */\n  dup3\n    /* \"#utility.yul\":4642:4651   */\n  dup10\n    /* \"#utility.yul\":4638:4660   */\n  add\n    /* \"#utility.yul\":4606:4670   */\n  tag_46\n  jump\t// in\ntag_105:\n    /* \"#utility.yul\":4596:4670   */\n  swap3\n  pop\n    /* \"#utility.yul\":4551:4680   */\n  pop\n    /* \"#utility.yul\":4719:4722   */\n  0x80\n    /* \"#utility.yul\":4746:4810   */\n  tag_106\n    /* \"#utility.yul\":4802:4809   */\n  dup9\n    /* \"#utility.yul\":4793:4799   */\n  dup3\n    /* \"#utility.yul\":4782:4791   */\n  dup10\n    /* \"#utility.yul\":4778:4800   */\n  add\n    /* \"#utility.yul\":4746:4810   */\n  tag_46\n  jump\t// in\ntag_106:\n    /* \"#utility.yul\":4736:4810   */\n  swap2\n  pop\n    /* \"#utility.yul\":4690:4820   */\n  pop\n    /* \"#utility.yul\":3647:4827   */\n  swap3\n  swap6\n  pop\n  swap3\n  swap6\n  swap1\n  swap4\n  pop\n  jump\t// out\n    /* \"#utility.yul\":4833:5002   */\ntag_47:\n    /* \"#utility.yul\":4917:4928   */\n  0x00\n    /* \"#utility.yul\":4951:4957   */\n  dup3\n    /* \"#utility.yul\":4946:4949   */\n  dup3\n    /* \"#utility.yul\":4939:4958   */\n  mstore\n    /* \"#utility.yul\":4991:4995   */\n  0x20\n    /* \"#utility.yul\":4986:4989   */\n  dup3\n    /* \"#utility.yul\":4982:4996   */\n  add\n    /* \"#utility.yul\":4967:4996   */\n  swap1\n  pop\n    /* \"#utility.yul\":4833:5002   */\n  swap3\n  swap2\n  pop\n  pop\n  jump\t// out\n    /* \"#utility.yul\":5008:5326   */\ntag_48:\n    /* \"#utility.yul\":5148:5182   */\n  0x506c6561736520656e7375726520746865206e756d626572206f66206173736f\n    /* \"#utility.yul\":5144:5145   */\n  0x00\n    /* \"#utility.yul\":5136:5142   */\n  dup3\n    /* \"#utility.yul\":5132:5146   */\n  add\n    /* \"#utility.yul\":5125:5183   */\n  mstore\n    /* \"#utility.yul\":5217:5251   */\n  0x63696174696f6e206d656d62657273206d6174636820746865206e756d626572\n    /* \"#utility.yul\":5212:5214   */\n  0x20\n    /* \"#utility.yul\":5204:5210   */\n  dup3\n    /* \"#utility.yul\":5200:5215   */\n  add\n    /* \"#utility.yul\":5193:5252   */\n  mstore\n    /* \"#utility.yul\":5286:5318   */\n  0x206f662077616c6c6574206164647265737365732070726f76696465642e0000\n    /* \"#utility.yul\":5281:5283   */\n  0x40\n    /* \"#utility.yul\":5273:5279   */\n  dup3\n    /* \"#utility.yul\":5269:5284   */\n  add\n    /* \"#utility.yul\":5262:5319   */\n  mstore\n    /* \"#utility.yul\":5008:5326   */\n  pop\n  jump\t// out\n    /* \"#utility.yul\":5332:5698   */\ntag_49:\n    /* \"#utility.yul\":5474:5477   */\n  0x00\n    /* \"#utility.yul\":5495:5562   */\n  tag_110\n    /* \"#utility.yul\":5559:5561   */\n  0x5e\n    /* \"#utility.yul\":5554:5557   */\n  dup4\n    /* \"#utility.yul\":5495:5562   */\n  tag_47\n  jump\t// in\ntag_110:\n    /* \"#utility.yul\":5488:5562   */\n  swap2\n  pop\n    /* \"#utility.yul\":5571:5664   */\n  tag_111\n    /* \"#utility.yul\":5660:5663   */\n  dup3\n    /* \"#utility.yul\":5571:5664   */\n  tag_48\n  jump\t// in\ntag_111:\n    /* \"#utility.yul\":5689:5691   */\n  0x60\n    /* \"#utility.yul\":5684:5687   */\n  dup3\n    /* \"#utility.yul\":5680:5692   */\n  add\n    /* \"#utility.yul\":5673:5692   */\n  swap1\n  pop\n    /* \"#utility.yul\":5332:5698   */\n  swap2\n  swap1\n  pop\n  jump\t// out\n    /* \"#utility.yul\":5704:6123   */\ntag_8:\n    /* \"#utility.yul\":5870:5874   */\n  0x00\n    /* \"#utility.yul\":5908:5910   */\n  0x20\n    /* \"#utility.yul\":5897:5906   */\n  dup3\n    /* \"#utility.yul\":5893:5911   */\n  add\n    /* \"#utility.yul\":5885:5911   */\n  swap1\n  pop\n    /* \"#utility.yul\":5957:5966   */\n  dup2\n    /* \"#utility.yul\":5951:5955   */\n  dup2\n    /* \"#utility.yul\":5947:5967   */\n  sub\n    /* \"#utility.yul\":5943:5944   */\n  0x00\n    /* \"#utility.yul\":5932:5941   */\n  dup4\n    /* \"#utility.yul\":5928:5945   */\n  add\n    /* \"#utility.yul\":5921:5968   */\n  mstore\n    /* \"#utility.yul\":5985:6116   */\n  tag_113\n    /* \"#utility.yul\":6111:6115   */\n  dup2\n    /* \"#utility.yul\":5985:6116   */\n  tag_49\n  jump\t// in\ntag_113:\n    /* \"#utility.yul\":5977:6116   */\n  swap1\n  pop\n    /* \"#utility.yul\":5704:6123   */\n  swap2\n  swap1\n  pop\n  jump\t// out\n    /* \"#utility.yul\":6129:6309   */\ntag_14:\n    /* \"#utility.yul\":6177:6254   */\n  0x4e487b7100000000000000000000000000000000000000000000000000000000\n    /* \"#utility.yul\":6174:6175   */\n  0x00\n    /* \"#utility.yul\":6167:6255   */\n  mstore\n    /* \"#utility.yul\":6274:6278   */\n  0x32\n    /* \"#utility.yul\":6271:6272   */\n  0x04\n    /* \"#utility.yul\":6264:6279   */\n  mstore\n    /* \"#utility.yul\":6298:6302   */\n  0x24\n    /* \"#utility.yul\":6295:6296   */\n  0x00\n    /* \"#utility.yul\":6288:6303   */\n  revert\n    /* \"#utility.yul\":6315:6487   */\ntag_50:\n    /* \"#utility.yul\":6455:6479   */\n  0x496e76616c6964206d656d626572206164647265737300000000000000000000\n    /* \"#utility.yul\":6451:6452   */\n  0x00\n    /* \"#utility.yul\":6443:6449   */\n  dup3\n    /* \"#utility.yul\":6439:6453   */\n  add\n    /* \"#utility.yul\":6432:6480   */\n  mstore\n    /* \"#utility.yul\":6315:6487   */\n  pop\n  jump\t// out\n    /* \"#utility.yul\":6493:6859   */\ntag_51:\n    /* \"#utility.yul\":6635:6638   */\n  0x00\n    /* \"#utility.yul\":6656:6723   */\n  tag_117\n    /* \"#utility.yul\":6720:6722   */\n  0x16\n    /* \"#utility.yul\":6715:6718   */\n  dup4\n    /* \"#utility.yul\":6656:6723   */\n  tag_47\n  jump\t// in\ntag_117:\n    /* \"#utility.yul\":6649:6723   */\n  swap2\n  pop\n    /* \"#utility.yul\":6732:6825   */\n  tag_118\n    /* \"#utility.yul\":6821:6824   */\n  dup3\n    /* \"#utility.yul\":6732:6825   */\n  tag_50\n  jump\t// in\ntag_118:\n    /* \"#utility.yul\":6850:6852   */\n  0x20\n    /* \"#utility.yul\":6845:6848   */\n  dup3\n    /* \"#utility.yul\":6841:6853   */\n  add\n    /* \"#utility.yul\":6834:6853   */\n  swap1\n  pop\n    /* \"#utility.yul\":6493:6859   */\n  swap2\n  swap1\n  pop\n  jump\t// out\n    /* \"#utility.yul\":6865:7284   */\ntag_17:\n    /* \"#utility.yul\":7031:7035   */\n  0x00\n    /* \"#utility.yul\":7069:7071   */\n  0x20\n    /* \"#utility.yul\":7058:7067   */\n  dup3\n    /* \"#utility.yul\":7054:7072   */\n  add\n    /* \"#utility.yul\":7046:7072   */\n  swap1\n  pop\n    /* \"#utility.yul\":7118:7127   */\n  dup2\n    /* \"#utility.yul\":7112:7116   */\n  dup2\n    /* \"#utility.yul\":7108:7128   */\n  sub\n    /* \"#utility.yul\":7104:7105   */\n  0x00\n    /* \"#utility.yul\":7093:7102   */\n  dup4\n    /* \"#utility.yul\":7089:7106   */\n  add\n    /* \"#utility.yul\":7082:7129   */\n  mstore\n    /* \"#utility.yul\":7146:7277   */\n  tag_120\n    /* \"#utility.yul\":7272:7276   */\n  dup2\n    /* \"#utility.yul\":7146:7277   */\n  tag_51\n  jump\t// in\ntag_120:\n    /* \"#utility.yul\":7138:7277   */\n  swap1\n  pop\n    /* \"#utility.yul\":6865:7284   */\n  swap2\n  swap1\n  pop\n  jump\t// out\n    /* \"Contract_Templates/Tanda.sol\":58:3225  contract Tanda {... */\ntag_20:\n  dataSize(sub_0)\n  dup1\n  dataOffset(sub_0)\n  0x00\n  codecopy\n  0x00\n  return\nstop\n\nsub_0: assembly {\n        /* \"Contract_Templates/Tanda.sol\":58:3225  contract Tanda {... */\n      mstore(0x40, 0x80)\n      jumpi(tag_1, lt(calldatasize, 0x04))\n      shr(0xe0, calldataload(0x00))\n      dup1\n      0x3fe071be\n      gt\n      tag_12\n      jumpi\n      dup1\n      0x3fe071be\n      eq\n      tag_7\n      jumpi\n      dup1\n      0x4698d110\n      eq\n      tag_8\n      jumpi\n      dup1\n      0x50a644d1\n      eq\n      tag_9\n      jumpi\n      dup1\n      0x5d8d12d6\n      eq\n      tag_10\n      jumpi\n      dup1\n      0x8d0aa1b2\n      eq\n      tag_11\n      jumpi\n      jump(tag_1)\n    tag_12:\n      dup1\n      0x091fb010\n      eq\n      tag_2\n      jumpi\n      dup1\n      0x316fda0f\n      eq\n      tag_3\n      jumpi\n      dup1\n      0x335e536c\n      eq\n      tag_4\n      jumpi\n      dup1\n      0x346477c7\n      eq\n      tag_5\n      jumpi\n      dup1\n      0x368d6eb7\n      eq\n      tag_6\n      jumpi\n    tag_1:\n      0x00\n      dup1\n      revert\n        /* \"Contract_Templates/Tanda.sol\":1296:1331  uint256 public nextDistributionTime */\n    tag_2:\n      callvalue\n      dup1\n      iszero\n      tag_13\n      jumpi\n      0x00\n      dup1\n      revert\n    tag_13:\n      pop\n      tag_14\n      tag_15\n      jump\t// in\n    tag_14:\n      mload(0x40)\n      tag_16\n      swap2\n      swap1\n      tag_17\n      jump\t// in\n    tag_16:\n      mload(0x40)\n      dup1\n      swap2\n      sub\n      swap1\n      return\n        /* \"Contract_Templates/Tanda.sol\":1189:1214  uint256 public cycleCount */\n    tag_3:\n      callvalue\n      dup1\n      iszero\n      tag_18\n      jumpi\n      0x00\n      dup1\n      revert\n    tag_18:\n      pop\n      tag_19\n      tag_20\n      jump\t// in\n    tag_19:\n      mload(0x40)\n      tag_21\n      swap2\n      swap1\n      tag_17\n      jump\t// in\n    tag_21:\n      mload(0x40)\n      dup1\n      swap2\n      sub\n      swap1\n      return\n        /* \"Contract_Templates/Tanda.sol\":1097:1126  uint256 public cycleStartTime */\n    tag_4:\n      callvalue\n      dup1\n      iszero\n      tag_22\n      jumpi\n      0x00\n      dup1\n      revert\n    tag_22:\n      pop\n      tag_23\n      tag_24\n      jump\t// in\n    tag_23:\n      mload(0x40)\n      tag_25\n      swap2\n      swap1\n      tag_17\n      jump\t// in\n    tag_25:\n      mload(0x40)\n      dup1\n      swap2\n      sub\n      swap1\n      return\n        /* \"Contract_Templates/Tanda.sol\":1414:1463  mapping(address => bool) public hasReceivedPayout */\n    tag_5:\n      callvalue\n      dup1\n      iszero\n      tag_26\n      jumpi\n      0x00\n      dup1\n      revert\n    tag_26:\n      pop\n      tag_27\n      0x04\n      dup1\n      calldatasize\n      sub\n      dup2\n      add\n      swap1\n      tag_28\n      swap2\n      swap1\n      tag_29\n      jump\t// in\n    tag_28:\n      tag_30\n      jump\t// in\n    tag_27:\n      mload(0x40)\n      tag_31\n      swap2\n      swap1\n      tag_32\n      jump\t// in\n    tag_31:\n      mload(0x40)\n      dup1\n      swap2\n      sub\n      swap1\n      return\n        /* \"Contract_Templates/Tanda.sol\":844:899  mapping(address => bool) public hasContributedThisCycle */\n    tag_6:\n      callvalue\n      dup1\n      iszero\n      tag_33\n      jumpi\n      0x00\n      dup1\n      revert\n    tag_33:\n      pop\n      tag_34\n      0x04\n      dup1\n      calldatasize\n      sub\n      dup2\n      add\n      swap1\n      tag_35\n      swap2\n      swap1\n      tag_29\n      jump\t// in\n    tag_35:\n      tag_36\n      jump\t// in\n    tag_34:\n      mload(0x40)\n      tag_37\n      swap2\n      swap1\n      tag_32\n      jump\t// in\n    tag_37:\n      mload(0x40)\n      dup1\n      swap2\n      sub\n      swap1\n      return\n        /* \"Contract_Templates/Tanda.sol\":1551:1581  uint256 public nextPayoutIndex */\n    tag_7:\n      callvalue\n      dup1\n      iszero\n      tag_38\n      jumpi\n      0x00\n      dup1\n      revert\n    tag_38:\n      pop\n      tag_39\n      tag_40\n      jump\t// in\n    tag_39:\n      mload(0x40)\n      tag_41\n      swap2\n      swap1\n      tag_17\n      jump\t// in\n    tag_41:\n      mload(0x40)\n      dup1\n      swap2\n      sub\n      swap1\n      return\n        /* \"Contract_Templates/Tanda.sol\":128:153  uint256 public numMembers */\n    tag_8:\n      callvalue\n      dup1\n      iszero\n      tag_42\n      jumpi\n      0x00\n      dup1\n      revert\n    tag_42:\n      pop\n      tag_43\n      tag_44\n      jump\t// in\n    tag_43:\n      mload(0x40)\n      tag_45\n      swap2\n      swap1\n      tag_17\n      jump\t// in\n    tag_45:\n      mload(0x40)\n      dup1\n      swap2\n      sub\n      swap1\n      return\n        /* \"Contract_Templates/Tanda.sol\":978:1015  uint256 public contributionsThisCycle */\n    tag_9:\n      callvalue\n      dup1\n      iszero\n      tag_46\n      jumpi\n      0x00\n      dup1\n      revert\n    tag_46:\n      pop\n      tag_47\n      tag_48\n      jump\t// in\n    tag_47:\n      mload(0x40)\n      tag_49\n      swap2\n      swap1\n      tag_17\n      jump\t// in\n    tag_49:\n      mload(0x40)\n      dup1\n      swap2\n      sub\n      swap1\n      return\n        /* \"Contract_Templates/Tanda.sol\":2707:3214  function regular_contribution() external payable returns (string memory) {... */\n    tag_10:\n      tag_50\n      tag_51\n      jump\t// in\n    tag_50:\n      mload(0x40)\n      tag_52\n      swap2\n      swap1\n      tag_53\n      jump\t// in\n    tag_52:\n      mload(0x40)\n      dup1\n      swap2\n      sub\n      swap1\n      return\n        /* \"Contract_Templates/Tanda.sol\":225:268  uint256 public contributionFrequencyInWeeks */\n    tag_11:\n      callvalue\n      dup1\n      iszero\n      tag_54\n      jumpi\n      0x00\n      dup1\n      revert\n    tag_54:\n      pop\n      tag_55\n      tag_56\n      jump\t// in\n    tag_55:\n      mload(0x40)\n      tag_57\n      swap2\n      swap1\n      tag_17\n      jump\t// in\n    tag_57:\n      mload(0x40)\n      dup1\n      swap2\n      sub\n      swap1\n      return\n        /* \"Contract_Templates/Tanda.sol\":1296:1331  uint256 public nextDistributionTime */\n    tag_15:\n      sload(0x09)\n      dup2\n      jump\t// out\n        /* \"Contract_Templates/Tanda.sol\":1189:1214  uint256 public cycleCount */\n    tag_20:\n      sload(0x08)\n      dup2\n      jump\t// out\n        /* \"Contract_Templates/Tanda.sol\":1097:1126  uint256 public cycleStartTime */\n    tag_24:\n      sload(0x07)\n      dup2\n      jump\t// out\n        /* \"Contract_Templates/Tanda.sol\":1414:1463  mapping(address => bool) public hasReceivedPayout */\n    tag_30:\n      mstore(0x20, 0x0a)\n      dup1\n      0x00\n      mstore\n      keccak256(0x00, 0x40)\n      0x00\n      swap2\n      pop\n      sload\n      swap1\n      0x0100\n      exp\n      swap1\n      div\n      0xff\n      and\n      dup2\n      jump\t// out\n        /* \"Contract_Templates/Tanda.sol\":844:899  mapping(address => bool) public hasContributedThisCycle */\n    tag_36:\n      mstore(0x20, 0x05)\n      dup1\n      0x00\n      mstore\n      keccak256(0x00, 0x40)\n      0x00\n      swap2\n      pop\n      sload\n      swap1\n      0x0100\n      exp\n      swap1\n      div\n      0xff\n      and\n      dup2\n      jump\t// out\n        /* \"Contract_Templates/Tanda.sol\":1551:1581  uint256 public nextPayoutIndex */\n    tag_40:\n      sload(0x0b)\n      dup2\n      jump\t// out\n        /* \"Contract_Templates/Tanda.sol\":128:153  uint256 public numMembers */\n    tag_44:\n      sload(0x00)\n      dup2\n      jump\t// out\n        /* \"Contract_Templates/Tanda.sol\":978:1015  uint256 public contributionsThisCycle */\n    tag_48:\n      sload(0x06)\n      dup2\n      jump\t// out\n        /* \"Contract_Templates/Tanda.sol\":2707:3214  function regular_contribution() external payable returns (string memory) {... */\n    tag_51:\n        /* \"Contract_Templates/Tanda.sol\":2765:2778  string memory */\n      0x60\n        /* \"Contract_Templates/Tanda.sol\":2798:2818  isMember(msg.sender) */\n      tag_59\n        /* \"Contract_Templates/Tanda.sol\":2807:2817  msg.sender */\n      caller\n        /* \"Contract_Templates/Tanda.sol\":2798:2806  isMember */\n      tag_60\n        /* \"Contract_Templates/Tanda.sol\":2798:2818  isMember(msg.sender) */\n      jump\t// in\n    tag_59:\n        /* \"Contract_Templates/Tanda.sol\":2790:2874  require(isMember(msg.sender), \"Must be a member to make contribution to this Tanda\") */\n      tag_61\n      jumpi\n      mload(0x40)\n      0x08c379a000000000000000000000000000000000000000000000000000000000\n      dup2\n      mstore\n      0x04\n      add\n      tag_62\n      swap1\n      tag_63\n      jump\t// in\n    tag_62:\n      mload(0x40)\n      dup1\n      swap2\n      sub\n      swap1\n      revert\n    tag_61:\n        /* \"Contract_Templates/Tanda.sol\":2894:2917  hasContributedThisCycle */\n      0x05\n        /* \"Contract_Templates/Tanda.sol\":2894:2929  hasContributedThisCycle[msg.sender] */\n      0x00\n        /* \"Contract_Templates/Tanda.sol\":2918:2928  msg.sender */\n      caller\n        /* \"Contract_Templates/Tanda.sol\":2894:2929  hasContributedThisCycle[msg.sender] */\n      0xffffffffffffffffffffffffffffffffffffffff\n      and\n      0xffffffffffffffffffffffffffffffffffffffff\n      and\n      dup2\n      mstore\n      0x20\n      add\n      swap1\n      dup2\n      mstore\n      0x20\n      add\n      0x00\n      keccak256\n      0x00\n      swap1\n      sload\n      swap1\n      0x0100\n      exp\n      swap1\n      div\n      0xff\n      and\n        /* \"Contract_Templates/Tanda.sol\":2893:2929  !hasContributedThisCycle[msg.sender] */\n      iszero\n        /* \"Contract_Templates/Tanda.sol\":2885:2964  require(!hasContributedThisCycle[msg.sender], \"Already contributed this cycle\") */\n      tag_64\n      jumpi\n      mload(0x40)\n      0x08c379a000000000000000000000000000000000000000000000000000000000\n      dup2\n      mstore\n      0x04\n      add\n      tag_65\n      swap1\n      tag_66\n      jump\t// in\n    tag_65:\n      mload(0x40)\n      dup1\n      swap2\n      sub\n      swap1\n      revert\n    tag_64:\n        /* \"Contract_Templates/Tanda.sol\":2996:3014  contributionAmount */\n      sload(0x02)\n        /* \"Contract_Templates/Tanda.sol\":2983:2992  msg.value */\n      callvalue\n        /* \"Contract_Templates/Tanda.sol\":2983:3014  msg.value == contributionAmount */\n      eq\n        /* \"Contract_Templates/Tanda.sol\":2975:3056  require(msg.value == contributionAmount, \"Please contribute the required amount\") */\n      tag_67\n      jumpi\n      mload(0x40)\n      0x08c379a000000000000000000000000000000000000000000000000000000000\n      dup2\n      mstore\n      0x04\n      add\n      tag_68\n      swap1\n      tag_69\n      jump\t// in\n    tag_68:\n      mload(0x40)\n      dup1\n      swap2\n      sub\n      swap1\n      revert\n    tag_67:\n        /* \"Contract_Templates/Tanda.sol\":3105:3109  true */\n      0x01\n        /* \"Contract_Templates/Tanda.sol\":3067:3090  hasContributedThisCycle */\n      0x05\n        /* \"Contract_Templates/Tanda.sol\":3067:3102  hasContributedThisCycle[msg.sender] */\n      0x00\n        /* \"Contract_Templates/Tanda.sol\":3091:3101  msg.sender */\n      caller\n        /* \"Contract_Templates/Tanda.sol\":3067:3102  hasContributedThisCycle[msg.sender] */\n      0xffffffffffffffffffffffffffffffffffffffff\n      and\n      0xffffffffffffffffffffffffffffffffffffffff\n      and\n      dup2\n      mstore\n      0x20\n      add\n      swap1\n      dup2\n      mstore\n      0x20\n      add\n      0x00\n      keccak256\n      0x00\n        /* \"Contract_Templates/Tanda.sol\":3067:3109  hasContributedThisCycle[msg.sender] = true */\n      0x0100\n      exp\n      dup2\n      sload\n      dup2\n      0xff\n      mul\n      not\n      and\n      swap1\n      dup4\n      iszero\n      iszero\n      mul\n      or\n      swap1\n      sstore\n      pop\n        /* \"Contract_Templates/Tanda.sol\":3146:3147  1 */\n      0x01\n        /* \"Contract_Templates/Tanda.sol\":3120:3142  contributionsThisCycle */\n      0x06\n      0x00\n        /* \"Contract_Templates/Tanda.sol\":3120:3147  contributionsThisCycle += 1 */\n      dup3\n      dup3\n      sload\n      tag_70\n      swap2\n      swap1\n      tag_71\n      jump\t// in\n    tag_70:\n      swap3\n      pop\n      pop\n      dup2\n      swap1\n      sstore\n      pop\n        /* \"Contract_Templates/Tanda.sol\":3159:3207  return \"Thank you for making your contribution!\" */\n      mload(0x40)\n      dup1\n      0x60\n      add\n      0x40\n      mstore\n      dup1\n      0x27\n      dup2\n      mstore\n      0x20\n      add\n      data_d628f1179ff66bf0b0df175aa2bb634467717839c4691d60ed9734d80a3bd507\n      0x27\n      swap2\n      codecopy\n      swap1\n      pop\n        /* \"Contract_Templates/Tanda.sol\":2707:3214  function regular_contribution() external payable returns (string memory) {... */\n      swap1\n      jump\t// out\n        /* \"Contract_Templates/Tanda.sol\":225:268  uint256 public contributionFrequencyInWeeks */\n    tag_56:\n      sload(0x01)\n      dup2\n      jump\t// out\n        /* \"Contract_Templates/Tanda.sol\":2467:2701  function isMember(address _addr) internal view returns (bool) {... */\n    tag_60:\n        /* \"Contract_Templates/Tanda.sol\":2523:2527  bool */\n      0x00\n        /* \"Contract_Templates/Tanda.sol\":2544:2553  uint256 i */\n      dup1\n        /* \"Contract_Templates/Tanda.sol\":2556:2557  0 */\n      0x00\n        /* \"Contract_Templates/Tanda.sol\":2544:2557  uint256 i = 0 */\n      swap1\n      pop\n        /* \"Contract_Templates/Tanda.sol\":2539:2673  for (uint256 i = 0; i < numMembers; i++) {... */\n    tag_73:\n        /* \"Contract_Templates/Tanda.sol\":2563:2573  numMembers */\n      sload(0x00)\n        /* \"Contract_Templates/Tanda.sol\":2559:2560  i */\n      dup2\n        /* \"Contract_Templates/Tanda.sol\":2559:2573  i < numMembers */\n      lt\n        /* \"Contract_Templates/Tanda.sol\":2539:2673  for (uint256 i = 0; i < numMembers; i++) {... */\n      iszero\n      tag_74\n      jumpi\n        /* \"Contract_Templates/Tanda.sol\":2612:2617  _addr */\n      dup3\n        /* \"Contract_Templates/Tanda.sol\":2598:2617  members[i] == _addr */\n      0xffffffffffffffffffffffffffffffffffffffff\n      and\n        /* \"Contract_Templates/Tanda.sol\":2598:2605  members */\n      0x04\n        /* \"Contract_Templates/Tanda.sol\":2606:2607  i */\n      dup3\n        /* \"Contract_Templates/Tanda.sol\":2598:2608  members[i] */\n      dup2\n      sload\n      dup2\n      lt\n      tag_76\n      jumpi\n      tag_77\n      tag_78\n      jump\t// in\n    tag_77:\n    tag_76:\n      swap1\n      0x00\n      mstore\n      keccak256(0x00, 0x20)\n      add\n      0x00\n      swap1\n      sload\n      swap1\n      0x0100\n      exp\n      swap1\n      div\n      0xffffffffffffffffffffffffffffffffffffffff\n      and\n        /* \"Contract_Templates/Tanda.sol\":2598:2617  members[i] == _addr */\n      0xffffffffffffffffffffffffffffffffffffffff\n      and\n      sub\n        /* \"Contract_Templates/Tanda.sol\":2594:2663  if (members[i] == _addr) {... */\n      tag_80\n      jumpi\n        /* \"Contract_Templates/Tanda.sol\":2644:2648  true */\n      0x01\n        /* \"Contract_Templates/Tanda.sol\":2637:2648  return true */\n      swap2\n      pop\n      pop\n      jump(tag_72)\n        /* \"Contract_Templates/Tanda.sol\":2594:2663  if (members[i] == _addr) {... */\n    tag_80:\n        /* \"Contract_Templates/Tanda.sol\":2575:2578  i++ */\n      dup1\n      dup1\n      0x01\n      add\n      swap2\n      pop\n      pop\n        /* \"Contract_Templates/Tanda.sol\":2539:2673  for (uint256 i = 0; i < numMembers; i++) {... */\n      jump(tag_73)\n    tag_74:\n      pop\n        /* \"Contract_Templates/Tanda.sol\":2689:2694  false */\n      0x00\n        /* \"Contract_Templates/Tanda.sol\":2682:2694  return false */\n      swap1\n      pop\n        /* \"Contract_Templates/Tanda.sol\":2467:2701  function isMember(address _addr) internal view returns (bool) {... */\n    tag_72:\n      swap2\n      swap1\n      pop\n      jump\t// out\n        /* \"#utility.yul\":7:84   */\n    tag_81:\n        /* \"#utility.yul\":44:51   */\n      0x00\n        /* \"#utility.yul\":73:78   */\n      dup2\n        /* \"#utility.yul\":62:78   */\n      swap1\n      pop\n        /* \"#utility.yul\":7:84   */\n      swap2\n      swap1\n      pop\n      jump\t// out\n        /* \"#utility.yul\":90:208   */\n    tag_82:\n        /* \"#utility.yul\":177:201   */\n      tag_107\n        /* \"#utility.yul\":195:200   */\n      dup2\n        /* \"#utility.yul\":177:201   */\n      tag_81\n      jump\t// in\n    tag_107:\n        /* \"#utility.yul\":172:175   */\n      dup3\n        /* \"#utility.yul\":165:202   */\n      mstore\n        /* \"#utility.yul\":90:208   */\n      pop\n      pop\n      jump\t// out\n        /* \"#utility.yul\":214:436   */\n    tag_17:\n        /* \"#utility.yul\":307:311   */\n      0x00\n        /* \"#utility.yul\":345:347   */\n      0x20\n        /* \"#utility.yul\":334:343   */\n      dup3\n        /* \"#utility.yul\":330:348   */\n      add\n        /* \"#utility.yul\":322:348   */\n      swap1\n      pop\n        /* \"#utility.yul\":358:429   */\n      tag_109\n        /* \"#utility.yul\":426:427   */\n      0x00\n        /* \"#utility.yul\":415:424   */\n      dup4\n        /* \"#utility.yul\":411:428   */\n      add\n        /* \"#utility.yul\":402:408   */\n      dup5\n        /* \"#utility.yul\":358:429   */\n      tag_82\n      jump\t// in\n    tag_109:\n        /* \"#utility.yul\":214:436   */\n      swap3\n      swap2\n      pop\n      pop\n      jump\t// out\n        /* \"#utility.yul\":523:640   */\n    tag_84:\n        /* \"#utility.yul\":632:633   */\n      0x00\n        /* \"#utility.yul\":629:630   */\n      dup1\n        /* \"#utility.yul\":622:634   */\n      revert\n        /* \"#utility.yul\":769:895   */\n    tag_86:\n        /* \"#utility.yul\":806:813   */\n      0x00\n        /* \"#utility.yul\":846:888   */\n      0xffffffffffffffffffffffffffffffffffffffff\n        /* \"#utility.yul\":839:844   */\n      dup3\n        /* \"#utility.yul\":835:889   */\n      and\n        /* \"#utility.yul\":824:889   */\n      swap1\n      pop\n        /* \"#utility.yul\":769:895   */\n      swap2\n      swap1\n      pop\n      jump\t// out\n        /* \"#utility.yul\":901:997   */\n    tag_87:\n        /* \"#utility.yul\":938:945   */\n      0x00\n        /* \"#utility.yul\":967:991   */\n      tag_115\n        /* \"#utility.yul\":985:990   */\n      dup3\n        /* \"#utility.yul\":967:991   */\n      tag_86\n      jump\t// in\n    tag_115:\n        /* \"#utility.yul\":956:991   */\n      swap1\n      pop\n        /* \"#utility.yul\":901:997   */\n      swap2\n      swap1\n      pop\n      jump\t// out\n        /* \"#utility.yul\":1003:1125   */\n    tag_88:\n        /* \"#utility.yul\":1076:1100   */\n      tag_117\n        /* \"#utility.yul\":1094:1099   */\n      dup2\n        /* \"#utility.yul\":1076:1100   */\n      tag_87\n      jump\t// in\n    tag_117:\n        /* \"#utility.yul\":1069:1074   */\n      dup2\n        /* \"#utility.yul\":1066:1101   */\n      eq\n        /* \"#utility.yul\":1056:1119   */\n      tag_118\n      jumpi\n        /* \"#utility.yul\":1115:1116   */\n      0x00\n        /* \"#utility.yul\":1112:1113   */\n      dup1\n        /* \"#utility.yul\":1105:1117   */\n      revert\n        /* \"#utility.yul\":1056:1119   */\n    tag_118:\n        /* \"#utility.yul\":1003:1125   */\n      pop\n      jump\t// out\n        /* \"#utility.yul\":1131:1270   */\n    tag_89:\n        /* \"#utility.yul\":1177:1182   */\n      0x00\n        /* \"#utility.yul\":1215:1221   */\n      dup2\n        /* \"#utility.yul\":1202:1222   */\n      calldataload\n        /* \"#utility.yul\":1193:1222   */\n      swap1\n      pop\n        /* \"#utility.yul\":1231:1264   */\n      tag_120\n        /* \"#utility.yul\":1258:1263   */\n      dup2\n        /* \"#utility.yul\":1231:1264   */\n      tag_88\n      jump\t// in\n    tag_120:\n        /* \"#utility.yul\":1131:1270   */\n      swap3\n      swap2\n      pop\n      pop\n      jump\t// out\n        /* \"#utility.yul\":1276:1605   */\n    tag_29:\n        /* \"#utility.yul\":1335:1341   */\n      0x00\n        /* \"#utility.yul\":1384:1386   */\n      0x20\n        /* \"#utility.yul\":1372:1381   */\n      dup3\n        /* \"#utility.yul\":1363:1370   */\n      dup5\n        /* \"#utility.yul\":1359:1382   */\n      sub\n        /* \"#utility.yul\":1355:1387   */\n      slt\n        /* \"#utility.yul\":1352:1471   */\n      iszero\n      tag_122\n      jumpi\n        /* \"#utility.yul\":1390:1469   */\n      tag_123\n      tag_84\n      jump\t// in\n    tag_123:\n        /* \"#utility.yul\":1352:1471   */\n    tag_122:\n        /* \"#utility.yul\":1510:1511   */\n      0x00\n        /* \"#utility.yul\":1535:1588   */\n      tag_124\n        /* \"#utility.yul\":1580:1587   */\n      dup5\n        /* \"#utility.yul\":1571:1577   */\n      dup3\n        /* \"#utility.yul\":1560:1569   */\n      dup6\n        /* \"#utility.yul\":1556:1578   */\n      add\n        /* \"#utility.yul\":1535:1588   */\n      tag_89\n      jump\t// in\n    tag_124:\n        /* \"#utility.yul\":1525:1588   */\n      swap2\n      pop\n        /* \"#utility.yul\":1481:1598   */\n      pop\n        /* \"#utility.yul\":1276:1605   */\n      swap3\n      swap2\n      pop\n      pop\n      jump\t// out\n        /* \"#utility.yul\":1611:1701   */\n    tag_90:\n        /* \"#utility.yul\":1645:1652   */\n      0x00\n        /* \"#utility.yul\":1688:1693   */\n      dup2\n        /* \"#utility.yul\":1681:1694   */\n      iszero\n        /* \"#utility.yul\":1674:1695   */\n      iszero\n        /* \"#utility.yul\":1663:1695   */\n      swap1\n      pop\n        /* \"#utility.yul\":1611:1701   */\n      swap2\n      swap1\n      pop\n      jump\t// out\n        /* \"#utility.yul\":1707:1816   */\n    tag_91:\n        /* \"#utility.yul\":1788:1809   */\n      tag_127\n        /* \"#utility.yul\":1803:1808   */\n      dup2\n        /* \"#utility.yul\":1788:1809   */\n      tag_90\n      jump\t// in\n    tag_127:\n        /* \"#utility.yul\":1783:1786   */\n      dup3\n        /* \"#utility.yul\":1776:1810   */\n      mstore\n        /* \"#utility.yul\":1707:1816   */\n      pop\n      pop\n      jump\t// out\n        /* \"#utility.yul\":1822:2032   */\n    tag_32:\n        /* \"#utility.yul\":1909:1913   */\n      0x00\n        /* \"#utility.yul\":1947:1949   */\n      0x20\n        /* \"#utility.yul\":1936:1945   */\n      dup3\n        /* \"#utility.yul\":1932:1950   */\n      add\n        /* \"#utility.yul\":1924:1950   */\n      swap1\n      pop\n        /* \"#utility.yul\":1960:2025   */\n      tag_129\n        /* \"#utility.yul\":2022:2023   */\n      0x00\n        /* \"#utility.yul\":2011:2020   */\n      dup4\n        /* \"#utility.yul\":2007:2024   */\n      add\n        /* \"#utility.yul\":1998:2004   */\n      dup5\n        /* \"#utility.yul\":1960:2025   */\n      tag_91\n      jump\t// in\n    tag_129:\n        /* \"#utility.yul\":1822:2032   */\n      swap3\n      swap2\n      pop\n      pop\n      jump\t// out\n        /* \"#utility.yul\":2038:2137   */\n    tag_92:\n        /* \"#utility.yul\":2090:2096   */\n      0x00\n        /* \"#utility.yul\":2124:2129   */\n      dup2\n        /* \"#utility.yul\":2118:2130   */\n      mload\n        /* \"#utility.yul\":2108:2130   */\n      swap1\n      pop\n        /* \"#utility.yul\":2038:2137   */\n      swap2\n      swap1\n      pop\n      jump\t// out\n        /* \"#utility.yul\":2143:2312   */\n    tag_93:\n        /* \"#utility.yul\":2227:2238   */\n      0x00\n        /* \"#utility.yul\":2261:2267   */\n      dup3\n        /* \"#utility.yul\":2256:2259   */\n      dup3\n        /* \"#utility.yul\":2249:2268   */\n      mstore\n        /* \"#utility.yul\":2301:2305   */\n      0x20\n        /* \"#utility.yul\":2296:2299   */\n      dup3\n        /* \"#utility.yul\":2292:2306   */\n      add\n        /* \"#utility.yul\":2277:2306   */\n      swap1\n      pop\n        /* \"#utility.yul\":2143:2312   */\n      swap3\n      swap2\n      pop\n      pop\n      jump\t// out\n        /* \"#utility.yul\":2318:2457   */\n    tag_94:\n        /* \"#utility.yul\":2407:2413   */\n      dup3\n        /* \"#utility.yul\":2402:2405   */\n      dup2\n        /* \"#utility.yul\":2397:2400   */\n      dup4\n        /* \"#utility.yul\":2391:2414   */\n      mcopy\n        /* \"#utility.yul\":2448:2449   */\n      0x00\n        /* \"#utility.yul\":2439:2445   */\n      dup4\n        /* \"#utility.yul\":2434:2437   */\n      dup4\n        /* \"#utility.yul\":2430:2446   */\n      add\n        /* \"#utility.yul\":2423:2450   */\n      mstore\n        /* \"#utility.yul\":2318:2457   */\n      pop\n      pop\n      pop\n      jump\t// out\n        /* \"#utility.yul\":2463:2565   */\n    tag_95:\n        /* \"#utility.yul\":2504:2510   */\n      0x00\n        /* \"#utility.yul\":2555:2557   */\n      0x1f\n        /* \"#utility.yul\":2551:2558   */\n      not\n        /* \"#utility.yul\":2546:2548   */\n      0x1f\n        /* \"#utility.yul\":2539:2544   */\n      dup4\n        /* \"#utility.yul\":2535:2549   */\n      add\n        /* \"#utility.yul\":2531:2559   */\n      and\n        /* \"#utility.yul\":2521:2559   */\n      swap1\n      pop\n        /* \"#utility.yul\":2463:2565   */\n      swap2\n      swap1\n      pop\n      jump\t// out\n        /* \"#utility.yul\":2571:2948   */\n    tag_96:\n        /* \"#utility.yul\":2659:2662   */\n      0x00\n        /* \"#utility.yul\":2687:2726   */\n      tag_135\n        /* \"#utility.yul\":2720:2725   */\n      dup3\n        /* \"#utility.yul\":2687:2726   */\n      tag_92\n      jump\t// in\n    tag_135:\n        /* \"#utility.yul\":2742:2813   */\n      tag_136\n        /* \"#utility.yul\":2806:2812   */\n      dup2\n        /* \"#utility.yul\":2801:2804   */\n      dup6\n        /* \"#utility.yul\":2742:2813   */\n      tag_93\n      jump\t// in\n    tag_136:\n        /* \"#utility.yul\":2735:2813   */\n      swap4\n      pop\n        /* \"#utility.yul\":2822:2887   */\n      tag_137\n        /* \"#utility.yul\":2880:2886   */\n      dup2\n        /* \"#utility.yul\":2875:2878   */\n      dup6\n        /* \"#utility.yul\":2868:2872   */\n      0x20\n        /* \"#utility.yul\":2861:2866   */\n      dup7\n        /* \"#utility.yul\":2857:2873   */\n      add\n        /* \"#utility.yul\":2822:2887   */\n      tag_94\n      jump\t// in\n    tag_137:\n        /* \"#utility.yul\":2912:2941   */\n      tag_138\n        /* \"#utility.yul\":2934:2940   */\n      dup2\n        /* \"#utility.yul\":2912:2941   */\n      tag_95\n      jump\t// in\n    tag_138:\n        /* \"#utility.yul\":2907:2910   */\n      dup5\n        /* \"#utility.yul\":2903:2942   */\n      add\n        /* \"#utility.yul\":2896:2942   */\n      swap2\n      pop\n        /* \"#utility.yul\":2663:2948   */\n      pop\n        /* \"#utility.yul\":2571:2948   */\n      swap3\n      swap2\n      pop\n      pop\n      jump\t// out\n        /* \"#utility.yul\":2954:3267   */\n    tag_53:\n        /* \"#utility.yul\":3067:3071   */\n      0x00\n        /* \"#utility.yul\":3105:3107   */\n      0x20\n        /* \"#utility.yul\":3094:3103   */\n      dup3\n        /* \"#utility.yul\":3090:3108   */\n      add\n        /* \"#utility.yul\":3082:3108   */\n      swap1\n      pop\n        /* \"#utility.yul\":3154:3163   */\n      dup2\n        /* \"#utility.yul\":3148:3152   */\n      dup2\n        /* \"#utility.yul\":3144:3164   */\n      sub\n        /* \"#utility.yul\":3140:3141   */\n      0x00\n        /* \"#utility.yul\":3129:3138   */\n      dup4\n        /* \"#utility.yul\":3125:3142   */\n      add\n        /* \"#utility.yul\":3118:3165   */\n      mstore\n        /* \"#utility.yul\":3182:3260   */\n      tag_140\n        /* \"#utility.yul\":3255:3259   */\n      dup2\n        /* \"#utility.yul\":3246:3252   */\n      dup5\n        /* \"#utility.yul\":3182:3260   */\n      tag_96\n      jump\t// in\n    tag_140:\n        /* \"#utility.yul\":3174:3260   */\n      swap1\n      pop\n        /* \"#utility.yul\":2954:3267   */\n      swap3\n      swap2\n      pop\n      pop\n      jump\t// out\n        /* \"#utility.yul\":3273:3511   */\n    tag_97:\n        /* \"#utility.yul\":3413:3447   */\n      0x4d7573742062652061206d656d62657220746f206d616b6520636f6e74726962\n        /* \"#utility.yul\":3409:3410   */\n      0x00\n        /* \"#utility.yul\":3401:3407   */\n      dup3\n        /* \"#utility.yul\":3397:3411   */\n      add\n        /* \"#utility.yul\":3390:3448   */\n      mstore\n        /* \"#utility.yul\":3482:3503   */\n      0x7574696f6e20746f20746869732054616e646100000000000000000000000000\n        /* \"#utility.yul\":3477:3479   */\n      0x20\n        /* \"#utility.yul\":3469:3475   */\n      dup3\n        /* \"#utility.yul\":3465:3480   */\n      add\n        /* \"#utility.yul\":3458:3504   */\n      mstore\n        /* \"#utility.yul\":3273:3511   */\n      pop\n      jump\t// out\n        /* \"#utility.yul\":3517:3883   */\n    tag_98:\n        /* \"#utility.yul\":3659:3662   */\n      0x00\n        /* \"#utility.yul\":3680:3747   */\n      tag_143\n        /* \"#utility.yul\":3744:3746   */\n      0x33\n        /* \"#utility.yul\":3739:3742   */\n      dup4\n        /* \"#utility.yul\":3680:3747   */\n      tag_93\n      jump\t// in\n    tag_143:\n        /* \"#utility.yul\":3673:3747   */\n      swap2\n      pop\n        /* \"#utility.yul\":3756:3849   */\n      tag_144\n        /* \"#utility.yul\":3845:3848   */\n      dup3\n        /* \"#utility.yul\":3756:3849   */\n      tag_97\n      jump\t// in\n    tag_144:\n        /* \"#utility.yul\":3874:3876   */\n      0x40\n        /* \"#utility.yul\":3869:3872   */\n      dup3\n        /* \"#utility.yul\":3865:3877   */\n      add\n        /* \"#utility.yul\":3858:3877   */\n      swap1\n      pop\n        /* \"#utility.yul\":3517:3883   */\n      swap2\n      swap1\n      pop\n      jump\t// out\n        /* \"#utility.yul\":3889:4308   */\n    tag_63:\n        /* \"#utility.yul\":4055:4059   */\n      0x00\n        /* \"#utility.yul\":4093:4095   */\n      0x20\n        /* \"#utility.yul\":4082:4091   */\n      dup3\n        /* \"#utility.yul\":4078:4096   */\n      add\n        /* \"#utility.yul\":4070:4096   */\n      swap1\n      pop\n        /* \"#utility.yul\":4142:4151   */\n      dup2\n        /* \"#utility.yul\":4136:4140   */\n      dup2\n        /* \"#utility.yul\":4132:4152   */\n      sub\n        /* \"#utility.yul\":4128:4129   */\n      0x00\n        /* \"#utility.yul\":4117:4126   */\n      dup4\n        /* \"#utility.yul\":4113:4130   */\n      add\n        /* \"#utility.yul\":4106:4153   */\n      mstore\n        /* \"#utility.yul\":4170:4301   */\n      tag_146\n        /* \"#utility.yul\":4296:4300   */\n      dup2\n        /* \"#utility.yul\":4170:4301   */\n      tag_98\n      jump\t// in\n    tag_146:\n        /* \"#utility.yul\":4162:4301   */\n      swap1\n      pop\n        /* \"#utility.yul\":3889:4308   */\n      swap2\n      swap1\n      pop\n      jump\t// out\n        /* \"#utility.yul\":4314:4494   */\n    tag_99:\n        /* \"#utility.yul\":4454:4486   */\n      0x416c726561647920636f6e74726962757465642074686973206379636c650000\n        /* \"#utility.yul\":4450:4451   */\n      0x00\n        /* \"#utility.yul\":4442:4448   */\n      dup3\n        /* \"#utility.yul\":4438:4452   */\n      add\n        /* \"#utility.yul\":4431:4487   */\n      mstore\n        /* \"#utility.yul\":4314:4494   */\n      pop\n      jump\t// out\n        /* \"#utility.yul\":4500:4866   */\n    tag_100:\n        /* \"#utility.yul\":4642:4645   */\n      0x00\n        /* \"#utility.yul\":4663:4730   */\n      tag_149\n        /* \"#utility.yul\":4727:4729   */\n      0x1e\n        /* \"#utility.yul\":4722:4725   */\n      dup4\n        /* \"#utility.yul\":4663:4730   */\n      tag_93\n      jump\t// in\n    tag_149:\n        /* \"#utility.yul\":4656:4730   */\n      swap2\n      pop\n        /* \"#utility.yul\":4739:4832   */\n      tag_150\n        /* \"#utility.yul\":4828:4831   */\n      dup3\n        /* \"#utility.yul\":4739:4832   */\n      tag_99\n      jump\t// in\n    tag_150:\n        /* \"#utility.yul\":4857:4859   */\n      0x20\n        /* \"#utility.yul\":4852:4855   */\n      dup3\n        /* \"#utility.yul\":4848:4860   */\n      add\n        /* \"#utility.yul\":4841:4860   */\n      swap1\n      pop\n        /* \"#utility.yul\":4500:4866   */\n      swap2\n      swap1\n      pop\n      jump\t// out\n        /* \"#utility.yul\":4872:5291   */\n    tag_66:\n        /* \"#utility.yul\":5038:5042   */\n      0x00\n        /* \"#utility.yul\":5076:5078   */\n      0x20\n        /* \"#utility.yul\":5065:5074   */\n      dup3\n        /* \"#utility.yul\":5061:5079   */\n      add\n        /* \"#utility.yul\":5053:5079   */\n      swap1\n      pop\n        /* \"#utility.yul\":5125:5134   */\n      dup2\n        /* \"#utility.yul\":5119:5123   */\n      dup2\n        /* \"#utility.yul\":5115:5135   */\n      sub\n        /* \"#utility.yul\":5111:5112   */\n      0x00\n        /* \"#utility.yul\":5100:5109   */\n      dup4\n        /* \"#utility.yul\":5096:5113   */\n      add\n        /* \"#utility.yul\":5089:5136   */\n      mstore\n        /* \"#utility.yul\":5153:5284   */\n      tag_152\n        /* \"#utility.yul\":5279:5283   */\n      dup2\n        /* \"#utility.yul\":5153:5284   */\n      tag_100\n      jump\t// in\n    tag_152:\n        /* \"#utility.yul\":5145:5284   */\n      swap1\n      pop\n        /* \"#utility.yul\":4872:5291   */\n      swap2\n      swap1\n      pop\n      jump\t// out\n        /* \"#utility.yul\":5297:5521   */\n    tag_101:\n        /* \"#utility.yul\":5437:5471   */\n      0x506c6561736520636f6e74726962757465207468652072657175697265642061\n        /* \"#utility.yul\":5433:5434   */\n      0x00\n        /* \"#utility.yul\":5425:5431   */\n      dup3\n        /* \"#utility.yul\":5421:5435   */\n      add\n        /* \"#utility.yul\":5414:5472   */\n      mstore\n        /* \"#utility.yul\":5506:5513   */\n      0x6d6f756e74000000000000000000000000000000000000000000000000000000\n        /* \"#utility.yul\":5501:5503   */\n      0x20\n        /* \"#utility.yul\":5493:5499   */\n      dup3\n        /* \"#utility.yul\":5489:5504   */\n      add\n        /* \"#utility.yul\":5482:5514   */\n      mstore\n        /* \"#utility.yul\":5297:5521   */\n      pop\n      jump\t// out\n        /* \"#utility.yul\":5527:5893   */\n    tag_102:\n        /* \"#utility.yul\":5669:5672   */\n      0x00\n        /* \"#utility.yul\":5690:5757   */\n      tag_155\n        /* \"#utility.yul\":5754:5756   */\n      0x25\n        /* \"#utility.yul\":5749:5752   */\n      dup4\n        /* \"#utility.yul\":5690:5757   */\n      tag_93\n      jump\t// in\n    tag_155:\n        /* \"#utility.yul\":5683:5757   */\n      swap2\n      pop\n        /* \"#utility.yul\":5766:5859   */\n      tag_156\n        /* \"#utility.yul\":5855:5858   */\n      dup3\n        /* \"#utility.yul\":5766:5859   */\n      tag_101\n      jump\t// in\n    tag_156:\n        /* \"#utility.yul\":5884:5886   */\n      0x40\n        /* \"#utility.yul\":5879:5882   */\n      dup3\n        /* \"#utility.yul\":5875:5887   */\n      add\n        /* \"#utility.yul\":5868:5887   */\n      swap1\n      pop\n        /* \"#utility.yul\":5527:5893   */\n      swap2\n      swap1\n      pop\n      jump\t// out\n        /* \"#utility.yul\":5899:6318   */\n    tag_69:\n        /* \"#utility.yul\":6065:6069   */\n      0x00\n        /* \"#utility.yul\":6103:6105   */\n      0x20\n        /* \"#utility.yul\":6092:6101   */\n      dup3\n        /* \"#utility.yul\":6088:6106   */\n      add\n        /* \"#utility.yul\":6080:6106   */\n      swap1\n      pop\n        /* \"#utility.yul\":6152:6161   */\n      dup2\n        /* \"#utility.yul\":6146:6150   */\n      dup2\n        /* \"#utility.yul\":6142:6162   */\n      sub\n        /* \"#utility.yul\":6138:6139   */\n      0x00\n        /* \"#utility.yul\":6127:6136   */\n      dup4\n        /* \"#utility.yul\":6123:6140   */\n      add\n        /* \"#utility.yul\":6116:6163   */\n      mstore\n        /* \"#utility.yul\":6180:6311   */\n      tag_158\n        /* \"#utility.yul\":6306:6310   */\n      dup2\n        /* \"#utility.yul\":6180:6311   */\n      tag_102\n      jump\t// in\n    tag_158:\n        /* \"#utility.yul\":6172:6311   */\n      swap1\n      pop\n        /* \"#utility.yul\":5899:6318   */\n      swap2\n      swap1\n      pop\n      jump\t// out\n        /* \"#utility.yul\":6324:6504   */\n    tag_103:\n        /* \"#utility.yul\":6372:6449   */\n      0x4e487b7100000000000000000000000000000000000000000000000000000000\n        /* \"#utility.yul\":6369:6370   */\n      0x00\n        /* \"#utility.yul\":6362:6450   */\n      mstore\n        /* \"#utility.yul\":6469:6473   */\n      0x11\n        /* \"#utility.yul\":6466:6467   */\n      0x04\n        /* \"#utility.yul\":6459:6474   */\n      mstore\n        /* \"#utility.yul\":6493:6497   */\n      0x24\n        /* \"#utility.yul\":6490:6491   */\n      0x00\n        /* \"#utility.yul\":6483:6498   */\n      revert\n        /* \"#utility.yul\":6510:6701   */\n    tag_71:\n        /* \"#utility.yul\":6550:6553   */\n      0x00\n        /* \"#utility.yul\":6569:6589   */\n      tag_161\n        /* \"#utility.yul\":6587:6588   */\n      dup3\n        /* \"#utility.yul\":6569:6589   */\n      tag_81\n      jump\t// in\n    tag_161:\n        /* \"#utility.yul\":6564:6589   */\n      swap2\n      pop\n        /* \"#utility.yul\":6603:6623   */\n      tag_162\n        /* \"#utility.yul\":6621:6622   */\n      dup4\n        /* \"#utility.yul\":6603:6623   */\n      tag_81\n      jump\t// in\n    tag_162:\n        /* \"#utility.yul\":6598:6623   */\n      swap3\n      pop\n        /* \"#utility.yul\":6646:6647   */\n      dup3\n        /* \"#utility.yul\":6643:6644   */\n      dup3\n        /* \"#utility.yul\":6639:6648   */\n      add\n        /* \"#utility.yul\":6632:6648   */\n      swap1\n      pop\n        /* \"#utility.yul\":6667:6670   */\n      dup1\n        /* \"#utility.yul\":6664:6665   */\n      dup3\n        /* \"#utility.yul\":6661:6671   */\n      gt\n        /* \"#utility.yul\":6658:6694   */\n      iszero\n      tag_163\n      jumpi\n        /* \"#utility.yul\":6674:6692   */\n      tag_164\n      tag_103\n      jump\t// in\n    tag_164:\n        /* \"#utility.yul\":6658:6694   */\n    tag_163:\n        /* \"#utility.yul\":6510:6701   */\n      swap3\n      swap2\n      pop\n      pop\n      jump\t// out\n        /* \"#utility.yul\":6707:6887   */\n    tag_78:\n        /* \"#utility.yul\":6755:6832   */\n      0x4e487b7100000000000000000000000000000000000000000000000000000000\n        /* \"#utility.yul\":6752:6753   */\n      0x00\n        /* \"#utility.yul\":6745:6833   */\n      mstore\n        /* \"#utility.yul\":6852:6856   */\n      0x32\n        /* \"#utility.yul\":6849:6850   */\n      0x04\n        /* \"#utility.yul\":6842:6857   */\n      mstore\n        /* \"#utility.yul\":6876:6880   */\n      0x24\n        /* \"#utility.yul\":6873:6874   */\n      0x00\n        /* \"#utility.yul\":6866:6881   */\n      revert\n    stop\n    data_d628f1179ff66bf0b0df175aa2bb634467717839c4691d60ed9734d80a3bd507 5468616e6b20796f7520666f72206d616b696e6720796f757220636f6e747269627574696f6e21\n\n    auxdata: 0xa264697066735822122076450f0dbcfeab3ba8312399e44c7b0fb3546dfa5da67be975088a4644d5d98464736f6c634300081a0033\n}\n",
				"bytecode": {
					"linkReferences": {},
					"object": "608060405234801561000f575f80fd5b50604051610eb9380380610eb9833981810160405281019061003191906103e0565b83855114610074576040517f08c379a000000000000000000000000000000000000000000000000000000000815260040161006b90610519565b60405180910390fd5b5f5b84811015610113575f73ffffffffffffffffffffffffffffffffffffffff168682815181106100a8576100a7610537565b5b602002602001015173ffffffffffffffffffffffffffffffffffffffff1603610106576040517f08c379a00000000000000000000000000000000000000000000000000000000081526004016100fd906105ae565b60405180910390fd5b8080600101915050610076565b50846004908051906020019061012a929190610150565b50835f8190555082600181905550816003819055508060028190555050505050506105cc565b828054828255905f5260205f209081019282156101c6579160200282015b828111156101c5578251825f6101000a81548173ffffffffffffffffffffffffffffffffffffffff021916908373ffffffffffffffffffffffffffffffffffffffff1602179055509160200191906001019061016e565b5b5090506101d391906101d7565b5090565b5b808211156101ee575f815f9055506001016101d8565b5090565b5f604051905090565b5f80fd5b5f80fd5b5f80fd5b5f601f19601f8301169050919050565b7f4e487b71000000000000000000000000000000000000000000000000000000005f52604160045260245ffd5b61024d82610207565b810181811067ffffffffffffffff8211171561026c5761026b610217565b5b80604052505050565b5f61027e6101f2565b905061028a8282610244565b919050565b5f67ffffffffffffffff8211156102a9576102a8610217565b5b602082029050602081019050919050565b5f80fd5b5f73ffffffffffffffffffffffffffffffffffffffff82169050919050565b5f6102e7826102be565b9050919050565b6102f7816102dd565b8114610301575f80fd5b50565b5f81519050610312816102ee565b92915050565b5f61032a6103258461028f565b610275565b9050808382526020820190506020840283018581111561034d5761034c6102ba565b5b835b8181101561037657806103628882610304565b84526020840193505060208101905061034f565b5050509392505050565b5f82601f83011261039457610393610203565b5b81516103a4848260208601610318565b91505092915050565b5f819050919050565b6103bf816103ad565b81146103c9575f80fd5b50565b5f815190506103da816103b6565b92915050565b5f805f805f60a086880312156103f9576103f86101fb565b5b5f86015167ffffffffffffffff811115610416576104156101ff565b5b61042288828901610380565b9550506020610433888289016103cc565b9450506040610444888289016103cc565b9350506060610455888289016103cc565b9250506080610466888289016103cc565b9150509295509295909350565b5f82825260208201905092915050565b7f506c6561736520656e7375726520746865206e756d626572206f66206173736f5f8201527f63696174696f6e206d656d62657273206d6174636820746865206e756d62657260208201527f206f662077616c6c6574206164647265737365732070726f76696465642e0000604082015250565b5f610503605e83610473565b915061050e82610483565b606082019050919050565b5f6020820190508181035f830152610530816104f7565b9050919050565b7f4e487b71000000000000000000000000000000000000000000000000000000005f52603260045260245ffd5b7f496e76616c6964206d656d6265722061646472657373000000000000000000005f82015250565b5f610598601683610473565b91506105a382610564565b602082019050919050565b5f6020820190508181035f8301526105c58161058c565b9050919050565b6108e0806105d95f395ff3fe608060405260043610610090575f3560e01c80633fe071be116100585780633fe071be1461018a5780634698d110146101b457806350a644d1146101de5780635d8d12d6146102085780638d0aa1b21461022657610090565b8063091fb01014610094578063316fda0f146100be578063335e536c146100e8578063346477c714610112578063368d6eb71461014e575b5f80fd5b34801561009f575f80fd5b506100a8610250565b6040516100b5919061050d565b60405180910390f35b3480156100c9575f80fd5b506100d2610256565b6040516100df919061050d565b60405180910390f35b3480156100f3575f80fd5b506100fc61025c565b604051610109919061050d565b60405180910390f35b34801561011d575f80fd5b5061013860048036038101906101339190610584565b610262565b60405161014591906105c9565b60405180910390f35b348015610159575f80fd5b50610174600480360381019061016f9190610584565b61027f565b60405161018191906105c9565b60405180910390f35b348015610195575f80fd5b5061019e61029c565b6040516101ab919061050d565b60405180910390f35b3480156101bf575f80fd5b506101c86102a2565b6040516101d5919061050d565b60405180910390f35b3480156101e9575f80fd5b506101f26102a7565b6040516101ff919061050d565b60405180910390f35b6102106102ad565b60405161021d9190610652565b60405180910390f35b348015610231575f80fd5b5061023a610451565b604051610247919061050d565b60405180910390f35b60095481565b60085481565b60075481565b600a602052805f5260405f205f915054906101000a900460ff1681565b6005602052805f5260405f205f915054906101000a900460ff1681565b600b5481565b5f5481565b60065481565b60606102b833610457565b6102f7576040517f08c379a00000000000000000000000000000000000000000000000000000000081526004016102ee906106e2565b60405180910390fd5b60055f3373ffffffffffffffffffffffffffffffffffffffff1673ffffffffffffffffffffffffffffffffffffffff1681526020019081526020015f205f9054906101000a900460ff1615610381576040517f08c379a00000000000000000000000000000000000000000000000000000000081526004016103789061074a565b60405180910390fd5b60025434146103c5576040517f08c379a00000000000000000000000000000000000000000000000000000000081526004016103bc906107d8565b60405180910390fd5b600160055f3373ffffffffffffffffffffffffffffffffffffffff1673ffffffffffffffffffffffffffffffffffffffff1681526020019081526020015f205f6101000a81548160ff021916908315150217905550600160065f82825461042c9190610823565b9250508190555060405180606001604052806027815260200161088460279139905090565b60015481565b5f805f90505b5f548110156104eb578273ffffffffffffffffffffffffffffffffffffffff166004828154811061049157610490610856565b5b905f5260205f20015f9054906101000a900473ffffffffffffffffffffffffffffffffffffffff1673ffffffffffffffffffffffffffffffffffffffff16036104de5760019150506104f0565b808060010191505061045d565b505f90505b919050565b5f819050919050565b610507816104f5565b82525050565b5f6020820190506105205f8301846104fe565b92915050565b5f80fd5b5f73ffffffffffffffffffffffffffffffffffffffff82169050919050565b5f6105538261052a565b9050919050565b61056381610549565b811461056d575f80fd5b50565b5f8135905061057e8161055a565b92915050565b5f6020828403121561059957610598610526565b5b5f6105a684828501610570565b91505092915050565b5f8115159050919050565b6105c3816105af565b82525050565b5f6020820190506105dc5f8301846105ba565b92915050565b5f81519050919050565b5f82825260208201905092915050565b8281835e5f83830152505050565b5f601f19601f8301169050919050565b5f610624826105e2565b61062e81856105ec565b935061063e8185602086016105fc565b6106478161060a565b840191505092915050565b5f6020820190508181035f83015261066a818461061a565b905092915050565b7f4d7573742062652061206d656d62657220746f206d616b6520636f6e747269625f8201527f7574696f6e20746f20746869732054616e646100000000000000000000000000602082015250565b5f6106cc6033836105ec565b91506106d782610672565b604082019050919050565b5f6020820190508181035f8301526106f9816106c0565b9050919050565b7f416c726561647920636f6e74726962757465642074686973206379636c6500005f82015250565b5f610734601e836105ec565b915061073f82610700565b602082019050919050565b5f6020820190508181035f83015261076181610728565b9050919050565b7f506c6561736520636f6e747269627574652074686520726571756972656420615f8201527f6d6f756e74000000000000000000000000000000000000000000000000000000602082015250565b5f6107c26025836105ec565b91506107cd82610768565b604082019050919050565b5f6020820190508181035f8301526107ef816107b6565b9050919050565b7f4e487b71000000000000000000000000000000000000000000000000000000005f52601160045260245ffd5b5f61082d826104f5565b9150610838836104f5565b92508282019050808211156108505761084f6107f6565b5b92915050565b7f4e487b71000000000000000000000000000000000000000000000000000000005f52603260045260245ffdfe5468616e6b20796f7520666f72206d616b696e6720796f757220636f6e747269627574696f6e21a264697066735822122076450f0dbcfeab3ba8312399e44c7b0fb3546dfa5da67be975088a4644d5d98464736f6c634300081a0033",
					"opcodes": "PUSH1 0x80 PUSH1 0x40 MSTORE CALLVALUE DUP1 ISZERO PUSH2 0xF JUMPI PUSH0 DUP1 REVERT JUMPDEST POP PUSH1 0x40 MLOAD PUSH2 0xEB9 CODESIZE SUB DUP1 PUSH2 0xEB9 DUP4 CODECOPY DUP2 DUP2 ADD PUSH1 0x40 MSTORE DUP2 ADD SWAP1 PUSH2 0x31 SWAP2 SWAP1 PUSH2 0x3E0 JUMP JUMPDEST DUP4 DUP6 MLOAD EQ PUSH2 0x74 JUMPI PUSH1 0x40 MLOAD PUSH32 0x8C379A000000000000000000000000000000000000000000000000000000000 DUP2 MSTORE PUSH1 0x4 ADD PUSH2 0x6B SWAP1 PUSH2 0x519 JUMP JUMPDEST PUSH1 0x40 MLOAD DUP1 SWAP2 SUB SWAP1 REVERT JUMPDEST PUSH0 JUMPDEST DUP5 DUP2 LT ISZERO PUSH2 0x113 JUMPI PUSH0 PUSH20 0xFFFFFFFFFFFFFFFFFFFFFFFFFFFFFFFFFFFFFFFF AND DUP7 DUP3 DUP2 MLOAD DUP2 LT PUSH2 0xA8 JUMPI PUSH2 0xA7 PUSH2 0x537 JUMP JUMPDEST JUMPDEST PUSH1 0x20 MUL PUSH1 0x20 ADD ADD MLOAD PUSH20 0xFFFFFFFFFFFFFFFFFFFFFFFFFFFFFFFFFFFFFFFF AND SUB PUSH2 0x106 JUMPI PUSH1 0x40 MLOAD PUSH32 0x8C379A000000000000000000000000000000000000000000000000000000000 DUP2 MSTORE PUSH1 0x4 ADD PUSH2 0xFD SWAP1 PUSH2 0x5AE JUMP JUMPDEST PUSH1 0x40 MLOAD DUP1 SWAP2 SUB SWAP1 REVERT JUMPDEST DUP1 DUP1 PUSH1 0x1 ADD SWAP2 POP POP PUSH2 0x76 JUMP JUMPDEST POP DUP5 PUSH1 0x4 SWAP1 DUP1 MLOAD SWAP1 PUSH1 0x20 ADD SWAP1 PUSH2 0x12A SWAP3 SWAP2 SWAP1 PUSH2 0x150 JUMP JUMPDEST POP DUP4 PUSH0 DUP2 SWAP1 SSTORE POP DUP3 PUSH1 0x1 DUP2 SWAP1 SSTORE POP DUP2 PUSH1 0x3 DUP2 SWAP1 SSTORE POP DUP1 PUSH1 0x2 DUP2 SWAP1 SSTORE POP POP POP POP POP POP PUSH2 0x5CC JUMP JUMPDEST DUP3 DUP1 SLOAD DUP3 DUP3 SSTORE SWAP1 PUSH0 MSTORE PUSH1 0x20 PUSH0 KECCAK256 SWAP1 DUP2 ADD SWAP3 DUP3 ISZERO PUSH2 0x1C6 JUMPI SWAP2 PUSH1 0x20 MUL DUP3 ADD JUMPDEST DUP3 DUP2 GT ISZERO PUSH2 0x1C5 JUMPI DUP3 MLOAD DUP3 PUSH0 PUSH2 0x100 EXP DUP2 SLOAD DUP2 PUSH20 0xFFFFFFFFFFFFFFFFFFFFFFFFFFFFFFFFFFFFFFFF MUL NOT AND SWAP1 DUP4 PUSH20 0xFFFFFFFFFFFFFFFFFFFFFFFFFFFFFFFFFFFFFFFF AND MUL OR SWAP1 SSTORE POP SWAP2 PUSH1 0x20 ADD SWAP2 SWAP1 PUSH1 0x1 ADD SWAP1 PUSH2 0x16E JUMP JUMPDEST JUMPDEST POP SWAP1 POP PUSH2 0x1D3 SWAP2 SWAP1 PUSH2 0x1D7 JUMP JUMPDEST POP SWAP1 JUMP JUMPDEST JUMPDEST DUP1 DUP3 GT ISZERO PUSH2 0x1EE JUMPI PUSH0 DUP2 PUSH0 SWAP1 SSTORE POP PUSH1 0x1 ADD PUSH2 0x1D8 JUMP JUMPDEST POP SWAP1 JUMP JUMPDEST PUSH0 PUSH1 0x40 MLOAD SWAP1 POP SWAP1 JUMP JUMPDEST PUSH0 DUP1 REVERT JUMPDEST PUSH0 DUP1 REVERT JUMPDEST PUSH0 DUP1 REVERT JUMPDEST PUSH0 PUSH1 0x1F NOT PUSH1 0x1F DUP4 ADD AND SWAP1 POP SWAP2 SWAP1 POP JUMP JUMPDEST PUSH32 0x4E487B7100000000000000000000000000000000000000000000000000000000 PUSH0 MSTORE PUSH1 0x41 PUSH1 0x4 MSTORE PUSH1 0x24 PUSH0 REVERT JUMPDEST PUSH2 0x24D DUP3 PUSH2 0x207 JUMP JUMPDEST DUP2 ADD DUP2 DUP2 LT PUSH8 0xFFFFFFFFFFFFFFFF DUP3 GT OR ISZERO PUSH2 0x26C JUMPI PUSH2 0x26B PUSH2 0x217 JUMP JUMPDEST JUMPDEST DUP1 PUSH1 0x40 MSTORE POP POP POP JUMP JUMPDEST PUSH0 PUSH2 0x27E PUSH2 0x1F2 JUMP JUMPDEST SWAP1 POP PUSH2 0x28A DUP3 DUP3 PUSH2 0x244 JUMP JUMPDEST SWAP2 SWAP1 POP JUMP JUMPDEST PUSH0 PUSH8 0xFFFFFFFFFFFFFFFF DUP3 GT ISZERO PUSH2 0x2A9 JUMPI PUSH2 0x2A8 PUSH2 0x217 JUMP JUMPDEST JUMPDEST PUSH1 0x20 DUP3 MUL SWAP1 POP PUSH1 0x20 DUP2 ADD SWAP1 POP SWAP2 SWAP1 POP JUMP JUMPDEST PUSH0 DUP1 REVERT JUMPDEST PUSH0 PUSH20 0xFFFFFFFFFFFFFFFFFFFFFFFFFFFFFFFFFFFFFFFF DUP3 AND SWAP1 POP SWAP2 SWAP1 POP JUMP JUMPDEST PUSH0 PUSH2 0x2E7 DUP3 PUSH2 0x2BE JUMP JUMPDEST SWAP1 POP SWAP2 SWAP1 POP JUMP JUMPDEST PUSH2 0x2F7 DUP2 PUSH2 0x2DD JUMP JUMPDEST DUP2 EQ PUSH2 0x301 JUMPI PUSH0 DUP1 REVERT JUMPDEST POP JUMP JUMPDEST PUSH0 DUP2 MLOAD SWAP1 POP PUSH2 0x312 DUP2 PUSH2 0x2EE JUMP JUMPDEST SWAP3 SWAP2 POP POP JUMP JUMPDEST PUSH0 PUSH2 0x32A PUSH2 0x325 DUP5 PUSH2 0x28F JUMP JUMPDEST PUSH2 0x275 JUMP JUMPDEST SWAP1 POP DUP1 DUP4 DUP3 MSTORE PUSH1 0x20 DUP3 ADD SWAP1 POP PUSH1 0x20 DUP5 MUL DUP4 ADD DUP6 DUP2 GT ISZERO PUSH2 0x34D JUMPI PUSH2 0x34C PUSH2 0x2BA JUMP JUMPDEST JUMPDEST DUP4 JUMPDEST DUP2 DUP2 LT ISZERO PUSH2 0x376 JUMPI DUP1 PUSH2 0x362 DUP9 DUP3 PUSH2 0x304 JUMP JUMPDEST DUP5 MSTORE PUSH1 0x20 DUP5 ADD SWAP4 POP POP PUSH1 0x20 DUP2 ADD SWAP1 POP PUSH2 0x34F JUMP JUMPDEST POP POP POP SWAP4 SWAP3 POP POP POP JUMP JUMPDEST PUSH0 DUP3 PUSH1 0x1F DUP4 ADD SLT PUSH2 0x394 JUMPI PUSH2 0x393 PUSH2 0x203 JUMP JUMPDEST JUMPDEST DUP2 MLOAD PUSH2 0x3A4 DUP5 DUP3 PUSH1 0x20 DUP7 ADD PUSH2 0x318 JUMP JUMPDEST SWAP2 POP POP SWAP3 SWAP2 POP POP JUMP JUMPDEST PUSH0 DUP2 SWAP1 POP SWAP2 SWAP1 POP JUMP JUMPDEST PUSH2 0x3BF DUP2 PUSH2 0x3AD JUMP JUMPDEST DUP2 EQ PUSH2 0x3C9 JUMPI PUSH0 DUP1 REVERT JUMPDEST POP JUMP JUMPDEST PUSH0 DUP2 MLOAD SWAP1 POP PUSH2 0x3DA DUP2 PUSH2 0x3B6 JUMP JUMPDEST SWAP3 SWAP2 POP POP JUMP JUMPDEST PUSH0 DUP1 PUSH0 DUP1 PUSH0 PUSH1 0xA0 DUP7 DUP9 SUB SLT ISZERO PUSH2 0x3F9 JUMPI PUSH2 0x3F8 PUSH2 0x1FB JUMP JUMPDEST JUMPDEST PUSH0 DUP7 ADD MLOAD PUSH8 0xFFFFFFFFFFFFFFFF DUP2 GT ISZERO PUSH2 0x416 JUMPI PUSH2 0x415 PUSH2 0x1FF JUMP JUMPDEST JUMPDEST PUSH2 0x422 DUP9 DUP3 DUP10 ADD PUSH2 0x380 JUMP JUMPDEST SWAP6 POP POP PUSH1 0x20 PUSH2 0x433 DUP9 DUP3 DUP10 ADD PUSH2 0x3CC JUMP JUMPDEST SWAP5 POP POP PUSH1 0x40 PUSH2 0x444 DUP9 DUP3 DUP10 ADD PUSH2 0x3CC JUMP JUMPDEST SWAP4 POP POP PUSH1 0x60 PUSH2 0x455 DUP9 DUP3 DUP10 ADD PUSH2 0x3CC JUMP JUMPDEST SWAP3 POP POP PUSH1 0x80 PUSH2 0x466 DUP9 DUP3 DUP10 ADD PUSH2 0x3CC JUMP JUMPDEST SWAP2 POP POP SWAP3 SWAP6 POP SWAP3 SWAP6 SWAP1 SWAP4 POP JUMP JUMPDEST PUSH0 DUP3 DUP3 MSTORE PUSH1 0x20 DUP3 ADD SWAP1 POP SWAP3 SWAP2 POP POP JUMP JUMPDEST PUSH32 0x506C6561736520656E7375726520746865206E756D626572206F66206173736F PUSH0 DUP3 ADD MSTORE PUSH32 0x63696174696F6E206D656D62657273206D6174636820746865206E756D626572 PUSH1 0x20 DUP3 ADD MSTORE PUSH32 0x206F662077616C6C6574206164647265737365732070726F76696465642E0000 PUSH1 0x40 DUP3 ADD MSTORE POP JUMP JUMPDEST PUSH0 PUSH2 0x503 PUSH1 0x5E DUP4 PUSH2 0x473 JUMP JUMPDEST SWAP2 POP PUSH2 0x50E DUP3 PUSH2 0x483 JUMP JUMPDEST PUSH1 0x60 DUP3 ADD SWAP1 POP SWAP2 SWAP1 POP JUMP JUMPDEST PUSH0 PUSH1 0x20 DUP3 ADD SWAP1 POP DUP2 DUP2 SUB PUSH0 DUP4 ADD MSTORE PUSH2 0x530 DUP2 PUSH2 0x4F7 JUMP JUMPDEST SWAP1 POP SWAP2 SWAP1 POP JUMP JUMPDEST PUSH32 0x4E487B7100000000000000000000000000000000000000000000000000000000 PUSH0 MSTORE PUSH1 0x32 PUSH1 0x4 MSTORE PUSH1 0x24 PUSH0 REVERT JUMPDEST PUSH32 0x496E76616C6964206D656D626572206164647265737300000000000000000000 PUSH0 DUP3 ADD MSTORE POP JUMP JUMPDEST PUSH0 PUSH2 0x598 PUSH1 0x16 DUP4 PUSH2 0x473 JUMP JUMPDEST SWAP2 POP PUSH2 0x5A3 DUP3 PUSH2 0x564 JUMP JUMPDEST PUSH1 0x20 DUP3 ADD SWAP1 POP SWAP2 SWAP1 POP JUMP JUMPDEST PUSH0 PUSH1 0x20 DUP3 ADD SWAP1 POP DUP2 DUP2 SUB PUSH0 DUP4 ADD MSTORE PUSH2 0x5C5 DUP2 PUSH2 0x58C JUMP JUMPDEST SWAP1 POP SWAP2 SWAP1 POP JUMP JUMPDEST PUSH2 0x8E0 DUP1 PUSH2 0x5D9 PUSH0 CODECOPY PUSH0 RETURN INVALID PUSH1 0x80 PUSH1 0x40 MSTORE PUSH1 0x4 CALLDATASIZE LT PUSH2 0x90 JUMPI PUSH0 CALLDATALOAD PUSH1 0xE0 SHR DUP1 PUSH4 0x3FE071BE GT PUSH2 0x58 JUMPI DUP1 PUSH4 0x3FE071BE EQ PUSH2 0x18A JUMPI DUP1 PUSH4 0x4698D110 EQ PUSH2 0x1B4 JUMPI DUP1 PUSH4 0x50A644D1 EQ PUSH2 0x1DE JUMPI DUP1 PUSH4 0x5D8D12D6 EQ PUSH2 0x208 JUMPI DUP1 PUSH4 0x8D0AA1B2 EQ PUSH2 0x226 JUMPI PUSH2 0x90 JUMP JUMPDEST DUP1 PUSH4 0x91FB010 EQ PUSH2 0x94 JUMPI DUP1 PUSH4 0x316FDA0F EQ PUSH2 0xBE JUMPI DUP1 PUSH4 0x335E536C EQ PUSH2 0xE8 JUMPI DUP1 PUSH4 0x346477C7 EQ PUSH2 0x112 JUMPI DUP1 PUSH4 0x368D6EB7 EQ PUSH2 0x14E JUMPI JUMPDEST PUSH0 DUP1 REVERT JUMPDEST CALLVALUE DUP1 ISZERO PUSH2 0x9F JUMPI PUSH0 DUP1 REVERT JUMPDEST POP PUSH2 0xA8 PUSH2 0x250 JUMP JUMPDEST PUSH1 0x40 MLOAD PUSH2 0xB5 SWAP2 SWAP1 PUSH2 0x50D JUMP JUMPDEST PUSH1 0x40 MLOAD DUP1 SWAP2 SUB SWAP1 RETURN JUMPDEST CALLVALUE DUP1 ISZERO PUSH2 0xC9 JUMPI PUSH0 DUP1 REVERT JUMPDEST POP PUSH2 0xD2 PUSH2 0x256 JUMP JUMPDEST PUSH1 0x40 MLOAD PUSH2 0xDF SWAP2 SWAP1 PUSH2 0x50D JUMP JUMPDEST PUSH1 0x40 MLOAD DUP1 SWAP2 SUB SWAP1 RETURN JUMPDEST CALLVALUE DUP1 ISZERO PUSH2 0xF3 JUMPI PUSH0 DUP1 REVERT JUMPDEST POP PUSH2 0xFC PUSH2 0x25C JUMP JUMPDEST PUSH1 0x40 MLOAD PUSH2 0x109 SWAP2 SWAP1 PUSH2 0x50D JUMP JUMPDEST PUSH1 0x40 MLOAD DUP1 SWAP2 SUB SWAP1 RETURN JUMPDEST CALLVALUE DUP1 ISZERO PUSH2 0x11D JUMPI PUSH0 DUP1 REVERT JUMPDEST POP PUSH2 0x138 PUSH1 0x4 DUP1 CALLDATASIZE SUB DUP2 ADD SWAP1 PUSH2 0x133 SWAP2 SWAP1 PUSH2 0x584 JUMP JUMPDEST PUSH2 0x262 JUMP JUMPDEST PUSH1 0x40 MLOAD PUSH2 0x145 SWAP2 SWAP1 PUSH2 0x5C9 JUMP JUMPDEST PUSH1 0x40 MLOAD DUP1 SWAP2 SUB SWAP1 RETURN JUMPDEST CALLVALUE DUP1 ISZERO PUSH2 0x159 JUMPI PUSH0 DUP1 REVERT JUMPDEST POP PUSH2 0x174 PUSH1 0x4 DUP1 CALLDATASIZE SUB DUP2 ADD SWAP1 PUSH2 0x16F SWAP2 SWAP1 PUSH2 0x584 JUMP JUMPDEST PUSH2 0x27F JUMP JUMPDEST PUSH1 0x40 MLOAD PUSH2 0x181 SWAP2 SWAP1 PUSH2 0x5C9 JUMP JUMPDEST PUSH1 0x40 MLOAD DUP1 SWAP2 SUB SWAP1 RETURN JUMPDEST CALLVALUE DUP1 ISZERO PUSH2 0x195 JUMPI PUSH0 DUP1 REVERT JUMPDEST POP PUSH2 0x19E PUSH2 0x29C JUMP JUMPDEST PUSH1 0x40 MLOAD PUSH2 0x1AB SWAP2 SWAP1 PUSH2 0x50D JUMP JUMPDEST PUSH1 0x40 MLOAD DUP1 SWAP2 SUB SWAP1 RETURN JUMPDEST CALLVALUE DUP1 ISZERO PUSH2 0x1BF JUMPI PUSH0 DUP1 REVERT JUMPDEST POP PUSH2 0x1C8 PUSH2 0x2A2 JUMP JUMPDEST PUSH1 0x40 MLOAD PUSH2 0x1D5 SWAP2 SWAP1 PUSH2 0x50D JUMP JUMPDEST PUSH1 0x40 MLOAD DUP1 SWAP2 SUB SWAP1 RETURN JUMPDEST CALLVALUE DUP1 ISZERO PUSH2 0x1E9 JUMPI PUSH0 DUP1 REVERT JUMPDEST POP PUSH2 0x1F2 PUSH2 0x2A7 JUMP JUMPDEST PUSH1 0x40 MLOAD PUSH2 0x1FF SWAP2 SWAP1 PUSH2 0x50D JUMP JUMPDEST PUSH1 0x40 MLOAD DUP1 SWAP2 SUB SWAP1 RETURN JUMPDEST PUSH2 0x210 PUSH2 0x2AD JUMP JUMPDEST PUSH1 0x40 MLOAD PUSH2 0x21D SWAP2 SWAP1 PUSH2 0x652 JUMP JUMPDEST PUSH1 0x40 MLOAD DUP1 SWAP2 SUB SWAP1 RETURN JUMPDEST CALLVALUE DUP1 ISZERO PUSH2 0x231 JUMPI PUSH0 DUP1 REVERT JUMPDEST POP PUSH2 0x23A PUSH2 0x451 JUMP JUMPDEST PUSH1 0x40 MLOAD PUSH2 0x247 SWAP2 SWAP1 PUSH2 0x50D JUMP JUMPDEST PUSH1 0x40 MLOAD DUP1 SWAP2 SUB SWAP1 RETURN JUMPDEST PUSH1 0x9 SLOAD DUP2 JUMP JUMPDEST PUSH1 0x8 SLOAD DUP2 JUMP JUMPDEST PUSH1 0x7 SLOAD DUP2 JUMP JUMPDEST PUSH1 0xA PUSH1 0x20 MSTORE DUP1 PUSH0 MSTORE PUSH1 0x40 PUSH0 KECCAK256 PUSH0 SWAP2 POP SLOAD SWAP1 PUSH2 0x100 EXP SWAP1 DIV PUSH1 0xFF AND DUP2 JUMP JUMPDEST PUSH1 0x5 PUSH1 0x20 MSTORE DUP1 PUSH0 MSTORE PUSH1 0x40 PUSH0 KECCAK256 PUSH0 SWAP2 POP SLOAD SWAP1 PUSH2 0x100 EXP SWAP1 DIV PUSH1 0xFF AND DUP2 JUMP JUMPDEST PUSH1 0xB SLOAD DUP2 JUMP JUMPDEST PUSH0 SLOAD DUP2 JUMP JUMPDEST PUSH1 0x6 SLOAD DUP2 JUMP JUMPDEST PUSH1 0x60 PUSH2 0x2B8 CALLER PUSH2 0x457 JUMP JUMPDEST PUSH2 0x2F7 JUMPI PUSH1 0x40 MLOAD PUSH32 0x8C379A000000000000000000000000000000000000000000000000000000000 DUP2 MSTORE PUSH1 0x4 ADD PUSH2 0x2EE SWAP1 PUSH2 0x6E2 JUMP JUMPDEST PUSH1 0x40 MLOAD DUP1 SWAP2 SUB SWAP1 REVERT JUMPDEST PUSH1 0x5 PUSH0 CALLER PUSH20 0xFFFFFFFFFFFFFFFFFFFFFFFFFFFFFFFFFFFFFFFF AND PUSH20 0xFFFFFFFFFFFFFFFFFFFFFFFFFFFFFFFFFFFFFFFF AND DUP2 MSTORE PUSH1 0x20 ADD SWAP1 DUP2 MSTORE PUSH1 0x20 ADD PUSH0 KECCAK256 PUSH0 SWAP1 SLOAD SWAP1 PUSH2 0x100 EXP SWAP1 DIV PUSH1 0xFF AND ISZERO PUSH2 0x381 JUMPI PUSH1 0x40 MLOAD PUSH32 0x8C379A000000000000000000000000000000000000000000000000000000000 DUP2 MSTORE PUSH1 0x4 ADD PUSH2 0x378 SWAP1 PUSH2 0x74A JUMP JUMPDEST PUSH1 0x40 MLOAD DUP1 SWAP2 SUB SWAP1 REVERT JUMPDEST PUSH1 0x2 SLOAD CALLVALUE EQ PUSH2 0x3C5 JUMPI PUSH1 0x40 MLOAD PUSH32 0x8C379A000000000000000000000000000000000000000000000000000000000 DUP2 MSTORE PUSH1 0x4 ADD PUSH2 0x3BC SWAP1 PUSH2 0x7D8 JUMP JUMPDEST PUSH1 0x40 MLOAD DUP1 SWAP2 SUB SWAP1 REVERT JUMPDEST PUSH1 0x1 PUSH1 0x5 PUSH0 CALLER PUSH20 0xFFFFFFFFFFFFFFFFFFFFFFFFFFFFFFFFFFFFFFFF AND PUSH20 0xFFFFFFFFFFFFFFFFFFFFFFFFFFFFFFFFFFFFFFFF AND DUP2 MSTORE PUSH1 0x20 ADD SWAP1 DUP2 MSTORE PUSH1 0x20 ADD PUSH0 KECCAK256 PUSH0 PUSH2 0x100 EXP DUP2 SLOAD DUP2 PUSH1 0xFF MUL NOT AND SWAP1 DUP4 ISZERO ISZERO MUL OR SWAP1 SSTORE POP PUSH1 0x1 PUSH1 0x6 PUSH0 DUP3 DUP3 SLOAD PUSH2 0x42C SWAP2 SWAP1 PUSH2 0x823 JUMP JUMPDEST SWAP3 POP POP DUP2 SWAP1 SSTORE POP PUSH1 0x40 MLOAD DUP1 PUSH1 0x60 ADD PUSH1 0x40 MSTORE DUP1 PUSH1 0x27 DUP2 MSTORE PUSH1 0x20 ADD PUSH2 0x884 PUSH1 0x27 SWAP2 CODECOPY SWAP1 POP SWAP1 JUMP JUMPDEST PUSH1 0x1 SLOAD DUP2 JUMP JUMPDEST PUSH0 DUP1 PUSH0 SWAP1 POP JUMPDEST PUSH0 SLOAD DUP2 LT ISZERO PUSH2 0x4EB JUMPI DUP3 PUSH20 0xFFFFFFFFFFFFFFFFFFFFFFFFFFFFFFFFFFFFFFFF AND PUSH1 0x4 DUP3 DUP2 SLOAD DUP2 LT PUSH2 0x491 JUMPI PUSH2 0x490 PUSH2 0x856 JUMP JUMPDEST JUMPDEST SWAP1 PUSH0 MSTORE PUSH1 0x20 PUSH0 KECCAK256 ADD PUSH0 SWAP1 SLOAD SWAP1 PUSH2 0x100 EXP SWAP1 DIV PUSH20 0xFFFFFFFFFFFFFFFFFFFFFFFFFFFFFFFFFFFFFFFF AND PUSH20 0xFFFFFFFFFFFFFFFFFFFFFFFFFFFFFFFFFFFFFFFF AND SUB PUSH2 0x4DE JUMPI PUSH1 0x1 SWAP2 POP POP PUSH2 0x4F0 JUMP JUMPDEST DUP1 DUP1 PUSH1 0x1 ADD SWAP2 POP POP PUSH2 0x45D JUMP JUMPDEST POP PUSH0 SWAP1 POP JUMPDEST SWAP2 SWAP1 POP JUMP JUMPDEST PUSH0 DUP2 SWAP1 POP SWAP2 SWAP1 POP JUMP JUMPDEST PUSH2 0x507 DUP2 PUSH2 0x4F5 JUMP JUMPDEST DUP3 MSTORE POP POP JUMP JUMPDEST PUSH0 PUSH1 0x20 DUP3 ADD SWAP1 POP PUSH2 0x520 PUSH0 DUP4 ADD DUP5 PUSH2 0x4FE JUMP JUMPDEST SWAP3 SWAP2 POP POP JUMP JUMPDEST PUSH0 DUP1 REVERT JUMPDEST PUSH0 PUSH20 0xFFFFFFFFFFFFFFFFFFFFFFFFFFFFFFFFFFFFFFFF DUP3 AND SWAP1 POP SWAP2 SWAP1 POP JUMP JUMPDEST PUSH0 PUSH2 0x553 DUP3 PUSH2 0x52A JUMP JUMPDEST SWAP1 POP SWAP2 SWAP1 POP JUMP JUMPDEST PUSH2 0x563 DUP2 PUSH2 0x549 JUMP JUMPDEST DUP2 EQ PUSH2 0x56D JUMPI PUSH0 DUP1 REVERT JUMPDEST POP JUMP JUMPDEST PUSH0 DUP2 CALLDATALOAD SWAP1 POP PUSH2 0x57E DUP2 PUSH2 0x55A JUMP JUMPDEST SWAP3 SWAP2 POP POP JUMP JUMPDEST PUSH0 PUSH1 0x20 DUP3 DUP5 SUB SLT ISZERO PUSH2 0x599 JUMPI PUSH2 0x598 PUSH2 0x526 JUMP JUMPDEST JUMPDEST PUSH0 PUSH2 0x5A6 DUP5 DUP3 DUP6 ADD PUSH2 0x570 JUMP JUMPDEST SWAP2 POP POP SWAP3 SWAP2 POP POP JUMP JUMPDEST PUSH0 DUP2 ISZERO ISZERO SWAP1 POP SWAP2 SWAP1 POP JUMP JUMPDEST PUSH2 0x5C3 DUP2 PUSH2 0x5AF JUMP JUMPDEST DUP3 MSTORE POP POP JUMP JUMPDEST PUSH0 PUSH1 0x20 DUP3 ADD SWAP1 POP PUSH2 0x5DC PUSH0 DUP4 ADD DUP5 PUSH2 0x5BA JUMP JUMPDEST SWAP3 SWAP2 POP POP JUMP JUMPDEST PUSH0 DUP2 MLOAD SWAP1 POP SWAP2 SWAP1 POP JUMP JUMPDEST PUSH0 DUP3 DUP3 MSTORE PUSH1 0x20 DUP3 ADD SWAP1 POP SWAP3 SWAP2 POP POP JUMP JUMPDEST DUP3 DUP2 DUP4 MCOPY PUSH0 DUP4 DUP4 ADD MSTORE POP POP POP JUMP JUMPDEST PUSH0 PUSH1 0x1F NOT PUSH1 0x1F DUP4 ADD AND SWAP1 POP SWAP2 SWAP1 POP JUMP JUMPDEST PUSH0 PUSH2 0x624 DUP3 PUSH2 0x5E2 JUMP JUMPDEST PUSH2 0x62E DUP2 DUP6 PUSH2 0x5EC JUMP JUMPDEST SWAP4 POP PUSH2 0x63E DUP2 DUP6 PUSH1 0x20 DUP7 ADD PUSH2 0x5FC JUMP JUMPDEST PUSH2 0x647 DUP2 PUSH2 0x60A JUMP JUMPDEST DUP5 ADD SWAP2 POP POP SWAP3 SWAP2 POP POP JUMP JUMPDEST PUSH0 PUSH1 0x20 DUP3 ADD SWAP1 POP DUP2 DUP2 SUB PUSH0 DUP4 ADD MSTORE PUSH2 0x66A DUP2 DUP5 PUSH2 0x61A JUMP JUMPDEST SWAP1 POP SWAP3 SWAP2 POP POP JUMP JUMPDEST PUSH32 0x4D7573742062652061206D656D62657220746F206D616B6520636F6E74726962 PUSH0 DUP3 ADD MSTORE PUSH32 0x7574696F6E20746F20746869732054616E646100000000000000000000000000 PUSH1 0x20 DUP3 ADD MSTORE POP JUMP JUMPDEST PUSH0 PUSH2 0x6CC PUSH1 0x33 DUP4 PUSH2 0x5EC JUMP JUMPDEST SWAP2 POP PUSH2 0x6D7 DUP3 PUSH2 0x672 JUMP JUMPDEST PUSH1 0x40 DUP3 ADD SWAP1 POP SWAP2 SWAP1 POP JUMP JUMPDEST PUSH0 PUSH1 0x20 DUP3 ADD SWAP1 POP DUP2 DUP2 SUB PUSH0 DUP4 ADD MSTORE PUSH2 0x6F9 DUP2 PUSH2 0x6C0 JUMP JUMPDEST SWAP1 POP SWAP2 SWAP1 POP JUMP JUMPDEST PUSH32 0x416C726561647920636F6E74726962757465642074686973206379636C650000 PUSH0 DUP3 ADD MSTORE POP JUMP JUMPDEST PUSH0 PUSH2 0x734 PUSH1 0x1E DUP4 PUSH2 0x5EC JUMP JUMPDEST SWAP2 POP PUSH2 0x73F DUP3 PUSH2 0x700 JUMP JUMPDEST PUSH1 0x20 DUP3 ADD SWAP1 POP SWAP2 SWAP1 POP JUMP JUMPDEST PUSH0 PUSH1 0x20 DUP3 ADD SWAP1 POP DUP2 DUP2 SUB PUSH0 DUP4 ADD MSTORE PUSH2 0x761 DUP2 PUSH2 0x728 JUMP JUMPDEST SWAP1 POP SWAP2 SWAP1 POP JUMP JUMPDEST PUSH32 0x506C6561736520636F6E74726962757465207468652072657175697265642061 PUSH0 DUP3 ADD MSTORE PUSH32 0x6D6F756E74000000000000000000000000000000000000000000000000000000 PUSH1 0x20 DUP3 ADD MSTORE POP JUMP JUMPDEST PUSH0 PUSH2 0x7C2 PUSH1 0x25 DUP4 PUSH2 0x5EC JUMP JUMPDEST SWAP2 POP PUSH2 0x7CD DUP3 PUSH2 0x768 JUMP JUMPDEST PUSH1 0x40 DUP3 ADD SWAP1 POP SWAP2 SWAP1 POP JUMP JUMPDEST PUSH0 PUSH1 0x20 DUP3 ADD SWAP1 POP DUP2 DUP2 SUB PUSH0 DUP4 ADD MSTORE PUSH2 0x7EF DUP2 PUSH2 0x7B6 JUMP JUMPDEST SWAP1 POP SWAP2 SWAP1 POP JUMP JUMPDEST PUSH32 0x4E487B7100000000000000000000000000000000000000000000000000000000 PUSH0 MSTORE PUSH1 0x11 PUSH1 0x4 MSTORE PUSH1 0x24 PUSH0 REVERT JUMPDEST PUSH0 PUSH2 0x82D DUP3 PUSH2 0x4F5 JUMP JUMPDEST SWAP2 POP PUSH2 0x838 DUP4 PUSH2 0x4F5 JUMP JUMPDEST SWAP3 POP DUP3 DUP3 ADD SWAP1 POP DUP1 DUP3 GT ISZERO PUSH2 0x850 JUMPI PUSH2 0x84F PUSH2 0x7F6 JUMP JUMPDEST JUMPDEST SWAP3 SWAP2 POP POP JUMP JUMPDEST PUSH32 0x4E487B7100000000000000000000000000000000000000000000000000000000 PUSH0 MSTORE PUSH1 0x32 PUSH1 0x4 MSTORE PUSH1 0x24 PUSH0 REVERT INVALID SLOAD PUSH9 0x616E6B20796F752066 PUSH16 0x72206D616B696E6720796F757220636F PUSH15 0x747269627574696F6E21A264697066 PUSH20 0x5822122076450F0DBCFEAB3BA8312399E44C7B0F 0xB3 SLOAD PUSH14 0xFA5DA67BE975088A4644D5D98464 PUSH20 0x6F6C634300081A00330000000000000000000000 "
				},
				"gasEstimates": {
					"creation": {
						"codeDepositCost": "454400",
						"executionCost": "infinite",
						"totalCost": "infinite"
					},
					"external": {
						"contributionFrequencyInWeeks()": "2513",
						"contributionsThisCycle()": "2469",
						"cycleCount()": "2448",
						"cycleStartTime()": "2470",
						"hasContributedThisCycle(address)": "2922",
						"hasReceivedPayout(address)": "2900",
						"nextDistributionTime()": "2426",
						"nextPayoutIndex()": "2425",
						"numMembers()": "2446",
						"regular_contribution()": "infinite"
					},
					"internal": {
						"isMember(address)": "infinite"
					}
				},
				"methodIdentifiers": {
					"contributionFrequencyInWeeks()": "8d0aa1b2",
					"contributionsThisCycle()": "50a644d1",
					"cycleCount()": "316fda0f",
					"cycleStartTime()": "335e536c",
					"hasContributedThisCycle(address)": "368d6eb7",
					"hasReceivedPayout(address)": "346477c7",
					"nextDistributionTime()": "091fb010",
					"nextPayoutIndex()": "3fe071be",
					"numMembers()": "4698d110",
					"regular_contribution()": "5d8d12d6"
				}
			},
			"storageLayout": {
				"storage": [
					{
						"astId": 4,
						"contract": "Contract_Templates/Tanda.sol:Tanda",
						"label": "numMembers",
						"offset": 0,
						"slot": "0",
						"type": "t_uint256"
					},
					{
						"astId": 7,
						"contract": "Contract_Templates/Tanda.sol:Tanda",
						"label": "contributionFrequencyInWeeks",
						"offset": 0,
						"slot": "1",
						"type": "t_uint256"
					},
					{
						"astId": 10,
						"contract": "Contract_Templates/Tanda.sol:Tanda",
						"label": "contributionAmount",
						"offset": 0,
						"slot": "2",
						"type": "t_uint256"
					},
					{
						"astId": 13,
						"contract": "Contract_Templates/Tanda.sol:Tanda",
						"label": "distributionIntervalInWeeks",
						"offset": 0,
						"slot": "3",
						"type": "t_uint256"
					},
					{
						"astId": 17,
						"contract": "Contract_Templates/Tanda.sol:Tanda",
						"label": "members",
						"offset": 0,
						"slot": "4",
						"type": "t_array(t_address)dyn_storage"
					},
					{
						"astId": 22,
						"contract": "Contract_Templates/Tanda.sol:Tanda",
						"label": "hasContributedThisCycle",
						"offset": 0,
						"slot": "5",
						"type": "t_mapping(t_address,t_bool)"
					},
					{
						"astId": 25,
						"contract": "Contract_Templates/Tanda.sol:Tanda",
						"label": "contributionsThisCycle",
						"offset": 0,
						"slot": "6",
						"type": "t_uint256"
					},
					{
						"astId": 28,
						"contract": "Contract_Templates/Tanda.sol:Tanda",
						"label": "cycleStartTime",
						"offset": 0,
						"slot": "7",
						"type": "t_uint256"
					},
					{
						"astId": 31,
						"contract": "Contract_Templates/Tanda.sol:Tanda",
						"label": "cycleCount",
						"offset": 0,
						"slot": "8",
						"type": "t_uint256"
					},
					{
						"astId": 34,
						"contract": "Contract_Templates/Tanda.sol:Tanda",
						"label": "nextDistributionTime",
						"offset": 0,
						"slot": "9",
						"type": "t_uint256"
					},
					{
						"astId": 39,
						"contract": "Contract_Templates/Tanda.sol:Tanda",
						"label": "hasReceivedPayout",
						"offset": 0,
						"slot": "10",
						"type": "t_mapping(t_address,t_bool)"
					},
					{
						"astId": 42,
						"contract": "Contract_Templates/Tanda.sol:Tanda",
						"label": "nextPayoutIndex",
						"offset": 0,
						"slot": "11",
						"type": "t_uint256"
					}
				],
				"types": {
					"t_address": {
						"encoding": "inplace",
						"label": "address",
						"numberOfBytes": "20"
					},
					"t_array(t_address)dyn_storage": {
						"base": "t_address",
						"encoding": "dynamic_array",
						"label": "address[]",
						"numberOfBytes": "32"
					},
					"t_bool": {
						"encoding": "inplace",
						"label": "bool",
						"numberOfBytes": "1"
					},
					"t_mapping(t_address,t_bool)": {
						"encoding": "mapping",
						"key": "t_address",
						"label": "mapping(address => bool)",
						"numberOfBytes": "32",
						"value": "t_bool"
					},
					"t_uint256": {
						"encoding": "inplace",
						"label": "uint256",
						"numberOfBytes": "32"
					}
				}
			},
			"userdoc": {
				"kind": "user",
				"methods": {},
				"version": 1
			}
		}
	}
}