{
	"Contract_Templates/Calculator.sol": {
		"Calculator": {
			"abi": [
				{
					"inputs": [
						{
							"internalType": "address[]",
							"name": "_associationMembers",
							"type": "address[]"
						},
						{
							"internalType": "uint256",
							"name": "_numMembers",
							"type": "uint256"
						},
						{
							"internalType": "uint256",
							"name": "_contributionFrequencyInWeeks",
							"type": "uint256"
						},
						{
							"internalType": "uint256",
							"name": "_distributionIntervalInWeeks",
							"type": "uint256"
						},
						{
							"internalType": "uint256",
							"name": "_contributionAmount",
							"type": "uint256"
						}
					],
					"stateMutability": "nonpayable",
					"type": "constructor"
				},
				{
					"inputs": [],
					"name": "contributionAmount",
					"outputs": [
						{
							"internalType": "uint256",
							"name": "",
							"type": "uint256"
						}
					],
					"stateMutability": "view",
					"type": "function"
				},
				{
					"inputs": [],
					"name": "contributionFrequencyInWeeks",
					"outputs": [
						{
							"internalType": "uint256",
							"name": "",
							"type": "uint256"
						}
					],
					"stateMutability": "view",
					"type": "function"
				},
				{
					"inputs": [],
					"name": "distributionIntervalInWeeks",
					"outputs": [
						{
							"internalType": "uint256",
							"name": "",
							"type": "uint256"
						}
					],
					"stateMutability": "view",
					"type": "function"
				},
				{
					"inputs": [],
					"name": "get_compFreq",
					"outputs": [
						{
							"internalType": "uint256",
							"name": "",
							"type": "uint256"
						}
					],
					"stateMutability": "view",
					"type": "function"
				},
				{
					"inputs": [],
					"name": "get_contribution",
					"outputs": [
						{
							"internalType": "uint256",
							"name": "",
							"type": "uint256"
						}
					],
					"stateMutability": "view",
					"type": "function"
				},
				{
					"inputs": [],
					"name": "get_members",
					"outputs": [
						{
							"internalType": "uint256",
							"name": "",
							"type": "uint256"
						}
					],
					"stateMutability": "view",
					"type": "function"
				},
				{
					"inputs": [],
					"name": "get_payout",
					"outputs": [
						{
							"internalType": "uint256",
							"name": "",
							"type": "uint256"
						}
					],
					"stateMutability": "view",
					"type": "function"
				},
				{
					"inputs": [],
					"name": "numMembers",
					"outputs": [
						{
							"internalType": "uint256",
							"name": "",
							"type": "uint256"
						}
					],
					"stateMutability": "view",
					"type": "function"
				}
			],
			"devdoc": {
				"kind": "dev",
				"methods": {
					"constructor": {
						"details": "Index for picking the next unpaid member in the `members` array"
					}
				},
				"stateVariables": {
					"contributionAmount": {
						"details": "How much each member must contribute at each interval, stored in wei.      However, you can specify this value in the constructor as decimal Ether       (e.g., 0.002 ether, 0.5 ether, 1 ether, etc.)."
					},
					"contributionFrequencyInWeeks": {
						"details": "How often each member must contribute, in weeks"
					},
					"distributionIntervalInWeeks": {
						"details": "Interval (in weeks) at which the pot is distributed"
					}
				},
				"version": 1
			},
			"evm": {
				"assembly": "    /* \"Contract_Templates/Calculator.sol\":58:2793  contract Calculator{... */\n  mstore(0x40, 0x80)\n    /* \"Contract_Templates/Calculator.sol\":1498:2368  constructor(... */\n  callvalue\n  dup1\n  iszero\n  tag_1\n  jumpi\n  0x00\n  dup1\n  revert\ntag_1:\n  pop\n  mload(0x40)\n  sub(codesize, bytecodeSize)\n  dup1\n  bytecodeSize\n  dup4\n  codecopy\n  dup2\n  dup2\n  add\n  0x40\n  mstore\n  dup2\n  add\n  swap1\n  tag_2\n  swap2\n  swap1\n  tag_3\n  jump\t// in\ntag_2:\n    /* \"Contract_Templates/Calculator.sol\":1830:1841  _numMembers */\n  dup4\n    /* \"Contract_Templates/Calculator.sol\":1800:1819  _associationMembers */\n  dup6\n    /* \"Contract_Templates/Calculator.sol\":1800:1826  _associationMembers.length */\n  mload\n    /* \"Contract_Templates/Calculator.sol\":1800:1841  _associationMembers.length == _numMembers */\n  eq\n    /* \"Contract_Templates/Calculator.sol\":1792:1940  require(_associationMembers.length == _numMembers, \"Please ensure the number of association members match the number of wallet addresses provided.\") */\n  tag_6\n  jumpi\n  mload(0x40)\n  0x08c379a000000000000000000000000000000000000000000000000000000000\n  dup2\n  mstore\n  0x04\n  add\n  tag_7\n  swap1\n  tag_8\n  jump\t// in\ntag_7:\n  mload(0x40)\n  dup1\n  swap2\n  sub\n  swap1\n  revert\ntag_6:\n    /* \"Contract_Templates/Calculator.sol\":1955:1964  uint256 i */\n  0x00\n    /* \"Contract_Templates/Calculator.sol\":1950:2088  for (uint256 i = 0; i < _numMembers; i++) {... */\ntag_9:\n    /* \"Contract_Templates/Calculator.sol\":1974:1985  _numMembers */\n  dup5\n    /* \"Contract_Templates/Calculator.sol\":1970:1971  i */\n  dup2\n    /* \"Contract_Templates/Calculator.sol\":1970:1985  i < _numMembers */\n  lt\n    /* \"Contract_Templates/Calculator.sol\":1950:2088  for (uint256 i = 0; i < _numMembers; i++) {... */\n  iszero\n  tag_10\n  jumpi\n    /* \"Contract_Templates/Calculator.sol\":2048:2049  0 */\n  0x00\n    /* \"Contract_Templates/Calculator.sol\":2014:2050  _associationMembers[i] != address(0) */\n  0xffffffffffffffffffffffffffffffffffffffff\n  and\n    /* \"Contract_Templates/Calculator.sol\":2014:2033  _associationMembers */\n  dup7\n    /* \"Contract_Templates/Calculator.sol\":2034:2035  i */\n  dup3\n    /* \"Contract_Templates/Calculator.sol\":2014:2036  _associationMembers[i] */\n  dup2\n  mload\n  dup2\n  lt\n  tag_12\n  jumpi\n  tag_13\n  tag_14\n  jump\t// in\ntag_13:\ntag_12:\n  0x20\n  mul\n  0x20\n  add\n  add\n  mload\n    /* \"Contract_Templates/Calculator.sol\":2014:2050  _associationMembers[i] != address(0) */\n  0xffffffffffffffffffffffffffffffffffffffff\n  and\n  sub\n    /* \"Contract_Templates/Calculator.sol\":2006:2077  require(_associationMembers[i] != address(0), \"Invalid member address\") */\n  tag_15\n  jumpi\n  mload(0x40)\n  0x08c379a000000000000000000000000000000000000000000000000000000000\n  dup2\n  mstore\n  0x04\n  add\n  tag_16\n  swap1\n  tag_17\n  jump\t// in\ntag_16:\n  mload(0x40)\n  dup1\n  swap2\n  sub\n  swap1\n  revert\ntag_15:\n    /* \"Contract_Templates/Calculator.sol\":1987:1990  i++ */\n  dup1\n  dup1\n  0x01\n  add\n  swap2\n  pop\n  pop\n    /* \"Contract_Templates/Calculator.sol\":1950:2088  for (uint256 i = 0; i < _numMembers; i++) {... */\n  jump(tag_9)\ntag_10:\n  pop\n    /* \"Contract_Templates/Calculator.sol\":2116:2135  _associationMembers */\n  dup5\n    /* \"Contract_Templates/Calculator.sol\":2106:2113  members */\n  0x00\n    /* \"Contract_Templates/Calculator.sol\":2106:2135  members = _associationMembers */\n  swap1\n  dup1\n  mload\n  swap1\n  0x20\n  add\n  swap1\n  tag_18\n  swap3\n  swap2\n  swap1\n  tag_19\n  jump\t// in\ntag_18:\n  pop\n    /* \"Contract_Templates/Calculator.sol\":2158:2169  _numMembers */\n  dup4\n    /* \"Contract_Templates/Calculator.sol\":2145:2155  numMembers */\n  0x01\n    /* \"Contract_Templates/Calculator.sol\":2145:2169  numMembers = _numMembers */\n  dup2\n  swap1\n  sstore\n  pop\n    /* \"Contract_Templates/Calculator.sol\":2210:2239  _contributionFrequencyInWeeks */\n  dup3\n    /* \"Contract_Templates/Calculator.sol\":2179:2207  contributionFrequencyInWeeks */\n  0x02\n    /* \"Contract_Templates/Calculator.sol\":2179:2239  contributionFrequencyInWeeks = _contributionFrequencyInWeeks */\n  dup2\n  swap1\n  sstore\n  pop\n    /* \"Contract_Templates/Calculator.sol\":2279:2307  _distributionIntervalInWeeks */\n  dup2\n    /* \"Contract_Templates/Calculator.sol\":2249:2276  distributionIntervalInWeeks */\n  0x04\n    /* \"Contract_Templates/Calculator.sol\":2249:2307  distributionIntervalInWeeks = _distributionIntervalInWeeks */\n  dup2\n  swap1\n  sstore\n  pop\n    /* \"Contract_Templates/Calculator.sol\":2338:2357  _contributionAmount */\n  dup1\n    /* \"Contract_Templates/Calculator.sol\":2317:2335  contributionAmount */\n  0x03\n    /* \"Contract_Templates/Calculator.sol\":2317:2357  contributionAmount = _contributionAmount */\n  dup2\n  swap1\n  sstore\n  pop\n    /* \"Contract_Templates/Calculator.sol\":1498:2368  constructor(... */\n  pop\n  pop\n  pop\n  pop\n  pop\n    /* \"Contract_Templates/Calculator.sol\":58:2793  contract Calculator{... */\n  jump(tag_20)\ntag_19:\n  dup3\n  dup1\n  sload\n  dup3\n  dup3\n  sstore\n  swap1\n  0x00\n  mstore\n  keccak256(0x00, 0x20)\n  swap1\n  dup2\n  add\n  swap3\n  dup3\n  iszero\n  tag_21\n  jumpi\n  swap2\n  0x20\n  mul\n  dup3\n  add\ntag_22:\n  dup3\n  dup2\n  gt\n  iszero\n  tag_23\n  jumpi\n  dup3\n  mload\n  dup3\n  exp(0x0100, 0x00)\n  dup2\n  sload\n  dup2\n  0xffffffffffffffffffffffffffffffffffffffff\n  mul\n  not\n  and\n  swap1\n  dup4\n  0xffffffffffffffffffffffffffffffffffffffff\n  and\n  mul\n  or\n  swap1\n  sstore\n  pop\n  swap2\n  0x20\n  add\n  swap2\n  swap1\n  0x01\n  add\n  swap1\n  jump(tag_22)\ntag_23:\ntag_21:\n  pop\n  swap1\n  pop\n  tag_24\n  swap2\n  swap1\n  tag_25\n  jump\t// in\ntag_24:\n  pop\n  swap1\n  jump\t// out\ntag_25:\ntag_26:\n  dup1\n  dup3\n  gt\n  iszero\n  tag_27\n  jumpi\n  0x00\n  dup2\n  0x00\n  swap1\n  sstore\n  pop\n  0x01\n  add\n  jump(tag_26)\ntag_27:\n  pop\n  swap1\n  jump\t// out\n    /* \"#utility.yul\":7:82   */\ntag_28:\n    /* \"#utility.yul\":40:46   */\n  0x00\n    /* \"#utility.yul\":73:75   */\n  0x40\n    /* \"#utility.yul\":67:76   */\n  mload\n    /* \"#utility.yul\":57:76   */\n  swap1\n  pop\n    /* \"#utility.yul\":7:82   */\n  swap1\n  jump\t// out\n    /* \"#utility.yul\":88:205   */\ntag_29:\n    /* \"#utility.yul\":197:198   */\n  0x00\n    /* \"#utility.yul\":194:195   */\n  dup1\n    /* \"#utility.yul\":187:199   */\n  revert\n    /* \"#utility.yul\":211:328   */\ntag_30:\n    /* \"#utility.yul\":320:321   */\n  0x00\n    /* \"#utility.yul\":317:318   */\n  dup1\n    /* \"#utility.yul\":310:322   */\n  revert\n    /* \"#utility.yul\":334:451   */\ntag_31:\n    /* \"#utility.yul\":443:444   */\n  0x00\n    /* \"#utility.yul\":440:441   */\n  dup1\n    /* \"#utility.yul\":433:445   */\n  revert\n    /* \"#utility.yul\":457:559   */\ntag_32:\n    /* \"#utility.yul\":498:504   */\n  0x00\n    /* \"#utility.yul\":549:551   */\n  0x1f\n    /* \"#utility.yul\":545:552   */\n  not\n    /* \"#utility.yul\":540:542   */\n  0x1f\n    /* \"#utility.yul\":533:538   */\n  dup4\n    /* \"#utility.yul\":529:543   */\n  add\n    /* \"#utility.yul\":525:553   */\n  and\n    /* \"#utility.yul\":515:553   */\n  swap1\n  pop\n    /* \"#utility.yul\":457:559   */\n  swap2\n  swap1\n  pop\n  jump\t// out\n    /* \"#utility.yul\":565:745   */\ntag_33:\n    /* \"#utility.yul\":613:690   */\n  0x4e487b7100000000000000000000000000000000000000000000000000000000\n    /* \"#utility.yul\":610:611   */\n  0x00\n    /* \"#utility.yul\":603:691   */\n  mstore\n    /* \"#utility.yul\":710:714   */\n  0x41\n    /* \"#utility.yul\":707:708   */\n  0x04\n    /* \"#utility.yul\":700:715   */\n  mstore\n    /* \"#utility.yul\":734:738   */\n  0x24\n    /* \"#utility.yul\":731:732   */\n  0x00\n    /* \"#utility.yul\":724:739   */\n  revert\n    /* \"#utility.yul\":751:1032   */\ntag_34:\n    /* \"#utility.yul\":834:861   */\n  tag_60\n    /* \"#utility.yul\":856:860   */\n  dup3\n    /* \"#utility.yul\":834:861   */\n  tag_32\n  jump\t// in\ntag_60:\n    /* \"#utility.yul\":826:832   */\n  dup2\n    /* \"#utility.yul\":822:862   */\n  add\n    /* \"#utility.yul\":964:970   */\n  dup2\n    /* \"#utility.yul\":952:962   */\n  dup2\n    /* \"#utility.yul\":949:971   */\n  lt\n    /* \"#utility.yul\":928:946   */\n  0xffffffffffffffff\n    /* \"#utility.yul\":916:926   */\n  dup3\n    /* \"#utility.yul\":913:947   */\n  gt\n    /* \"#utility.yul\":910:972   */\n  or\n    /* \"#utility.yul\":907:995   */\n  iszero\n  tag_61\n  jumpi\n    /* \"#utility.yul\":975:993   */\n  tag_62\n  tag_33\n  jump\t// in\ntag_62:\n    /* \"#utility.yul\":907:995   */\ntag_61:\n    /* \"#utility.yul\":1015:1025   */\n  dup1\n    /* \"#utility.yul\":1011:1013   */\n  0x40\n    /* \"#utility.yul\":1004:1026   */\n  mstore\n    /* \"#utility.yul\":794:1032   */\n  pop\n    /* \"#utility.yul\":751:1032   */\n  pop\n  pop\n  jump\t// out\n    /* \"#utility.yul\":1038:1167   */\ntag_35:\n    /* \"#utility.yul\":1072:1078   */\n  0x00\n    /* \"#utility.yul\":1099:1119   */\n  tag_64\n  tag_28\n  jump\t// in\ntag_64:\n    /* \"#utility.yul\":1089:1119   */\n  swap1\n  pop\n    /* \"#utility.yul\":1128:1161   */\n  tag_65\n    /* \"#utility.yul\":1156:1160   */\n  dup3\n    /* \"#utility.yul\":1148:1154   */\n  dup3\n    /* \"#utility.yul\":1128:1161   */\n  tag_34\n  jump\t// in\ntag_65:\n    /* \"#utility.yul\":1038:1167   */\n  swap2\n  swap1\n  pop\n  jump\t// out\n    /* \"#utility.yul\":1173:1484   */\ntag_36:\n    /* \"#utility.yul\":1250:1254   */\n  0x00\n    /* \"#utility.yul\":1340:1358   */\n  0xffffffffffffffff\n    /* \"#utility.yul\":1332:1338   */\n  dup3\n    /* \"#utility.yul\":1329:1359   */\n  gt\n    /* \"#utility.yul\":1326:1382   */\n  iszero\n  tag_67\n  jumpi\n    /* \"#utility.yul\":1362:1380   */\n  tag_68\n  tag_33\n  jump\t// in\ntag_68:\n    /* \"#utility.yul\":1326:1382   */\ntag_67:\n    /* \"#utility.yul\":1412:1416   */\n  0x20\n    /* \"#utility.yul\":1404:1410   */\n  dup3\n    /* \"#utility.yul\":1400:1417   */\n  mul\n    /* \"#utility.yul\":1392:1417   */\n  swap1\n  pop\n    /* \"#utility.yul\":1472:1476   */\n  0x20\n    /* \"#utility.yul\":1466:1470   */\n  dup2\n    /* \"#utility.yul\":1462:1477   */\n  add\n    /* \"#utility.yul\":1454:1477   */\n  swap1\n  pop\n    /* \"#utility.yul\":1173:1484   */\n  swap2\n  swap1\n  pop\n  jump\t// out\n    /* \"#utility.yul\":1490:1607   */\ntag_37:\n    /* \"#utility.yul\":1599:1600   */\n  0x00\n    /* \"#utility.yul\":1596:1597   */\n  dup1\n    /* \"#utility.yul\":1589:1601   */\n  revert\n    /* \"#utility.yul\":1613:1739   */\ntag_38:\n    /* \"#utility.yul\":1650:1657   */\n  0x00\n    /* \"#utility.yul\":1690:1732   */\n  0xffffffffffffffffffffffffffffffffffffffff\n    /* \"#utility.yul\":1683:1688   */\n  dup3\n    /* \"#utility.yul\":1679:1733   */\n  and\n    /* \"#utility.yul\":1668:1733   */\n  swap1\n  pop\n    /* \"#utility.yul\":1613:1739   */\n  swap2\n  swap1\n  pop\n  jump\t// out\n    /* \"#utility.yul\":1745:1841   */\ntag_39:\n    /* \"#utility.yul\":1782:1789   */\n  0x00\n    /* \"#utility.yul\":1811:1835   */\n  tag_72\n    /* \"#utility.yul\":1829:1834   */\n  dup3\n    /* \"#utility.yul\":1811:1835   */\n  tag_38\n  jump\t// in\ntag_72:\n    /* \"#utility.yul\":1800:1835   */\n  swap1\n  pop\n    /* \"#utility.yul\":1745:1841   */\n  swap2\n  swap1\n  pop\n  jump\t// out\n    /* \"#utility.yul\":1847:1969   */\ntag_40:\n    /* \"#utility.yul\":1920:1944   */\n  tag_74\n    /* \"#utility.yul\":1938:1943   */\n  dup2\n    /* \"#utility.yul\":1920:1944   */\n  tag_39\n  jump\t// in\ntag_74:\n    /* \"#utility.yul\":1913:1918   */\n  dup2\n    /* \"#utility.yul\":1910:1945   */\n  eq\n    /* \"#utility.yul\":1900:1963   */\n  tag_75\n  jumpi\n    /* \"#utility.yul\":1959:1960   */\n  0x00\n    /* \"#utility.yul\":1956:1957   */\n  dup1\n    /* \"#utility.yul\":1949:1961   */\n  revert\n    /* \"#utility.yul\":1900:1963   */\ntag_75:\n    /* \"#utility.yul\":1847:1969   */\n  pop\n  jump\t// out\n    /* \"#utility.yul\":1975:2118   */\ntag_41:\n    /* \"#utility.yul\":2032:2037   */\n  0x00\n    /* \"#utility.yul\":2063:2069   */\n  dup2\n    /* \"#utility.yul\":2057:2070   */\n  mload\n    /* \"#utility.yul\":2048:2070   */\n  swap1\n  pop\n    /* \"#utility.yul\":2079:2112   */\n  tag_77\n    /* \"#utility.yul\":2106:2111   */\n  dup2\n    /* \"#utility.yul\":2079:2112   */\n  tag_40\n  jump\t// in\ntag_77:\n    /* \"#utility.yul\":1975:2118   */\n  swap3\n  swap2\n  pop\n  pop\n  jump\t// out\n    /* \"#utility.yul\":2141:2873   */\ntag_42:\n    /* \"#utility.yul\":2248:2253   */\n  0x00\n    /* \"#utility.yul\":2273:2354   */\n  tag_79\n    /* \"#utility.yul\":2289:2353   */\n  tag_80\n    /* \"#utility.yul\":2346:2352   */\n  dup5\n    /* \"#utility.yul\":2289:2353   */\n  tag_36\n  jump\t// in\ntag_80:\n    /* \"#utility.yul\":2273:2354   */\n  tag_35\n  jump\t// in\ntag_79:\n    /* \"#utility.yul\":2264:2354   */\n  swap1\n  pop\n    /* \"#utility.yul\":2374:2379   */\n  dup1\n    /* \"#utility.yul\":2403:2409   */\n  dup4\n    /* \"#utility.yul\":2396:2401   */\n  dup3\n    /* \"#utility.yul\":2389:2410   */\n  mstore\n    /* \"#utility.yul\":2437:2441   */\n  0x20\n    /* \"#utility.yul\":2430:2435   */\n  dup3\n    /* \"#utility.yul\":2426:2442   */\n  add\n    /* \"#utility.yul\":2419:2442   */\n  swap1\n  pop\n    /* \"#utility.yul\":2490:2494   */\n  0x20\n    /* \"#utility.yul\":2482:2488   */\n  dup5\n    /* \"#utility.yul\":2478:2495   */\n  mul\n    /* \"#utility.yul\":2470:2476   */\n  dup4\n    /* \"#utility.yul\":2466:2496   */\n  add\n    /* \"#utility.yul\":2519:2522   */\n  dup6\n    /* \"#utility.yul\":2511:2517   */\n  dup2\n    /* \"#utility.yul\":2508:2523   */\n  gt\n    /* \"#utility.yul\":2505:2627   */\n  iszero\n  tag_81\n  jumpi\n    /* \"#utility.yul\":2538:2617   */\n  tag_82\n  tag_37\n  jump\t// in\ntag_82:\n    /* \"#utility.yul\":2505:2627   */\ntag_81:\n    /* \"#utility.yul\":2653:2659   */\n  dup4\n    /* \"#utility.yul\":2636:2867   */\ntag_83:\n    /* \"#utility.yul\":2670:2676   */\n  dup2\n    /* \"#utility.yul\":2665:2668   */\n  dup2\n    /* \"#utility.yul\":2662:2677   */\n  lt\n    /* \"#utility.yul\":2636:2867   */\n  iszero\n  tag_85\n  jumpi\n    /* \"#utility.yul\":2745:2748   */\n  dup1\n    /* \"#utility.yul\":2774:2822   */\n  tag_86\n    /* \"#utility.yul\":2818:2821   */\n  dup9\n    /* \"#utility.yul\":2806:2816   */\n  dup3\n    /* \"#utility.yul\":2774:2822   */\n  tag_41\n  jump\t// in\ntag_86:\n    /* \"#utility.yul\":2769:2772   */\n  dup5\n    /* \"#utility.yul\":2762:2823   */\n  mstore\n    /* \"#utility.yul\":2852:2856   */\n  0x20\n    /* \"#utility.yul\":2847:2850   */\n  dup5\n    /* \"#utility.yul\":2843:2857   */\n  add\n    /* \"#utility.yul\":2836:2857   */\n  swap4\n  pop\n    /* \"#utility.yul\":2712:2867   */\n  pop\n    /* \"#utility.yul\":2696:2700   */\n  0x20\n    /* \"#utility.yul\":2691:2694   */\n  dup2\n    /* \"#utility.yul\":2687:2701   */\n  add\n    /* \"#utility.yul\":2680:2701   */\n  swap1\n  pop\n    /* \"#utility.yul\":2636:2867   */\n  jump(tag_83)\ntag_85:\n    /* \"#utility.yul\":2640:2661   */\n  pop\n    /* \"#utility.yul\":2254:2873   */\n  pop\n  pop\n    /* \"#utility.yul\":2141:2873   */\n  swap4\n  swap3\n  pop\n  pop\n  pop\n  jump\t// out\n    /* \"#utility.yul\":2896:3281   */\ntag_43:\n    /* \"#utility.yul\":2978:2983   */\n  0x00\n    /* \"#utility.yul\":3027:3030   */\n  dup3\n    /* \"#utility.yul\":3020:3024   */\n  0x1f\n    /* \"#utility.yul\":3012:3018   */\n  dup4\n    /* \"#utility.yul\":3008:3025   */\n  add\n    /* \"#utility.yul\":3004:3031   */\n  slt\n    /* \"#utility.yul\":2994:3116   */\n  tag_88\n  jumpi\n    /* \"#utility.yul\":3035:3114   */\n  tag_89\n  tag_31\n  jump\t// in\ntag_89:\n    /* \"#utility.yul\":2994:3116   */\ntag_88:\n    /* \"#utility.yul\":3145:3151   */\n  dup2\n    /* \"#utility.yul\":3139:3152   */\n  mload\n    /* \"#utility.yul\":3170:3275   */\n  tag_90\n    /* \"#utility.yul\":3271:3274   */\n  dup5\n    /* \"#utility.yul\":3263:3269   */\n  dup3\n    /* \"#utility.yul\":3256:3260   */\n  0x20\n    /* \"#utility.yul\":3248:3254   */\n  dup7\n    /* \"#utility.yul\":3244:3261   */\n  add\n    /* \"#utility.yul\":3170:3275   */\n  tag_42\n  jump\t// in\ntag_90:\n    /* \"#utility.yul\":3161:3275   */\n  swap2\n  pop\n    /* \"#utility.yul\":2984:3281   */\n  pop\n    /* \"#utility.yul\":2896:3281   */\n  swap3\n  swap2\n  pop\n  pop\n  jump\t// out\n    /* \"#utility.yul\":3287:3364   */\ntag_44:\n    /* \"#utility.yul\":3324:3331   */\n  0x00\n    /* \"#utility.yul\":3353:3358   */\n  dup2\n    /* \"#utility.yul\":3342:3358   */\n  swap1\n  pop\n    /* \"#utility.yul\":3287:3364   */\n  swap2\n  swap1\n  pop\n  jump\t// out\n    /* \"#utility.yul\":3370:3492   */\ntag_45:\n    /* \"#utility.yul\":3443:3467   */\n  tag_93\n    /* \"#utility.yul\":3461:3466   */\n  dup2\n    /* \"#utility.yul\":3443:3467   */\n  tag_44\n  jump\t// in\ntag_93:\n    /* \"#utility.yul\":3436:3441   */\n  dup2\n    /* \"#utility.yul\":3433:3468   */\n  eq\n    /* \"#utility.yul\":3423:3486   */\n  tag_94\n  jumpi\n    /* \"#utility.yul\":3482:3483   */\n  0x00\n    /* \"#utility.yul\":3479:3480   */\n  dup1\n    /* \"#utility.yul\":3472:3484   */\n  revert\n    /* \"#utility.yul\":3423:3486   */\ntag_94:\n    /* \"#utility.yul\":3370:3492   */\n  pop\n  jump\t// out\n    /* \"#utility.yul\":3498:3641   */\ntag_46:\n    /* \"#utility.yul\":3555:3560   */\n  0x00\n    /* \"#utility.yul\":3586:3592   */\n  dup2\n    /* \"#utility.yul\":3580:3593   */\n  mload\n    /* \"#utility.yul\":3571:3593   */\n  swap1\n  pop\n    /* \"#utility.yul\":3602:3635   */\n  tag_96\n    /* \"#utility.yul\":3629:3634   */\n  dup2\n    /* \"#utility.yul\":3602:3635   */\n  tag_45\n  jump\t// in\ntag_96:\n    /* \"#utility.yul\":3498:3641   */\n  swap3\n  swap2\n  pop\n  pop\n  jump\t// out\n    /* \"#utility.yul\":3647:4827   */\ntag_3:\n    /* \"#utility.yul\":3778:3784   */\n  0x00\n    /* \"#utility.yul\":3786:3792   */\n  dup1\n    /* \"#utility.yul\":3794:3800   */\n  0x00\n    /* \"#utility.yul\":3802:3808   */\n  dup1\n    /* \"#utility.yul\":3810:3816   */\n  0x00\n    /* \"#utility.yul\":3859:3862   */\n  0xa0\n    /* \"#utility.yul\":3847:3856   */\n  dup7\n    /* \"#utility.yul\":3838:3845   */\n  dup9\n    /* \"#utility.yul\":3834:3857   */\n  sub\n    /* \"#utility.yul\":3830:3863   */\n  slt\n    /* \"#utility.yul\":3827:3947   */\n  iszero\n  tag_98\n  jumpi\n    /* \"#utility.yul\":3866:3945   */\n  tag_99\n  tag_29\n  jump\t// in\ntag_99:\n    /* \"#utility.yul\":3827:3947   */\ntag_98:\n    /* \"#utility.yul\":4007:4008   */\n  0x00\n    /* \"#utility.yul\":3996:4005   */\n  dup7\n    /* \"#utility.yul\":3992:4009   */\n  add\n    /* \"#utility.yul\":3986:4010   */\n  mload\n    /* \"#utility.yul\":4037:4055   */\n  0xffffffffffffffff\n    /* \"#utility.yul\":4029:4035   */\n  dup2\n    /* \"#utility.yul\":4026:4056   */\n  gt\n    /* \"#utility.yul\":4023:4140   */\n  iszero\n  tag_100\n  jumpi\n    /* \"#utility.yul\":4059:4138   */\n  tag_101\n  tag_30\n  jump\t// in\ntag_101:\n    /* \"#utility.yul\":4023:4140   */\ntag_100:\n    /* \"#utility.yul\":4164:4253   */\n  tag_102\n    /* \"#utility.yul\":4245:4252   */\n  dup9\n    /* \"#utility.yul\":4236:4242   */\n  dup3\n    /* \"#utility.yul\":4225:4234   */\n  dup10\n    /* \"#utility.yul\":4221:4243   */\n  add\n    /* \"#utility.yul\":4164:4253   */\n  tag_43\n  jump\t// in\ntag_102:\n    /* \"#utility.yul\":4154:4253   */\n  swap6\n  pop\n    /* \"#utility.yul\":3957:4263   */\n  pop\n    /* \"#utility.yul\":4302:4304   */\n  0x20\n    /* \"#utility.yul\":4328:4392   */\n  tag_103\n    /* \"#utility.yul\":4384:4391   */\n  dup9\n    /* \"#utility.yul\":4375:4381   */\n  dup3\n    /* \"#utility.yul\":4364:4373   */\n  dup10\n    /* \"#utility.yul\":4360:4382   */\n  add\n    /* \"#utility.yul\":4328:4392   */\n  tag_46\n  jump\t// in\ntag_103:\n    /* \"#utility.yul\":4318:4392   */\n  swap5\n  pop\n    /* \"#utility.yul\":4273:4402   */\n  pop\n    /* \"#utility.yul\":4441:4443   */\n  0x40\n    /* \"#utility.yul\":4467:4531   */\n  tag_104\n    /* \"#utility.yul\":4523:4530   */\n  dup9\n    /* \"#utility.yul\":4514:4520   */\n  dup3\n    /* \"#utility.yul\":4503:4512   */\n  dup10\n    /* \"#utility.yul\":4499:4521   */\n  add\n    /* \"#utility.yul\":4467:4531   */\n  tag_46\n  jump\t// in\ntag_104:\n    /* \"#utility.yul\":4457:4531   */\n  swap4\n  pop\n    /* \"#utility.yul\":4412:4541   */\n  pop\n    /* \"#utility.yul\":4580:4582   */\n  0x60\n    /* \"#utility.yul\":4606:4670   */\n  tag_105\n    /* \"#utility.yul\":4662:4669   */\n  dup9\n    /* \"#utility.yul\":4653:4659   */\n  dup3\n    /* \"#utility.yul\":4642:4651   */\n  dup10\n    /* \"#utility.yul\":4638:4660   */\n  add\n    /* \"#utility.yul\":4606:4670   */\n  tag_46\n  jump\t// in\ntag_105:\n    /* \"#utility.yul\":4596:4670   */\n  swap3\n  pop\n    /* \"#utility.yul\":4551:4680   */\n  pop\n    /* \"#utility.yul\":4719:4722   */\n  0x80\n    /* \"#utility.yul\":4746:4810   */\n  tag_106\n    /* \"#utility.yul\":4802:4809   */\n  dup9\n    /* \"#utility.yul\":4793:4799   */\n  dup3\n    /* \"#utility.yul\":4782:4791   */\n  dup10\n    /* \"#utility.yul\":4778:4800   */\n  add\n    /* \"#utility.yul\":4746:4810   */\n  tag_46\n  jump\t// in\ntag_106:\n    /* \"#utility.yul\":4736:4810   */\n  swap2\n  pop\n    /* \"#utility.yul\":4690:4820   */\n  pop\n    /* \"#utility.yul\":3647:4827   */\n  swap3\n  swap6\n  pop\n  swap3\n  swap6\n  swap1\n  swap4\n  pop\n  jump\t// out\n    /* \"#utility.yul\":4833:5002   */\ntag_47:\n    /* \"#utility.yul\":4917:4928   */\n  0x00\n    /* \"#utility.yul\":4951:4957   */\n  dup3\n    /* \"#utility.yul\":4946:4949   */\n  dup3\n    /* \"#utility.yul\":4939:4958   */\n  mstore\n    /* \"#utility.yul\":4991:4995   */\n  0x20\n    /* \"#utility.yul\":4986:4989   */\n  dup3\n    /* \"#utility.yul\":4982:4996   */\n  add\n    /* \"#utility.yul\":4967:4996   */\n  swap1\n  pop\n    /* \"#utility.yul\":4833:5002   */\n  swap3\n  swap2\n  pop\n  pop\n  jump\t// out\n    /* \"#utility.yul\":5008:5326   */\ntag_48:\n    /* \"#utility.yul\":5148:5182   */\n  0x506c6561736520656e7375726520746865206e756d626572206f66206173736f\n    /* \"#utility.yul\":5144:5145   */\n  0x00\n    /* \"#utility.yul\":5136:5142   */\n  dup3\n    /* \"#utility.yul\":5132:5146   */\n  add\n    /* \"#utility.yul\":5125:5183   */\n  mstore\n    /* \"#utility.yul\":5217:5251   */\n  0x63696174696f6e206d656d62657273206d6174636820746865206e756d626572\n    /* \"#utility.yul\":5212:5214   */\n  0x20\n    /* \"#utility.yul\":5204:5210   */\n  dup3\n    /* \"#utility.yul\":5200:5215   */\n  add\n    /* \"#utility.yul\":5193:5252   */\n  mstore\n    /* \"#utility.yul\":5286:5318   */\n  0x206f662077616c6c6574206164647265737365732070726f76696465642e0000\n    /* \"#utility.yul\":5281:5283   */\n  0x40\n    /* \"#utility.yul\":5273:5279   */\n  dup3\n    /* \"#utility.yul\":5269:5284   */\n  add\n    /* \"#utility.yul\":5262:5319   */\n  mstore\n    /* \"#utility.yul\":5008:5326   */\n  pop\n  jump\t// out\n    /* \"#utility.yul\":5332:5698   */\ntag_49:\n    /* \"#utility.yul\":5474:5477   */\n  0x00\n    /* \"#utility.yul\":5495:5562   */\n  tag_110\n    /* \"#utility.yul\":5559:5561   */\n  0x5e\n    /* \"#utility.yul\":5554:5557   */\n  dup4\n    /* \"#utility.yul\":5495:5562   */\n  tag_47\n  jump\t// in\ntag_110:\n    /* \"#utility.yul\":5488:5562   */\n  swap2\n  pop\n    /* \"#utility.yul\":5571:5664   */\n  tag_111\n    /* \"#utility.yul\":5660:5663   */\n  dup3\n    /* \"#utility.yul\":5571:5664   */\n  tag_48\n  jump\t// in\ntag_111:\n    /* \"#utility.yul\":5689:5691   */\n  0x60\n    /* \"#utility.yul\":5684:5687   */\n  dup3\n    /* \"#utility.yul\":5680:5692   */\n  add\n    /* \"#utility.yul\":5673:5692   */\n  swap1\n  pop\n    /* \"#utility.yul\":5332:5698   */\n  swap2\n  swap1\n  pop\n  jump\t// out\n    /* \"#utility.yul\":5704:6123   */\ntag_8:\n    /* \"#utility.yul\":5870:5874   */\n  0x00\n    /* \"#utility.yul\":5908:5910   */\n  0x20\n    /* \"#utility.yul\":5897:5906   */\n  dup3\n    /* \"#utility.yul\":5893:5911   */\n  add\n    /* \"#utility.yul\":5885:5911   */\n  swap1\n  pop\n    /* \"#utility.yul\":5957:5966   */\n  dup2\n    /* \"#utility.yul\":5951:5955   */\n  dup2\n    /* \"#utility.yul\":5947:5967   */\n  sub\n    /* \"#utility.yul\":5943:5944   */\n  0x00\n    /* \"#utility.yul\":5932:5941   */\n  dup4\n    /* \"#utility.yul\":5928:5945   */\n  add\n    /* \"#utility.yul\":5921:5968   */\n  mstore\n    /* \"#utility.yul\":5985:6116   */\n  tag_113\n    /* \"#utility.yul\":6111:6115   */\n  dup2\n    /* \"#utility.yul\":5985:6116   */\n  tag_49\n  jump\t// in\ntag_113:\n    /* \"#utility.yul\":5977:6116   */\n  swap1\n  pop\n    /* \"#utility.yul\":5704:6123   */\n  swap2\n  swap1\n  pop\n  jump\t// out\n    /* \"#utility.yul\":6129:6309   */\ntag_14:\n    /* \"#utility.yul\":6177:6254   */\n  0x4e487b7100000000000000000000000000000000000000000000000000000000\n    /* \"#utility.yul\":6174:6175   */\n  0x00\n    /* \"#utility.yul\":6167:6255   */\n  mstore\n    /* \"#utility.yul\":6274:6278   */\n  0x32\n    /* \"#utility.yul\":6271:6272   */\n  0x04\n    /* \"#utility.yul\":6264:6279   */\n  mstore\n    /* \"#utility.yul\":6298:6302   */\n  0x24\n    /* \"#utility.yul\":6295:6296   */\n  0x00\n    /* \"#utility.yul\":6288:6303   */\n  revert\n    /* \"#utility.yul\":6315:6487   */\ntag_50:\n    /* \"#utility.yul\":6455:6479   */\n  0x496e76616c6964206d656d626572206164647265737300000000000000000000\n    /* \"#utility.yul\":6451:6452   */\n  0x00\n    /* \"#utility.yul\":6443:6449   */\n  dup3\n    /* \"#utility.yul\":6439:6453   */\n  add\n    /* \"#utility.yul\":6432:6480   */\n  mstore\n    /* \"#utility.yul\":6315:6487   */\n  pop\n  jump\t// out\n    /* \"#utility.yul\":6493:6859   */\ntag_51:\n    /* \"#utility.yul\":6635:6638   */\n  0x00\n    /* \"#utility.yul\":6656:6723   */\n  tag_117\n    /* \"#utility.yul\":6720:6722   */\n  0x16\n    /* \"#utility.yul\":6715:6718   */\n  dup4\n    /* \"#utility.yul\":6656:6723   */\n  tag_47\n  jump\t// in\ntag_117:\n    /* \"#utility.yul\":6649:6723   */\n  swap2\n  pop\n    /* \"#utility.yul\":6732:6825   */\n  tag_118\n    /* \"#utility.yul\":6821:6824   */\n  dup3\n    /* \"#utility.yul\":6732:6825   */\n  tag_50\n  jump\t// in\ntag_118:\n    /* \"#utility.yul\":6850:6852   */\n  0x20\n    /* \"#utility.yul\":6845:6848   */\n  dup3\n    /* \"#utility.yul\":6841:6853   */\n  add\n    /* \"#utility.yul\":6834:6853   */\n  swap1\n  pop\n    /* \"#utility.yul\":6493:6859   */\n  swap2\n  swap1\n  pop\n  jump\t// out\n    /* \"#utility.yul\":6865:7284   */\ntag_17:\n    /* \"#utility.yul\":7031:7035   */\n  0x00\n    /* \"#utility.yul\":7069:7071   */\n  0x20\n    /* \"#utility.yul\":7058:7067   */\n  dup3\n    /* \"#utility.yul\":7054:7072   */\n  add\n    /* \"#utility.yul\":7046:7072   */\n  swap1\n  pop\n    /* \"#utility.yul\":7118:7127   */\n  dup2\n    /* \"#utility.yul\":7112:7116   */\n  dup2\n    /* \"#utility.yul\":7108:7128   */\n  sub\n    /* \"#utility.yul\":7104:7105   */\n  0x00\n    /* \"#utility.yul\":7093:7102   */\n  dup4\n    /* \"#utility.yul\":7089:7106   */\n  add\n    /* \"#utility.yul\":7082:7129   */\n  mstore\n    /* \"#utility.yul\":7146:7277   */\n  tag_120\n    /* \"#utility.yul\":7272:7276   */\n  dup2\n    /* \"#utility.yul\":7146:7277   */\n  tag_51\n  jump\t// in\ntag_120:\n    /* \"#utility.yul\":7138:7277   */\n  swap1\n  pop\n    /* \"#utility.yul\":6865:7284   */\n  swap2\n  swap1\n  pop\n  jump\t// out\n    /* \"Contract_Templates/Calculator.sol\":58:2793  contract Calculator{... */\ntag_20:\n  dataSize(sub_0)\n  dup1\n  dataOffset(sub_0)\n  0x00\n  codecopy\n  0x00\n  return\nstop\n\nsub_0: assembly {\n        /* \"Contract_Templates/Calculator.sol\":58:2793  contract Calculator{... */\n      mstore(0x40, 0x80)\n      callvalue\n      dup1\n      iszero\n      tag_1\n      jumpi\n      0x00\n      dup1\n      revert\n    tag_1:\n      pop\n      jumpi(tag_2, lt(calldatasize, 0x04))\n      shr(0xe0, calldataload(0x00))\n      dup1\n      0x6c1b9330\n      gt\n      tag_11\n      jumpi\n      dup1\n      0x6c1b9330\n      eq\n      tag_7\n      jumpi\n      dup1\n      0x8d0aa1b2\n      eq\n      tag_8\n      jumpi\n      dup1\n      0x9172e5c2\n      eq\n      tag_9\n      jumpi\n      dup1\n      0x91abb13d\n      eq\n      tag_10\n      jumpi\n      jump(tag_2)\n    tag_11:\n      dup1\n      0x27d4e269\n      eq\n      tag_3\n      jumpi\n      dup1\n      0x43b2fecc\n      eq\n      tag_4\n      jumpi\n      dup1\n      0x4698d110\n      eq\n      tag_5\n      jumpi\n      dup1\n      0x5fa0b65f\n      eq\n      tag_6\n      jumpi\n    tag_2:\n      0x00\n      dup1\n      revert\n        /* \"Contract_Templates/Calculator.sol\":2683:2789  function get_compFreq() public view returns(uint256) {... */\n    tag_3:\n      tag_12\n      tag_13\n      jump\t// in\n    tag_12:\n      mload(0x40)\n      tag_14\n      swap2\n      swap1\n      tag_15\n      jump\t// in\n    tag_14:\n      mload(0x40)\n      dup1\n      swap2\n      sub\n      swap1\n      return\n        /* \"Contract_Templates/Calculator.sol\":2577:2677  function get_contribution() public view returns(uint256) {... */\n    tag_4:\n      tag_16\n      tag_17\n      jump\t// in\n    tag_16:\n      mload(0x40)\n      tag_18\n      swap2\n      swap1\n      tag_15\n      jump\t// in\n    tag_18:\n      mload(0x40)\n      dup1\n      swap2\n      sub\n      swap1\n      return\n        /* \"Contract_Templates/Calculator.sol\":109:134  uint256 public numMembers */\n    tag_5:\n      tag_19\n      tag_20\n      jump\t// in\n    tag_19:\n      mload(0x40)\n      tag_21\n      swap2\n      swap1\n      tag_15\n      jump\t// in\n    tag_21:\n      mload(0x40)\n      dup1\n      swap2\n      sub\n      swap1\n      return\n        /* \"Contract_Templates/Calculator.sol\":502:535  uint256 public contributionAmount */\n    tag_6:\n      tag_22\n      tag_23\n      jump\t// in\n    tag_22:\n      mload(0x40)\n      tag_24\n      swap2\n      swap1\n      tag_15\n      jump\t// in\n    tag_24:\n      mload(0x40)\n      dup1\n      swap2\n      sub\n      swap1\n      return\n        /* \"Contract_Templates/Calculator.sol\":2468:2571  function get_payout() public view returns(uint256) {... */\n    tag_7:\n      tag_25\n      tag_26\n      jump\t// in\n    tag_25:\n      mload(0x40)\n      tag_27\n      swap2\n      swap1\n      tag_15\n      jump\t// in\n    tag_27:\n      mload(0x40)\n      dup1\n      swap2\n      sub\n      swap1\n      return\n        /* \"Contract_Templates/Calculator.sol\":206:249  uint256 public contributionFrequencyInWeeks */\n    tag_8:\n      tag_28\n      tag_29\n      jump\t// in\n    tag_28:\n      mload(0x40)\n      tag_30\n      swap2\n      swap1\n      tag_15\n      jump\t// in\n    tag_30:\n      mload(0x40)\n      dup1\n      swap2\n      sub\n      swap1\n      return\n        /* \"Contract_Templates/Calculator.sol\":611:653  uint256 public distributionIntervalInWeeks */\n    tag_9:\n      tag_31\n      tag_32\n      jump\t// in\n    tag_31:\n      mload(0x40)\n      tag_33\n      swap2\n      swap1\n      tag_15\n      jump\t// in\n    tag_33:\n      mload(0x40)\n      dup1\n      swap2\n      sub\n      swap1\n      return\n        /* \"Contract_Templates/Calculator.sol\":2375:2462  function get_members() public view returns(uint256) {... */\n    tag_10:\n      tag_34\n      tag_35\n      jump\t// in\n    tag_34:\n      mload(0x40)\n      tag_36\n      swap2\n      swap1\n      tag_15\n      jump\t// in\n    tag_36:\n      mload(0x40)\n      dup1\n      swap2\n      sub\n      swap1\n      return\n        /* \"Contract_Templates/Calculator.sol\":2683:2789  function get_compFreq() public view returns(uint256) {... */\n    tag_13:\n        /* \"Contract_Templates/Calculator.sol\":2727:2734  uint256 */\n      0x00\n        /* \"Contract_Templates/Calculator.sol\":2754:2782  contributionFrequencyInWeeks */\n      sload(0x02)\n        /* \"Contract_Templates/Calculator.sol\":2747:2782  return contributionFrequencyInWeeks */\n      swap1\n      pop\n        /* \"Contract_Templates/Calculator.sol\":2683:2789  function get_compFreq() public view returns(uint256) {... */\n      swap1\n      jump\t// out\n        /* \"Contract_Templates/Calculator.sol\":2577:2677  function get_contribution() public view returns(uint256) {... */\n    tag_17:\n        /* \"Contract_Templates/Calculator.sol\":2625:2632  uint256 */\n      0x00\n        /* \"Contract_Templates/Calculator.sol\":2652:2670  contributionAmount */\n      sload(0x03)\n        /* \"Contract_Templates/Calculator.sol\":2645:2670  return contributionAmount */\n      swap1\n      pop\n        /* \"Contract_Templates/Calculator.sol\":2577:2677  function get_contribution() public view returns(uint256) {... */\n      swap1\n      jump\t// out\n        /* \"Contract_Templates/Calculator.sol\":109:134  uint256 public numMembers */\n    tag_20:\n      sload(0x01)\n      dup2\n      jump\t// out\n        /* \"Contract_Templates/Calculator.sol\":502:535  uint256 public contributionAmount */\n    tag_23:\n      sload(0x03)\n      dup2\n      jump\t// out\n        /* \"Contract_Templates/Calculator.sol\":2468:2571  function get_payout() public view returns(uint256) {... */\n    tag_26:\n        /* \"Contract_Templates/Calculator.sol\":2510:2517  uint256 */\n      0x00\n        /* \"Contract_Templates/Calculator.sol\":2537:2564  distributionIntervalInWeeks */\n      sload(0x04)\n        /* \"Contract_Templates/Calculator.sol\":2530:2564  return distributionIntervalInWeeks */\n      swap1\n      pop\n        /* \"Contract_Templates/Calculator.sol\":2468:2571  function get_payout() public view returns(uint256) {... */\n      swap1\n      jump\t// out\n        /* \"Contract_Templates/Calculator.sol\":206:249  uint256 public contributionFrequencyInWeeks */\n    tag_29:\n      sload(0x02)\n      dup2\n      jump\t// out\n        /* \"Contract_Templates/Calculator.sol\":611:653  uint256 public distributionIntervalInWeeks */\n    tag_32:\n      sload(0x04)\n      dup2\n      jump\t// out\n        /* \"Contract_Templates/Calculator.sol\":2375:2462  function get_members() public view returns(uint256) {... */\n    tag_35:\n        /* \"Contract_Templates/Calculator.sol\":2418:2425  uint256 */\n      0x00\n        /* \"Contract_Templates/Calculator.sol\":2445:2455  numMembers */\n      sload(0x01)\n        /* \"Contract_Templates/Calculator.sol\":2438:2455  return numMembers */\n      swap1\n      pop\n        /* \"Contract_Templates/Calculator.sol\":2375:2462  function get_members() public view returns(uint256) {... */\n      swap1\n      jump\t// out\n        /* \"#utility.yul\":7:84   */\n    tag_41:\n        /* \"#utility.yul\":44:51   */\n      0x00\n        /* \"#utility.yul\":73:78   */\n      dup2\n        /* \"#utility.yul\":62:78   */\n      swap1\n      pop\n        /* \"#utility.yul\":7:84   */\n      swap2\n      swap1\n      pop\n      jump\t// out\n        /* \"#utility.yul\":90:208   */\n    tag_42:\n        /* \"#utility.yul\":177:201   */\n      tag_46\n        /* \"#utility.yul\":195:200   */\n      dup2\n        /* \"#utility.yul\":177:201   */\n      tag_41\n      jump\t// in\n    tag_46:\n        /* \"#utility.yul\":172:175   */\n      dup3\n        /* \"#utility.yul\":165:202   */\n      mstore\n        /* \"#utility.yul\":90:208   */\n      pop\n      pop\n      jump\t// out\n        /* \"#utility.yul\":214:436   */\n    tag_15:\n        /* \"#utility.yul\":307:311   */\n      0x00\n        /* \"#utility.yul\":345:347   */\n      0x20\n        /* \"#utility.yul\":334:343   */\n      dup3\n        /* \"#utility.yul\":330:348   */\n      add\n        /* \"#utility.yul\":322:348   */\n      swap1\n      pop\n        /* \"#utility.yul\":358:429   */\n      tag_48\n        /* \"#utility.yul\":426:427   */\n      0x00\n        /* \"#utility.yul\":415:424   */\n      dup4\n        /* \"#utility.yul\":411:428   */\n      add\n        /* \"#utility.yul\":402:408   */\n      dup5\n        /* \"#utility.yul\":358:429   */\n      tag_42\n      jump\t// in\n    tag_48:\n        /* \"#utility.yul\":214:436   */\n      swap3\n      swap2\n      pop\n      pop\n      jump\t// out\n\n    auxdata: 0xa26469706673582212207637dd8689842de2931526fcffed09c8991cb54c9a9d2ecc8e79ca1a47f68fd664736f6c634300081a0033\n}\n",
				"bytecode": {
					"linkReferences": {},
					"object": "608060405234801561000f575f80fd5b506040516107f63803806107f6833981810160405281019061003191906103e0565b83855114610074576040517f08c379a000000000000000000000000000000000000000000000000000000000815260040161006b90610519565b60405180910390fd5b5f5b84811015610113575f73ffffffffffffffffffffffffffffffffffffffff168682815181106100a8576100a7610537565b5b602002602001015173ffffffffffffffffffffffffffffffffffffffff1603610106576040517f08c379a00000000000000000000000000000000000000000000000000000000081526004016100fd906105ae565b60405180910390fd5b8080600101915050610076565b50845f9080519060200190610129929190610150565b508360018190555082600281905550816004819055508060038190555050505050506105cc565b828054828255905f5260205f209081019282156101c6579160200282015b828111156101c5578251825f6101000a81548173ffffffffffffffffffffffffffffffffffffffff021916908373ffffffffffffffffffffffffffffffffffffffff1602179055509160200191906001019061016e565b5b5090506101d391906101d7565b5090565b5b808211156101ee575f815f9055506001016101d8565b5090565b5f604051905090565b5f80fd5b5f80fd5b5f80fd5b5f601f19601f8301169050919050565b7f4e487b71000000000000000000000000000000000000000000000000000000005f52604160045260245ffd5b61024d82610207565b810181811067ffffffffffffffff8211171561026c5761026b610217565b5b80604052505050565b5f61027e6101f2565b905061028a8282610244565b919050565b5f67ffffffffffffffff8211156102a9576102a8610217565b5b602082029050602081019050919050565b5f80fd5b5f73ffffffffffffffffffffffffffffffffffffffff82169050919050565b5f6102e7826102be565b9050919050565b6102f7816102dd565b8114610301575f80fd5b50565b5f81519050610312816102ee565b92915050565b5f61032a6103258461028f565b610275565b9050808382526020820190506020840283018581111561034d5761034c6102ba565b5b835b8181101561037657806103628882610304565b84526020840193505060208101905061034f565b5050509392505050565b5f82601f83011261039457610393610203565b5b81516103a4848260208601610318565b91505092915050565b5f819050919050565b6103bf816103ad565b81146103c9575f80fd5b50565b5f815190506103da816103b6565b92915050565b5f805f805f60a086880312156103f9576103f86101fb565b5b5f86015167ffffffffffffffff811115610416576104156101ff565b5b61042288828901610380565b9550506020610433888289016103cc565b9450506040610444888289016103cc565b9350506060610455888289016103cc565b9250506080610466888289016103cc565b9150509295509295909350565b5f82825260208201905092915050565b7f506c6561736520656e7375726520746865206e756d626572206f66206173736f5f8201527f63696174696f6e206d656d62657273206d6174636820746865206e756d62657260208201527f206f662077616c6c6574206164647265737365732070726f76696465642e0000604082015250565b5f610503605e83610473565b915061050e82610483565b606082019050919050565b5f6020820190508181035f830152610530816104f7565b9050919050565b7f4e487b71000000000000000000000000000000000000000000000000000000005f52603260045260245ffd5b7f496e76616c6964206d656d6265722061646472657373000000000000000000005f82015250565b5f610598601683610473565b91506105a382610564565b602082019050919050565b5f6020820190508181035f8301526105c58161058c565b9050919050565b61021d806105d95f395ff3fe608060405234801561000f575f80fd5b5060043610610086575f3560e01c80636c1b9330116100595780636c1b9330146101025780638d0aa1b2146101205780639172e5c21461013e57806391abb13d1461015c57610086565b806327d4e2691461008a57806343b2fecc146100a85780634698d110146100c65780635fa0b65f146100e4575b5f80fd5b61009261017a565b60405161009f91906101ce565b60405180910390f35b6100b0610183565b6040516100bd91906101ce565b60405180910390f35b6100ce61018c565b6040516100db91906101ce565b60405180910390f35b6100ec610192565b6040516100f991906101ce565b60405180910390f35b61010a610198565b60405161011791906101ce565b60405180910390f35b6101286101a1565b60405161013591906101ce565b60405180910390f35b6101466101a7565b60405161015391906101ce565b60405180910390f35b6101646101ad565b60405161017191906101ce565b60405180910390f35b5f600254905090565b5f600354905090565b60015481565b60035481565b5f600454905090565b60025481565b60045481565b5f600154905090565b5f819050919050565b6101c8816101b6565b82525050565b5f6020820190506101e15f8301846101bf565b9291505056fea26469706673582212207637dd8689842de2931526fcffed09c8991cb54c9a9d2ecc8e79ca1a47f68fd664736f6c634300081a0033",
					"opcodes": "PUSH1 0x80 PUSH1 0x40 MSTORE CALLVALUE DUP1 ISZERO PUSH2 0xF JUMPI PUSH0 DUP1 REVERT JUMPDEST POP PUSH1 0x40 MLOAD PUSH2 0x7F6 CODESIZE SUB DUP1 PUSH2 0x7F6 DUP4 CODECOPY DUP2 DUP2 ADD PUSH1 0x40 MSTORE DUP2 ADD SWAP1 PUSH2 0x31 SWAP2 SWAP1 PUSH2 0x3E0 JUMP JUMPDEST DUP4 DUP6 MLOAD EQ PUSH2 0x74 JUMPI PUSH1 0x40 MLOAD PUSH32 0x8C379A000000000000000000000000000000000000000000000000000000000 DUP2 MSTORE PUSH1 0x4 ADD PUSH2 0x6B SWAP1 PUSH2 0x519 JUMP JUMPDEST PUSH1 0x40 MLOAD DUP1 SWAP2 SUB SWAP1 REVERT JUMPDEST PUSH0 JUMPDEST DUP5 DUP2 LT ISZERO PUSH2 0x113 JUMPI PUSH0 PUSH20 0xFFFFFFFFFFFFFFFFFFFFFFFFFFFFFFFFFFFFFFFF AND DUP7 DUP3 DUP2 MLOAD DUP2 LT PUSH2 0xA8 JUMPI PUSH2 0xA7 PUSH2 0x537 JUMP JUMPDEST JUMPDEST PUSH1 0x20 MUL PUSH1 0x20 ADD ADD MLOAD PUSH20 0xFFFFFFFFFFFFFFFFFFFFFFFFFFFFFFFFFFFFFFFF AND SUB PUSH2 0x106 JUMPI PUSH1 0x40 MLOAD PUSH32 0x8C379A000000000000000000000000000000000000000000000000000000000 DUP2 MSTORE PUSH1 0x4 ADD PUSH2 0xFD SWAP1 PUSH2 0x5AE JUMP JUMPDEST PUSH1 0x40 MLOAD DUP1 SWAP2 SUB SWAP1 REVERT JUMPDEST DUP1 DUP1 PUSH1 0x1 ADD SWAP2 POP POP PUSH2 0x76 JUMP JUMPDEST POP DUP5 PUSH0 SWAP1 DUP1 MLOAD SWAP1 PUSH1 0x20 ADD SWAP1 PUSH2 0x129 SWAP3 SWAP2 SWAP1 PUSH2 0x150 JUMP JUMPDEST POP DUP4 PUSH1 0x1 DUP2 SWAP1 SSTORE POP DUP3 PUSH1 0x2 DUP2 SWAP1 SSTORE POP DUP2 PUSH1 0x4 DUP2 SWAP1 SSTORE POP DUP1 PUSH1 0x3 DUP2 SWAP1 SSTORE POP POP POP POP POP POP PUSH2 0x5CC JUMP JUMPDEST DUP3 DUP1 SLOAD DUP3 DUP3 SSTORE SWAP1 PUSH0 MSTORE PUSH1 0x20 PUSH0 KECCAK256 SWAP1 DUP2 ADD SWAP3 DUP3 ISZERO PUSH2 0x1C6 JUMPI SWAP2 PUSH1 0x20 MUL DUP3 ADD JUMPDEST DUP3 DUP2 GT ISZERO PUSH2 0x1C5 JUMPI DUP3 MLOAD DUP3 PUSH0 PUSH2 0x100 EXP DUP2 SLOAD DUP2 PUSH20 0xFFFFFFFFFFFFFFFFFFFFFFFFFFFFFFFFFFFFFFFF MUL NOT AND SWAP1 DUP4 PUSH20 0xFFFFFFFFFFFFFFFFFFFFFFFFFFFFFFFFFFFFFFFF AND MUL OR SWAP1 SSTORE POP SWAP2 PUSH1 0x20 ADD SWAP2 SWAP1 PUSH1 0x1 ADD SWAP1 PUSH2 0x16E JUMP JUMPDEST JUMPDEST POP SWAP1 POP PUSH2 0x1D3 SWAP2 SWAP1 PUSH2 0x1D7 JUMP JUMPDEST POP SWAP1 JUMP JUMPDEST JUMPDEST DUP1 DUP3 GT ISZERO PUSH2 0x1EE JUMPI PUSH0 DUP2 PUSH0 SWAP1 SSTORE POP PUSH1 0x1 ADD PUSH2 0x1D8 JUMP JUMPDEST POP SWAP1 JUMP JUMPDEST PUSH0 PUSH1 0x40 MLOAD SWAP1 POP SWAP1 JUMP JUMPDEST PUSH0 DUP1 REVERT JUMPDEST PUSH0 DUP1 REVERT JUMPDEST PUSH0 DUP1 REVERT JUMPDEST PUSH0 PUSH1 0x1F NOT PUSH1 0x1F DUP4 ADD AND SWAP1 POP SWAP2 SWAP1 POP JUMP JUMPDEST PUSH32 0x4E487B7100000000000000000000000000000000000000000000000000000000 PUSH0 MSTORE PUSH1 0x41 PUSH1 0x4 MSTORE PUSH1 0x24 PUSH0 REVERT JUMPDEST PUSH2 0x24D DUP3 PUSH2 0x207 JUMP JUMPDEST DUP2 ADD DUP2 DUP2 LT PUSH8 0xFFFFFFFFFFFFFFFF DUP3 GT OR ISZERO PUSH2 0x26C JUMPI PUSH2 0x26B PUSH2 0x217 JUMP JUMPDEST JUMPDEST DUP1 PUSH1 0x40 MSTORE POP POP POP JUMP JUMPDEST PUSH0 PUSH2 0x27E PUSH2 0x1F2 JUMP JUMPDEST SWAP1 POP PUSH2 0x28A DUP3 DUP3 PUSH2 0x244 JUMP JUMPDEST SWAP2 SWAP1 POP JUMP JUMPDEST PUSH0 PUSH8 0xFFFFFFFFFFFFFFFF DUP3 GT ISZERO PUSH2 0x2A9 JUMPI PUSH2 0x2A8 PUSH2 0x217 JUMP JUMPDEST JUMPDEST PUSH1 0x20 DUP3 MUL SWAP1 POP PUSH1 0x20 DUP2 ADD SWAP1 POP SWAP2 SWAP1 POP JUMP JUMPDEST PUSH0 DUP1 REVERT JUMPDEST PUSH0 PUSH20 0xFFFFFFFFFFFFFFFFFFFFFFFFFFFFFFFFFFFFFFFF DUP3 AND SWAP1 POP SWAP2 SWAP1 POP JUMP JUMPDEST PUSH0 PUSH2 0x2E7 DUP3 PUSH2 0x2BE JUMP JUMPDEST SWAP1 POP SWAP2 SWAP1 POP JUMP JUMPDEST PUSH2 0x2F7 DUP2 PUSH2 0x2DD JUMP JUMPDEST DUP2 EQ PUSH2 0x301 JUMPI PUSH0 DUP1 REVERT JUMPDEST POP JUMP JUMPDEST PUSH0 DUP2 MLOAD SWAP1 POP PUSH2 0x312 DUP2 PUSH2 0x2EE JUMP JUMPDEST SWAP3 SWAP2 POP POP JUMP JUMPDEST PUSH0 PUSH2 0x32A PUSH2 0x325 DUP5 PUSH2 0x28F JUMP JUMPDEST PUSH2 0x275 JUMP JUMPDEST SWAP1 POP DUP1 DUP4 DUP3 MSTORE PUSH1 0x20 DUP3 ADD SWAP1 POP PUSH1 0x20 DUP5 MUL DUP4 ADD DUP6 DUP2 GT ISZERO PUSH2 0x34D JUMPI PUSH2 0x34C PUSH2 0x2BA JUMP JUMPDEST JUMPDEST DUP4 JUMPDEST DUP2 DUP2 LT ISZERO PUSH2 0x376 JUMPI DUP1 PUSH2 0x362 DUP9 DUP3 PUSH2 0x304 JUMP JUMPDEST DUP5 MSTORE PUSH1 0x20 DUP5 ADD SWAP4 POP POP PUSH1 0x20 DUP2 ADD SWAP1 POP PUSH2 0x34F JUMP JUMPDEST POP POP POP SWAP4 SWAP3 POP POP POP JUMP JUMPDEST PUSH0 DUP3 PUSH1 0x1F DUP4 ADD SLT PUSH2 0x394 JUMPI PUSH2 0x393 PUSH2 0x203 JUMP JUMPDEST JUMPDEST DUP2 MLOAD PUSH2 0x3A4 DUP5 DUP3 PUSH1 0x20 DUP7 ADD PUSH2 0x318 JUMP JUMPDEST SWAP2 POP POP SWAP3 SWAP2 POP POP JUMP JUMPDEST PUSH0 DUP2 SWAP1 POP SWAP2 SWAP1 POP JUMP JUMPDEST PUSH2 0x3BF DUP2 PUSH2 0x3AD JUMP JUMPDEST DUP2 EQ PUSH2 0x3C9 JUMPI PUSH0 DUP1 REVERT JUMPDEST POP JUMP JUMPDEST PUSH0 DUP2 MLOAD SWAP1 POP PUSH2 0x3DA DUP2 PUSH2 0x3B6 JUMP JUMPDEST SWAP3 SWAP2 POP POP JUMP JUMPDEST PUSH0 DUP1 PUSH0 DUP1 PUSH0 PUSH1 0xA0 DUP7 DUP9 SUB SLT ISZERO PUSH2 0x3F9 JUMPI PUSH2 0x3F8 PUSH2 0x1FB JUMP JUMPDEST JUMPDEST PUSH0 DUP7 ADD MLOAD PUSH8 0xFFFFFFFFFFFFFFFF DUP2 GT ISZERO PUSH2 0x416 JUMPI PUSH2 0x415 PUSH2 0x1FF JUMP JUMPDEST JUMPDEST PUSH2 0x422 DUP9 DUP3 DUP10 ADD PUSH2 0x380 JUMP JUMPDEST SWAP6 POP POP PUSH1 0x20 PUSH2 0x433 DUP9 DUP3 DUP10 ADD PUSH2 0x3CC JUMP JUMPDEST SWAP5 POP POP PUSH1 0x40 PUSH2 0x444 DUP9 DUP3 DUP10 ADD PUSH2 0x3CC JUMP JUMPDEST SWAP4 POP POP PUSH1 0x60 PUSH2 0x455 DUP9 DUP3 DUP10 ADD PUSH2 0x3CC JUMP JUMPDEST SWAP3 POP POP PUSH1 0x80 PUSH2 0x466 DUP9 DUP3 DUP10 ADD PUSH2 0x3CC JUMP JUMPDEST SWAP2 POP POP SWAP3 SWAP6 POP SWAP3 SWAP6 SWAP1 SWAP4 POP JUMP JUMPDEST PUSH0 DUP3 DUP3 MSTORE PUSH1 0x20 DUP3 ADD SWAP1 POP SWAP3 SWAP2 POP POP JUMP JUMPDEST PUSH32 0x506C6561736520656E7375726520746865206E756D626572206F66206173736F PUSH0 DUP3 ADD MSTORE PUSH32 0x63696174696F6E206D656D62657273206D6174636820746865206E756D626572 PUSH1 0x20 DUP3 ADD MSTORE PUSH32 0x206F662077616C6C6574206164647265737365732070726F76696465642E0000 PUSH1 0x40 DUP3 ADD MSTORE POP JUMP JUMPDEST PUSH0 PUSH2 0x503 PUSH1 0x5E DUP4 PUSH2 0x473 JUMP JUMPDEST SWAP2 POP PUSH2 0x50E DUP3 PUSH2 0x483 JUMP JUMPDEST PUSH1 0x60 DUP3 ADD SWAP1 POP SWAP2 SWAP1 POP JUMP JUMPDEST PUSH0 PUSH1 0x20 DUP3 ADD SWAP1 POP DUP2 DUP2 SUB PUSH0 DUP4 ADD MSTORE PUSH2 0x530 DUP2 PUSH2 0x4F7 JUMP JUMPDEST SWAP1 POP SWAP2 SWAP1 POP JUMP JUMPDEST PUSH32 0x4E487B7100000000000000000000000000000000000000000000000000000000 PUSH0 MSTORE PUSH1 0x32 PUSH1 0x4 MSTORE PUSH1 0x24 PUSH0 REVERT JUMPDEST PUSH32 0x496E76616C6964206D656D626572206164647265737300000000000000000000 PUSH0 DUP3 ADD MSTORE POP JUMP JUMPDEST PUSH0 PUSH2 0x598 PUSH1 0x16 DUP4 PUSH2 0x473 JUMP JUMPDEST SWAP2 POP PUSH2 0x5A3 DUP3 PUSH2 0x564 JUMP JUMPDEST PUSH1 0x20 DUP3 ADD SWAP1 POP SWAP2 SWAP1 POP JUMP JUMPDEST PUSH0 PUSH1 0x20 DUP3 ADD SWAP1 POP DUP2 DUP2 SUB PUSH0 DUP4 ADD MSTORE PUSH2 0x5C5 DUP2 PUSH2 0x58C JUMP JUMPDEST SWAP1 POP SWAP2 SWAP1 POP JUMP JUMPDEST PUSH2 0x21D DUP1 PUSH2 0x5D9 PUSH0 CODECOPY PUSH0 RETURN INVALID PUSH1 0x80 PUSH1 0x40 MSTORE CALLVALUE DUP1 ISZERO PUSH2 0xF JUMPI PUSH0 DUP1 REVERT JUMPDEST POP PUSH1 0x4 CALLDATASIZE LT PUSH2 0x86 JUMPI PUSH0 CALLDATALOAD PUSH1 0xE0 SHR DUP1 PUSH4 0x6C1B9330 GT PUSH2 0x59 JUMPI DUP1 PUSH4 0x6C1B9330 EQ PUSH2 0x102 JUMPI DUP1 PUSH4 0x8D0AA1B2 EQ PUSH2 0x120 JUMPI DUP1 PUSH4 0x9172E5C2 EQ PUSH2 0x13E JUMPI DUP1 PUSH4 0x91ABB13D EQ PUSH2 0x15C JUMPI PUSH2 0x86 JUMP JUMPDEST DUP1 PUSH4 0x27D4E269 EQ PUSH2 0x8A JUMPI DUP1 PUSH4 0x43B2FECC EQ PUSH2 0xA8 JUMPI DUP1 PUSH4 0x4698D110 EQ PUSH2 0xC6 JUMPI DUP1 PUSH4 0x5FA0B65F EQ PUSH2 0xE4 JUMPI JUMPDEST PUSH0 DUP1 REVERT JUMPDEST PUSH2 0x92 PUSH2 0x17A JUMP JUMPDEST PUSH1 0x40 MLOAD PUSH2 0x9F SWAP2 SWAP1 PUSH2 0x1CE JUMP JUMPDEST PUSH1 0x40 MLOAD DUP1 SWAP2 SUB SWAP1 RETURN JUMPDEST PUSH2 0xB0 PUSH2 0x183 JUMP JUMPDEST PUSH1 0x40 MLOAD PUSH2 0xBD SWAP2 SWAP1 PUSH2 0x1CE JUMP JUMPDEST PUSH1 0x40 MLOAD DUP1 SWAP2 SUB SWAP1 RETURN JUMPDEST PUSH2 0xCE PUSH2 0x18C JUMP JUMPDEST PUSH1 0x40 MLOAD PUSH2 0xDB SWAP2 SWAP1 PUSH2 0x1CE JUMP JUMPDEST PUSH1 0x40 MLOAD DUP1 SWAP2 SUB SWAP1 RETURN JUMPDEST PUSH2 0xEC PUSH2 0x192 JUMP JUMPDEST PUSH1 0x40 MLOAD PUSH2 0xF9 SWAP2 SWAP1 PUSH2 0x1CE JUMP JUMPDEST PUSH1 0x40 MLOAD DUP1 SWAP2 SUB SWAP1 RETURN JUMPDEST PUSH2 0x10A PUSH2 0x198 JUMP JUMPDEST PUSH1 0x40 MLOAD PUSH2 0x117 SWAP2 SWAP1 PUSH2 0x1CE JUMP JUMPDEST PUSH1 0x40 MLOAD DUP1 SWAP2 SUB SWAP1 RETURN JUMPDEST PUSH2 0x128 PUSH2 0x1A1 JUMP JUMPDEST PUSH1 0x40 MLOAD PUSH2 0x135 SWAP2 SWAP1 PUSH2 0x1CE JUMP JUMPDEST PUSH1 0x40 MLOAD DUP1 SWAP2 SUB SWAP1 RETURN JUMPDEST PUSH2 0x146 PUSH2 0x1A7 JUMP JUMPDEST PUSH1 0x40 MLOAD PUSH2 0x153 SWAP2 SWAP1 PUSH2 0x1CE JUMP JUMPDEST PUSH1 0x40 MLOAD DUP1 SWAP2 SUB SWAP1 RETURN JUMPDEST PUSH2 0x164 PUSH2 0x1AD JUMP JUMPDEST PUSH1 0x40 MLOAD PUSH2 0x171 SWAP2 SWAP1 PUSH2 0x1CE JUMP JUMPDEST PUSH1 0x40 MLOAD DUP1 SWAP2 SUB SWAP1 RETURN JUMPDEST PUSH0 PUSH1 0x2 SLOAD SWAP1 POP SWAP1 JUMP JUMPDEST PUSH0 PUSH1 0x3 SLOAD SWAP1 POP SWAP1 JUMP JUMPDEST PUSH1 0x1 SLOAD DUP2 JUMP JUMPDEST PUSH1 0x3 SLOAD DUP2 JUMP JUMPDEST PUSH0 PUSH1 0x4 SLOAD SWAP1 POP SWAP1 JUMP JUMPDEST PUSH1 0x2 SLOAD DUP2 JUMP JUMPDEST PUSH1 0x4 SLOAD DUP2 JUMP JUMPDEST PUSH0 PUSH1 0x1 SLOAD SWAP1 POP SWAP1 JUMP JUMPDEST PUSH0 DUP2 SWAP1 POP SWAP2 SWAP1 POP JUMP JUMPDEST PUSH2 0x1C8 DUP2 PUSH2 0x1B6 JUMP JUMPDEST DUP3 MSTORE POP POP JUMP JUMPDEST PUSH0 PUSH1 0x20 DUP3 ADD SWAP1 POP PUSH2 0x1E1 PUSH0 DUP4 ADD DUP5 PUSH2 0x1BF JUMP JUMPDEST SWAP3 SWAP2 POP POP JUMP INVALID LOG2 PUSH5 0x6970667358 0x22 SLT KECCAK256 PUSH23 0x37DD8689842DE2931526FCFFED09C8991CB54C9A9D2ECC DUP15 PUSH26 0xCA1A47F68FD664736F6C634300081A0033000000000000000000 "
				},
				"gasEstimates": {
					"creation": {
						"codeDepositCost": "108200",
						"executionCost": "infinite",
						"totalCost": "infinite"
					},
					"external": {
						"contributionAmount()": "2492",
						"contributionFrequencyInWeeks()": "2447",
						"distributionIntervalInWeeks()": "2469",
						"get_compFreq()": "2433",
						"get_contribution()": "2455",
						"get_members()": "2498",
						"get_payout()": "2432",
						"numMembers()": "2470"
					}
				},
				"methodIdentifiers": {
					"contributionAmount()": "5fa0b65f",
					"contributionFrequencyInWeeks()": "8d0aa1b2",
					"distributionIntervalInWeeks()": "9172e5c2",
					"get_compFreq()": "27d4e269",
					"get_contribution()": "43b2fecc",
					"get_members()": "91abb13d",
					"get_payout()": "6c1b9330",
					"numMembers()": "4698d110"
				}
			},
			"storageLayout": {
				"storage": [
					{
						"astId": 4,
						"contract": "Contract_Templates/Calculator.sol:Calculator",
						"label": "members",
						"offset": 0,
						"slot": "0",
						"type": "t_array(t_address)dyn_storage"
					},
					{
						"astId": 6,
						"contract": "Contract_Templates/Calculator.sol:Calculator",
						"label": "numMembers",
						"offset": 0,
						"slot": "1",
						"type": "t_uint256"
					},
					{
						"astId": 9,
						"contract": "Contract_Templates/Calculator.sol:Calculator",
						"label": "contributionFrequencyInWeeks",
						"offset": 0,
						"slot": "2",
						"type": "t_uint256"
					},
					{
						"astId": 12,
						"contract": "Contract_Templates/Calculator.sol:Calculator",
						"label": "contributionAmount",
						"offset": 0,
						"slot": "3",
						"type": "t_uint256"
					},
					{
						"astId": 15,
						"contract": "Contract_Templates/Calculator.sol:Calculator",
						"label": "distributionIntervalInWeeks",
						"offset": 0,
						"slot": "4",
						"type": "t_uint256"
					}
				],
				"types": {
					"t_address": {
						"encoding": "inplace",
						"label": "address",
						"numberOfBytes": "20"
					},
					"t_array(t_address)dyn_storage": {
						"base": "t_address",
						"encoding": "dynamic_array",
						"label": "address[]",
						"numberOfBytes": "32"
					},
					"t_uint256": {
						"encoding": "inplace",
						"label": "uint256",
						"numberOfBytes": "32"
					}
				}
			},
			"userdoc": {
				"kind": "user",
				"methods": {},
				"version": 1
			}
		}
	}
}