{
	"data": {
		"bytecode": {
			"linkReferences": {},
			"object": "608060405234801561000f575f80fd5b50604051611a2d380380611a2d8339818101604052810190610031919061041e565b84815114610074576040517f08c379a000000000000000000000000000000000000000000000000000000000815260040161006b9061050b565b60405180910390fd5b5f5b85811015610113575f73ffffffffffffffffffffffffffffffffffffffff168282815181106100a8576100a7610529565b5b602002602001015173ffffffffffffffffffffffffffffffffffffffff1603610106576040517f08c379a00000000000000000000000000000000000000000000000000000000081526004016100fd906105a0565b60405180910390fd5b8080600101915050610076565b50845f81905550836001819055508260038190555081600281905550806004908051906020019061014592919061018e565b504260078190555062093a8060035461015e91906105eb565b42610169919061062c565b6009819055505f6008819055505f6006819055505f600b81905550505050505061065f565b828054828255905f5260205f20908101928215610204579160200282015b82811115610203578251825f6101000a81548173ffffffffffffffffffffffffffffffffffffffff021916908373ffffffffffffffffffffffffffffffffffffffff160217905550916020019190600101906101ac565b5b5090506102119190610215565b5090565b5b8082111561022c575f815f905550600101610216565b5090565b5f604051905090565b5f80fd5b5f80fd5b5f819050919050565b61025381610241565b811461025d575f80fd5b50565b5f8151905061026e8161024a565b92915050565b5f80fd5b5f601f19601f8301169050919050565b7f4e487b71000000000000000000000000000000000000000000000000000000005f52604160045260245ffd5b6102be82610278565b810181811067ffffffffffffffff821117156102dd576102dc610288565b5b80604052505050565b5f6102ef610230565b90506102fb82826102b5565b919050565b5f67ffffffffffffffff82111561031a57610319610288565b5b602082029050602081019050919050565b5f80fd5b5f73ffffffffffffffffffffffffffffffffffffffff82169050919050565b5f6103588261032f565b9050919050565b6103688161034e565b8114610372575f80fd5b50565b5f815190506103838161035f565b92915050565b5f61039b61039684610300565b6102e6565b905080838252602082019050602084028301858111156103be576103bd61032b565b5b835b818110156103e757806103d38882610375565b8452602084019350506020810190506103c0565b5050509392505050565b5f82601f83011261040557610404610274565b5b8151610415848260208601610389565b91505092915050565b5f805f805f60a0868803121561043757610436610239565b5b5f61044488828901610260565b955050602061045588828901610260565b945050604061046688828901610260565b935050606061047788828901610260565b925050608086015167ffffffffffffffff8111156104985761049761023d565b5b6104a4888289016103f1565b9150509295509295909350565b5f82825260208201905092915050565b7f4d656d626572732061727261792073697a65206d69736d6174636800000000005f82015250565b5f6104f5601b836104b1565b9150610500826104c1565b602082019050919050565b5f6020820190508181035f830152610522816104e9565b9050919050565b7f4e487b71000000000000000000000000000000000000000000000000000000005f52603260045260245ffd5b7f496e76616c6964206d656d6265722061646472657373000000000000000000005f82015250565b5f61058a6016836104b1565b915061059582610556565b602082019050919050565b5f6020820190508181035f8301526105b78161057e565b9050919050565b7f4e487b71000000000000000000000000000000000000000000000000000000005f52601160045260245ffd5b5f6105f582610241565b915061060083610241565b925082820261060e81610241565b91508282048414831517610625576106246105be565b5b5092915050565b5f61063682610241565b915061064183610241565b9250828201905080821115610659576106586105be565b5b92915050565b6113c18061066c5f395ff3fe608060405260043610610058575f3560e01c80630b6dd8a81461009c57806335cd4b46146100c6578063c74e7261146100dc578063d7bb99ba14610106578063ec33d2a014610110578063edf911781461012657610098565b36610098576040517f08c379a000000000000000000000000000000000000000000000000000000000815260040161008f90610b62565b60405180910390fd5b5f80fd5b3480156100a7575f80fd5b506100b0610162565b6040516100bd9190610b98565b60405180910390f35b3480156100d1575f80fd5b506100da6101b3565b005b3480156100e7575f80fd5b506100f0610497565b6040516100fd9190610bcb565b60405180910390f35b61010e610593565b005b34801561011b575f80fd5b50610124610844565b005b348015610131575f80fd5b5061014c60048036038101906101479190610c42565b6109d0565b6040516101599190610bcb565b60405180910390f35b5f61016c33610a6a565b6101ab576040517f08c379a00000000000000000000000000000000000000000000000000000000081526004016101a290610cb7565b60405180910390fd5b600254905090565b6101bc33610a6a565b6101fb576040517f08c379a00000000000000000000000000000000000000000000000000000000081526004016101f290610cb7565b60405180910390fd5b5f805f90505f5b5f548110156102e5575f805482600b5461021c9190610d02565b6102269190610d62565b90505f6004828154811061023d5761023c610d92565b5b905f5260205f20015f9054906101000a900473ffffffffffffffffffffffffffffffffffffffff169050600a5f8273ffffffffffffffffffffffffffffffffffffffff1673ffffffffffffffffffffffffffffffffffffffff1681526020019081526020015f205f9054906101000a900460ff166102d6578094506001826102c59190610d02565b600b819055506001935050506102e5565b50508080600101915050610202565b5080610326576040517f08c379a000000000000000000000000000000000000000000000000000000000815260040161031d90610e2f565b60405180910390fd5b6001600a5f8473ffffffffffffffffffffffffffffffffffffffff1673ffffffffffffffffffffffffffffffffffffffff1681526020019081526020015f205f6101000a81548160ff0219169083151502179055505f4790505f81116103c1576040517f08c379a00000000000000000000000000000000000000000000000000000000081526004016103b890610e97565b60405180910390fd5b5f8373ffffffffffffffffffffffffffffffffffffffff16826040516103e690610ee2565b5f6040518083038185875af1925050503d805f8114610420576040519150601f19603f3d011682016040523d82523d5f602084013e610425565b606091505b5050905080610469576040517f08c379a000000000000000000000000000000000000000000000000000000000815260040161046090610f40565b60405180910390fd5b62093a8060035461047a9190610f5e565b60095f82825461048a9190610d02565b9250508190555050505050565b5f6104a133610a6a565b6104e0576040517f08c379a00000000000000000000000000000000000000000000000000000000081526004016104d790610cb7565b60405180910390fd5b5f5b5f5481101561058a57600a5f6004838154811061050257610501610d92565b5b905f5260205f20015f9054906101000a900473ffffffffffffffffffffffffffffffffffffffff1673ffffffffffffffffffffffffffffffffffffffff1673ffffffffffffffffffffffffffffffffffffffff1681526020019081526020015f205f9054906101000a900460ff1661057d575f915050610590565b80806001019150506104e2565b50600190505b90565b5f151561059e610497565b1515146105e0576040517f08c379a00000000000000000000000000000000000000000000000000000000081526004016105d790611081565b60405180910390fd5b6105e933610a6a565b610628576040517f08c379a000000000000000000000000000000000000000000000000000000000815260040161061f90610cb7565b60405180910390fd5b60055f3373ffffffffffffffffffffffffffffffffffffffff1673ffffffffffffffffffffffffffffffffffffffff1681526020019081526020015f205f9054906101000a900460ff16156106b2576040517f08c379a00000000000000000000000000000000000000000000000000000000081526004016106a9906110e9565b60405180910390fd5b60025434146106f6576040517f08c379a00000000000000000000000000000000000000000000000000000000081526004016106ed90611151565b60405180910390fd5b5f1515610701610497565b151514610743576040517f08c379a000000000000000000000000000000000000000000000000000000000815260040161073a9061122b565b60405180910390fd5b5f62093a806001546107559190610f5e565b9050806007546107659190610d02565b42106107a6576040517f08c379a000000000000000000000000000000000000000000000000000000000815260040161079d906112b9565b60405180910390fd5b600160055f3373ffffffffffffffffffffffffffffffffffffffff1673ffffffffffffffffffffffffffffffffffffffff1681526020019081526020015f205f6101000a81548160ff021916908315150217905550600160065f82825461080d9190610d02565b925050819055505f5460065414801561083357508060075461082f9190610d02565b4210155b1561084157610840610844565b5b50565b61084d33610a6a565b61088c576040517f08c379a000000000000000000000000000000000000000000000000000000000815260040161088390610cb7565b60405180910390fd5b5f62093a8060015461089e9190610f5e565b9050806007546108ae9190610d02565b42101580156108bf57505f54600654145b6108fe576040517f08c379a00000000000000000000000000000000000000000000000000000000081526004016108f59061136d565b60405180910390fd5b600160085f8282546109109190610d02565b925050819055505f5b5f548110156109be575f60055f6004848154811061093a57610939610d92565b5b905f5260205f20015f9054906101000a900473ffffffffffffffffffffffffffffffffffffffff1673ffffffffffffffffffffffffffffffffffffffff1673ffffffffffffffffffffffffffffffffffffffff1681526020019081526020015f205f6101000a81548160ff0219169083151502179055508080600101915050610919565b505f6006819055504260078190555050565b5f6109da33610a6a565b610a19576040517f08c379a0000000000000000000000000000000000000000000000000000000008152600401610a1090610cb7565b60405180910390fd5b60055f8373ffffffffffffffffffffffffffffffffffffffff1673ffffffffffffffffffffffffffffffffffffffff1681526020019081526020015f205f9054906101000a900460ff169050919050565b5f805f90505b5f54811015610afe578273ffffffffffffffffffffffffffffffffffffffff1660048281548110610aa457610aa3610d92565b5b905f5260205f20015f9054906101000a900473ffffffffffffffffffffffffffffffffffffffff1673ffffffffffffffffffffffffffffffffffffffff1603610af1576001915050610b03565b8080600101915050610a70565b505f90505b919050565b5f82825260208201905092915050565b7f55736520636f6e74726962757465282920746f206465706f73697400000000005f82015250565b5f610b4c601b83610b08565b9150610b5782610b18565b602082019050919050565b5f6020820190508181035f830152610b7981610b40565b9050919050565b5f819050919050565b610b9281610b80565b82525050565b5f602082019050610bab5f830184610b89565b92915050565b5f8115159050919050565b610bc581610bb1565b82525050565b5f602082019050610bde5f830184610bbc565b92915050565b5f80fd5b5f73ffffffffffffffffffffffffffffffffffffffff82169050919050565b5f610c1182610be8565b9050919050565b610c2181610c07565b8114610c2b575f80fd5b50565b5f81359050610c3c81610c18565b92915050565b5f60208284031215610c5757610c56610be4565b5b5f610c6484828501610c2e565b91505092915050565b7f4e6f7420612072656769737465726564206d656d6265720000000000000000005f82015250565b5f610ca1601783610b08565b9150610cac82610c6d565b602082019050919050565b5f6020820190508181035f830152610cce81610c95565b9050919050565b7f4e487b71000000000000000000000000000000000000000000000000000000005f52601160045260245ffd5b5f610d0c82610b80565b9150610d1783610b80565b9250828201905080821115610d2f57610d2e610cd5565b5b92915050565b7f4e487b71000000000000000000000000000000000000000000000000000000005f52601260045260245ffd5b5f610d6c82610b80565b9150610d7783610b80565b925082610d8757610d86610d35565b5b828206905092915050565b7f4e487b71000000000000000000000000000000000000000000000000000000005f52603260045260245ffd5b7f416c6c206d656d62657273206861766520616c7265616479206265656e2070615f8201527f6964000000000000000000000000000000000000000000000000000000000000602082015250565b5f610e19602283610b08565b9150610e2482610dbf565b604082019050919050565b5f6020820190508181035f830152610e4681610e0d565b9050919050565b7f4e6f2066756e647320746f2064697374726962757465000000000000000000005f82015250565b5f610e81601683610b08565b9150610e8c82610e4d565b602082019050919050565b5f6020820190508181035f830152610eae81610e75565b9050919050565b5f81905092915050565b50565b5f610ecd5f83610eb5565b9150610ed882610ebf565b5f82019050919050565b5f610eec82610ec2565b9150819050919050565b7f5472616e73666572206661696c656400000000000000000000000000000000005f82015250565b5f610f2a600f83610b08565b9150610f3582610ef6565b602082019050919050565b5f6020820190508181035f830152610f5781610f1e565b9050919050565b5f610f6882610b80565b9150610f7383610b80565b9250828202610f8181610b80565b91508282048414831517610f9857610f97610cd5565b5b5092915050565b7f45766572796f6e6520686173206265656e2070616964206f7574206f6e63652c5f8201527f206566666563746976656c7920656e64696e67207468652054616e64612e205460208201527f68616e6b20796f7520666f722070617274696369706174696e6721205265737460408201527f6172742061206e65772061677265656d656e7420696620796f752764206c696b60608201527f6520746f20636f6e74696e7565207769746820746869732054616e64612e0000608082015250565b5f61106b609e83610b08565b915061107682610f9f565b60a082019050919050565b5f6020820190508181035f8301526110988161105f565b9050919050565b7f416c726561647920636f6e74726962757465642074686973206379636c6500005f82015250565b5f6110d3601e83610b08565b91506110de8261109f565b602082019050919050565b5f6020820190508181035f830152611100816110c7565b9050919050565b7f496e636f727265637420636f6e747269627574696f6e20616d6f756e740000005f82015250565b5f61113b601d83610b08565b915061114682611107565b602082019050919050565b5f6020820190508181035f8301526111688161112f565b9050919050565b7f45766572796f6e6520686173206265656e2070616964206f7574206f6e63652e5f8201527f205468616e6b20796f7520666f722070617274696369706174696e672120526560208201527f73746172742061206e65772061677265656d656e7420696620796f752764206c60408201527f696b6520746f20636f6e74696e7565207769746820746869732054616e64612e606082015250565b5f611215608083610b08565b91506112208261116f565b608082019050919050565b5f6020820190508181035f83015261124281611209565b9050919050565b7f436f6e747269627574696f6e2077696e646f7720666f722074686973206379635f8201527f6c6520697320636c6f7365640000000000000000000000000000000000000000602082015250565b5f6112a3602c83610b08565b91506112ae82611249565b604082019050919050565b5f6020820190508181035f8301526112d081611297565b9050919050565b7f43616e6e6f742066696e616c697a65206379636c6520756e74696c20616772655f8201527f656420646973747269627574696f6e20696e74657276616c2074696d6520686160208201527f7320706173736564000000000000000000000000000000000000000000000000604082015250565b5f611357604883610b08565b9150611362826112d7565b606082019050919050565b5f6020820190508181035f8301526113848161134b565b905091905056fea2646970667358221220ad005c65841a63b0782077a0d6672473b795554ad4de0bd134a34aa15d97099a64736f6c634300081a0033",
			"opcodes": "PUSH1 0x80 PUSH1 0x40 MSTORE CALLVALUE DUP1 ISZERO PUSH2 0xF JUMPI PUSH0 DUP1 REVERT JUMPDEST POP PUSH1 0x40 MLOAD PUSH2 0x1A2D CODESIZE SUB DUP1 PUSH2 0x1A2D DUP4 CODECOPY DUP2 DUP2 ADD PUSH1 0x40 MSTORE DUP2 ADD SWAP1 PUSH2 0x31 SWAP2 SWAP1 PUSH2 0x41E JUMP JUMPDEST DUP5 DUP2 MLOAD EQ PUSH2 0x74 JUMPI PUSH1 0x40 MLOAD PUSH32 0x8C379A000000000000000000000000000000000000000000000000000000000 DUP2 MSTORE PUSH1 0x4 ADD PUSH2 0x6B SWAP1 PUSH2 0x50B JUMP JUMPDEST PUSH1 0x40 MLOAD DUP1 SWAP2 SUB SWAP1 REVERT JUMPDEST PUSH0 JUMPDEST DUP6 DUP2 LT ISZERO PUSH2 0x113 JUMPI PUSH0 PUSH20 0xFFFFFFFFFFFFFFFFFFFFFFFFFFFFFFFFFFFFFFFF AND DUP3 DUP3 DUP2 MLOAD DUP2 LT PUSH2 0xA8 JUMPI PUSH2 0xA7 PUSH2 0x529 JUMP JUMPDEST JUMPDEST PUSH1 0x20 MUL PUSH1 0x20 ADD ADD MLOAD PUSH20 0xFFFFFFFFFFFFFFFFFFFFFFFFFFFFFFFFFFFFFFFF AND SUB PUSH2 0x106 JUMPI PUSH1 0x40 MLOAD PUSH32 0x8C379A000000000000000000000000000000000000000000000000000000000 DUP2 MSTORE PUSH1 0x4 ADD PUSH2 0xFD SWAP1 PUSH2 0x5A0 JUMP JUMPDEST PUSH1 0x40 MLOAD DUP1 SWAP2 SUB SWAP1 REVERT JUMPDEST DUP1 DUP1 PUSH1 0x1 ADD SWAP2 POP POP PUSH2 0x76 JUMP JUMPDEST POP DUP5 PUSH0 DUP2 SWAP1 SSTORE POP DUP4 PUSH1 0x1 DUP2 SWAP1 SSTORE POP DUP3 PUSH1 0x3 DUP2 SWAP1 SSTORE POP DUP2 PUSH1 0x2 DUP2 SWAP1 SSTORE POP DUP1 PUSH1 0x4 SWAP1 DUP1 MLOAD SWAP1 PUSH1 0x20 ADD SWAP1 PUSH2 0x145 SWAP3 SWAP2 SWAP1 PUSH2 0x18E JUMP JUMPDEST POP TIMESTAMP PUSH1 0x7 DUP2 SWAP1 SSTORE POP PUSH3 0x93A80 PUSH1 0x3 SLOAD PUSH2 0x15E SWAP2 SWAP1 PUSH2 0x5EB JUMP JUMPDEST TIMESTAMP PUSH2 0x169 SWAP2 SWAP1 PUSH2 0x62C JUMP JUMPDEST PUSH1 0x9 DUP2 SWAP1 SSTORE POP PUSH0 PUSH1 0x8 DUP2 SWAP1 SSTORE POP PUSH0 PUSH1 0x6 DUP2 SWAP1 SSTORE POP PUSH0 PUSH1 0xB DUP2 SWAP1 SSTORE POP POP POP POP POP POP PUSH2 0x65F JUMP JUMPDEST DUP3 DUP1 SLOAD DUP3 DUP3 SSTORE SWAP1 PUSH0 MSTORE PUSH1 0x20 PUSH0 KECCAK256 SWAP1 DUP2 ADD SWAP3 DUP3 ISZERO PUSH2 0x204 JUMPI SWAP2 PUSH1 0x20 MUL DUP3 ADD JUMPDEST DUP3 DUP2 GT ISZERO PUSH2 0x203 JUMPI DUP3 MLOAD DUP3 PUSH0 PUSH2 0x100 EXP DUP2 SLOAD DUP2 PUSH20 0xFFFFFFFFFFFFFFFFFFFFFFFFFFFFFFFFFFFFFFFF MUL NOT AND SWAP1 DUP4 PUSH20 0xFFFFFFFFFFFFFFFFFFFFFFFFFFFFFFFFFFFFFFFF AND MUL OR SWAP1 SSTORE POP SWAP2 PUSH1 0x20 ADD SWAP2 SWAP1 PUSH1 0x1 ADD SWAP1 PUSH2 0x1AC JUMP JUMPDEST JUMPDEST POP SWAP1 POP PUSH2 0x211 SWAP2 SWAP1 PUSH2 0x215 JUMP JUMPDEST POP SWAP1 JUMP JUMPDEST JUMPDEST DUP1 DUP3 GT ISZERO PUSH2 0x22C JUMPI PUSH0 DUP2 PUSH0 SWAP1 SSTORE POP PUSH1 0x1 ADD PUSH2 0x216 JUMP JUMPDEST POP SWAP1 JUMP JUMPDEST PUSH0 PUSH1 0x40 MLOAD SWAP1 POP SWAP1 JUMP JUMPDEST PUSH0 DUP1 REVERT JUMPDEST PUSH0 DUP1 REVERT JUMPDEST PUSH0 DUP2 SWAP1 POP SWAP2 SWAP1 POP JUMP JUMPDEST PUSH2 0x253 DUP2 PUSH2 0x241 JUMP JUMPDEST DUP2 EQ PUSH2 0x25D JUMPI PUSH0 DUP1 REVERT JUMPDEST POP JUMP JUMPDEST PUSH0 DUP2 MLOAD SWAP1 POP PUSH2 0x26E DUP2 PUSH2 0x24A JUMP JUMPDEST SWAP3 SWAP2 POP POP JUMP JUMPDEST PUSH0 DUP1 REVERT JUMPDEST PUSH0 PUSH1 0x1F NOT PUSH1 0x1F DUP4 ADD AND SWAP1 POP SWAP2 SWAP1 POP JUMP JUMPDEST PUSH32 0x4E487B7100000000000000000000000000000000000000000000000000000000 PUSH0 MSTORE PUSH1 0x41 PUSH1 0x4 MSTORE PUSH1 0x24 PUSH0 REVERT JUMPDEST PUSH2 0x2BE DUP3 PUSH2 0x278 JUMP JUMPDEST DUP2 ADD DUP2 DUP2 LT PUSH8 0xFFFFFFFFFFFFFFFF DUP3 GT OR ISZERO PUSH2 0x2DD JUMPI PUSH2 0x2DC PUSH2 0x288 JUMP JUMPDEST JUMPDEST DUP1 PUSH1 0x40 MSTORE POP POP POP JUMP JUMPDEST PUSH0 PUSH2 0x2EF PUSH2 0x230 JUMP JUMPDEST SWAP1 POP PUSH2 0x2FB DUP3 DUP3 PUSH2 0x2B5 JUMP JUMPDEST SWAP2 SWAP1 POP JUMP JUMPDEST PUSH0 PUSH8 0xFFFFFFFFFFFFFFFF DUP3 GT ISZERO PUSH2 0x31A JUMPI PUSH2 0x319 PUSH2 0x288 JUMP JUMPDEST JUMPDEST PUSH1 0x20 DUP3 MUL SWAP1 POP PUSH1 0x20 DUP2 ADD SWAP1 POP SWAP2 SWAP1 POP JUMP JUMPDEST PUSH0 DUP1 REVERT JUMPDEST PUSH0 PUSH20 0xFFFFFFFFFFFFFFFFFFFFFFFFFFFFFFFFFFFFFFFF DUP3 AND SWAP1 POP SWAP2 SWAP1 POP JUMP JUMPDEST PUSH0 PUSH2 0x358 DUP3 PUSH2 0x32F JUMP JUMPDEST SWAP1 POP SWAP2 SWAP1 POP JUMP JUMPDEST PUSH2 0x368 DUP2 PUSH2 0x34E JUMP JUMPDEST DUP2 EQ PUSH2 0x372 JUMPI PUSH0 DUP1 REVERT JUMPDEST POP JUMP JUMPDEST PUSH0 DUP2 MLOAD SWAP1 POP PUSH2 0x383 DUP2 PUSH2 0x35F JUMP JUMPDEST SWAP3 SWAP2 POP POP JUMP JUMPDEST PUSH0 PUSH2 0x39B PUSH2 0x396 DUP5 PUSH2 0x300 JUMP JUMPDEST PUSH2 0x2E6 JUMP JUMPDEST SWAP1 POP DUP1 DUP4 DUP3 MSTORE PUSH1 0x20 DUP3 ADD SWAP1 POP PUSH1 0x20 DUP5 MUL DUP4 ADD DUP6 DUP2 GT ISZERO PUSH2 0x3BE JUMPI PUSH2 0x3BD PUSH2 0x32B JUMP JUMPDEST JUMPDEST DUP4 JUMPDEST DUP2 DUP2 LT ISZERO PUSH2 0x3E7 JUMPI DUP1 PUSH2 0x3D3 DUP9 DUP3 PUSH2 0x375 JUMP JUMPDEST DUP5 MSTORE PUSH1 0x20 DUP5 ADD SWAP4 POP POP PUSH1 0x20 DUP2 ADD SWAP1 POP PUSH2 0x3C0 JUMP JUMPDEST POP POP POP SWAP4 SWAP3 POP POP POP JUMP JUMPDEST PUSH0 DUP3 PUSH1 0x1F DUP4 ADD SLT PUSH2 0x405 JUMPI PUSH2 0x404 PUSH2 0x274 JUMP JUMPDEST JUMPDEST DUP2 MLOAD PUSH2 0x415 DUP5 DUP3 PUSH1 0x20 DUP7 ADD PUSH2 0x389 JUMP JUMPDEST SWAP2 POP POP SWAP3 SWAP2 POP POP JUMP JUMPDEST PUSH0 DUP1 PUSH0 DUP1 PUSH0 PUSH1 0xA0 DUP7 DUP9 SUB SLT ISZERO PUSH2 0x437 JUMPI PUSH2 0x436 PUSH2 0x239 JUMP JUMPDEST JUMPDEST PUSH0 PUSH2 0x444 DUP9 DUP3 DUP10 ADD PUSH2 0x260 JUMP JUMPDEST SWAP6 POP POP PUSH1 0x20 PUSH2 0x455 DUP9 DUP3 DUP10 ADD PUSH2 0x260 JUMP JUMPDEST SWAP5 POP POP PUSH1 0x40 PUSH2 0x466 DUP9 DUP3 DUP10 ADD PUSH2 0x260 JUMP JUMPDEST SWAP4 POP POP PUSH1 0x60 PUSH2 0x477 DUP9 DUP3 DUP10 ADD PUSH2 0x260 JUMP JUMPDEST SWAP3 POP POP PUSH1 0x80 DUP7 ADD MLOAD PUSH8 0xFFFFFFFFFFFFFFFF DUP2 GT ISZERO PUSH2 0x498 JUMPI PUSH2 0x497 PUSH2 0x23D JUMP JUMPDEST JUMPDEST PUSH2 0x4A4 DUP9 DUP3 DUP10 ADD PUSH2 0x3F1 JUMP JUMPDEST SWAP2 POP POP SWAP3 SWAP6 POP SWAP3 SWAP6 SWAP1 SWAP4 POP JUMP JUMPDEST PUSH0 DUP3 DUP3 MSTORE PUSH1 0x20 DUP3 ADD SWAP1 POP SWAP3 SWAP2 POP POP JUMP JUMPDEST PUSH32 0x4D656D626572732061727261792073697A65206D69736D617463680000000000 PUSH0 DUP3 ADD MSTORE POP JUMP JUMPDEST PUSH0 PUSH2 0x4F5 PUSH1 0x1B DUP4 PUSH2 0x4B1 JUMP JUMPDEST SWAP2 POP PUSH2 0x500 DUP3 PUSH2 0x4C1 JUMP JUMPDEST PUSH1 0x20 DUP3 ADD SWAP1 POP SWAP2 SWAP1 POP JUMP JUMPDEST PUSH0 PUSH1 0x20 DUP3 ADD SWAP1 POP DUP2 DUP2 SUB PUSH0 DUP4 ADD MSTORE PUSH2 0x522 DUP2 PUSH2 0x4E9 JUMP JUMPDEST SWAP1 POP SWAP2 SWAP1 POP JUMP JUMPDEST PUSH32 0x4E487B7100000000000000000000000000000000000000000000000000000000 PUSH0 MSTORE PUSH1 0x32 PUSH1 0x4 MSTORE PUSH1 0x24 PUSH0 REVERT JUMPDEST PUSH32 0x496E76616C6964206D656D626572206164647265737300000000000000000000 PUSH0 DUP3 ADD MSTORE POP JUMP JUMPDEST PUSH0 PUSH2 0x58A PUSH1 0x16 DUP4 PUSH2 0x4B1 JUMP JUMPDEST SWAP2 POP PUSH2 0x595 DUP3 PUSH2 0x556 JUMP JUMPDEST PUSH1 0x20 DUP3 ADD SWAP1 POP SWAP2 SWAP1 POP JUMP JUMPDEST PUSH0 PUSH1 0x20 DUP3 ADD SWAP1 POP DUP2 DUP2 SUB PUSH0 DUP4 ADD MSTORE PUSH2 0x5B7 DUP2 PUSH2 0x57E JUMP JUMPDEST SWAP1 POP SWAP2 SWAP1 POP JUMP JUMPDEST PUSH32 0x4E487B7100000000000000000000000000000000000000000000000000000000 PUSH0 MSTORE PUSH1 0x11 PUSH1 0x4 MSTORE PUSH1 0x24 PUSH0 REVERT JUMPDEST PUSH0 PUSH2 0x5F5 DUP3 PUSH2 0x241 JUMP JUMPDEST SWAP2 POP PUSH2 0x600 DUP4 PUSH2 0x241 JUMP JUMPDEST SWAP3 POP DUP3 DUP3 MUL PUSH2 0x60E DUP2 PUSH2 0x241 JUMP JUMPDEST SWAP2 POP DUP3 DUP3 DIV DUP5 EQ DUP4 ISZERO OR PUSH2 0x625 JUMPI PUSH2 0x624 PUSH2 0x5BE JUMP JUMPDEST JUMPDEST POP SWAP3 SWAP2 POP POP JUMP JUMPDEST PUSH0 PUSH2 0x636 DUP3 PUSH2 0x241 JUMP JUMPDEST SWAP2 POP PUSH2 0x641 DUP4 PUSH2 0x241 JUMP JUMPDEST SWAP3 POP DUP3 DUP3 ADD SWAP1 POP DUP1 DUP3 GT ISZERO PUSH2 0x659 JUMPI PUSH2 0x658 PUSH2 0x5BE JUMP JUMPDEST JUMPDEST SWAP3 SWAP2 POP POP JUMP JUMPDEST PUSH2 0x13C1 DUP1 PUSH2 0x66C PUSH0 CODECOPY PUSH0 RETURN INVALID PUSH1 0x80 PUSH1 0x40 MSTORE PUSH1 0x4 CALLDATASIZE LT PUSH2 0x58 JUMPI PUSH0 CALLDATALOAD PUSH1 0xE0 SHR DUP1 PUSH4 0xB6DD8A8 EQ PUSH2 0x9C JUMPI DUP1 PUSH4 0x35CD4B46 EQ PUSH2 0xC6 JUMPI DUP1 PUSH4 0xC74E7261 EQ PUSH2 0xDC JUMPI DUP1 PUSH4 0xD7BB99BA EQ PUSH2 0x106 JUMPI DUP1 PUSH4 0xEC33D2A0 EQ PUSH2 0x110 JUMPI DUP1 PUSH4 0xEDF91178 EQ PUSH2 0x126 JUMPI PUSH2 0x98 JUMP JUMPDEST CALLDATASIZE PUSH2 0x98 JUMPI PUSH1 0x40 MLOAD PUSH32 0x8C379A000000000000000000000000000000000000000000000000000000000 DUP2 MSTORE PUSH1 0x4 ADD PUSH2 0x8F SWAP1 PUSH2 0xB62 JUMP JUMPDEST PUSH1 0x40 MLOAD DUP1 SWAP2 SUB SWAP1 REVERT JUMPDEST PUSH0 DUP1 REVERT JUMPDEST CALLVALUE DUP1 ISZERO PUSH2 0xA7 JUMPI PUSH0 DUP1 REVERT JUMPDEST POP PUSH2 0xB0 PUSH2 0x162 JUMP JUMPDEST PUSH1 0x40 MLOAD PUSH2 0xBD SWAP2 SWAP1 PUSH2 0xB98 JUMP JUMPDEST PUSH1 0x40 MLOAD DUP1 SWAP2 SUB SWAP1 RETURN JUMPDEST CALLVALUE DUP1 ISZERO PUSH2 0xD1 JUMPI PUSH0 DUP1 REVERT JUMPDEST POP PUSH2 0xDA PUSH2 0x1B3 JUMP JUMPDEST STOP JUMPDEST CALLVALUE DUP1 ISZERO PUSH2 0xE7 JUMPI PUSH0 DUP1 REVERT JUMPDEST POP PUSH2 0xF0 PUSH2 0x497 JUMP JUMPDEST PUSH1 0x40 MLOAD PUSH2 0xFD SWAP2 SWAP1 PUSH2 0xBCB JUMP JUMPDEST PUSH1 0x40 MLOAD DUP1 SWAP2 SUB SWAP1 RETURN JUMPDEST PUSH2 0x10E PUSH2 0x593 JUMP JUMPDEST STOP JUMPDEST CALLVALUE DUP1 ISZERO PUSH2 0x11B JUMPI PUSH0 DUP1 REVERT JUMPDEST POP PUSH2 0x124 PUSH2 0x844 JUMP JUMPDEST STOP JUMPDEST CALLVALUE DUP1 ISZERO PUSH2 0x131 JUMPI PUSH0 DUP1 REVERT JUMPDEST POP PUSH2 0x14C PUSH1 0x4 DUP1 CALLDATASIZE SUB DUP2 ADD SWAP1 PUSH2 0x147 SWAP2 SWAP1 PUSH2 0xC42 JUMP JUMPDEST PUSH2 0x9D0 JUMP JUMPDEST PUSH1 0x40 MLOAD PUSH2 0x159 SWAP2 SWAP1 PUSH2 0xBCB JUMP JUMPDEST PUSH1 0x40 MLOAD DUP1 SWAP2 SUB SWAP1 RETURN JUMPDEST PUSH0 PUSH2 0x16C CALLER PUSH2 0xA6A JUMP JUMPDEST PUSH2 0x1AB JUMPI PUSH1 0x40 MLOAD PUSH32 0x8C379A000000000000000000000000000000000000000000000000000000000 DUP2 MSTORE PUSH1 0x4 ADD PUSH2 0x1A2 SWAP1 PUSH2 0xCB7 JUMP JUMPDEST PUSH1 0x40 MLOAD DUP1 SWAP2 SUB SWAP1 REVERT JUMPDEST PUSH1 0x2 SLOAD SWAP1 POP SWAP1 JUMP JUMPDEST PUSH2 0x1BC CALLER PUSH2 0xA6A JUMP JUMPDEST PUSH2 0x1FB JUMPI PUSH1 0x40 MLOAD PUSH32 0x8C379A000000000000000000000000000000000000000000000000000000000 DUP2 MSTORE PUSH1 0x4 ADD PUSH2 0x1F2 SWAP1 PUSH2 0xCB7 JUMP JUMPDEST PUSH1 0x40 MLOAD DUP1 SWAP2 SUB SWAP1 REVERT JUMPDEST PUSH0 DUP1 PUSH0 SWAP1 POP PUSH0 JUMPDEST PUSH0 SLOAD DUP2 LT ISZERO PUSH2 0x2E5 JUMPI PUSH0 DUP1 SLOAD DUP3 PUSH1 0xB SLOAD PUSH2 0x21C SWAP2 SWAP1 PUSH2 0xD02 JUMP JUMPDEST PUSH2 0x226 SWAP2 SWAP1 PUSH2 0xD62 JUMP JUMPDEST SWAP1 POP PUSH0 PUSH1 0x4 DUP3 DUP2 SLOAD DUP2 LT PUSH2 0x23D JUMPI PUSH2 0x23C PUSH2 0xD92 JUMP JUMPDEST JUMPDEST SWAP1 PUSH0 MSTORE PUSH1 0x20 PUSH0 KECCAK256 ADD PUSH0 SWAP1 SLOAD SWAP1 PUSH2 0x100 EXP SWAP1 DIV PUSH20 0xFFFFFFFFFFFFFFFFFFFFFFFFFFFFFFFFFFFFFFFF AND SWAP1 POP PUSH1 0xA PUSH0 DUP3 PUSH20 0xFFFFFFFFFFFFFFFFFFFFFFFFFFFFFFFFFFFFFFFF AND PUSH20 0xFFFFFFFFFFFFFFFFFFFFFFFFFFFFFFFFFFFFFFFF AND DUP2 MSTORE PUSH1 0x20 ADD SWAP1 DUP2 MSTORE PUSH1 0x20 ADD PUSH0 KECCAK256 PUSH0 SWAP1 SLOAD SWAP1 PUSH2 0x100 EXP SWAP1 DIV PUSH1 0xFF AND PUSH2 0x2D6 JUMPI DUP1 SWAP5 POP PUSH1 0x1 DUP3 PUSH2 0x2C5 SWAP2 SWAP1 PUSH2 0xD02 JUMP JUMPDEST PUSH1 0xB DUP2 SWAP1 SSTORE POP PUSH1 0x1 SWAP4 POP POP POP PUSH2 0x2E5 JUMP JUMPDEST POP POP DUP1 DUP1 PUSH1 0x1 ADD SWAP2 POP POP PUSH2 0x202 JUMP JUMPDEST POP DUP1 PUSH2 0x326 JUMPI PUSH1 0x40 MLOAD PUSH32 0x8C379A000000000000000000000000000000000000000000000000000000000 DUP2 MSTORE PUSH1 0x4 ADD PUSH2 0x31D SWAP1 PUSH2 0xE2F JUMP JUMPDEST PUSH1 0x40 MLOAD DUP1 SWAP2 SUB SWAP1 REVERT JUMPDEST PUSH1 0x1 PUSH1 0xA PUSH0 DUP5 PUSH20 0xFFFFFFFFFFFFFFFFFFFFFFFFFFFFFFFFFFFFFFFF AND PUSH20 0xFFFFFFFFFFFFFFFFFFFFFFFFFFFFFFFFFFFFFFFF AND DUP2 MSTORE PUSH1 0x20 ADD SWAP1 DUP2 MSTORE PUSH1 0x20 ADD PUSH0 KECCAK256 PUSH0 PUSH2 0x100 EXP DUP2 SLOAD DUP2 PUSH1 0xFF MUL NOT AND SWAP1 DUP4 ISZERO ISZERO MUL OR SWAP1 SSTORE POP PUSH0 SELFBALANCE SWAP1 POP PUSH0 DUP2 GT PUSH2 0x3C1 JUMPI PUSH1 0x40 MLOAD PUSH32 0x8C379A000000000000000000000000000000000000000000000000000000000 DUP2 MSTORE PUSH1 0x4 ADD PUSH2 0x3B8 SWAP1 PUSH2 0xE97 JUMP JUMPDEST PUSH1 0x40 MLOAD DUP1 SWAP2 SUB SWAP1 REVERT JUMPDEST PUSH0 DUP4 PUSH20 0xFFFFFFFFFFFFFFFFFFFFFFFFFFFFFFFFFFFFFFFF AND DUP3 PUSH1 0x40 MLOAD PUSH2 0x3E6 SWAP1 PUSH2 0xEE2 JUMP JUMPDEST PUSH0 PUSH1 0x40 MLOAD DUP1 DUP4 SUB DUP2 DUP6 DUP8 GAS CALL SWAP3 POP POP POP RETURNDATASIZE DUP1 PUSH0 DUP2 EQ PUSH2 0x420 JUMPI PUSH1 0x40 MLOAD SWAP2 POP PUSH1 0x1F NOT PUSH1 0x3F RETURNDATASIZE ADD AND DUP3 ADD PUSH1 0x40 MSTORE RETURNDATASIZE DUP3 MSTORE RETURNDATASIZE PUSH0 PUSH1 0x20 DUP5 ADD RETURNDATACOPY PUSH2 0x425 JUMP JUMPDEST PUSH1 0x60 SWAP2 POP JUMPDEST POP POP SWAP1 POP DUP1 PUSH2 0x469 JUMPI PUSH1 0x40 MLOAD PUSH32 0x8C379A000000000000000000000000000000000000000000000000000000000 DUP2 MSTORE PUSH1 0x4 ADD PUSH2 0x460 SWAP1 PUSH2 0xF40 JUMP JUMPDEST PUSH1 0x40 MLOAD DUP1 SWAP2 SUB SWAP1 REVERT JUMPDEST PUSH3 0x93A80 PUSH1 0x3 SLOAD PUSH2 0x47A SWAP2 SWAP1 PUSH2 0xF5E JUMP JUMPDEST PUSH1 0x9 PUSH0 DUP3 DUP3 SLOAD PUSH2 0x48A SWAP2 SWAP1 PUSH2 0xD02 JUMP JUMPDEST SWAP3 POP POP DUP2 SWAP1 SSTORE POP POP POP POP POP JUMP JUMPDEST PUSH0 PUSH2 0x4A1 CALLER PUSH2 0xA6A JUMP JUMPDEST PUSH2 0x4E0 JUMPI PUSH1 0x40 MLOAD PUSH32 0x8C379A000000000000000000000000000000000000000000000000000000000 DUP2 MSTORE PUSH1 0x4 ADD PUSH2 0x4D7 SWAP1 PUSH2 0xCB7 JUMP JUMPDEST PUSH1 0x40 MLOAD DUP1 SWAP2 SUB SWAP1 REVERT JUMPDEST PUSH0 JUMPDEST PUSH0 SLOAD DUP2 LT ISZERO PUSH2 0x58A JUMPI PUSH1 0xA PUSH0 PUSH1 0x4 DUP4 DUP2 SLOAD DUP2 LT PUSH2 0x502 JUMPI PUSH2 0x501 PUSH2 0xD92 JUMP JUMPDEST JUMPDEST SWAP1 PUSH0 MSTORE PUSH1 0x20 PUSH0 KECCAK256 ADD PUSH0 SWAP1 SLOAD SWAP1 PUSH2 0x100 EXP SWAP1 DIV PUSH20 0xFFFFFFFFFFFFFFFFFFFFFFFFFFFFFFFFFFFFFFFF AND PUSH20 0xFFFFFFFFFFFFFFFFFFFFFFFFFFFFFFFFFFFFFFFF AND PUSH20 0xFFFFFFFFFFFFFFFFFFFFFFFFFFFFFFFFFFFFFFFF AND DUP2 MSTORE PUSH1 0x20 ADD SWAP1 DUP2 MSTORE PUSH1 0x20 ADD PUSH0 KECCAK256 PUSH0 SWAP1 SLOAD SWAP1 PUSH2 0x100 EXP SWAP1 DIV PUSH1 0xFF AND PUSH2 0x57D JUMPI PUSH0 SWAP2 POP POP PUSH2 0x590 JUMP JUMPDEST DUP1 DUP1 PUSH1 0x1 ADD SWAP2 POP POP PUSH2 0x4E2 JUMP JUMPDEST POP PUSH1 0x1 SWAP1 POP JUMPDEST SWAP1 JUMP JUMPDEST PUSH0 ISZERO ISZERO PUSH2 0x59E PUSH2 0x497 JUMP JUMPDEST ISZERO ISZERO EQ PUSH2 0x5E0 JUMPI PUSH1 0x40 MLOAD PUSH32 0x8C379A000000000000000000000000000000000000000000000000000000000 DUP2 MSTORE PUSH1 0x4 ADD PUSH2 0x5D7 SWAP1 PUSH2 0x1081 JUMP JUMPDEST PUSH1 0x40 MLOAD DUP1 SWAP2 SUB SWAP1 REVERT JUMPDEST PUSH2 0x5E9 CALLER PUSH2 0xA6A JUMP JUMPDEST PUSH2 0x628 JUMPI PUSH1 0x40 MLOAD PUSH32 0x8C379A000000000000000000000000000000000000000000000000000000000 DUP2 MSTORE PUSH1 0x4 ADD PUSH2 0x61F SWAP1 PUSH2 0xCB7 JUMP JUMPDEST PUSH1 0x40 MLOAD DUP1 SWAP2 SUB SWAP1 REVERT JUMPDEST PUSH1 0x5 PUSH0 CALLER PUSH20 0xFFFFFFFFFFFFFFFFFFFFFFFFFFFFFFFFFFFFFFFF AND PUSH20 0xFFFFFFFFFFFFFFFFFFFFFFFFFFFFFFFFFFFFFFFF AND DUP2 MSTORE PUSH1 0x20 ADD SWAP1 DUP2 MSTORE PUSH1 0x20 ADD PUSH0 KECCAK256 PUSH0 SWAP1 SLOAD SWAP1 PUSH2 0x100 EXP SWAP1 DIV PUSH1 0xFF AND ISZERO PUSH2 0x6B2 JUMPI PUSH1 0x40 MLOAD PUSH32 0x8C379A000000000000000000000000000000000000000000000000000000000 DUP2 MSTORE PUSH1 0x4 ADD PUSH2 0x6A9 SWAP1 PUSH2 0x10E9 JUMP JUMPDEST PUSH1 0x40 MLOAD DUP1 SWAP2 SUB SWAP1 REVERT JUMPDEST PUSH1 0x2 SLOAD CALLVALUE EQ PUSH2 0x6F6 JUMPI PUSH1 0x40 MLOAD PUSH32 0x8C379A000000000000000000000000000000000000000000000000000000000 DUP2 MSTORE PUSH1 0x4 ADD PUSH2 0x6ED SWAP1 PUSH2 0x1151 JUMP JUMPDEST PUSH1 0x40 MLOAD DUP1 SWAP2 SUB SWAP1 REVERT JUMPDEST PUSH0 ISZERO ISZERO PUSH2 0x701 PUSH2 0x497 JUMP JUMPDEST ISZERO ISZERO EQ PUSH2 0x743 JUMPI PUSH1 0x40 MLOAD PUSH32 0x8C379A000000000000000000000000000000000000000000000000000000000 DUP2 MSTORE PUSH1 0x4 ADD PUSH2 0x73A SWAP1 PUSH2 0x122B JUMP JUMPDEST PUSH1 0x40 MLOAD DUP1 SWAP2 SUB SWAP1 REVERT JUMPDEST PUSH0 PUSH3 0x93A80 PUSH1 0x1 SLOAD PUSH2 0x755 SWAP2 SWAP1 PUSH2 0xF5E JUMP JUMPDEST SWAP1 POP DUP1 PUSH1 0x7 SLOAD PUSH2 0x765 SWAP2 SWAP1 PUSH2 0xD02 JUMP JUMPDEST TIMESTAMP LT PUSH2 0x7A6 JUMPI PUSH1 0x40 MLOAD PUSH32 0x8C379A000000000000000000000000000000000000000000000000000000000 DUP2 MSTORE PUSH1 0x4 ADD PUSH2 0x79D SWAP1 PUSH2 0x12B9 JUMP JUMPDEST PUSH1 0x40 MLOAD DUP1 SWAP2 SUB SWAP1 REVERT JUMPDEST PUSH1 0x1 PUSH1 0x5 PUSH0 CALLER PUSH20 0xFFFFFFFFFFFFFFFFFFFFFFFFFFFFFFFFFFFFFFFF AND PUSH20 0xFFFFFFFFFFFFFFFFFFFFFFFFFFFFFFFFFFFFFFFF AND DUP2 MSTORE PUSH1 0x20 ADD SWAP1 DUP2 MSTORE PUSH1 0x20 ADD PUSH0 KECCAK256 PUSH0 PUSH2 0x100 EXP DUP2 SLOAD DUP2 PUSH1 0xFF MUL NOT AND SWAP1 DUP4 ISZERO ISZERO MUL OR SWAP1 SSTORE POP PUSH1 0x1 PUSH1 0x6 PUSH0 DUP3 DUP3 SLOAD PUSH2 0x80D SWAP2 SWAP1 PUSH2 0xD02 JUMP JUMPDEST SWAP3 POP POP DUP2 SWAP1 SSTORE POP PUSH0 SLOAD PUSH1 0x6 SLOAD EQ DUP1 ISZERO PUSH2 0x833 JUMPI POP DUP1 PUSH1 0x7 SLOAD PUSH2 0x82F SWAP2 SWAP1 PUSH2 0xD02 JUMP JUMPDEST TIMESTAMP LT ISZERO JUMPDEST ISZERO PUSH2 0x841 JUMPI PUSH2 0x840 PUSH2 0x844 JUMP JUMPDEST JUMPDEST POP JUMP JUMPDEST PUSH2 0x84D CALLER PUSH2 0xA6A JUMP JUMPDEST PUSH2 0x88C JUMPI PUSH1 0x40 MLOAD PUSH32 0x8C379A000000000000000000000000000000000000000000000000000000000 DUP2 MSTORE PUSH1 0x4 ADD PUSH2 0x883 SWAP1 PUSH2 0xCB7 JUMP JUMPDEST PUSH1 0x40 MLOAD DUP1 SWAP2 SUB SWAP1 REVERT JUMPDEST PUSH0 PUSH3 0x93A80 PUSH1 0x1 SLOAD PUSH2 0x89E SWAP2 SWAP1 PUSH2 0xF5E JUMP JUMPDEST SWAP1 POP DUP1 PUSH1 0x7 SLOAD PUSH2 0x8AE SWAP2 SWAP1 PUSH2 0xD02 JUMP JUMPDEST TIMESTAMP LT ISZERO DUP1 ISZERO PUSH2 0x8BF JUMPI POP PUSH0 SLOAD PUSH1 0x6 SLOAD EQ JUMPDEST PUSH2 0x8FE JUMPI PUSH1 0x40 MLOAD PUSH32 0x8C379A000000000000000000000000000000000000000000000000000000000 DUP2 MSTORE PUSH1 0x4 ADD PUSH2 0x8F5 SWAP1 PUSH2 0x136D JUMP JUMPDEST PUSH1 0x40 MLOAD DUP1 SWAP2 SUB SWAP1 REVERT JUMPDEST PUSH1 0x1 PUSH1 0x8 PUSH0 DUP3 DUP3 SLOAD PUSH2 0x910 SWAP2 SWAP1 PUSH2 0xD02 JUMP JUMPDEST SWAP3 POP POP DUP2 SWAP1 SSTORE POP PUSH0 JUMPDEST PUSH0 SLOAD DUP2 LT ISZERO PUSH2 0x9BE JUMPI PUSH0 PUSH1 0x5 PUSH0 PUSH1 0x4 DUP5 DUP2 SLOAD DUP2 LT PUSH2 0x93A JUMPI PUSH2 0x939 PUSH2 0xD92 JUMP JUMPDEST JUMPDEST SWAP1 PUSH0 MSTORE PUSH1 0x20 PUSH0 KECCAK256 ADD PUSH0 SWAP1 SLOAD SWAP1 PUSH2 0x100 EXP SWAP1 DIV PUSH20 0xFFFFFFFFFFFFFFFFFFFFFFFFFFFFFFFFFFFFFFFF AND PUSH20 0xFFFFFFFFFFFFFFFFFFFFFFFFFFFFFFFFFFFFFFFF AND PUSH20 0xFFFFFFFFFFFFFFFFFFFFFFFFFFFFFFFFFFFFFFFF AND DUP2 MSTORE PUSH1 0x20 ADD SWAP1 DUP2 MSTORE PUSH1 0x20 ADD PUSH0 KECCAK256 PUSH0 PUSH2 0x100 EXP DUP2 SLOAD DUP2 PUSH1 0xFF MUL NOT AND SWAP1 DUP4 ISZERO ISZERO MUL OR SWAP1 SSTORE POP DUP1 DUP1 PUSH1 0x1 ADD SWAP2 POP POP PUSH2 0x919 JUMP JUMPDEST POP PUSH0 PUSH1 0x6 DUP2 SWAP1 SSTORE POP TIMESTAMP PUSH1 0x7 DUP2 SWAP1 SSTORE POP POP JUMP JUMPDEST PUSH0 PUSH2 0x9DA CALLER PUSH2 0xA6A JUMP JUMPDEST PUSH2 0xA19 JUMPI PUSH1 0x40 MLOAD PUSH32 0x8C379A000000000000000000000000000000000000000000000000000000000 DUP2 MSTORE PUSH1 0x4 ADD PUSH2 0xA10 SWAP1 PUSH2 0xCB7 JUMP JUMPDEST PUSH1 0x40 MLOAD DUP1 SWAP2 SUB SWAP1 REVERT JUMPDEST PUSH1 0x5 PUSH0 DUP4 PUSH20 0xFFFFFFFFFFFFFFFFFFFFFFFFFFFFFFFFFFFFFFFF AND PUSH20 0xFFFFFFFFFFFFFFFFFFFFFFFFFFFFFFFFFFFFFFFF AND DUP2 MSTORE PUSH1 0x20 ADD SWAP1 DUP2 MSTORE PUSH1 0x20 ADD PUSH0 KECCAK256 PUSH0 SWAP1 SLOAD SWAP1 PUSH2 0x100 EXP SWAP1 DIV PUSH1 0xFF AND SWAP1 POP SWAP2 SWAP1 POP JUMP JUMPDEST PUSH0 DUP1 PUSH0 SWAP1 POP JUMPDEST PUSH0 SLOAD DUP2 LT ISZERO PUSH2 0xAFE JUMPI DUP3 PUSH20 0xFFFFFFFFFFFFFFFFFFFFFFFFFFFFFFFFFFFFFFFF AND PUSH1 0x4 DUP3 DUP2 SLOAD DUP2 LT PUSH2 0xAA4 JUMPI PUSH2 0xAA3 PUSH2 0xD92 JUMP JUMPDEST JUMPDEST SWAP1 PUSH0 MSTORE PUSH1 0x20 PUSH0 KECCAK256 ADD PUSH0 SWAP1 SLOAD SWAP1 PUSH2 0x100 EXP SWAP1 DIV PUSH20 0xFFFFFFFFFFFFFFFFFFFFFFFFFFFFFFFFFFFFFFFF AND PUSH20 0xFFFFFFFFFFFFFFFFFFFFFFFFFFFFFFFFFFFFFFFF AND SUB PUSH2 0xAF1 JUMPI PUSH1 0x1 SWAP2 POP POP PUSH2 0xB03 JUMP JUMPDEST DUP1 DUP1 PUSH1 0x1 ADD SWAP2 POP POP PUSH2 0xA70 JUMP JUMPDEST POP PUSH0 SWAP1 POP JUMPDEST SWAP2 SWAP1 POP JUMP JUMPDEST PUSH0 DUP3 DUP3 MSTORE PUSH1 0x20 DUP3 ADD SWAP1 POP SWAP3 SWAP2 POP POP JUMP JUMPDEST PUSH32 0x55736520636F6E74726962757465282920746F206465706F7369740000000000 PUSH0 DUP3 ADD MSTORE POP JUMP JUMPDEST PUSH0 PUSH2 0xB4C PUSH1 0x1B DUP4 PUSH2 0xB08 JUMP JUMPDEST SWAP2 POP PUSH2 0xB57 DUP3 PUSH2 0xB18 JUMP JUMPDEST PUSH1 0x20 DUP3 ADD SWAP1 POP SWAP2 SWAP1 POP JUMP JUMPDEST PUSH0 PUSH1 0x20 DUP3 ADD SWAP1 POP DUP2 DUP2 SUB PUSH0 DUP4 ADD MSTORE PUSH2 0xB79 DUP2 PUSH2 0xB40 JUMP JUMPDEST SWAP1 POP SWAP2 SWAP1 POP JUMP JUMPDEST PUSH0 DUP2 SWAP1 POP SWAP2 SWAP1 POP JUMP JUMPDEST PUSH2 0xB92 DUP2 PUSH2 0xB80 JUMP JUMPDEST DUP3 MSTORE POP POP JUMP JUMPDEST PUSH0 PUSH1 0x20 DUP3 ADD SWAP1 POP PUSH2 0xBAB PUSH0 DUP4 ADD DUP5 PUSH2 0xB89 JUMP JUMPDEST SWAP3 SWAP2 POP POP JUMP JUMPDEST PUSH0 DUP2 ISZERO ISZERO SWAP1 POP SWAP2 SWAP1 POP JUMP JUMPDEST PUSH2 0xBC5 DUP2 PUSH2 0xBB1 JUMP JUMPDEST DUP3 MSTORE POP POP JUMP JUMPDEST PUSH0 PUSH1 0x20 DUP3 ADD SWAP1 POP PUSH2 0xBDE PUSH0 DUP4 ADD DUP5 PUSH2 0xBBC JUMP JUMPDEST SWAP3 SWAP2 POP POP JUMP JUMPDEST PUSH0 DUP1 REVERT JUMPDEST PUSH0 PUSH20 0xFFFFFFFFFFFFFFFFFFFFFFFFFFFFFFFFFFFFFFFF DUP3 AND SWAP1 POP SWAP2 SWAP1 POP JUMP JUMPDEST PUSH0 PUSH2 0xC11 DUP3 PUSH2 0xBE8 JUMP JUMPDEST SWAP1 POP SWAP2 SWAP1 POP JUMP JUMPDEST PUSH2 0xC21 DUP2 PUSH2 0xC07 JUMP JUMPDEST DUP2 EQ PUSH2 0xC2B JUMPI PUSH0 DUP1 REVERT JUMPDEST POP JUMP JUMPDEST PUSH0 DUP2 CALLDATALOAD SWAP1 POP PUSH2 0xC3C DUP2 PUSH2 0xC18 JUMP JUMPDEST SWAP3 SWAP2 POP POP JUMP JUMPDEST PUSH0 PUSH1 0x20 DUP3 DUP5 SUB SLT ISZERO PUSH2 0xC57 JUMPI PUSH2 0xC56 PUSH2 0xBE4 JUMP JUMPDEST JUMPDEST PUSH0 PUSH2 0xC64 DUP5 DUP3 DUP6 ADD PUSH2 0xC2E JUMP JUMPDEST SWAP2 POP POP SWAP3 SWAP2 POP POP JUMP JUMPDEST PUSH32 0x4E6F7420612072656769737465726564206D656D626572000000000000000000 PUSH0 DUP3 ADD MSTORE POP JUMP JUMPDEST PUSH0 PUSH2 0xCA1 PUSH1 0x17 DUP4 PUSH2 0xB08 JUMP JUMPDEST SWAP2 POP PUSH2 0xCAC DUP3 PUSH2 0xC6D JUMP JUMPDEST PUSH1 0x20 DUP3 ADD SWAP1 POP SWAP2 SWAP1 POP JUMP JUMPDEST PUSH0 PUSH1 0x20 DUP3 ADD SWAP1 POP DUP2 DUP2 SUB PUSH0 DUP4 ADD MSTORE PUSH2 0xCCE DUP2 PUSH2 0xC95 JUMP JUMPDEST SWAP1 POP SWAP2 SWAP1 POP JUMP JUMPDEST PUSH32 0x4E487B7100000000000000000000000000000000000000000000000000000000 PUSH0 MSTORE PUSH1 0x11 PUSH1 0x4 MSTORE PUSH1 0x24 PUSH0 REVERT JUMPDEST PUSH0 PUSH2 0xD0C DUP3 PUSH2 0xB80 JUMP JUMPDEST SWAP2 POP PUSH2 0xD17 DUP4 PUSH2 0xB80 JUMP JUMPDEST SWAP3 POP DUP3 DUP3 ADD SWAP1 POP DUP1 DUP3 GT ISZERO PUSH2 0xD2F JUMPI PUSH2 0xD2E PUSH2 0xCD5 JUMP JUMPDEST JUMPDEST SWAP3 SWAP2 POP POP JUMP JUMPDEST PUSH32 0x4E487B7100000000000000000000000000000000000000000000000000000000 PUSH0 MSTORE PUSH1 0x12 PUSH1 0x4 MSTORE PUSH1 0x24 PUSH0 REVERT JUMPDEST PUSH0 PUSH2 0xD6C DUP3 PUSH2 0xB80 JUMP JUMPDEST SWAP2 POP PUSH2 0xD77 DUP4 PUSH2 0xB80 JUMP JUMPDEST SWAP3 POP DUP3 PUSH2 0xD87 JUMPI PUSH2 0xD86 PUSH2 0xD35 JUMP JUMPDEST JUMPDEST DUP3 DUP3 MOD SWAP1 POP SWAP3 SWAP2 POP POP JUMP JUMPDEST PUSH32 0x4E487B7100000000000000000000000000000000000000000000000000000000 PUSH0 MSTORE PUSH1 0x32 PUSH1 0x4 MSTORE PUSH1 0x24 PUSH0 REVERT JUMPDEST PUSH32 0x416C6C206D656D62657273206861766520616C7265616479206265656E207061 PUSH0 DUP3 ADD MSTORE PUSH32 0x6964000000000000000000000000000000000000000000000000000000000000 PUSH1 0x20 DUP3 ADD MSTORE POP JUMP JUMPDEST PUSH0 PUSH2 0xE19 PUSH1 0x22 DUP4 PUSH2 0xB08 JUMP JUMPDEST SWAP2 POP PUSH2 0xE24 DUP3 PUSH2 0xDBF JUMP JUMPDEST PUSH1 0x40 DUP3 ADD SWAP1 POP SWAP2 SWAP1 POP JUMP JUMPDEST PUSH0 PUSH1 0x20 DUP3 ADD SWAP1 POP DUP2 DUP2 SUB PUSH0 DUP4 ADD MSTORE PUSH2 0xE46 DUP2 PUSH2 0xE0D JUMP JUMPDEST SWAP1 POP SWAP2 SWAP1 POP JUMP JUMPDEST PUSH32 0x4E6F2066756E647320746F206469737472696275746500000000000000000000 PUSH0 DUP3 ADD MSTORE POP JUMP JUMPDEST PUSH0 PUSH2 0xE81 PUSH1 0x16 DUP4 PUSH2 0xB08 JUMP JUMPDEST SWAP2 POP PUSH2 0xE8C DUP3 PUSH2 0xE4D JUMP JUMPDEST PUSH1 0x20 DUP3 ADD SWAP1 POP SWAP2 SWAP1 POP JUMP JUMPDEST PUSH0 PUSH1 0x20 DUP3 ADD SWAP1 POP DUP2 DUP2 SUB PUSH0 DUP4 ADD MSTORE PUSH2 0xEAE DUP2 PUSH2 0xE75 JUMP JUMPDEST SWAP1 POP SWAP2 SWAP1 POP JUMP JUMPDEST PUSH0 DUP2 SWAP1 POP SWAP3 SWAP2 POP POP JUMP JUMPDEST POP JUMP JUMPDEST PUSH0 PUSH2 0xECD PUSH0 DUP4 PUSH2 0xEB5 JUMP JUMPDEST SWAP2 POP PUSH2 0xED8 DUP3 PUSH2 0xEBF JUMP JUMPDEST PUSH0 DUP3 ADD SWAP1 POP SWAP2 SWAP1 POP JUMP JUMPDEST PUSH0 PUSH2 0xEEC DUP3 PUSH2 0xEC2 JUMP JUMPDEST SWAP2 POP DUP2 SWAP1 POP SWAP2 SWAP1 POP JUMP JUMPDEST PUSH32 0x5472616E73666572206661696C65640000000000000000000000000000000000 PUSH0 DUP3 ADD MSTORE POP JUMP JUMPDEST PUSH0 PUSH2 0xF2A PUSH1 0xF DUP4 PUSH2 0xB08 JUMP JUMPDEST SWAP2 POP PUSH2 0xF35 DUP3 PUSH2 0xEF6 JUMP JUMPDEST PUSH1 0x20 DUP3 ADD SWAP1 POP SWAP2 SWAP1 POP JUMP JUMPDEST PUSH0 PUSH1 0x20 DUP3 ADD SWAP1 POP DUP2 DUP2 SUB PUSH0 DUP4 ADD MSTORE PUSH2 0xF57 DUP2 PUSH2 0xF1E JUMP JUMPDEST SWAP1 POP SWAP2 SWAP1 POP JUMP JUMPDEST PUSH0 PUSH2 0xF68 DUP3 PUSH2 0xB80 JUMP JUMPDEST SWAP2 POP PUSH2 0xF73 DUP4 PUSH2 0xB80 JUMP JUMPDEST SWAP3 POP DUP3 DUP3 MUL PUSH2 0xF81 DUP2 PUSH2 0xB80 JUMP JUMPDEST SWAP2 POP DUP3 DUP3 DIV DUP5 EQ DUP4 ISZERO OR PUSH2 0xF98 JUMPI PUSH2 0xF97 PUSH2 0xCD5 JUMP JUMPDEST JUMPDEST POP SWAP3 SWAP2 POP POP JUMP JUMPDEST PUSH32 0x45766572796F6E6520686173206265656E2070616964206F7574206F6E63652C PUSH0 DUP3 ADD MSTORE PUSH32 0x206566666563746976656C7920656E64696E67207468652054616E64612E2054 PUSH1 0x20 DUP3 ADD MSTORE PUSH32 0x68616E6B20796F7520666F722070617274696369706174696E67212052657374 PUSH1 0x40 DUP3 ADD MSTORE PUSH32 0x6172742061206E65772061677265656D656E7420696620796F752764206C696B PUSH1 0x60 DUP3 ADD MSTORE PUSH32 0x6520746F20636F6E74696E7565207769746820746869732054616E64612E0000 PUSH1 0x80 DUP3 ADD MSTORE POP JUMP JUMPDEST PUSH0 PUSH2 0x106B PUSH1 0x9E DUP4 PUSH2 0xB08 JUMP JUMPDEST SWAP2 POP PUSH2 0x1076 DUP3 PUSH2 0xF9F JUMP JUMPDEST PUSH1 0xA0 DUP3 ADD SWAP1 POP SWAP2 SWAP1 POP JUMP JUMPDEST PUSH0 PUSH1 0x20 DUP3 ADD SWAP1 POP DUP2 DUP2 SUB PUSH0 DUP4 ADD MSTORE PUSH2 0x1098 DUP2 PUSH2 0x105F JUMP JUMPDEST SWAP1 POP SWAP2 SWAP1 POP JUMP JUMPDEST PUSH32 0x416C726561647920636F6E74726962757465642074686973206379636C650000 PUSH0 DUP3 ADD MSTORE POP JUMP JUMPDEST PUSH0 PUSH2 0x10D3 PUSH1 0x1E DUP4 PUSH2 0xB08 JUMP JUMPDEST SWAP2 POP PUSH2 0x10DE DUP3 PUSH2 0x109F JUMP JUMPDEST PUSH1 0x20 DUP3 ADD SWAP1 POP SWAP2 SWAP1 POP JUMP JUMPDEST PUSH0 PUSH1 0x20 DUP3 ADD SWAP1 POP DUP2 DUP2 SUB PUSH0 DUP4 ADD MSTORE PUSH2 0x1100 DUP2 PUSH2 0x10C7 JUMP JUMPDEST SWAP1 POP SWAP2 SWAP1 POP JUMP JUMPDEST PUSH32 0x496E636F727265637420636F6E747269627574696F6E20616D6F756E74000000 PUSH0 DUP3 ADD MSTORE POP JUMP JUMPDEST PUSH0 PUSH2 0x113B PUSH1 0x1D DUP4 PUSH2 0xB08 JUMP JUMPDEST SWAP2 POP PUSH2 0x1146 DUP3 PUSH2 0x1107 JUMP JUMPDEST PUSH1 0x20 DUP3 ADD SWAP1 POP SWAP2 SWAP1 POP JUMP JUMPDEST PUSH0 PUSH1 0x20 DUP3 ADD SWAP1 POP DUP2 DUP2 SUB PUSH0 DUP4 ADD MSTORE PUSH2 0x1168 DUP2 PUSH2 0x112F JUMP JUMPDEST SWAP1 POP SWAP2 SWAP1 POP JUMP JUMPDEST PUSH32 0x45766572796F6E6520686173206265656E2070616964206F7574206F6E63652E PUSH0 DUP3 ADD MSTORE PUSH32 0x205468616E6B20796F7520666F722070617274696369706174696E6721205265 PUSH1 0x20 DUP3 ADD MSTORE PUSH32 0x73746172742061206E65772061677265656D656E7420696620796F752764206C PUSH1 0x40 DUP3 ADD MSTORE PUSH32 0x696B6520746F20636F6E74696E7565207769746820746869732054616E64612E PUSH1 0x60 DUP3 ADD MSTORE POP JUMP JUMPDEST PUSH0 PUSH2 0x1215 PUSH1 0x80 DUP4 PUSH2 0xB08 JUMP JUMPDEST SWAP2 POP PUSH2 0x1220 DUP3 PUSH2 0x116F JUMP JUMPDEST PUSH1 0x80 DUP3 ADD SWAP1 POP SWAP2 SWAP1 POP JUMP JUMPDEST PUSH0 PUSH1 0x20 DUP3 ADD SWAP1 POP DUP2 DUP2 SUB PUSH0 DUP4 ADD MSTORE PUSH2 0x1242 DUP2 PUSH2 0x1209 JUMP JUMPDEST SWAP1 POP SWAP2 SWAP1 POP JUMP JUMPDEST PUSH32 0x436F6E747269627574696F6E2077696E646F7720666F72207468697320637963 PUSH0 DUP3 ADD MSTORE PUSH32 0x6C6520697320636C6F7365640000000000000000000000000000000000000000 PUSH1 0x20 DUP3 ADD MSTORE POP JUMP JUMPDEST PUSH0 PUSH2 0x12A3 PUSH1 0x2C DUP4 PUSH2 0xB08 JUMP JUMPDEST SWAP2 POP PUSH2 0x12AE DUP3 PUSH2 0x1249 JUMP JUMPDEST PUSH1 0x40 DUP3 ADD SWAP1 POP SWAP2 SWAP1 POP JUMP JUMPDEST PUSH0 PUSH1 0x20 DUP3 ADD SWAP1 POP DUP2 DUP2 SUB PUSH0 DUP4 ADD MSTORE PUSH2 0x12D0 DUP2 PUSH2 0x1297 JUMP JUMPDEST SWAP1 POP SWAP2 SWAP1 POP JUMP JUMPDEST PUSH32 0x43616E6E6F742066696E616C697A65206379636C6520756E74696C2061677265 PUSH0 DUP3 ADD MSTORE PUSH32 0x656420646973747269627574696F6E20696E74657276616C2074696D65206861 PUSH1 0x20 DUP3 ADD MSTORE PUSH32 0x7320706173736564000000000000000000000000000000000000000000000000 PUSH1 0x40 DUP3 ADD MSTORE POP JUMP JUMPDEST PUSH0 PUSH2 0x1357 PUSH1 0x48 DUP4 PUSH2 0xB08 JUMP JUMPDEST SWAP2 POP PUSH2 0x1362 DUP3 PUSH2 0x12D7 JUMP JUMPDEST PUSH1 0x60 DUP3 ADD SWAP1 POP SWAP2 SWAP1 POP JUMP JUMPDEST PUSH0 PUSH1 0x20 DUP3 ADD SWAP1 POP DUP2 DUP2 SUB PUSH0 DUP4 ADD MSTORE PUSH2 0x1384 DUP2 PUSH2 0x134B JUMP JUMPDEST SWAP1 POP SWAP2 SWAP1 POP JUMP INVALID LOG2 PUSH5 0x6970667358 0x22 SLT KECCAK256 0xAD STOP TLOAD PUSH6 0x841A63B07820 PUSH24 0xA0D6672473B795554AD4DE0BD134A34AA15D97099A64736F PUSH13 0x634300081A0033000000000000 "
		},
		"gasEstimates": {
			"creation": {
				"codeDepositCost": "1011400",
				"executionCost": "infinite",
				"totalCost": "infinite"
			},
			"external": {
				"allPaidOut()": "infinite",
				"confirmContributionAmount()": "infinite",
				"confirmWhoHasContributed(address)": "infinite",
				"contribute()": "infinite",
				"finalizeCycle()": "infinite",
				"triggerDistribution()": "infinite"
			},
			"internal": {
				"isMember(address)": "infinite"
			}
		},
		"methodIdentifiers": {
			"allPaidOut()": "c74e7261",
			"confirmContributionAmount()": "0b6dd8a8",
			"confirmWhoHasContributed(address)": "edf91178",
			"contribute()": "d7bb99ba",
			"finalizeCycle()": "ec33d2a0",
			"triggerDistribution()": "35cd4b46"
		}
	},
	"abi": [
		{
			"inputs": [
				{
					"internalType": "uint256",
					"name": "_numMembers",
					"type": "uint256"
				},
				{
					"internalType": "uint256",
					"name": "_contributionFrequencyInWeeks",
					"type": "uint256"
				},
				{
					"internalType": "uint256",
					"name": "_distributionIntervalInWeeks",
					"type": "uint256"
				},
				{
					"internalType": "uint256",
					"name": "_contributionAmountInWei",
					"type": "uint256"
				},
				{
					"internalType": "address[]",
					"name": "_members",
					"type": "address[]"
				}
			],
			"stateMutability": "nonpayable",
			"type": "constructor"
		},
		{
			"inputs": [],
			"name": "allPaidOut",
			"outputs": [
				{
					"internalType": "bool",
					"name": "",
					"type": "bool"
				}
			],
			"stateMutability": "view",
			"type": "function"
		},
		{
			"inputs": [],
			"name": "confirmContributionAmount",
			"outputs": [
				{
					"internalType": "uint256",
					"name": "",
					"type": "uint256"
				}
			],
			"stateMutability": "view",
			"type": "function"
		},
		{
			"inputs": [
				{
					"internalType": "address",
					"name": "member_address",
					"type": "address"
				}
			],
			"name": "confirmWhoHasContributed",
			"outputs": [
				{
					"internalType": "bool",
					"name": "",
					"type": "bool"
				}
			],
			"stateMutability": "view",
			"type": "function"
		},
		{
			"inputs": [],
			"name": "contribute",
			"outputs": [],
			"stateMutability": "payable",
			"type": "function"
		},
		{
			"inputs": [],
			"name": "finalizeCycle",
			"outputs": [],
			"stateMutability": "nonpayable",
			"type": "function"
		},
		{
			"inputs": [],
			"name": "triggerDistribution",
			"outputs": [],
			"stateMutability": "nonpayable",
			"type": "function"
		},
		{
			"stateMutability": "payable",
			"type": "receive"
		}
	]
}